=== GRAB TRAFFIC REPORT ===
Generated on: Mon Mar 30 11:33:34 UTC 2026
---------------------------
Frame 1: 80 bytes on wire (640 bits), 80 bytes captured (640 bits)
    Encapsulation type: Linux cooked-mode capture v2 (210)
    Arrival Time: Mar 30, 2026 11:33:28.305048000 UTC
    UTC Arrival Time: Mar 30, 2026 11:33:28.305048000 UTC
    Epoch Arrival Time: 1774870408.305048000
    [Time shift for this packet: 0.000000000 seconds]
    [Time delta from previous captured frame: 0.000000000 seconds]
    [Time delta from previous displayed frame: 0.000000000 seconds]
    [Time since reference or first frame: 0.000000000 seconds]
    Frame Number: 1
    Frame Length: 80 bytes (640 bits)
    Capture Length: 80 bytes (640 bits)
    [Frame is marked: False]
    [Frame is ignored: False]
    [Protocols in frame: sll:ethertype:ip:tcp]
Linux cooked capture v2
    Protocol: IPv4 (0x0800)
    Interface index: 2
    Link-layer address type: Ethernet (1)
    Packet type: Sent by us (4)
    Link-layer address length: 6
    Source: Microsoft_06:77:9c (60:45:bd:06:77:9c)
    Unused: 0000
Internet Protocol Version 4, Src: 10.1.0.245, Dst: 52.76.249.85
    0100 .... = Version: 4
    .... 0101 = Header Length: 20 bytes (5)
    Differentiated Services Field: 0x00 (DSCP: CS0, ECN: Not-ECT)
        0000 00.. = Differentiated Services Codepoint: Default (0)
        .... ..00 = Explicit Congestion Notification: Not ECN-Capable Transport (0)
    Total Length: 60
    Identification: 0x17bf (6079)
    010. .... = Flags: 0x2, Don't fragment
        0... .... = Reserved bit: Not set
        .1.. .... = Don't fragment: Set
        ..0. .... = More fragments: Not set
    ...0 0000 0000 0000 = Fragment Offset: 0
    Time to Live: 64
    Protocol: TCP (6)
    Header Checksum: 0xea65 [validation disabled]
    [Header checksum status: Unverified]
    Source Address: 10.1.0.245
    Destination Address: 52.76.249.85
Transmission Control Protocol, Src Port: 55316, Dst Port: 443, Seq: 0, Len: 0
    Source Port: 55316
    Destination Port: 443
    [Stream index: 0]
    [Conversation completeness: Incomplete (0)]
        ..0. .... = RST: Absent
        ...0 .... = FIN: Absent
        .... 0... = Data: Absent
        .... .0.. = ACK: Absent
        .... ..0. = SYN-ACK: Absent
        .... ...0 = SYN: Absent
        [Completeness Flags: [ Null ]]
    [TCP Segment Len: 0]
    Sequence Number: 0    (relative sequence number)
    Sequence Number (raw): 1168008122
    [Next Sequence Number: 1    (relative sequence number)]
    Acknowledgment Number: 0
    Acknowledgment number (raw): 0
    1010 .... = Header Length: 40 bytes (10)
    Flags: 0x002 (SYN)
        000. .... .... = Reserved: Not set
        ...0 .... .... = Accurate ECN: Not set
        .... 0... .... = Congestion Window Reduced: Not set
        .... .0.. .... = ECN-Echo: Not set
        .... ..0. .... = Urgent: Not set
        .... ...0 .... = Acknowledgment: Not set
        .... .... 0... = Push: Not set
        .... .... .0.. = Reset: Not set
        .... .... ..1. = Syn: Set
            [Expert Info (Chat/Sequence): Connection establish request (SYN): server port 443]
                [Connection establish request (SYN): server port 443]
                [Severity level: Chat]
                [Group: Sequence]
        .... .... ...0 = Fin: Not set
        [TCP Flags: ··········S·]
    Window: 64240
    [Calculated window size: 64240]
    Checksum: 0x38c6 [unverified]
    [Checksum Status: Unverified]
    Urgent Pointer: 0
    Options: (20 bytes), Maximum segment size, SACK permitted, Timestamps, No-Operation (NOP), Window scale
        TCP Option - Maximum segment size: 1460 bytes
            Kind: Maximum Segment Size (2)
            Length: 4
            MSS Value: 1460
        TCP Option - SACK permitted
            Kind: SACK Permitted (4)
            Length: 2
        TCP Option - Timestamps
            Kind: Time Stamp Option (8)
            Length: 10
            Timestamp value: 3323542846: TSval 3323542846, TSecr 0
            Timestamp echo reply: 0
        TCP Option - No-Operation (NOP)
            Kind: No-Operation (1)
        TCP Option - Window scale: 10 (multiply by 1024)
            Kind: Window Scale (3)
            Length: 3
            Shift count: 10
            [Multiplier: 1024]
    [Timestamps]
        [Time since first frame in this TCP stream: 0.000000000 seconds]
        [Time since previous frame in this TCP stream: 0.000000000 seconds]

0000  08 00 00 00 00 00 00 02 00 01 04 06 60 45 bd 06   ............`E..
0010  77 9c 00 00 45 00 00 3c 17 bf 40 00 40 06 ea 65   w...E..<..@.@..e
0020  0a 01 00 f5 34 4c f9 55 d8 14 01 bb 45 9e 63 ba   ....4L.U....E.c.
0030  00 00 00 00 a0 02 fa f0 38 c6 00 00 02 04 05 b4   ........8.......
0040  04 02 08 0a c6 19 3d 3e 00 00 00 00 01 03 03 0a   ......=>........

Frame 2: 80 bytes on wire (640 bits), 80 bytes captured (640 bits)
    Encapsulation type: Linux cooked-mode capture v2 (210)
    Arrival Time: Mar 30, 2026 11:33:28.305051000 UTC
    UTC Arrival Time: Mar 30, 2026 11:33:28.305051000 UTC
    Epoch Arrival Time: 1774870408.305051000
    [Time shift for this packet: 0.000000000 seconds]
    [Time delta from previous captured frame: 0.000003000 seconds]
    [Time delta from previous displayed frame: 0.000003000 seconds]
    [Time since reference or first frame: 0.000003000 seconds]
    Frame Number: 2
    Frame Length: 80 bytes (640 bits)
    Capture Length: 80 bytes (640 bits)
    [Frame is marked: False]
    [Frame is ignored: False]
    [Protocols in frame: sll:ethertype:ip:tcp]
Linux cooked capture v2
    Protocol: IPv4 (0x0800)
    Interface index: 4
    Link-layer address type: Ethernet (1)
    Packet type: Sent by us (4)
    Link-layer address length: 6
    Source: Microsoft_06:77:9c (60:45:bd:06:77:9c)
    Unused: 0000
Internet Protocol Version 4, Src: 10.1.0.245, Dst: 52.76.249.85
    0100 .... = Version: 4
    .... 0101 = Header Length: 20 bytes (5)
    Differentiated Services Field: 0x00 (DSCP: CS0, ECN: Not-ECT)
        0000 00.. = Differentiated Services Codepoint: Default (0)
        .... ..00 = Explicit Congestion Notification: Not ECN-Capable Transport (0)
    Total Length: 60
    Identification: 0x17bf (6079)
    010. .... = Flags: 0x2, Don't fragment
        0... .... = Reserved bit: Not set
        .1.. .... = Don't fragment: Set
        ..0. .... = More fragments: Not set
    ...0 0000 0000 0000 = Fragment Offset: 0
    Time to Live: 64
    Protocol: TCP (6)
    Header Checksum: 0xea65 [validation disabled]
    [Header checksum status: Unverified]
    Source Address: 10.1.0.245
    Destination Address: 52.76.249.85
Transmission Control Protocol, Src Port: 55316, Dst Port: 443, Seq: 0, Len: 0
    Source Port: 55316
    Destination Port: 443
    [Stream index: 0]
    [Conversation completeness: Incomplete, SYN_SENT (1)]
        ..0. .... = RST: Absent
        ...0 .... = FIN: Absent
        .... 0... = Data: Absent
        .... .0.. = ACK: Absent
        .... ..0. = SYN-ACK: Absent
        .... ...1 = SYN: Present
        [Completeness Flags: ·····S]
    [TCP Segment Len: 0]
    Sequence Number: 0    (relative sequence number)
    Sequence Number (raw): 1168008122
    [Next Sequence Number: 1    (relative sequence number)]
    Acknowledgment Number: 0
    Acknowledgment number (raw): 0
    1010 .... = Header Length: 40 bytes (10)
    Flags: 0x002 (SYN)
        000. .... .... = Reserved: Not set
        ...0 .... .... = Accurate ECN: Not set
        .... 0... .... = Congestion Window Reduced: Not set
        .... .0.. .... = ECN-Echo: Not set
        .... ..0. .... = Urgent: Not set
        .... ...0 .... = Acknowledgment: Not set
        .... .... 0... = Push: Not set
        .... .... .0.. = Reset: Not set
        .... .... ..1. = Syn: Set
            [Expert Info (Chat/Sequence): Connection establish request (SYN): server port 443]
                [Connection establish request (SYN): server port 443]
                [Severity level: Chat]
                [Group: Sequence]
        .... .... ...0 = Fin: Not set
        [TCP Flags: ··········S·]
    Window: 64240
    [Calculated window size: 64240]
    Checksum: 0x38c6 [unverified]
    [Checksum Status: Unverified]
    Urgent Pointer: 0
    Options: (20 bytes), Maximum segment size, SACK permitted, Timestamps, No-Operation (NOP), Window scale
        TCP Option - Maximum segment size: 1460 bytes
            Kind: Maximum Segment Size (2)
            Length: 4
            MSS Value: 1460
        TCP Option - SACK permitted
            Kind: SACK Permitted (4)
            Length: 2
        TCP Option - Timestamps
            Kind: Time Stamp Option (8)
            Length: 10
            Timestamp value: 3323542846: TSval 3323542846, TSecr 0
            Timestamp echo reply: 0
        TCP Option - No-Operation (NOP)
            Kind: No-Operation (1)
        TCP Option - Window scale: 10 (multiply by 1024)
            Kind: Window Scale (3)
            Length: 3
            Shift count: 10
            [Multiplier: 1024]
    [Timestamps]
        [Time since first frame in this TCP stream: 0.000003000 seconds]
        [Time since previous frame in this TCP stream: 0.000003000 seconds]
    [SEQ/ACK analysis]
        [TCP Analysis Flags]
            [Expert Info (Note/Sequence): This frame is a (suspected) retransmission]
                [This frame is a (suspected) retransmission]
                [Severity level: Note]
                [Group: Sequence]
            [The RTO for this segment was: 0.000003000 seconds]
            [RTO based on delta from frame: 1]

0000  08 00 00 00 00 00 00 04 00 01 04 06 60 45 bd 06   ............`E..
0010  77 9c 00 00 45 00 00 3c 17 bf 40 00 40 06 ea 65   w...E..<..@.@..e
0020  0a 01 00 f5 34 4c f9 55 d8 14 01 bb 45 9e 63 ba   ....4L.U....E.c.
0030  00 00 00 00 a0 02 fa f0 38 c6 00 00 02 04 05 b4   ........8.......
0040  04 02 08 0a c6 19 3d 3e 00 00 00 00 01 03 03 0a   ......=>........

Frame 3: 80 bytes on wire (640 bits), 80 bytes captured (640 bits)
    Encapsulation type: Linux cooked-mode capture v2 (210)
    Arrival Time: Mar 30, 2026 11:33:28.473342000 UTC
    UTC Arrival Time: Mar 30, 2026 11:33:28.473342000 UTC
    Epoch Arrival Time: 1774870408.473342000
    [Time shift for this packet: 0.000000000 seconds]
    [Time delta from previous captured frame: 0.168291000 seconds]
    [Time delta from previous displayed frame: 0.168291000 seconds]
    [Time since reference or first frame: 0.168294000 seconds]
    Frame Number: 3
    Frame Length: 80 bytes (640 bits)
    Capture Length: 80 bytes (640 bits)
    [Frame is marked: False]
    [Frame is ignored: False]
    [Protocols in frame: sll:ethertype:ip:tcp]
Linux cooked capture v2
    Protocol: IPv4 (0x0800)
    Interface index: 2
    Link-layer address type: Ethernet (1)
    Packet type: Unicast to us (0)
    Link-layer address length: 6
    Source: 12:34:56:78:9a:bc (12:34:56:78:9a:bc)
    Unused: 0000
Internet Protocol Version 4, Src: 52.76.249.85, Dst: 10.1.0.245
    0100 .... = Version: 4
    .... 0101 = Header Length: 20 bytes (5)
    Differentiated Services Field: 0x00 (DSCP: CS0, ECN: Not-ECT)
        0000 00.. = Differentiated Services Codepoint: Default (0)
        .... ..00 = Explicit Congestion Notification: Not ECN-Capable Transport (0)
    Total Length: 60
    Identification: 0x0000 (0)
    010. .... = Flags: 0x2, Don't fragment
        0... .... = Reserved bit: Not set
        .1.. .... = Don't fragment: Set
        ..0. .... = More fragments: Not set
    ...0 0000 0000 0000 = Fragment Offset: 0
    Time to Live: 239
    Protocol: TCP (6)
    Header Checksum: 0x5324 [validation disabled]
    [Header checksum status: Unverified]
    Source Address: 52.76.249.85
    Destination Address: 10.1.0.245
Transmission Control Protocol, Src Port: 443, Dst Port: 55316, Seq: 0, Ack: 1, Len: 0
    Source Port: 443
    Destination Port: 55316
    [Stream index: 0]
    [Conversation completeness: Incomplete, SYN_SENT (1)]
        ..0. .... = RST: Absent
        ...0 .... = FIN: Absent
        .... 0... = Data: Absent
        .... .0.. = ACK: Absent
        .... ..0. = SYN-ACK: Absent
        .... ...1 = SYN: Present
        [Completeness Flags: ·····S]
    [TCP Segment Len: 0]
    Sequence Number: 0    (relative sequence number)
    Sequence Number (raw): 3408836271
    [Next Sequence Number: 1    (relative sequence number)]
    Acknowledgment Number: 1    (relative ack number)
    Acknowledgment number (raw): 1168008123
    1010 .... = Header Length: 40 bytes (10)
    Flags: 0x012 (SYN, ACK)
        000. .... .... = Reserved: Not set
        ...0 .... .... = Accurate ECN: Not set
        .... 0... .... = Congestion Window Reduced: Not set
        .... .0.. .... = ECN-Echo: Not set
        .... ..0. .... = Urgent: Not set
        .... ...1 .... = Acknowledgment: Set
        .... .... 0... = Push: Not set
        .... .... .0.. = Reset: Not set
        .... .... ..1. = Syn: Set
            [Expert Info (Chat/Sequence): Connection establish acknowledge (SYN+ACK): server port 443]
                [Connection establish acknowledge (SYN+ACK): server port 443]
                [Severity level: Chat]
                [Group: Sequence]
        .... .... ...0 = Fin: Not set
        [TCP Flags: ·······A··S·]
    Window: 26847
    [Calculated window size: 26847]
    Checksum: 0x79a8 [unverified]
    [Checksum Status: Unverified]
    Urgent Pointer: 0
    Options: (20 bytes), Maximum segment size, SACK permitted, Timestamps, No-Operation (NOP), Window scale
        TCP Option - Maximum segment size: 1460 bytes
            Kind: Maximum Segment Size (2)
            Length: 4
            MSS Value: 1460
        TCP Option - SACK permitted
            Kind: SACK Permitted (4)
            Length: 2
        TCP Option - Timestamps
            Kind: Time Stamp Option (8)
            Length: 10
            Timestamp value: 242619898: TSval 242619898, TSecr 3323542846
            Timestamp echo reply: 3323542846
        TCP Option - No-Operation (NOP)
            Kind: No-Operation (1)
        TCP Option - Window scale: 8 (multiply by 256)
            Kind: Window Scale (3)
            Length: 3
            Shift count: 8
            [Multiplier: 256]
    [Timestamps]
        [Time since first frame in this TCP stream: 0.168294000 seconds]
        [Time since previous frame in this TCP stream: 0.168291000 seconds]
    [SEQ/ACK analysis]
        [This is an ACK to the segment in frame: 1]
        [The RTT to ACK the segment was: 0.168294000 seconds]

0000  08 00 00 00 00 00 00 02 00 01 00 06 12 34 56 78   .............4Vx
0010  9a bc 00 00 45 00 00 3c 00 00 40 00 ef 06 53 24   ....E..<..@...S$
0020  34 4c f9 55 0a 01 00 f5 01 bb d8 14 cb 2e b6 af   4L.U............
0030  45 9e 63 bb a0 12 68 df 79 a8 00 00 02 04 05 b4   E.c...h.y.......
0040  04 02 08 0a 0e 76 15 fa c6 19 3d 3e 01 03 03 08   .....v....=>....

Frame 4: 72 bytes on wire (576 bits), 72 bytes captured (576 bits)
    Encapsulation type: Linux cooked-mode capture v2 (210)
    Arrival Time: Mar 30, 2026 11:33:28.473400000 UTC
    UTC Arrival Time: Mar 30, 2026 11:33:28.473400000 UTC
    Epoch Arrival Time: 1774870408.473400000
    [Time shift for this packet: 0.000000000 seconds]
    [Time delta from previous captured frame: 0.000058000 seconds]
    [Time delta from previous displayed frame: 0.000058000 seconds]
    [Time since reference or first frame: 0.168352000 seconds]
    Frame Number: 4
    Frame Length: 72 bytes (576 bits)
    Capture Length: 72 bytes (576 bits)
    [Frame is marked: False]
    [Frame is ignored: False]
    [Protocols in frame: sll:ethertype:ip:tcp]
Linux cooked capture v2
    Protocol: IPv4 (0x0800)
    Interface index: 2
    Link-layer address type: Ethernet (1)
    Packet type: Sent by us (4)
    Link-layer address length: 6
    Source: Microsoft_06:77:9c (60:45:bd:06:77:9c)
    Unused: 0000
Internet Protocol Version 4, Src: 10.1.0.245, Dst: 52.76.249.85
    0100 .... = Version: 4
    .... 0101 = Header Length: 20 bytes (5)
    Differentiated Services Field: 0x00 (DSCP: CS0, ECN: Not-ECT)
        0000 00.. = Differentiated Services Codepoint: Default (0)
        .... ..00 = Explicit Congestion Notification: Not ECN-Capable Transport (0)
    Total Length: 52
    Identification: 0x17c0 (6080)
    010. .... = Flags: 0x2, Don't fragment
        0... .... = Reserved bit: Not set
        .1.. .... = Don't fragment: Set
        ..0. .... = More fragments: Not set
    ...0 0000 0000 0000 = Fragment Offset: 0
    Time to Live: 64
    Protocol: TCP (6)
    Header Checksum: 0xea6c [validation disabled]
    [Header checksum status: Unverified]
    Source Address: 10.1.0.245
    Destination Address: 52.76.249.85
Transmission Control Protocol, Src Port: 55316, Dst Port: 443, Seq: 1, Ack: 1, Len: 0
    Source Port: 55316
    Destination Port: 443
    [Stream index: 0]
    [Conversation completeness: Incomplete, CLIENT_ESTABLISHED (3)]
        ..0. .... = RST: Absent
        ...0 .... = FIN: Absent
        .... 0... = Data: Absent
        .... .0.. = ACK: Absent
        .... ..1. = SYN-ACK: Present
        .... ...1 = SYN: Present
        [Completeness Flags: ····SS]
    [TCP Segment Len: 0]
    Sequence Number: 1    (relative sequence number)
    Sequence Number (raw): 1168008123
    [Next Sequence Number: 1    (relative sequence number)]
    Acknowledgment Number: 1    (relative ack number)
    Acknowledgment number (raw): 3408836272
    1000 .... = Header Length: 32 bytes (8)
    Flags: 0x010 (ACK)
        000. .... .... = Reserved: Not set
        ...0 .... .... = Accurate ECN: Not set
        .... 0... .... = Congestion Window Reduced: Not set
        .... .0.. .... = ECN-Echo: Not set
        .... ..0. .... = Urgent: Not set
        .... ...1 .... = Acknowledgment: Set
        .... .... 0... = Push: Not set
        .... .... .0.. = Reset: Not set
        .... .... ..0. = Syn: Not set
        .... .... ...0 = Fin: Not set
        [TCP Flags: ·······A····]
    Window: 63
    [Calculated window size: 64512]
    [Window size scaling factor: 1024]
    Checksum: 0x38be [unverified]
    [Checksum Status: Unverified]
    Urgent Pointer: 0
    Options: (12 bytes), No-Operation (NOP), No-Operation (NOP), Timestamps
        TCP Option - No-Operation (NOP)
            Kind: No-Operation (1)
        TCP Option - No-Operation (NOP)
            Kind: No-Operation (1)
        TCP Option - Timestamps
            Kind: Time Stamp Option (8)
            Length: 10
            Timestamp value: 3323543015: TSval 3323543015, TSecr 242619898
            Timestamp echo reply: 242619898
    [Timestamps]
        [Time since first frame in this TCP stream: 0.168352000 seconds]
        [Time since previous frame in this TCP stream: 0.000058000 seconds]
    [SEQ/ACK analysis]
        [This is an ACK to the segment in frame: 3]
        [The RTT to ACK the segment was: 0.000058000 seconds]
        [iRTT: 0.168349000 seconds]

0000  08 00 00 00 00 00 00 02 00 01 04 06 60 45 bd 06   ............`E..
0010  77 9c 00 00 45 00 00 34 17 c0 40 00 40 06 ea 6c   w...E..4..@.@..l
0020  0a 01 00 f5 34 4c f9 55 d8 14 01 bb 45 9e 63 bb   ....4L.U....E.c.
0030  cb 2e b6 b0 80 10 00 3f 38 be 00 00 01 01 08 0a   .......?8.......
0040  c6 19 3d e7 0e 76 15 fa                           ..=..v..

Frame 5: 72 bytes on wire (576 bits), 72 bytes captured (576 bits)
    Encapsulation type: Linux cooked-mode capture v2 (210)
    Arrival Time: Mar 30, 2026 11:33:28.473403000 UTC
    UTC Arrival Time: Mar 30, 2026 11:33:28.473403000 UTC
    Epoch Arrival Time: 1774870408.473403000
    [Time shift for this packet: 0.000000000 seconds]
    [Time delta from previous captured frame: 0.000003000 seconds]
    [Time delta from previous displayed frame: 0.000003000 seconds]
    [Time since reference or first frame: 0.168355000 seconds]
    Frame Number: 5
    Frame Length: 72 bytes (576 bits)
    Capture Length: 72 bytes (576 bits)
    [Frame is marked: False]
    [Frame is ignored: False]
    [Protocols in frame: sll:ethertype:ip:tcp]
Linux cooked capture v2
    Protocol: IPv4 (0x0800)
    Interface index: 4
    Link-layer address type: Ethernet (1)
    Packet type: Sent by us (4)
    Link-layer address length: 6
    Source: Microsoft_06:77:9c (60:45:bd:06:77:9c)
    Unused: 0000
Internet Protocol Version 4, Src: 10.1.0.245, Dst: 52.76.249.85
    0100 .... = Version: 4
    .... 0101 = Header Length: 20 bytes (5)
    Differentiated Services Field: 0x00 (DSCP: CS0, ECN: Not-ECT)
        0000 00.. = Differentiated Services Codepoint: Default (0)
        .... ..00 = Explicit Congestion Notification: Not ECN-Capable Transport (0)
    Total Length: 52
    Identification: 0x17c0 (6080)
    010. .... = Flags: 0x2, Don't fragment
        0... .... = Reserved bit: Not set
        .1.. .... = Don't fragment: Set
        ..0. .... = More fragments: Not set
    ...0 0000 0000 0000 = Fragment Offset: 0
    Time to Live: 64
    Protocol: TCP (6)
    Header Checksum: 0xea6c [validation disabled]
    [Header checksum status: Unverified]
    Source Address: 10.1.0.245
    Destination Address: 52.76.249.85
Transmission Control Protocol, Src Port: 55316, Dst Port: 443, Seq: 1, Ack: 1, Len: 0
    Source Port: 55316
    Destination Port: 443
    [Stream index: 0]
    [Conversation completeness: Incomplete, ESTABLISHED (7)]
        ..0. .... = RST: Absent
        ...0 .... = FIN: Absent
        .... 0... = Data: Absent
        .... .1.. = ACK: Present
        .... ..1. = SYN-ACK: Present
        .... ...1 = SYN: Present
        [Completeness Flags: ···ASS]
    [TCP Segment Len: 0]
    Sequence Number: 1    (relative sequence number)
    Sequence Number (raw): 1168008123
    [Next Sequence Number: 1    (relative sequence number)]
    Acknowledgment Number: 1    (relative ack number)
    Acknowledgment number (raw): 3408836272
    1000 .... = Header Length: 32 bytes (8)
    Flags: 0x010 (ACK)
        000. .... .... = Reserved: Not set
        ...0 .... .... = Accurate ECN: Not set
        .... 0... .... = Congestion Window Reduced: Not set
        .... .0.. .... = ECN-Echo: Not set
        .... ..0. .... = Urgent: Not set
        .... ...1 .... = Acknowledgment: Set
        .... .... 0... = Push: Not set
        .... .... .0.. = Reset: Not set
        .... .... ..0. = Syn: Not set
        .... .... ...0 = Fin: Not set
        [TCP Flags: ·······A····]
    Window: 63
    [Calculated window size: 64512]
    [Window size scaling factor: 1024]
    Checksum: 0x38be [unverified]
    [Checksum Status: Unverified]
    Urgent Pointer: 0
    Options: (12 bytes), No-Operation (NOP), No-Operation (NOP), Timestamps
        TCP Option - No-Operation (NOP)
            Kind: No-Operation (1)
        TCP Option - No-Operation (NOP)
            Kind: No-Operation (1)
        TCP Option - Timestamps
            Kind: Time Stamp Option (8)
            Length: 10
            Timestamp value: 3323543015: TSval 3323543015, TSecr 242619898
            Timestamp echo reply: 242619898
    [Timestamps]
        [Time since first frame in this TCP stream: 0.168355000 seconds]
        [Time since previous frame in this TCP stream: 0.000003000 seconds]
    [SEQ/ACK analysis]
        [iRTT: 0.168349000 seconds]
        [TCP Analysis Flags]
            [This is a TCP duplicate ack]
        [Duplicate ACK #: 1]
        [Duplicate to the ACK in frame: 4]
            [Expert Info (Note/Sequence): Duplicate ACK (#1)]
                [Duplicate ACK (#1)]
                [Severity level: Note]
                [Group: Sequence]

0000  08 00 00 00 00 00 00 04 00 01 04 06 60 45 bd 06   ............`E..
0010  77 9c 00 00 45 00 00 34 17 c0 40 00 40 06 ea 6c   w...E..4..@.@..l
0020  0a 01 00 f5 34 4c f9 55 d8 14 01 bb 45 9e 63 bb   ....4L.U....E.c.
0030  cb 2e b6 b0 80 10 00 3f 38 be 00 00 01 01 08 0a   .......?8.......
0040  c6 19 3d e7 0e 76 15 fa                           ..=..v..

Frame 6: 589 bytes on wire (4712 bits), 589 bytes captured (4712 bits)
    Encapsulation type: Linux cooked-mode capture v2 (210)
    Arrival Time: Mar 30, 2026 11:33:28.495493000 UTC
    UTC Arrival Time: Mar 30, 2026 11:33:28.495493000 UTC
    Epoch Arrival Time: 1774870408.495493000
    [Time shift for this packet: 0.000000000 seconds]
    [Time delta from previous captured frame: 0.022090000 seconds]
    [Time delta from previous displayed frame: 0.022090000 seconds]
    [Time since reference or first frame: 0.190445000 seconds]
    Frame Number: 6
    Frame Length: 589 bytes (4712 bits)
    Capture Length: 589 bytes (4712 bits)
    [Frame is marked: False]
    [Frame is ignored: False]
    [Protocols in frame: sll:ethertype:ip:tcp:tls]
Linux cooked capture v2
    Protocol: IPv4 (0x0800)
    Interface index: 2
    Link-layer address type: Ethernet (1)
    Packet type: Sent by us (4)
    Link-layer address length: 6
    Source: Microsoft_06:77:9c (60:45:bd:06:77:9c)
    Unused: 0000
Internet Protocol Version 4, Src: 10.1.0.245, Dst: 52.76.249.85
    0100 .... = Version: 4
    .... 0101 = Header Length: 20 bytes (5)
    Differentiated Services Field: 0x00 (DSCP: CS0, ECN: Not-ECT)
        0000 00.. = Differentiated Services Codepoint: Default (0)
        .... ..00 = Explicit Congestion Notification: Not ECN-Capable Transport (0)
    Total Length: 569
    Identification: 0x17c1 (6081)
    010. .... = Flags: 0x2, Don't fragment
        0... .... = Reserved bit: Not set
        .1.. .... = Don't fragment: Set
        ..0. .... = More fragments: Not set
    ...0 0000 0000 0000 = Fragment Offset: 0
    Time to Live: 64
    Protocol: TCP (6)
    Header Checksum: 0xe866 [validation disabled]
    [Header checksum status: Unverified]
    Source Address: 10.1.0.245
    Destination Address: 52.76.249.85
Transmission Control Protocol, Src Port: 55316, Dst Port: 443, Seq: 1, Ack: 1, Len: 517
    Source Port: 55316
    Destination Port: 443
    [Stream index: 0]
    [Conversation completeness: Incomplete, ESTABLISHED (7)]
        ..0. .... = RST: Absent
        ...0 .... = FIN: Absent
        .... 0... = Data: Absent
        .... .1.. = ACK: Present
        .... ..1. = SYN-ACK: Present
        .... ...1 = SYN: Present
        [Completeness Flags: ···ASS]
    [TCP Segment Len: 517]
    Sequence Number: 1    (relative sequence number)
    Sequence Number (raw): 1168008123
    [Next Sequence Number: 518    (relative sequence number)]
    Acknowledgment Number: 1    (relative ack number)
    Acknowledgment number (raw): 3408836272
    1000 .... = Header Length: 32 bytes (8)
    Flags: 0x018 (PSH, ACK)
        000. .... .... = Reserved: Not set
        ...0 .... .... = Accurate ECN: Not set
        .... 0... .... = Congestion Window Reduced: Not set
        .... .0.. .... = ECN-Echo: Not set
        .... ..0. .... = Urgent: Not set
        .... ...1 .... = Acknowledgment: Set
        .... .... 1... = Push: Set
        .... .... .0.. = Reset: Not set
        .... .... ..0. = Syn: Not set
        .... .... ...0 = Fin: Not set
        [TCP Flags: ·······AP···]
    Window: 63
    [Calculated window size: 64512]
    [Window size scaling factor: 1024]
    Checksum: 0x3ac3 [unverified]
    [Checksum Status: Unverified]
    Urgent Pointer: 0
    Options: (12 bytes), No-Operation (NOP), No-Operation (NOP), Timestamps
        TCP Option - No-Operation (NOP)
            Kind: No-Operation (1)
        TCP Option - No-Operation (NOP)
            Kind: No-Operation (1)
        TCP Option - Timestamps
            Kind: Time Stamp Option (8)
            Length: 10
            Timestamp value: 3323543037: TSval 3323543037, TSecr 242619898
            Timestamp echo reply: 242619898
    [Timestamps]
        [Time since first frame in this TCP stream: 0.190445000 seconds]
        [Time since previous frame in this TCP stream: 0.022090000 seconds]
    [SEQ/ACK analysis]
        [iRTT: 0.168349000 seconds]
        [Bytes in flight: 517]
        [Bytes sent since last PSH flag: 517]
    TCP payload (517 bytes)
Transport Layer Security
    TLSv1 Record Layer: Handshake Protocol: Client Hello
        Content Type: Handshake (22)
        Version: TLS 1.0 (0x0301)
        Length: 512
        Handshake Protocol: Client Hello
            Handshake Type: Client Hello (1)
            Length: 508
            Version: TLS 1.2 (0x0303)
            Random: 2045975e7c47eac1027b56687d41885c98ffdf2a4a27ccfabf21196c2e5d905e
                GMT Unix Time: Feb 27, 1987 13:40:46.000000000 UTC
                Random Bytes: 7c47eac1027b56687d41885c98ffdf2a4a27ccfabf21196c2e5d905e
            Session ID Length: 32
            Session ID: 2b47632897502cab861152af6567d87a39e4171f67453abd474f86fe18eefc21
            Cipher Suites Length: 36
            Cipher Suites (18 suites)
                Cipher Suite: TLS_AES_256_GCM_SHA384 (0x1302)
                Cipher Suite: TLS_CHACHA20_POLY1305_SHA256 (0x1303)
                Cipher Suite: TLS_AES_128_GCM_SHA256 (0x1301)
                Cipher Suite: TLS_ECDHE_ECDSA_WITH_AES_256_GCM_SHA384 (0xc02c)
                Cipher Suite: TLS_ECDHE_RSA_WITH_AES_256_GCM_SHA384 (0xc030)
                Cipher Suite: TLS_ECDHE_ECDSA_WITH_AES_128_GCM_SHA256 (0xc02b)
                Cipher Suite: TLS_ECDHE_RSA_WITH_AES_128_GCM_SHA256 (0xc02f)
                Cipher Suite: TLS_ECDHE_ECDSA_WITH_CHACHA20_POLY1305_SHA256 (0xcca9)
                Cipher Suite: TLS_ECDHE_RSA_WITH_CHACHA20_POLY1305_SHA256 (0xcca8)
                Cipher Suite: TLS_ECDHE_ECDSA_WITH_AES_256_CBC_SHA384 (0xc024)
                Cipher Suite: TLS_ECDHE_RSA_WITH_AES_256_CBC_SHA384 (0xc028)
                Cipher Suite: TLS_ECDHE_ECDSA_WITH_AES_128_CBC_SHA256 (0xc023)
                Cipher Suite: TLS_ECDHE_RSA_WITH_AES_128_CBC_SHA256 (0xc027)
                Cipher Suite: TLS_DHE_RSA_WITH_AES_256_GCM_SHA384 (0x009f)
                Cipher Suite: TLS_DHE_RSA_WITH_AES_128_GCM_SHA256 (0x009e)
                Cipher Suite: TLS_DHE_RSA_WITH_AES_256_CBC_SHA256 (0x006b)
                Cipher Suite: TLS_DHE_RSA_WITH_AES_128_CBC_SHA256 (0x0067)
                Cipher Suite: TLS_EMPTY_RENEGOTIATION_INFO_SCSV (0x00ff)
            Compression Methods Length: 1
            Compression Methods (1 method)
                Compression Method: null (0)
            Extensions Length: 399
            Extension: server_name (len=29) name=mcd-gateway.grabtaxi.com
                Type: server_name (0)
                Length: 29
                Server Name Indication extension
                    Server Name list length: 27
                    Server Name Type: host_name (0)
                    Server Name length: 24
                    Server Name: mcd-gateway.grabtaxi.com
            Extension: ec_point_formats (len=4)
                Type: ec_point_formats (11)
                Length: 4
                EC point formats Length: 3
                Elliptic curves point formats (3)
                    EC point format: uncompressed (0)
                    EC point format: ansiX962_compressed_prime (1)
                    EC point format: ansiX962_compressed_char2 (2)
            Extension: supported_groups (len=22)
                Type: supported_groups (10)
                Length: 22
                Supported Groups List Length: 20
                Supported Groups (10 groups)
                    Supported Group: x25519 (0x001d)
                    Supported Group: secp256r1 (0x0017)
                    Supported Group: x448 (0x001e)
                    Supported Group: secp521r1 (0x0019)
                    Supported Group: secp384r1 (0x0018)
                    Supported Group: ffdhe2048 (0x0100)
                    Supported Group: ffdhe3072 (0x0101)
                    Supported Group: ffdhe4096 (0x0102)
                    Supported Group: ffdhe6144 (0x0103)
                    Supported Group: ffdhe8192 (0x0104)
            Extension: application_layer_protocol_negotiation (len=11)
                Type: application_layer_protocol_negotiation (16)
                Length: 11
                ALPN Extension Length: 9
                ALPN Protocol
                    ALPN string length: 8
                    ALPN Next Protocol: http/1.1
            Extension: encrypt_then_mac (len=0)
                Type: encrypt_then_mac (22)
                Length: 0
            Extension: extended_master_secret (len=0)
                Type: extended_master_secret (23)
                Length: 0
            Extension: post_handshake_auth (len=0)
                Type: post_handshake_auth (49)
                Length: 0
            Extension: signature_algorithms (len=42)
                Type: signature_algorithms (13)
                Length: 42
                Signature Hash Algorithms Length: 40
                Signature Hash Algorithms (20 algorithms)
                    Signature Algorithm: ecdsa_secp256r1_sha256 (0x0403)
                        Signature Hash Algorithm Hash: SHA256 (4)
                        Signature Hash Algorithm Signature: ECDSA (3)
                    Signature Algorithm: ecdsa_secp384r1_sha384 (0x0503)
                        Signature Hash Algorithm Hash: SHA384 (5)
                        Signature Hash Algorithm Signature: ECDSA (3)
                    Signature Algorithm: ecdsa_secp521r1_sha512 (0x0603)
                        Signature Hash Algorithm Hash: SHA512 (6)
                        Signature Hash Algorithm Signature: ECDSA (3)
                    Signature Algorithm: ed25519 (0x0807)
                        Signature Hash Algorithm Hash: Unknown (8)
                        Signature Hash Algorithm Signature: Unknown (7)
                    Signature Algorithm: ed448 (0x0808)
                        Signature Hash Algorithm Hash: Unknown (8)
                        Signature Hash Algorithm Signature: Unknown (8)
                    Signature Algorithm: rsa_pss_pss_sha256 (0x0809)
                        Signature Hash Algorithm Hash: Unknown (8)
                        Signature Hash Algorithm Signature: Unknown (9)
                    Signature Algorithm: rsa_pss_pss_sha384 (0x080a)
                        Signature Hash Algorithm Hash: Unknown (8)
                        Signature Hash Algorithm Signature: Unknown (10)
                    Signature Algorithm: rsa_pss_pss_sha512 (0x080b)
                        Signature Hash Algorithm Hash: Unknown (8)
                        Signature Hash Algorithm Signature: Unknown (11)
                    Signature Algorithm: rsa_pss_rsae_sha256 (0x0804)
                        Signature Hash Algorithm Hash: Unknown (8)
                        Signature Hash Algorithm Signature: SM2 (4)
                    Signature Algorithm: rsa_pss_rsae_sha384 (0x0805)
                        Signature Hash Algorithm Hash: Unknown (8)
                        Signature Hash Algorithm Signature: Unknown (5)
                    Signature Algorithm: rsa_pss_rsae_sha512 (0x0806)
                        Signature Hash Algorithm Hash: Unknown (8)
                        Signature Hash Algorithm Signature: Unknown (6)
                    Signature Algorithm: rsa_pkcs1_sha256 (0x0401)
                        Signature Hash Algorithm Hash: SHA256 (4)
                        Signature Hash Algorithm Signature: RSA (1)
                    Signature Algorithm: rsa_pkcs1_sha384 (0x0501)
                        Signature Hash Algorithm Hash: SHA384 (5)
                        Signature Hash Algorithm Signature: RSA (1)
                    Signature Algorithm: rsa_pkcs1_sha512 (0x0601)
                        Signature Hash Algorithm Hash: SHA512 (6)
                        Signature Hash Algorithm Signature: RSA (1)
                    Signature Algorithm: SHA224 ECDSA (0x0303)
                        Signature Hash Algorithm Hash: SHA224 (3)
                        Signature Hash Algorithm Signature: ECDSA (3)
                    Signature Algorithm: SHA224 RSA (0x0301)
                        Signature Hash Algorithm Hash: SHA224 (3)
                        Signature Hash Algorithm Signature: RSA (1)
                    Signature Algorithm: SHA224 DSA (0x0302)
                        Signature Hash Algorithm Hash: SHA224 (3)
                        Signature Hash Algorithm Signature: DSA (2)
                    Signature Algorithm: SHA256 DSA (0x0402)
                        Signature Hash Algorithm Hash: SHA256 (4)
                        Signature Hash Algorithm Signature: DSA (2)
                    Signature Algorithm: SHA384 DSA (0x0502)
                        Signature Hash Algorithm Hash: SHA384 (5)
                        Signature Hash Algorithm Signature: DSA (2)
                    Signature Algorithm: SHA512 DSA (0x0602)
                        Signature Hash Algorithm Hash: SHA512 (6)
                        Signature Hash Algorithm Signature: DSA (2)
            Extension: supported_versions (len=5) TLS 1.3, TLS 1.2
                Type: supported_versions (43)
                Length: 5
                Supported Versions length: 4
                Supported Version: TLS 1.3 (0x0304)
                Supported Version: TLS 1.2 (0x0303)
            Extension: psk_key_exchange_modes (len=2)
                Type: psk_key_exchange_modes (45)
                Length: 2
                PSK Key Exchange Modes Length: 1
                PSK Key Exchange Mode: PSK with (EC)DHE key establishment (psk_dhe_ke) (1)
            Extension: key_share (len=38) x25519
                Type: key_share (51)
                Length: 38
                Key Share extension
                    Client Key Share Length: 36
                    Key Share Entry: Group: x25519, Key Exchange length: 32
                        Group: x25519 (29)
                        Key Exchange Length: 32
                        Key Exchange: 4925dfa9138e4e7d90f85d7f61e449b00a83eb0ebdef35b9087ac34ee5371b0e
            Extension: padding (len=198)
                Type: padding (21)
                Length: 198
                Padding Data [truncated]: 000000000000000000000000000000000000000000000000000000000000000000000000000000000000000000000000000000000000000000000000000000000000000000000000000000000000000000000000000000000000000000000000000000000000000000000
            [JA4: t13d1812h1_85036bcba153_b26ce05bbdd6]
            [JA4_r [truncated]: t13d1812h1_0067,006b,009e,009f,00ff,1301,1302,1303,c023,c024,c027,c028,c02b,c02c,c02f,c030,cca8,cca9_000a,000b,000d,0015,0016,0017,002b,002d,0031,0033_0403,0503,0603,0807,0808,0809,080a,080b,0804,0805,0806,0401,0501,0601]
            [JA3 Fullstring: 771,4866-4867-4865-49196-49200-49195-49199-52393-52392-49188-49192-49187-49191-159-158-107-103-255,0-11-10-16-22-23-49-13-43-45-51-21,29-23-30-25-24-256-257-258-259-260,0-1-2]
            [JA3: a48c0d5f95b1ef98f560f324fd275da1]

0000  08 00 00 00 00 00 00 02 00 01 04 06 60 45 bd 06   ............`E..
0010  77 9c 00 00 45 00 02 39 17 c1 40 00 40 06 e8 66   w...E..9..@.@..f
0020  0a 01 00 f5 34 4c f9 55 d8 14 01 bb 45 9e 63 bb   ....4L.U....E.c.
0030  cb 2e b6 b0 80 18 00 3f 3a c3 00 00 01 01 08 0a   .......?:.......
0040  c6 19 3d fd 0e 76 15 fa 16 03 01 02 00 01 00 01   ..=..v..........
0050  fc 03 03 20 45 97 5e 7c 47 ea c1 02 7b 56 68 7d   ... E.^|G...{Vh}
0060  41 88 5c 98 ff df 2a 4a 27 cc fa bf 21 19 6c 2e   A.\...*J'...!.l.
0070  5d 90 5e 20 2b 47 63 28 97 50 2c ab 86 11 52 af   ].^ +Gc(.P,...R.
0080  65 67 d8 7a 39 e4 17 1f 67 45 3a bd 47 4f 86 fe   eg.z9...gE:.GO..
0090  18 ee fc 21 00 24 13 02 13 03 13 01 c0 2c c0 30   ...!.$.......,.0
00a0  c0 2b c0 2f cc a9 cc a8 c0 24 c0 28 c0 23 c0 27   .+./.....$.(.#.'
00b0  00 9f 00 9e 00 6b 00 67 00 ff 01 00 01 8f 00 00   .....k.g........
00c0  00 1d 00 1b 00 00 18 6d 63 64 2d 67 61 74 65 77   .......mcd-gatew
00d0  61 79 2e 67 72 61 62 74 61 78 69 2e 63 6f 6d 00   ay.grabtaxi.com.
00e0  0b 00 04 03 00 01 02 00 0a 00 16 00 14 00 1d 00   ................
00f0  17 00 1e 00 19 00 18 01 00 01 01 01 02 01 03 01   ................
0100  04 00 10 00 0b 00 09 08 68 74 74 70 2f 31 2e 31   ........http/1.1
0110  00 16 00 00 00 17 00 00 00 31 00 00 00 0d 00 2a   .........1.....*
0120  00 28 04 03 05 03 06 03 08 07 08 08 08 09 08 0a   .(..............
0130  08 0b 08 04 08 05 08 06 04 01 05 01 06 01 03 03   ................
0140  03 01 03 02 04 02 05 02 06 02 00 2b 00 05 04 03   ...........+....
0150  04 03 03 00 2d 00 02 01 01 00 33 00 26 00 24 00   ....-.....3.&.$.
0160  1d 00 20 49 25 df a9 13 8e 4e 7d 90 f8 5d 7f 61   .. I%....N}..].a
0170  e4 49 b0 0a 83 eb 0e bd ef 35 b9 08 7a c3 4e e5   .I.......5..z.N.
0180  37 1b 0e 00 15 00 c6 00 00 00 00 00 00 00 00 00   7...............
0190  00 00 00 00 00 00 00 00 00 00 00 00 00 00 00 00   ................
01a0  00 00 00 00 00 00 00 00 00 00 00 00 00 00 00 00   ................
01b0  00 00 00 00 00 00 00 00 00 00 00 00 00 00 00 00   ................
01c0  00 00 00 00 00 00 00 00 00 00 00 00 00 00 00 00   ................
01d0  00 00 00 00 00 00 00 00 00 00 00 00 00 00 00 00   ................
01e0  00 00 00 00 00 00 00 00 00 00 00 00 00 00 00 00   ................
01f0  00 00 00 00 00 00 00 00 00 00 00 00 00 00 00 00   ................
0200  00 00 00 00 00 00 00 00 00 00 00 00 00 00 00 00   ................
0210  00 00 00 00 00 00 00 00 00 00 00 00 00 00 00 00   ................
0220  00 00 00 00 00 00 00 00 00 00 00 00 00 00 00 00   ................
0230  00 00 00 00 00 00 00 00 00 00 00 00 00 00 00 00   ................
0240  00 00 00 00 00 00 00 00 00 00 00 00 00            .............

Frame 7: 589 bytes on wire (4712 bits), 589 bytes captured (4712 bits)
    Encapsulation type: Linux cooked-mode capture v2 (210)
    Arrival Time: Mar 30, 2026 11:33:28.495498000 UTC
    UTC Arrival Time: Mar 30, 2026 11:33:28.495498000 UTC
    Epoch Arrival Time: 1774870408.495498000
    [Time shift for this packet: 0.000000000 seconds]
    [Time delta from previous captured frame: 0.000005000 seconds]
    [Time delta from previous displayed frame: 0.000005000 seconds]
    [Time since reference or first frame: 0.190450000 seconds]
    Frame Number: 7
    Frame Length: 589 bytes (4712 bits)
    Capture Length: 589 bytes (4712 bits)
    [Frame is marked: False]
    [Frame is ignored: False]
    [Protocols in frame: sll:ethertype:ip:tcp]
Linux cooked capture v2
    Protocol: IPv4 (0x0800)
    Interface index: 4
    Link-layer address type: Ethernet (1)
    Packet type: Sent by us (4)
    Link-layer address length: 6
    Source: Microsoft_06:77:9c (60:45:bd:06:77:9c)
    Unused: 0000
Internet Protocol Version 4, Src: 10.1.0.245, Dst: 52.76.249.85
    0100 .... = Version: 4
    .... 0101 = Header Length: 20 bytes (5)
    Differentiated Services Field: 0x00 (DSCP: CS0, ECN: Not-ECT)
        0000 00.. = Differentiated Services Codepoint: Default (0)
        .... ..00 = Explicit Congestion Notification: Not ECN-Capable Transport (0)
    Total Length: 569
    Identification: 0x17c1 (6081)
    010. .... = Flags: 0x2, Don't fragment
        0... .... = Reserved bit: Not set
        .1.. .... = Don't fragment: Set
        ..0. .... = More fragments: Not set
    ...0 0000 0000 0000 = Fragment Offset: 0
    Time to Live: 64
    Protocol: TCP (6)
    Header Checksum: 0xe866 [validation disabled]
    [Header checksum status: Unverified]
    Source Address: 10.1.0.245
    Destination Address: 52.76.249.85
Transmission Control Protocol, Src Port: 55316, Dst Port: 443, Seq: 1, Ack: 1, Len: 517
    Source Port: 55316
    Destination Port: 443
    [Stream index: 0]
    [Conversation completeness: Incomplete, DATA (15)]
        ..0. .... = RST: Absent
        ...0 .... = FIN: Absent
        .... 1... = Data: Present
        .... .1.. = ACK: Present
        .... ..1. = SYN-ACK: Present
        .... ...1 = SYN: Present
        [Completeness Flags: ··DASS]
    [TCP Segment Len: 517]
    Sequence Number: 1    (relative sequence number)
    Sequence Number (raw): 1168008123
    [Next Sequence Number: 518    (relative sequence number)]
    Acknowledgment Number: 1    (relative ack number)
    Acknowledgment number (raw): 3408836272
    1000 .... = Header Length: 32 bytes (8)
    Flags: 0x018 (PSH, ACK)
        000. .... .... = Reserved: Not set
        ...0 .... .... = Accurate ECN: Not set
        .... 0... .... = Congestion Window Reduced: Not set
        .... .0.. .... = ECN-Echo: Not set
        .... ..0. .... = Urgent: Not set
        .... ...1 .... = Acknowledgment: Set
        .... .... 1... = Push: Set
        .... .... .0.. = Reset: Not set
        .... .... ..0. = Syn: Not set
        .... .... ...0 = Fin: Not set
        [TCP Flags: ·······AP···]
    Window: 63
    [Calculated window size: 64512]
    [Window size scaling factor: 1024]
    Checksum: 0x3ac3 [unverified]
    [Checksum Status: Unverified]
    Urgent Pointer: 0
    Options: (12 bytes), No-Operation (NOP), No-Operation (NOP), Timestamps
        TCP Option - No-Operation (NOP)
            Kind: No-Operation (1)
        TCP Option - No-Operation (NOP)
            Kind: No-Operation (1)
        TCP Option - Timestamps
            Kind: Time Stamp Option (8)
            Length: 10
            Timestamp value: 3323543037: TSval 3323543037, TSecr 242619898
            Timestamp echo reply: 242619898
    [Timestamps]
        [Time since first frame in this TCP stream: 0.190450000 seconds]
        [Time since previous frame in this TCP stream: 0.000005000 seconds]
    [SEQ/ACK analysis]
        [iRTT: 0.168349000 seconds]
        [Bytes in flight: 517]
        [Bytes sent since last PSH flag: 517]
        [TCP Analysis Flags]
            [Expert Info (Note/Sequence): This frame is a (suspected) retransmission]
                [This frame is a (suspected) retransmission]
                [Severity level: Note]
                [Group: Sequence]
            [The RTO for this segment was: 0.000005000 seconds]
            [RTO based on delta from frame: 6]
    TCP payload (517 bytes)
    Retransmitted TCP segment data (517 bytes)

0000  08 00 00 00 00 00 00 04 00 01 04 06 60 45 bd 06   ............`E..
0010  77 9c 00 00 45 00 02 39 17 c1 40 00 40 06 e8 66   w...E..9..@.@..f
0020  0a 01 00 f5 34 4c f9 55 d8 14 01 bb 45 9e 63 bb   ....4L.U....E.c.
0030  cb 2e b6 b0 80 18 00 3f 3a c3 00 00 01 01 08 0a   .......?:.......
0040  c6 19 3d fd 0e 76 15 fa 16 03 01 02 00 01 00 01   ..=..v..........
0050  fc 03 03 20 45 97 5e 7c 47 ea c1 02 7b 56 68 7d   ... E.^|G...{Vh}
0060  41 88 5c 98 ff df 2a 4a 27 cc fa bf 21 19 6c 2e   A.\...*J'...!.l.
0070  5d 90 5e 20 2b 47 63 28 97 50 2c ab 86 11 52 af   ].^ +Gc(.P,...R.
0080  65 67 d8 7a 39 e4 17 1f 67 45 3a bd 47 4f 86 fe   eg.z9...gE:.GO..
0090  18 ee fc 21 00 24 13 02 13 03 13 01 c0 2c c0 30   ...!.$.......,.0
00a0  c0 2b c0 2f cc a9 cc a8 c0 24 c0 28 c0 23 c0 27   .+./.....$.(.#.'
00b0  00 9f 00 9e 00 6b 00 67 00 ff 01 00 01 8f 00 00   .....k.g........
00c0  00 1d 00 1b 00 00 18 6d 63 64 2d 67 61 74 65 77   .......mcd-gatew
00d0  61 79 2e 67 72 61 62 74 61 78 69 2e 63 6f 6d 00   ay.grabtaxi.com.
00e0  0b 00 04 03 00 01 02 00 0a 00 16 00 14 00 1d 00   ................
00f0  17 00 1e 00 19 00 18 01 00 01 01 01 02 01 03 01   ................
0100  04 00 10 00 0b 00 09 08 68 74 74 70 2f 31 2e 31   ........http/1.1
0110  00 16 00 00 00 17 00 00 00 31 00 00 00 0d 00 2a   .........1.....*
0120  00 28 04 03 05 03 06 03 08 07 08 08 08 09 08 0a   .(..............
0130  08 0b 08 04 08 05 08 06 04 01 05 01 06 01 03 03   ................
0140  03 01 03 02 04 02 05 02 06 02 00 2b 00 05 04 03   ...........+....
0150  04 03 03 00 2d 00 02 01 01 00 33 00 26 00 24 00   ....-.....3.&.$.
0160  1d 00 20 49 25 df a9 13 8e 4e 7d 90 f8 5d 7f 61   .. I%....N}..].a
0170  e4 49 b0 0a 83 eb 0e bd ef 35 b9 08 7a c3 4e e5   .I.......5..z.N.
0180  37 1b 0e 00 15 00 c6 00 00 00 00 00 00 00 00 00   7...............
0190  00 00 00 00 00 00 00 00 00 00 00 00 00 00 00 00   ................
01a0  00 00 00 00 00 00 00 00 00 00 00 00 00 00 00 00   ................
01b0  00 00 00 00 00 00 00 00 00 00 00 00 00 00 00 00   ................
01c0  00 00 00 00 00 00 00 00 00 00 00 00 00 00 00 00   ................
01d0  00 00 00 00 00 00 00 00 00 00 00 00 00 00 00 00   ................
01e0  00 00 00 00 00 00 00 00 00 00 00 00 00 00 00 00   ................
01f0  00 00 00 00 00 00 00 00 00 00 00 00 00 00 00 00   ................
0200  00 00 00 00 00 00 00 00 00 00 00 00 00 00 00 00   ................
0210  00 00 00 00 00 00 00 00 00 00 00 00 00 00 00 00   ................
0220  00 00 00 00 00 00 00 00 00 00 00 00 00 00 00 00   ................
0230  00 00 00 00 00 00 00 00 00 00 00 00 00 00 00 00   ................
0240  00 00 00 00 00 00 00 00 00 00 00 00 00            .............

Frame 8: 72 bytes on wire (576 bits), 72 bytes captured (576 bits)
    Encapsulation type: Linux cooked-mode capture v2 (210)
    Arrival Time: Mar 30, 2026 11:33:28.663499000 UTC
    UTC Arrival Time: Mar 30, 2026 11:33:28.663499000 UTC
    Epoch Arrival Time: 1774870408.663499000
    [Time shift for this packet: 0.000000000 seconds]
    [Time delta from previous captured frame: 0.168001000 seconds]
    [Time delta from previous displayed frame: 0.168001000 seconds]
    [Time since reference or first frame: 0.358451000 seconds]
    Frame Number: 8
    Frame Length: 72 bytes (576 bits)
    Capture Length: 72 bytes (576 bits)
    [Frame is marked: False]
    [Frame is ignored: False]
    [Protocols in frame: sll:ethertype:ip:tcp]
Linux cooked capture v2
    Protocol: IPv4 (0x0800)
    Interface index: 4
    Link-layer address type: Ethernet (1)
    Packet type: Unicast to us (0)
    Link-layer address length: 6
    Source: 12:34:56:78:9a:bc (12:34:56:78:9a:bc)
    Unused: 0000
Internet Protocol Version 4, Src: 52.76.249.85, Dst: 10.1.0.245
    0100 .... = Version: 4
    .... 0101 = Header Length: 20 bytes (5)
    Differentiated Services Field: 0x00 (DSCP: CS0, ECN: Not-ECT)
        0000 00.. = Differentiated Services Codepoint: Default (0)
        .... ..00 = Explicit Congestion Notification: Not ECN-Capable Transport (0)
    Total Length: 52
    Identification: 0x3f60 (16224)
    010. .... = Flags: 0x2, Don't fragment
        0... .... = Reserved bit: Not set
        .1.. .... = Don't fragment: Set
        ..0. .... = More fragments: Not set
    ...0 0000 0000 0000 = Fragment Offset: 0
    Time to Live: 239
    Protocol: TCP (6)
    Header Checksum: 0x13cc [validation disabled]
    [Header checksum status: Unverified]
    Source Address: 52.76.249.85
    Destination Address: 10.1.0.245
Transmission Control Protocol, Src Port: 443, Dst Port: 55316, Seq: 1, Ack: 518, Len: 0
    Source Port: 443
    Destination Port: 55316
    [Stream index: 0]
    [Conversation completeness: Incomplete, DATA (15)]
        ..0. .... = RST: Absent
        ...0 .... = FIN: Absent
        .... 1... = Data: Present
        .... .1.. = ACK: Present
        .... ..1. = SYN-ACK: Present
        .... ...1 = SYN: Present
        [Completeness Flags: ··DASS]
    [TCP Segment Len: 0]
    Sequence Number: 1    (relative sequence number)
    Sequence Number (raw): 3408836272
    [Next Sequence Number: 1    (relative sequence number)]
    Acknowledgment Number: 518    (relative ack number)
    Acknowledgment number (raw): 1168008640
    1000 .... = Header Length: 32 bytes (8)
    Flags: 0x010 (ACK)
        000. .... .... = Reserved: Not set
        ...0 .... .... = Accurate ECN: Not set
        .... 0... .... = Congestion Window Reduced: Not set
        .... .0.. .... = ECN-Echo: Not set
        .... ..0. .... = Urgent: Not set
        .... ...1 .... = Acknowledgment: Set
        .... .... 0... = Push: Not set
        .... .... .0.. = Reset: Not set
        .... .... ..0. = Syn: Not set
        .... .... ...0 = Fin: Not set
        [TCP Flags: ·······A····]
    Window: 117
    [Calculated window size: 29952]
    [Window size scaling factor: 256]
    Checksum: 0x0d53 [unverified]
    [Checksum Status: Unverified]
    Urgent Pointer: 0
    Options: (12 bytes), No-Operation (NOP), No-Operation (NOP), Timestamps
        TCP Option - No-Operation (NOP)
            Kind: No-Operation (1)
        TCP Option - No-Operation (NOP)
            Kind: No-Operation (1)
        TCP Option - Timestamps
            Kind: Time Stamp Option (8)
            Length: 10
            Timestamp value: 242620099: TSval 242620099, TSecr 3323543037
            Timestamp echo reply: 3323543037
    [Timestamps]
        [Time since first frame in this TCP stream: 0.358451000 seconds]
        [Time since previous frame in this TCP stream: 0.168001000 seconds]
    [SEQ/ACK analysis]
        [This is an ACK to the segment in frame: 6]
        [The RTT to ACK the segment was: 0.168006000 seconds]
        [iRTT: 0.168349000 seconds]

0000  08 00 00 00 00 00 00 04 00 01 00 06 12 34 56 78   .............4Vx
0010  9a bc 00 00 45 00 00 34 3f 60 40 00 ef 06 13 cc   ....E..4?`@.....
0020  34 4c f9 55 0a 01 00 f5 01 bb d8 14 cb 2e b6 b0   4L.U............
0030  45 9e 65 c0 80 10 00 75 0d 53 00 00 01 01 08 0a   E.e....u.S......
0040  0e 76 16 c3 c6 19 3d fd                           .v....=.

Frame 9: 72 bytes on wire (576 bits), 72 bytes captured (576 bits)
    Encapsulation type: Linux cooked-mode capture v2 (210)
    Arrival Time: Mar 30, 2026 11:33:28.663499000 UTC
    UTC Arrival Time: Mar 30, 2026 11:33:28.663499000 UTC
    Epoch Arrival Time: 1774870408.663499000
    [Time shift for this packet: 0.000000000 seconds]
    [Time delta from previous captured frame: 0.000000000 seconds]
    [Time delta from previous displayed frame: 0.000000000 seconds]
    [Time since reference or first frame: 0.358451000 seconds]
    Frame Number: 9
    Frame Length: 72 bytes (576 bits)
    Capture Length: 72 bytes (576 bits)
    [Frame is marked: False]
    [Frame is ignored: False]
    [Protocols in frame: sll:ethertype:ip:tcp]
Linux cooked capture v2
    Protocol: IPv4 (0x0800)
    Interface index: 2
    Link-layer address type: Ethernet (1)
    Packet type: Unicast to us (0)
    Link-layer address length: 6
    Source: 12:34:56:78:9a:bc (12:34:56:78:9a:bc)
    Unused: 0000
Internet Protocol Version 4, Src: 52.76.249.85, Dst: 10.1.0.245
    0100 .... = Version: 4
    .... 0101 = Header Length: 20 bytes (5)
    Differentiated Services Field: 0x00 (DSCP: CS0, ECN: Not-ECT)
        0000 00.. = Differentiated Services Codepoint: Default (0)
        .... ..00 = Explicit Congestion Notification: Not ECN-Capable Transport (0)
    Total Length: 52
    Identification: 0x3f60 (16224)
    010. .... = Flags: 0x2, Don't fragment
        0... .... = Reserved bit: Not set
        .1.. .... = Don't fragment: Set
        ..0. .... = More fragments: Not set
    ...0 0000 0000 0000 = Fragment Offset: 0
    Time to Live: 239
    Protocol: TCP (6)
    Header Checksum: 0x13cc [validation disabled]
    [Header checksum status: Unverified]
    Source Address: 52.76.249.85
    Destination Address: 10.1.0.245
Transmission Control Protocol, Src Port: 443, Dst Port: 55316, Seq: 1, Ack: 518, Len: 0
    Source Port: 443
    Destination Port: 55316
    [Stream index: 0]
    [Conversation completeness: Incomplete, DATA (15)]
        ..0. .... = RST: Absent
        ...0 .... = FIN: Absent
        .... 1... = Data: Present
        .... .1.. = ACK: Present
        .... ..1. = SYN-ACK: Present
        .... ...1 = SYN: Present
        [Completeness Flags: ··DASS]
    [TCP Segment Len: 0]
    Sequence Number: 1    (relative sequence number)
    Sequence Number (raw): 3408836272
    [Next Sequence Number: 1    (relative sequence number)]
    Acknowledgment Number: 518    (relative ack number)
    Acknowledgment number (raw): 1168008640
    1000 .... = Header Length: 32 bytes (8)
    Flags: 0x010 (ACK)
        000. .... .... = Reserved: Not set
        ...0 .... .... = Accurate ECN: Not set
        .... 0... .... = Congestion Window Reduced: Not set
        .... .0.. .... = ECN-Echo: Not set
        .... ..0. .... = Urgent: Not set
        .... ...1 .... = Acknowledgment: Set
        .... .... 0... = Push: Not set
        .... .... .0.. = Reset: Not set
        .... .... ..0. = Syn: Not set
        .... .... ...0 = Fin: Not set
        [TCP Flags: ·······A····]
    Window: 117
    [Calculated window size: 29952]
    [Window size scaling factor: 256]
    Checksum: 0x0d53 [unverified]
    [Checksum Status: Unverified]
    Urgent Pointer: 0
    Options: (12 bytes), No-Operation (NOP), No-Operation (NOP), Timestamps
        TCP Option - No-Operation (NOP)
            Kind: No-Operation (1)
        TCP Option - No-Operation (NOP)
            Kind: No-Operation (1)
        TCP Option - Timestamps
            Kind: Time Stamp Option (8)
            Length: 10
            Timestamp value: 242620099: TSval 242620099, TSecr 3323543037
            Timestamp echo reply: 3323543037
    [Timestamps]
        [Time since first frame in this TCP stream: 0.358451000 seconds]
        [Time since previous frame in this TCP stream: 0.000000000 seconds]
    [SEQ/ACK analysis]
        [iRTT: 0.168349000 seconds]
        [TCP Analysis Flags]
            [This is a TCP duplicate ack]
        [Duplicate ACK #: 1]
        [Duplicate to the ACK in frame: 8]
            [Expert Info (Note/Sequence): Duplicate ACK (#1)]
                [Duplicate ACK (#1)]
                [Severity level: Note]
                [Group: Sequence]

0000  08 00 00 00 00 00 00 02 00 01 00 06 12 34 56 78   .............4Vx
0010  9a bc 00 00 45 00 00 34 3f 60 40 00 ef 06 13 cc   ....E..4?`@.....
0020  34 4c f9 55 0a 01 00 f5 01 bb d8 14 cb 2e b6 b0   4L.U............
0030  45 9e 65 c0 80 10 00 75 0d 53 00 00 01 01 08 0a   E.e....u.S......
0040  0e 76 16 c3 c6 19 3d fd                           .v....=.

Frame 10: 4302 bytes on wire (34416 bits), 4302 bytes captured (34416 bits)
    Encapsulation type: Linux cooked-mode capture v2 (210)
    Arrival Time: Mar 30, 2026 11:33:28.664327000 UTC
    UTC Arrival Time: Mar 30, 2026 11:33:28.664327000 UTC
    Epoch Arrival Time: 1774870408.664327000
    [Time shift for this packet: 0.000000000 seconds]
    [Time delta from previous captured frame: 0.000828000 seconds]
    [Time delta from previous displayed frame: 0.000828000 seconds]
    [Time since reference or first frame: 0.359279000 seconds]
    Frame Number: 10
    Frame Length: 4302 bytes (34416 bits)
    Capture Length: 4302 bytes (34416 bits)
    [Frame is marked: False]
    [Frame is ignored: False]
    [Protocols in frame [truncated]: sll:ethertype:ip:tcp:tls:x509sat:x509sat:x509sat:x509sat:x509ce:x509ce:x509ce:x509ce:x509ce:x509ce:x509ce:pkix1implicit:x509ce:tls:x509sat:x509sat:x509sat:x509sat:x509sat:x509sat:x509ce:x509ce:x509ce:x509ce:]
Linux cooked capture v2
    Protocol: IPv4 (0x0800)
    Interface index: 4
    Link-layer address type: Ethernet (1)
    Packet type: Unicast to us (0)
    Link-layer address length: 6
    Source: 12:34:56:78:9a:bc (12:34:56:78:9a:bc)
    Unused: 0000
Internet Protocol Version 4, Src: 52.76.249.85, Dst: 10.1.0.245
    0100 .... = Version: 4
    .... 0101 = Header Length: 20 bytes (5)
    Differentiated Services Field: 0x00 (DSCP: CS0, ECN: Not-ECT)
        0000 00.. = Differentiated Services Codepoint: Default (0)
        .... ..00 = Explicit Congestion Notification: Not ECN-Capable Transport (0)
    Total Length: 4282
    Identification: 0x3f61 (16225)
    010. .... = Flags: 0x2, Don't fragment
        0... .... = Reserved bit: Not set
        .1.. .... = Don't fragment: Set
        ..0. .... = More fragments: Not set
    ...0 0000 0000 0000 = Fragment Offset: 0
    Time to Live: 239
    Protocol: TCP (6)
    Header Checksum: 0x0345 [validation disabled]
    [Header checksum status: Unverified]
    Source Address: 52.76.249.85
    Destination Address: 10.1.0.245
Transmission Control Protocol, Src Port: 443, Dst Port: 55316, Seq: 1, Ack: 518, Len: 4230
    Source Port: 443
    Destination Port: 55316
    [Stream index: 0]
    [Conversation completeness: Incomplete, DATA (15)]
        ..0. .... = RST: Absent
        ...0 .... = FIN: Absent
        .... 1... = Data: Present
        .... .1.. = ACK: Present
        .... ..1. = SYN-ACK: Present
        .... ...1 = SYN: Present
        [Completeness Flags: ··DASS]
    [TCP Segment Len: 4230]
    Sequence Number: 1    (relative sequence number)
    Sequence Number (raw): 3408836272
    [Next Sequence Number: 4231    (relative sequence number)]
    Acknowledgment Number: 518    (relative ack number)
    Acknowledgment number (raw): 1168008640
    1000 .... = Header Length: 32 bytes (8)
    Flags: 0x018 (PSH, ACK)
        000. .... .... = Reserved: Not set
        ...0 .... .... = Accurate ECN: Not set
        .... 0... .... = Congestion Window Reduced: Not set
        .... .0.. .... = ECN-Echo: Not set
        .... ..0. .... = Urgent: Not set
        .... ...1 .... = Acknowledgment: Set
        .... .... 1... = Push: Set
        .... .... .0.. = Reset: Not set
        .... .... ..0. = Syn: Not set
        .... .... ...0 = Fin: Not set
        [TCP Flags: ·······AP···]
    Window: 117
    [Calculated window size: 29952]
    [Window size scaling factor: 256]
    Checksum: 0x4944 [unverified]
    [Checksum Status: Unverified]
    Urgent Pointer: 0
    Options: (12 bytes), No-Operation (NOP), No-Operation (NOP), Timestamps
        TCP Option - No-Operation (NOP)
            Kind: No-Operation (1)
        TCP Option - No-Operation (NOP)
            Kind: No-Operation (1)
        TCP Option - Timestamps
            Kind: Time Stamp Option (8)
            Length: 10
            Timestamp value: 242620100: TSval 242620100, TSecr 3323543037
            Timestamp echo reply: 3323543037
    [Timestamps]
        [Time since first frame in this TCP stream: 0.359279000 seconds]
        [Time since previous frame in this TCP stream: 0.000828000 seconds]
    [SEQ/ACK analysis]
        [iRTT: 0.168349000 seconds]
        [Bytes in flight: 4230]
        [Bytes sent since last PSH flag: 4230]
    TCP payload (4230 bytes)
Transport Layer Security
    TLSv1.2 Record Layer: Handshake Protocol: Server Hello
        Content Type: Handshake (22)
        Version: TLS 1.2 (0x0303)
        Length: 89
        Handshake Protocol: Server Hello
            Handshake Type: Server Hello (2)
            Length: 85
            Version: TLS 1.2 (0x0303)
            Random: 3e380c7658f82937ced89f3f02701dff87aa8b754eb7f6be756eec5c89370c72
                GMT Unix Time: Jan 29, 2003 17:16:38.000000000 UTC
                Random Bytes: 58f82937ced89f3f02701dff87aa8b754eb7f6be756eec5c89370c72
            Session ID Length: 32
            Session ID: a054d7277c44ae604baedc7ce18dfae0e02c70ada9ce043a05a06b1c1c6479b7
            Cipher Suite: TLS_ECDHE_RSA_WITH_AES_128_GCM_SHA256 (0xc02f)
            Compression Method: null (0)
            Extensions Length: 13
            Extension: renegotiation_info (len=1)
                Type: renegotiation_info (65281)
                Length: 1
                Renegotiation Info extension
                    Renegotiation info extension length: 0
            Extension: ec_point_formats (len=4)
                Type: ec_point_formats (11)
                Length: 4
                EC point formats Length: 3
                Elliptic curves point formats (3)
                    EC point format: uncompressed (0)
                    EC point format: ansiX962_compressed_prime (1)
                    EC point format: ansiX962_compressed_char2 (2)
            [JA3S Fullstring: 771,49199,65281-11]
            [JA3S: 303951d4c50efb2e991652225a6f02b1]
    TLSv1.2 Record Layer: Handshake Protocol: Certificate
        Content Type: Handshake (22)
        Version: TLS 1.2 (0x0303)
        Length: 3784
        Handshake Protocol: Certificate
            Handshake Type: Certificate (11)
            Length: 3780
            Certificates Length: 3777
            Certificates (3777 bytes)
                Certificate Length: 1472
                Certificate [truncated]: 308205bc308204a4a00302010202100c00d20d5fbc30f95072144d7862f9ac300d06092a864886f70d01010b0500303c310b3009060355040613025553310f300d060355040a1306416d617a6f6e311c301a06035504031313416d617a6f6e205253412032303438204d30
                    signedCertificate
                        version: v3 (2)
                        serialNumber: 0x0c00d20d5fbc30f95072144d7862f9ac
                        signature (sha256WithRSAEncryption)
                            Algorithm Id: 1.2.840.113549.1.1.11 (sha256WithRSAEncryption)
                        issuer: rdnSequence (0)
                            rdnSequence: 3 items (id-at-commonName=Amazon RSA 2048 M04,id-at-organizationName=Amazon,id-at-countryName=US)
                                RDNSequence item: 1 item (id-at-countryName=US)
                                    RelativeDistinguishedName item (id-at-countryName=US)
                                        Object Id: 2.5.4.6 (id-at-countryName)
                                        CountryName: US
                                RDNSequence item: 1 item (id-at-organizationName=Amazon)
                                    RelativeDistinguishedName item (id-at-organizationName=Amazon)
                                        Object Id: 2.5.4.10 (id-at-organizationName)
                                        DirectoryString: printableString (1)
                                            printableString: Amazon
                                RDNSequence item: 1 item (id-at-commonName=Amazon RSA 2048 M04)
                                    RelativeDistinguishedName item (id-at-commonName=Amazon RSA 2048 M04)
                                        Object Id: 2.5.4.3 (id-at-commonName)
                                        DirectoryString: printableString (1)
                                            printableString: Amazon RSA 2048 M04
                        validity
                            notBefore: utcTime (0)
                                utcTime: 2025-09-10 00:00:00 (UTC)
                            notAfter: utcTime (0)
                                utcTime: 2026-10-09 23:59:59 (UTC)
                        subject: rdnSequence (0)
                            rdnSequence: 1 item (id-at-commonName=*.grabtaxi.com)
                                RDNSequence item: 1 item (id-at-commonName=*.grabtaxi.com)
                                    RelativeDistinguishedName item (id-at-commonName=*.grabtaxi.com)
                                        Object Id: 2.5.4.3 (id-at-commonName)
                                        DirectoryString: uTF8String (4)
                                            uTF8String: *.grabtaxi.com
                        subjectPublicKeyInfo
                            algorithm (rsaEncryption)
                                Algorithm Id: 1.2.840.113549.1.1.1 (rsaEncryption)
                            subjectPublicKey [truncated]: 3082010a0282010100afd981a5a6ab7176e93a9ab3030d015baa8875d8c9675f823836a5cce818abbe4b0ad3b78323703f46a50c38e62850e09b6773911d4464aea447d6a2807f539ff314d57c17a294c2b3b7e0c341392473501093f3ba5a8afc6956dc901b2f85f
                                modulus: 0x00afd981a5a6ab7176e93a9ab3030d015baa8875d8c9675f823836a5cce818abbe4b0ad3…
                                publicExponent: 65537
                        extensions: 10 items
                            Extension (id-ce-authorityKeyIdentifier)
                                Extension Id: 2.5.29.35 (id-ce-authorityKeyIdentifier)
                                AuthorityKeyIdentifier
                                    keyIdentifier: 1f5292615682547f8166d81d3d0aaa325c87dd08
                            Extension (id-ce-subjectKeyIdentifier)
                                Extension Id: 2.5.29.14 (id-ce-subjectKeyIdentifier)
                                SubjectKeyIdentifier: 812ba2f2c1b95425fead7d3bb4ccd0939af9a026
                            Extension (id-ce-subjectAltName)
                                Extension Id: 2.5.29.17 (id-ce-subjectAltName)
                                GeneralNames: 1 item
                                    GeneralName: dNSName (2)
                                        dNSName: *.grabtaxi.com
                            Extension (id-ce-certificatePolicies)
                                Extension Id: 2.5.29.32 (id-ce-certificatePolicies)
                                CertificatePoliciesSyntax: 1 item
                                    PolicyInformation
                                        policyIdentifier: 2.23.140.1.2.1 (joint-iso-itu-t.23.140.1.2.1)
                            Extension (id-ce-keyUsage)
                                Extension Id: 2.5.29.15 (id-ce-keyUsage)
                                critical: True
                                Padding: 5
                                KeyUsage: a0
                                    1... .... = digitalSignature: True
                                    .0.. .... = contentCommitment: False
                                    ..1. .... = keyEncipherment: True
                                    ...0 .... = dataEncipherment: False
                                    .... 0... = keyAgreement: False
                                    .... .0.. = keyCertSign: False
                                    .... ..0. = cRLSign: False
                                    .... ...0 = encipherOnly: False
                                    0... .... = decipherOnly: False
                            Extension (id-ce-extKeyUsage)
                                Extension Id: 2.5.29.37 (id-ce-extKeyUsage)
                                KeyPurposeIDs: 1 item
                                    KeyPurposeId: 1.3.6.1.5.5.7.3.1 (id-kp-serverAuth)
                            Extension (id-ce-cRLDistributionPoints)
                                Extension Id: 2.5.29.31 (id-ce-cRLDistributionPoints)
                                CRLDistPointsSyntax: 1 item
                                    DistributionPoint
                                        distributionPoint: fullName (0)
                                            fullName: 1 item
                                                GeneralName: uniformResourceIdentifier (6)
                                                    uniformResourceIdentifier: http://crl.r2m04.amazontrust.com/r2m04.crl
                            Extension (id-pe-authorityInfoAccess)
                                Extension Id: 1.3.6.1.5.5.7.1.1 (id-pe-authorityInfoAccess)
                                AuthorityInfoAccessSyntax: 2 items
                                    AccessDescription
                                        accessMethod: 1.3.6.1.5.5.7.48.1 (id-ad-ocsp)
                                        accessLocation: 6
                                            uniformResourceIdentifier: http://ocsp.r2m04.amazontrust.com
                                    AccessDescription
                                        accessMethod: 1.3.6.1.5.5.7.48.2 (id-ad-caIssuers)
                                        accessLocation: 6
                                            uniformResourceIdentifier: http://crt.r2m04.amazontrust.com/r2m04.cer
                            Extension (id-ce-basicConstraints)
                                Extension Id: 2.5.29.19 (id-ce-basicConstraints)
                                critical: True
                                BasicConstraintsSyntax [0 length]
                            Extension (SignedCertificateTimestampList)
                                Extension Id: 1.3.6.1.4.1.11129.2.4.2 (SignedCertificateTimestampList)
                                Serialized SCT List Length: 358
                                Signed Certificate Timestamp (Unknown Log)
                                    Serialized SCT Length: 117
                                    SCT Version: 0
                                    Log ID: d76d7d10d1a7f577c2c7e95fd700bff982c9335a65e1d0b3017317c0c8c56977
                                    Timestamp: Sep 10, 2025 00:23:57.968000000 UTC
                                    Extensions length: 0
                                    Signature Algorithm: ecdsa_secp256r1_sha256 (0x0403)
                                        Signature Hash Algorithm Hash: SHA256 (4)
                                        Signature Hash Algorithm Signature: ECDSA (3)
                                    Signature Length: 70
                                    Signature: 304402203d83f45f17c6c689a71a9384f029d07705ccf6fb7fecfdac8340dd0d6037b76302204d308c75924316472e65d91adfdcac7740c7f1e30eb6e9ab6865c34fa68866de
                                Signed Certificate Timestamp (Unknown Log)
                                    Serialized SCT Length: 117
                                    SCT Version: 0
                                    Log ID: c2317e574519a345ee7f38deb29041ebc7c2215a22bf7fd5b5ad769ad90e52cd
                                    Timestamp: Sep 10, 2025 00:23:58.034000000 UTC
                                    Extensions length: 0
                                    Signature Algorithm: ecdsa_secp256r1_sha256 (0x0403)
                                        Signature Hash Algorithm Hash: SHA256 (4)
                                        Signature Hash Algorithm Signature: ECDSA (3)
                                    Signature Length: 70
                                    Signature: 304402203a472506e33e6f739f86ead4f21a63177e3c01ff1b9bfcc81a1665fb6285caf702207f350c2cb9d3c0fe06694ebd67b398f5f000142d2e5b5406f2710cdf69213484
                                Signed Certificate Timestamp (Unknown Log)
                                    Serialized SCT Length: 118
                                    SCT Version: 0
                                    Log ID: 944e4387faecc1ef81f3192426a8186501c7d35f3802013f72677d55372e19d8
                                    Timestamp: Sep 10, 2025 00:23:58.032000000 UTC
                                    Extensions length: 0
                                    Signature Algorithm: ecdsa_secp256r1_sha256 (0x0403)
                                        Signature Hash Algorithm Hash: SHA256 (4)
                                        Signature Hash Algorithm Signature: ECDSA (3)
                                    Signature Length: 71
                                    Signature: 304502210080981e399add4bf7a42fb20213f1e96b7be7355ec10211753f52c375c301a86e022040b6ff58c293774cc044555605c23296494a7d6e9abfe6c06e66fb6d3f019f45
                    algorithmIdentifier (sha256WithRSAEncryption)
                        Algorithm Id: 1.2.840.113549.1.1.11 (sha256WithRSAEncryption)
                    Padding: 0
                    encrypted [truncated]: 4f7cc48f9edef6aef99db25d35123c9d2b4dfad6b9293742cc3662de9e03f3a20c37cc9f145835129def6faf2ad5731d90a4e97e570bc7fc682825bb112fffae393f9e4700e9008441525f1977ddab7bdb3553ee55b28999603bbacea789da486046516006076fbd20387303
                Certificate Length: 1122
                Certificate [truncated]: 3082045e30820346a00302010202130773124f2a952e3ed18a58bdb85d1bc0ce5f27300d06092a864886f70d01010b05003039310b3009060355040613025553310f300d060355040a1306416d617a6f6e3119301706035504031310416d617a6f6e20526f6f7420434120
                    signedCertificate
                        version: v3 (2)
                        serialNumber: 0x0773124f2a952e3ed18a58bdb85d1bc0ce5f27
                        signature (sha256WithRSAEncryption)
                            Algorithm Id: 1.2.840.113549.1.1.11 (sha256WithRSAEncryption)
                        issuer: rdnSequence (0)
                            rdnSequence: 3 items (id-at-commonName=Amazon Root CA 1,id-at-organizationName=Amazon,id-at-countryName=US)
                                RDNSequence item: 1 item (id-at-countryName=US)
                                    RelativeDistinguishedName item (id-at-countryName=US)
                                        Object Id: 2.5.4.6 (id-at-countryName)
                                        CountryName: US
                                RDNSequence item: 1 item (id-at-organizationName=Amazon)
                                    RelativeDistinguishedName item (id-at-organizationName=Amazon)
                                        Object Id: 2.5.4.10 (id-at-organizationName)
                                        DirectoryString: printableString (1)
                                            printableString: Amazon
                                RDNSequence item: 1 item (id-at-commonName=Amazon Root CA 1)
                                    RelativeDistinguishedName item (id-at-commonName=Amazon Root CA 1)
                                        Object Id: 2.5.4.3 (id-at-commonName)
                                        DirectoryString: printableString (1)
                                            printableString: Amazon Root CA 1
                        validity
                            notBefore: utcTime (0)
                                utcTime: 2022-08-23 22:26:35 (UTC)
                            notAfter: utcTime (0)
                                utcTime: 2030-08-23 22:26:35 (UTC)
                        subject: rdnSequence (0)
                            rdnSequence: 3 items (id-at-commonName=Amazon RSA 2048 M04,id-at-organizationName=Amazon,id-at-countryName=US)
                                RDNSequence item: 1 item (id-at-countryName=US)
                                    RelativeDistinguishedName item (id-at-countryName=US)
                                        Object Id: 2.5.4.6 (id-at-countryName)
                                        CountryName: US
                                RDNSequence item: 1 item (id-at-organizationName=Amazon)
                                    RelativeDistinguishedName item (id-at-organizationName=Amazon)
                                        Object Id: 2.5.4.10 (id-at-organizationName)
                                        DirectoryString: printableString (1)
                                            printableString: Amazon
                                RDNSequence item: 1 item (id-at-commonName=Amazon RSA 2048 M04)
                                    RelativeDistinguishedName item (id-at-commonName=Amazon RSA 2048 M04)
                                        Object Id: 2.5.4.3 (id-at-commonName)
                                        DirectoryString: printableString (1)
                                            printableString: Amazon RSA 2048 M04
                        subjectPublicKeyInfo
                            algorithm (rsaEncryption)
                                Algorithm Id: 1.2.840.113549.1.1.1 (rsaEncryption)
                            subjectPublicKey [truncated]: 3082010a0282010100cde9551e809503a9e317bbefa15d78f5f27a3800dfc998c75a2ef7f8eba55e927e7fbfa2a04a830858e9e3ec4071d06b258125d067bf85b3dfadea448e17521f6cc01149d754e76772ea38cbc7996ab6fa5a00d103ed39f5dd2767c704bac1a
                                modulus: 0x00cde9551e809503a9e317bbefa15d78f5f27a3800dfc998c75a2ef7f8eba55e927e7fbf…
                                publicExponent: 65537
                        extensions: 8 items
                            Extension (id-ce-basicConstraints)
                                Extension Id: 2.5.29.19 (id-ce-basicConstraints)
                                critical: True
                                BasicConstraintsSyntax
                                    cA: True
                                    pathLenConstraint: 0
                            Extension (id-ce-keyUsage)
                                Extension Id: 2.5.29.15 (id-ce-keyUsage)
                                critical: True
                                Padding: 1
                                KeyUsage: 86
                                    1... .... = digitalSignature: True
                                    .0.. .... = contentCommitment: False
                                    ..0. .... = keyEncipherment: False
                                    ...0 .... = dataEncipherment: False
                                    .... 0... = keyAgreement: False
                                    .... .1.. = keyCertSign: True
                                    .... ..1. = cRLSign: True
                                    .... ...0 = encipherOnly: False
                                    0... .... = decipherOnly: False
                            Extension (id-ce-extKeyUsage)
                                Extension Id: 2.5.29.37 (id-ce-extKeyUsage)
                                KeyPurposeIDs: 2 items
                                    KeyPurposeId: 1.3.6.1.5.5.7.3.1 (id-kp-serverAuth)
                                    KeyPurposeId: 1.3.6.1.5.5.7.3.2 (id-kp-clientAuth)
                            Extension (id-ce-subjectKeyIdentifier)
                                Extension Id: 2.5.29.14 (id-ce-subjectKeyIdentifier)
                                SubjectKeyIdentifier: 1f5292615682547f8166d81d3d0aaa325c87dd08
                            Extension (id-ce-authorityKeyIdentifier)
                                Extension Id: 2.5.29.35 (id-ce-authorityKeyIdentifier)
                                AuthorityKeyIdentifier
                                    keyIdentifier: 8418cc8534ecbc0c94942e08599cc7b2104e0a08
                            Extension (id-pe-authorityInfoAccess)
                                Extension Id: 1.3.6.1.5.5.7.1.1 (id-pe-authorityInfoAccess)
                                AuthorityInfoAccessSyntax: 2 items
                                    AccessDescription
                                        accessMethod: 1.3.6.1.5.5.7.48.1 (id-ad-ocsp)
                                        accessLocation: 6
                                            uniformResourceIdentifier: http://ocsp.rootca1.amazontrust.com
                                    AccessDescription
                                        accessMethod: 1.3.6.1.5.5.7.48.2 (id-ad-caIssuers)
                                        accessLocation: 6
                                            uniformResourceIdentifier: http://crt.rootca1.amazontrust.com/rootca1.cer
                            Extension (id-ce-cRLDistributionPoints)
                                Extension Id: 2.5.29.31 (id-ce-cRLDistributionPoints)
                                CRLDistPointsSyntax: 1 item
                                    DistributionPoint
                                        distributionPoint: fullName (0)
                                            fullName: 1 item
                                                GeneralName: uniformResourceIdentifier (6)
                                                    uniformResourceIdentifier: http://crl.rootca1.amazontrust.com/rootca1.crl
                            Extension (id-ce-certificatePolicies)
                                Extension Id: 2.5.29.32 (id-ce-certificatePolicies)
                                CertificatePoliciesSyntax: 1 item
                                    PolicyInformation
                                        policyIdentifier: 2.23.140.1.2.1 (joint-iso-itu-t.23.140.1.2.1)
                    algorithmIdentifier (sha256WithRSAEncryption)
                        Algorithm Id: 1.2.840.113549.1.1.11 (sha256WithRSAEncryption)
                    Padding: 0
                    encrypted [truncated]: 3ed4ee54b0068db96de51f326da4d1b006765df5011816dc698809c8695e2a0299c64bd382c3964fc227bb612943645e72c853ec161502d90f6e24763f0915756f98488861f4fbafb0e4f80a898d4c5ae593f1501a263171bee84cedafde7cdd93230d5677a58297a6118acb
                Certificate Length: 1174
                Certificate [truncated]: 308204923082037aa0030201020213067f944a2a27cdf3fac2ae2b01f908eeb9c4c6300d06092a864886f70d01010b0500308198310b30090603550406130255533110300e060355040813074172697a6f6e61311330110603550407130a53636f74747364616c65312530
                    signedCertificate
                        version: v3 (2)
                        serialNumber: 0x067f944a2a27cdf3fac2ae2b01f908eeb9c4c6
                        signature (sha256WithRSAEncryption)
                            Algorithm Id: 1.2.840.113549.1.1.11 (sha256WithRSAEncryption)
                        issuer: rdnSequence (0)
                            rdnSequence: 5 items (id-at-commonName=Starfield Services Root Certificate Authority - G2,id-at-organizationName=Starfield Technologies, Inc.,id-at-localityName=Scottsdale,id-at-stateOrProvinceName=Arizona,id-at-countryName=US)
                                RDNSequence item: 1 item (id-at-countryName=US)
                                    RelativeDistinguishedName item (id-at-countryName=US)
                                        Object Id: 2.5.4.6 (id-at-countryName)
                                        CountryName: US
                                RDNSequence item: 1 item (id-at-stateOrProvinceName=Arizona)
                                    RelativeDistinguishedName item (id-at-stateOrProvinceName=Arizona)
                                        Object Id: 2.5.4.8 (id-at-stateOrProvinceName)
                                        DirectoryString: printableString (1)
                                            printableString: Arizona
                                RDNSequence item: 1 item (id-at-localityName=Scottsdale)
                                    RelativeDistinguishedName item (id-at-localityName=Scottsdale)
                                        Object Id: 2.5.4.7 (id-at-localityName)
                                        DirectoryString: printableString (1)
                                            printableString: Scottsdale
                                RDNSequence item: 1 item (id-at-organizationName=Starfield Technologies, Inc.)
                                    RelativeDistinguishedName item (id-at-organizationName=Starfield Technologies, Inc.)
                                        Object Id: 2.5.4.10 (id-at-organizationName)
                                        DirectoryString: printableString (1)
                                            printableString: Starfield Technologies, Inc.
                                RDNSequence item: 1 item (id-at-commonName=Starfield Services Root Certificate Authority - G2)
                                    RelativeDistinguishedName item (id-at-commonName=Starfield Services Root Certificate Authority - G2)
                                        Object Id: 2.5.4.3 (id-at-commonName)
                                        DirectoryString: printableString (1)
                                            printableString: Starfield Services Root Certificate Authority - G2
                        validity
                            notBefore: utcTime (0)
                                utcTime: 2015-05-25 12:00:00 (UTC)
                            notAfter: utcTime (0)
                                utcTime: 2037-12-31 01:00:00 (UTC)
                        subject: rdnSequence (0)
                            rdnSequence: 3 items (id-at-commonName=Amazon Root CA 1,id-at-organizationName=Amazon,id-at-countryName=US)
                                RDNSequence item: 1 item (id-at-countryName=US)
                                    RelativeDistinguishedName item (id-at-countryName=US)
                                        Object Id: 2.5.4.6 (id-at-countryName)
                                        CountryName: US
                                RDNSequence item: 1 item (id-at-organizationName=Amazon)
                                    RelativeDistinguishedName item (id-at-organizationName=Amazon)
                                        Object Id: 2.5.4.10 (id-at-organizationName)
                                        DirectoryString: printableString (1)
                                            printableString: Amazon
                                RDNSequence item: 1 item (id-at-commonName=Amazon Root CA 1)
                                    RelativeDistinguishedName item (id-at-commonName=Amazon Root CA 1)
                                        Object Id: 2.5.4.3 (id-at-commonName)
                                        DirectoryString: printableString (1)
                                            printableString: Amazon Root CA 1
                        subjectPublicKeyInfo
                            algorithm (rsaEncryption)
                                Algorithm Id: 1.2.840.113549.1.1.1 (rsaEncryption)
                            subjectPublicKey [truncated]: 3082010a0282010100b2788071ca78d5e371af478050747d6ed8d78876f49968f7582160f97484012fac022d86d3a0437a4eb2a4d036ba01be8ddb48c80717364cf4ee8823c73eeb37f5b519f84968b0ded7b976381d619ea4fe8236a5e54a56e445e1f9fdb416fa7
                                modulus: 0x00b2788071ca78d5e371af478050747d6ed8d78876f49968f7582160f97484012fac022d…
                                publicExponent: 65537
                        extensions: 7 items
                            Extension (id-ce-basicConstraints)
                                Extension Id: 2.5.29.19 (id-ce-basicConstraints)
                                critical: True
                                BasicConstraintsSyntax
                                    cA: True
                            Extension (id-ce-keyUsage)
                                Extension Id: 2.5.29.15 (id-ce-keyUsage)
                                critical: True
                                Padding: 1
                                KeyUsage: 86
                                    1... .... = digitalSignature: True
                                    .0.. .... = contentCommitment: False
                                    ..0. .... = keyEncipherment: False
                                    ...0 .... = dataEncipherment: False
                                    .... 0... = keyAgreement: False
                                    .... .1.. = keyCertSign: True
                                    .... ..1. = cRLSign: True
                                    .... ...0 = encipherOnly: False
                                    0... .... = decipherOnly: False
                            Extension (id-ce-subjectKeyIdentifier)
                                Extension Id: 2.5.29.14 (id-ce-subjectKeyIdentifier)
                                SubjectKeyIdentifier: 8418cc8534ecbc0c94942e08599cc7b2104e0a08
                            Extension (id-ce-authorityKeyIdentifier)
                                Extension Id: 2.5.29.35 (id-ce-authorityKeyIdentifier)
                                AuthorityKeyIdentifier
                                    keyIdentifier: 9c5f00dfaa01d7302b3888a2b86d4a9cf2119183
                            Extension (id-pe-authorityInfoAccess)
                                Extension Id: 1.3.6.1.5.5.7.1.1 (id-pe-authorityInfoAccess)
                                AuthorityInfoAccessSyntax: 2 items
                                    AccessDescription
                                        accessMethod: 1.3.6.1.5.5.7.48.1 (id-ad-ocsp)
                                        accessLocation: 6
                                            uniformResourceIdentifier: http://ocsp.rootg2.amazontrust.com
                                    AccessDescription
                                        accessMethod: 1.3.6.1.5.5.7.48.2 (id-ad-caIssuers)
                                        accessLocation: 6
                                            uniformResourceIdentifier: http://crt.rootg2.amazontrust.com/rootg2.cer
                            Extension (id-ce-cRLDistributionPoints)
                                Extension Id: 2.5.29.31 (id-ce-cRLDistributionPoints)
                                CRLDistPointsSyntax: 1 item
                                    DistributionPoint
                                        distributionPoint: fullName (0)
                                            fullName: 1 item
                                                GeneralName: uniformResourceIdentifier (6)
                                                    uniformResourceIdentifier: http://crl.rootg2.amazontrust.com/rootg2.crl
                            Extension (id-ce-certificatePolicies)
                                Extension Id: 2.5.29.32 (id-ce-certificatePolicies)
                                CertificatePoliciesSyntax: 1 item
                                    PolicyInformation
                                        policyIdentifier: 2.5.29.32.0 (anyPolicy)
                    algorithmIdentifier (sha256WithRSAEncryption)
                        Algorithm Id: 1.2.840.113549.1.1.11 (sha256WithRSAEncryption)
                    Padding: 0
                    encrypted [truncated]: 6237425cbc10b53e8b2ce90c9b6c45e207007af9c5580bb9088c3eedb3253cb56f50e4cd356aa79334963221a94844ab9ced3db4aa736de47f1680896ccf280318834779a3107e305bac3bb060e077d408a6e11d7c5ec0bbf99a7b229da700097eac461783dc9c2657993039
    TLSv1.2 Record Layer: Handshake Protocol: Server Key Exchange
        Content Type: Handshake (22)
        Version: TLS 1.2 (0x0303)
        Length: 333
        Handshake Protocol: Server Key Exchange
            Handshake Type: Server Key Exchange (12)
            Length: 329
            EC Diffie-Hellman Server Params
                Curve Type: named_curve (0x03)
                Named Curve: secp256r1 (0x0017)
                Pubkey Length: 65
                Pubkey: 04f1bac5ea6af6790acfac3a78fe53d71fb153a531f4db6ec3a052653b2bd67f23f496b729eb315b918e1e303cb6c5868425ae4410189b02a58a88c772d35dada4
                Signature Algorithm: rsa_pkcs1_sha512 (0x0601)
                    Signature Hash Algorithm Hash: SHA512 (6)
                    Signature Hash Algorithm Signature: RSA (1)
                Signature Length: 256
                Signature [truncated]: a810fd10f1db3ca10c84d354ced205e4ef7c6a7be822be29108f058dd53e707aacd6d8817ae88cd2f1b12d0a17dfced1fb92c67b6e5bf035760d189095555ee261ddeba2f64dccff3d9b0944581c0f6719cb2191f9c3d9cf3a79295ba3d923d9ac308e9e671fe372ba5c5447
    TLSv1.2 Record Layer: Handshake Protocol: Server Hello Done
        Content Type: Handshake (22)
        Version: TLS 1.2 (0x0303)
        Length: 4
        Handshake Protocol: Server Hello Done
            Handshake Type: Server Hello Done (14)
            Length: 0

0000  08 00 00 00 00 00 00 04 00 01 00 06 12 34 56 78   .............4Vx
0010  9a bc 00 00 45 00 10 ba 3f 61 40 00 ef 06 03 45   ....E...?a@....E
0020  34 4c f9 55 0a 01 00 f5 01 bb d8 14 cb 2e b6 b0   4L.U............
0030  45 9e 65 c0 80 18 00 75 49 44 00 00 01 01 08 0a   E.e....uID......
0040  0e 76 16 c4 c6 19 3d fd 16 03 03 00 59 02 00 00   .v....=.....Y...
0050  55 03 03 3e 38 0c 76 58 f8 29 37 ce d8 9f 3f 02   U..>8.vX.)7...?.
0060  70 1d ff 87 aa 8b 75 4e b7 f6 be 75 6e ec 5c 89   p.....uN...un.\.
0070  37 0c 72 20 a0 54 d7 27 7c 44 ae 60 4b ae dc 7c   7.r .T.'|D.`K..|
0080  e1 8d fa e0 e0 2c 70 ad a9 ce 04 3a 05 a0 6b 1c   .....,p....:..k.
0090  1c 64 79 b7 c0 2f 00 00 0d ff 01 00 01 00 00 0b   .dy../..........
00a0  00 04 03 00 01 02 16 03 03 0e c8 0b 00 0e c4 00   ................
00b0  0e c1 00 05 c0 30 82 05 bc 30 82 04 a4 a0 03 02   .....0...0......
00c0  01 02 02 10 0c 00 d2 0d 5f bc 30 f9 50 72 14 4d   ........_.0.Pr.M
00d0  78 62 f9 ac 30 0d 06 09 2a 86 48 86 f7 0d 01 01   xb..0...*.H.....
00e0  0b 05 00 30 3c 31 0b 30 09 06 03 55 04 06 13 02   ...0<1.0...U....
00f0  55 53 31 0f 30 0d 06 03 55 04 0a 13 06 41 6d 61   US1.0...U....Ama
0100  7a 6f 6e 31 1c 30 1a 06 03 55 04 03 13 13 41 6d   zon1.0...U....Am
0110  61 7a 6f 6e 20 52 53 41 20 32 30 34 38 20 4d 30   azon RSA 2048 M0
0120  34 30 1e 17 0d 32 35 30 39 31 30 30 30 30 30 30   40...25091000000
0130  30 5a 17 0d 32 36 31 30 30 39 32 33 35 39 35 39   0Z..261009235959
0140  5a 30 19 31 17 30 15 06 03 55 04 03 0c 0e 2a 2e   Z0.1.0...U....*.
0150  67 72 61 62 74 61 78 69 2e 63 6f 6d 30 82 01 22   grabtaxi.com0.."
0160  30 0d 06 09 2a 86 48 86 f7 0d 01 01 01 05 00 03   0...*.H.........
0170  82 01 0f 00 30 82 01 0a 02 82 01 01 00 af d9 81   ....0...........
0180  a5 a6 ab 71 76 e9 3a 9a b3 03 0d 01 5b aa 88 75   ...qv.:.....[..u
0190  d8 c9 67 5f 82 38 36 a5 cc e8 18 ab be 4b 0a d3   ..g_.86......K..
01a0  b7 83 23 70 3f 46 a5 0c 38 e6 28 50 e0 9b 67 73   ..#p?F..8.(P..gs
01b0  91 1d 44 64 ae a4 47 d6 a2 80 7f 53 9f f3 14 d5   ..Dd..G....S....
01c0  7c 17 a2 94 c2 b3 b7 e0 c3 41 39 24 73 50 10 93   |........A9$sP..
01d0  f3 ba 5a 8a fc 69 56 dc 90 1b 2f 85 f4 7d 0d 51   ..Z..iV.../..}.Q
01e0  c4 9b 10 66 fe 1d d8 fe b8 c5 b0 ca e2 d7 e6 15   ...f............
01f0  5a 9f 55 87 43 00 de 29 97 5b d8 fa d7 bd 99 cc   Z.U.C..).[......
0200  3f 64 fb c8 52 e9 08 62 9a 3b b8 ae a2 2a 8a 95   ?d..R..b.;...*..
0210  b8 35 3e a9 a5 32 6a 5c a2 af 1f 77 8f ef 0c 4d   .5>..2j\...w...M
0220  12 90 3d a6 10 06 1b d6 69 e4 49 95 6a 96 f6 c1   ..=.....i.I.j...
0230  3c 79 c8 ae 23 fa 9a ae 0c 2d d7 c4 a4 2d 2b 19   <y..#....-...-+.
0240  10 19 4a d9 c0 d3 8c f2 0b a1 53 fc 59 85 d3 52   ..J.......S.Y..R
0250  e9 7d 63 cf a4 7e 04 d9 a8 62 41 d3 38 17 0b c9   .}c..~...bA.8...
0260  1c 2f e0 ee 6c 79 ab 91 29 2b af c2 b4 19 a7 ab   ./..ly..)+......
0270  4f b2 ce f6 b4 69 3f f4 39 af c3 b3 6b 02 03 01   O....i?.9...k...
0280  00 01 a3 82 02 db 30 82 02 d7 30 1f 06 03 55 1d   ......0...0...U.
0290  23 04 18 30 16 80 14 1f 52 92 61 56 82 54 7f 81   #..0....R.aV.T..
02a0  66 d8 1d 3d 0a aa 32 5c 87 dd 08 30 1d 06 03 55   f..=..2\...0...U
02b0  1d 0e 04 16 04 14 81 2b a2 f2 c1 b9 54 25 fe ad   .......+....T%..
02c0  7d 3b b4 cc d0 93 9a f9 a0 26 30 19 06 03 55 1d   };.......&0...U.
02d0  11 04 12 30 10 82 0e 2a 2e 67 72 61 62 74 61 78   ...0...*.grabtax
02e0  69 2e 63 6f 6d 30 13 06 03 55 1d 20 04 0c 30 0a   i.com0...U. ..0.
02f0  30 08 06 06 67 81 0c 01 02 01 30 0e 06 03 55 1d   0...g.....0...U.
0300  0f 01 01 ff 04 04 03 02 05 a0 30 13 06 03 55 1d   ..........0...U.
0310  25 04 0c 30 0a 06 08 2b 06 01 05 05 07 03 01 30   %..0...+.......0
0320  3b 06 03 55 1d 1f 04 34 30 32 30 30 a0 2e a0 2c   ;..U...40200...,
0330  86 2a 68 74 74 70 3a 2f 2f 63 72 6c 2e 72 32 6d   .*http://crl.r2m
0340  30 34 2e 61 6d 61 7a 6f 6e 74 72 75 73 74 2e 63   04.amazontrust.c
0350  6f 6d 2f 72 32 6d 30 34 2e 63 72 6c 30 75 06 08   om/r2m04.crl0u..
0360  2b 06 01 05 05 07 01 01 04 69 30 67 30 2d 06 08   +........i0g0-..
0370  2b 06 01 05 05 07 30 01 86 21 68 74 74 70 3a 2f   +.....0..!http:/
0380  2f 6f 63 73 70 2e 72 32 6d 30 34 2e 61 6d 61 7a   /ocsp.r2m04.amaz
0390  6f 6e 74 72 75 73 74 2e 63 6f 6d 30 36 06 08 2b   ontrust.com06..+
03a0  06 01 05 05 07 30 02 86 2a 68 74 74 70 3a 2f 2f   .....0..*http://
03b0  63 72 74 2e 72 32 6d 30 34 2e 61 6d 61 7a 6f 6e   crt.r2m04.amazon
03c0  74 72 75 73 74 2e 63 6f 6d 2f 72 32 6d 30 34 2e   trust.com/r2m04.
03d0  63 65 72 30 0c 06 03 55 1d 13 01 01 ff 04 02 30   cer0...U.......0
03e0  00 30 82 01 7c 06 0a 2b 06 01 04 01 d6 79 02 04   .0..|..+.....y..
03f0  02 04 82 01 6c 04 82 01 68 01 66 00 75 00 d7 6d   ....l...h.f.u..m
0400  7d 10 d1 a7 f5 77 c2 c7 e9 5f d7 00 bf f9 82 c9   }....w..._......
0410  33 5a 65 e1 d0 b3 01 73 17 c0 c8 c5 69 77 00 00   3Ze....s....iw..
0420  01 99 31 01 fd 10 00 00 04 03 00 46 30 44 02 20   ..1........F0D. 
0430  3d 83 f4 5f 17 c6 c6 89 a7 1a 93 84 f0 29 d0 77   =.._.........).w
0440  05 cc f6 fb 7f ec fd ac 83 40 dd 0d 60 37 b7 63   .........@..`7.c
0450  02 20 4d 30 8c 75 92 43 16 47 2e 65 d9 1a df dc   . M0.u.C.G.e....
0460  ac 77 40 c7 f1 e3 0e b6 e9 ab 68 65 c3 4f a6 88   .w@.......he.O..
0470  66 de 00 75 00 c2 31 7e 57 45 19 a3 45 ee 7f 38   f..u..1~WE..E..8
0480  de b2 90 41 eb c7 c2 21 5a 22 bf 7f d5 b5 ad 76   ...A...!Z".....v
0490  9a d9 0e 52 cd 00 00 01 99 31 01 fd 52 00 00 04   ...R.....1..R...
04a0  03 00 46 30 44 02 20 3a 47 25 06 e3 3e 6f 73 9f   ..F0D. :G%..>os.
04b0  86 ea d4 f2 1a 63 17 7e 3c 01 ff 1b 9b fc c8 1a   .....c.~<.......
04c0  16 65 fb 62 85 ca f7 02 20 7f 35 0c 2c b9 d3 c0   .e.b.... .5.,...
04d0  fe 06 69 4e bd 67 b3 98 f5 f0 00 14 2d 2e 5b 54   ..iN.g......-.[T
04e0  06 f2 71 0c df 69 21 34 84 00 76 00 94 4e 43 87   ..q..i!4..v..NC.
04f0  fa ec c1 ef 81 f3 19 24 26 a8 18 65 01 c7 d3 5f   .......$&..e..._
