=== GRAB TRAFFIC ANALYSIS REPORT ===
Timestamp: Mon Mar 30 12:16:43 UTC 2026
Frame 1: 80 bytes on wire (640 bits), 80 bytes captured (640 bits)
    Encapsulation type: Linux cooked-mode capture v2 (210)
    Arrival Time: Mar 30, 2026 12:16:37.790425000 UTC
    UTC Arrival Time: Mar 30, 2026 12:16:37.790425000 UTC
    Epoch Arrival Time: 1774872997.790425000
    [Time shift for this packet: 0.000000000 seconds]
    [Time delta from previous captured frame: 0.000000000 seconds]
    [Time delta from previous displayed frame: 0.000000000 seconds]
    [Time since reference or first frame: 0.000000000 seconds]
    Frame Number: 1
    Frame Length: 80 bytes (640 bits)
    Capture Length: 80 bytes (640 bits)
    [Frame is marked: False]
    [Frame is ignored: False]
    [Protocols in frame: sll:ethertype:ip:tcp]
Linux cooked capture v2
    Protocol: IPv4 (0x0800)
    Interface index: 2
    Link-layer address type: Ethernet (1)
    Packet type: Sent by us (4)
    Link-layer address length: 6
    Source: Microsoft_ca:3e:d7 (7c:ed:8d:ca:3e:d7)
    Unused: 0000
Internet Protocol Version 4, Src: 10.1.0.218, Dst: 54.251.142.49
    0100 .... = Version: 4
    .... 0101 = Header Length: 20 bytes (5)
    Differentiated Services Field: 0x00 (DSCP: CS0, ECN: Not-ECT)
        0000 00.. = Differentiated Services Codepoint: Default (0)
        .... ..00 = Explicit Congestion Notification: Not ECN-Capable Transport (0)
    Total Length: 60
    Identification: 0xf65d (63069)
    010. .... = Flags: 0x2, Don't fragment
        0... .... = Reserved bit: Not set
        .1.. .... = Don't fragment: Set
        ..0. .... = More fragments: Not set
    ...0 0000 0000 0000 = Fragment Offset: 0
    Time to Live: 64
    Protocol: TCP (6)
    Header Checksum: 0x7457 [validation disabled]
    [Header checksum status: Unverified]
    Source Address: 10.1.0.218
    Destination Address: 54.251.142.49
Transmission Control Protocol, Src Port: 43628, Dst Port: 443, Seq: 0, Len: 0
    Source Port: 43628
    Destination Port: 443
    [Stream index: 0]
    [Conversation completeness: Incomplete (0)]
        ..0. .... = RST: Absent
        ...0 .... = FIN: Absent
        .... 0... = Data: Absent
        .... .0.. = ACK: Absent
        .... ..0. = SYN-ACK: Absent
        .... ...0 = SYN: Absent
        [Completeness Flags: [ Null ]]
    [TCP Segment Len: 0]
    Sequence Number: 0    (relative sequence number)
    Sequence Number (raw): 3695716250
    [Next Sequence Number: 1    (relative sequence number)]
    Acknowledgment Number: 0
    Acknowledgment number (raw): 0
    1010 .... = Header Length: 40 bytes (10)
    Flags: 0x002 (SYN)
        000. .... .... = Reserved: Not set
        ...0 .... .... = Accurate ECN: Not set
        .... 0... .... = Congestion Window Reduced: Not set
        .... .0.. .... = ECN-Echo: Not set
        .... ..0. .... = Urgent: Not set
        .... ...0 .... = Acknowledgment: Not set
        .... .... 0... = Push: Not set
        .... .... .0.. = Reset: Not set
        .... .... ..1. = Syn: Set
            [Expert Info (Chat/Sequence): Connection establish request (SYN): server port 443]
                [Connection establish request (SYN): server port 443]
                [Severity level: Chat]
                [Group: Sequence]
        .... .... ...0 = Fin: Not set
        [TCP Flags: ··········S·]
    Window: 64240
    [Calculated window size: 64240]
    Checksum: 0xd035 [unverified]
    [Checksum Status: Unverified]
    Urgent Pointer: 0
    Options: (20 bytes), Maximum segment size, SACK permitted, Timestamps, No-Operation (NOP), Window scale
        TCP Option - Maximum segment size: 1460 bytes
            Kind: Maximum Segment Size (2)
            Length: 4
            MSS Value: 1460
        TCP Option - SACK permitted
            Kind: SACK Permitted (4)
            Length: 2
        TCP Option - Timestamps
            Kind: Time Stamp Option (8)
            Length: 10
            Timestamp value: 2631303309: TSval 2631303309, TSecr 0
            Timestamp echo reply: 0
        TCP Option - No-Operation (NOP)
            Kind: No-Operation (1)
        TCP Option - Window scale: 10 (multiply by 1024)
            Kind: Window Scale (3)
            Length: 3
            Shift count: 10
            [Multiplier: 1024]
    [Timestamps]
        [Time since first frame in this TCP stream: 0.000000000 seconds]
        [Time since previous frame in this TCP stream: 0.000000000 seconds]

0000  08 00 00 00 00 00 00 02 00 01 04 06 7c ed 8d ca   ............|...
0010  3e d7 00 00 45 00 00 3c f6 5d 40 00 40 06 74 57   >...E..<.]@.@.tW
0020  0a 01 00 da 36 fb 8e 31 aa 6c 01 bb dc 48 27 9a   ....6..1.l...H'.
0030  00 00 00 00 a0 02 fa f0 d0 35 00 00 02 04 05 b4   .........5......
0040  04 02 08 0a 9c d6 80 8d 00 00 00 00 01 03 03 0a   ................

Frame 2: 80 bytes on wire (640 bits), 80 bytes captured (640 bits)
    Encapsulation type: Linux cooked-mode capture v2 (210)
    Arrival Time: Mar 30, 2026 12:16:37.790428000 UTC
    UTC Arrival Time: Mar 30, 2026 12:16:37.790428000 UTC
    Epoch Arrival Time: 1774872997.790428000
    [Time shift for this packet: 0.000000000 seconds]
    [Time delta from previous captured frame: 0.000003000 seconds]
    [Time delta from previous displayed frame: 0.000003000 seconds]
    [Time since reference or first frame: 0.000003000 seconds]
    Frame Number: 2
    Frame Length: 80 bytes (640 bits)
    Capture Length: 80 bytes (640 bits)
    [Frame is marked: False]
    [Frame is ignored: False]
    [Protocols in frame: sll:ethertype:ip:tcp]
Linux cooked capture v2
    Protocol: IPv4 (0x0800)
    Interface index: 3
    Link-layer address type: Ethernet (1)
    Packet type: Sent by us (4)
    Link-layer address length: 6
    Source: Microsoft_ca:3e:d7 (7c:ed:8d:ca:3e:d7)
    Unused: 0000
Internet Protocol Version 4, Src: 10.1.0.218, Dst: 54.251.142.49
    0100 .... = Version: 4
    .... 0101 = Header Length: 20 bytes (5)
    Differentiated Services Field: 0x00 (DSCP: CS0, ECN: Not-ECT)
        0000 00.. = Differentiated Services Codepoint: Default (0)
        .... ..00 = Explicit Congestion Notification: Not ECN-Capable Transport (0)
    Total Length: 60
    Identification: 0xf65d (63069)
    010. .... = Flags: 0x2, Don't fragment
        0... .... = Reserved bit: Not set
        .1.. .... = Don't fragment: Set
        ..0. .... = More fragments: Not set
    ...0 0000 0000 0000 = Fragment Offset: 0
    Time to Live: 64
    Protocol: TCP (6)
    Header Checksum: 0x7457 [validation disabled]
    [Header checksum status: Unverified]
    Source Address: 10.1.0.218
    Destination Address: 54.251.142.49
Transmission Control Protocol, Src Port: 43628, Dst Port: 443, Seq: 0, Len: 0
    Source Port: 43628
    Destination Port: 443
    [Stream index: 0]
    [Conversation completeness: Incomplete, SYN_SENT (1)]
        ..0. .... = RST: Absent
        ...0 .... = FIN: Absent
        .... 0... = Data: Absent
        .... .0.. = ACK: Absent
        .... ..0. = SYN-ACK: Absent
        .... ...1 = SYN: Present
        [Completeness Flags: ·····S]
    [TCP Segment Len: 0]
    Sequence Number: 0    (relative sequence number)
    Sequence Number (raw): 3695716250
    [Next Sequence Number: 1    (relative sequence number)]
    Acknowledgment Number: 0
    Acknowledgment number (raw): 0
    1010 .... = Header Length: 40 bytes (10)
    Flags: 0x002 (SYN)
        000. .... .... = Reserved: Not set
        ...0 .... .... = Accurate ECN: Not set
        .... 0... .... = Congestion Window Reduced: Not set
        .... .0.. .... = ECN-Echo: Not set
        .... ..0. .... = Urgent: Not set
        .... ...0 .... = Acknowledgment: Not set
        .... .... 0... = Push: Not set
        .... .... .0.. = Reset: Not set
        .... .... ..1. = Syn: Set
            [Expert Info (Chat/Sequence): Connection establish request (SYN): server port 443]
                [Connection establish request (SYN): server port 443]
                [Severity level: Chat]
                [Group: Sequence]
        .... .... ...0 = Fin: Not set
        [TCP Flags: ··········S·]
    Window: 64240
    [Calculated window size: 64240]
    Checksum: 0xd035 [unverified]
    [Checksum Status: Unverified]
    Urgent Pointer: 0
    Options: (20 bytes), Maximum segment size, SACK permitted, Timestamps, No-Operation (NOP), Window scale
        TCP Option - Maximum segment size: 1460 bytes
            Kind: Maximum Segment Size (2)
            Length: 4
            MSS Value: 1460
        TCP Option - SACK permitted
            Kind: SACK Permitted (4)
            Length: 2
        TCP Option - Timestamps
            Kind: Time Stamp Option (8)
            Length: 10
            Timestamp value: 2631303309: TSval 2631303309, TSecr 0
            Timestamp echo reply: 0
        TCP Option - No-Operation (NOP)
            Kind: No-Operation (1)
        TCP Option - Window scale: 10 (multiply by 1024)
            Kind: Window Scale (3)
            Length: 3
            Shift count: 10
            [Multiplier: 1024]
    [Timestamps]
        [Time since first frame in this TCP stream: 0.000003000 seconds]
        [Time since previous frame in this TCP stream: 0.000003000 seconds]
    [SEQ/ACK analysis]
        [TCP Analysis Flags]
            [Expert Info (Note/Sequence): This frame is a (suspected) retransmission]
                [This frame is a (suspected) retransmission]
                [Severity level: Note]
                [Group: Sequence]
            [The RTO for this segment was: 0.000003000 seconds]
            [RTO based on delta from frame: 1]

0000  08 00 00 00 00 00 00 03 00 01 04 06 7c ed 8d ca   ............|...
0010  3e d7 00 00 45 00 00 3c f6 5d 40 00 40 06 74 57   >...E..<.]@.@.tW
0020  0a 01 00 da 36 fb 8e 31 aa 6c 01 bb dc 48 27 9a   ....6..1.l...H'.
0030  00 00 00 00 a0 02 fa f0 d0 35 00 00 02 04 05 b4   .........5......
0040  04 02 08 0a 9c d6 80 8d 00 00 00 00 01 03 03 0a   ................

Frame 3: 80 bytes on wire (640 bits), 80 bytes captured (640 bits)
    Encapsulation type: Linux cooked-mode capture v2 (210)
    Arrival Time: Mar 30, 2026 12:16:37.997102000 UTC
    UTC Arrival Time: Mar 30, 2026 12:16:37.997102000 UTC
    Epoch Arrival Time: 1774872997.997102000
    [Time shift for this packet: 0.000000000 seconds]
    [Time delta from previous captured frame: 0.206674000 seconds]
    [Time delta from previous displayed frame: 0.206674000 seconds]
    [Time since reference or first frame: 0.206677000 seconds]
    Frame Number: 3
    Frame Length: 80 bytes (640 bits)
    Capture Length: 80 bytes (640 bits)
    [Frame is marked: False]
    [Frame is ignored: False]
    [Protocols in frame: sll:ethertype:ip:tcp]
Linux cooked capture v2
    Protocol: IPv4 (0x0800)
    Interface index: 2
    Link-layer address type: Ethernet (1)
    Packet type: Unicast to us (0)
    Link-layer address length: 6
    Source: 12:34:56:78:9a:bc (12:34:56:78:9a:bc)
    Unused: 0000
Internet Protocol Version 4, Src: 54.251.142.49, Dst: 10.1.0.218
    0100 .... = Version: 4
    .... 0101 = Header Length: 20 bytes (5)
    Differentiated Services Field: 0x00 (DSCP: CS0, ECN: Not-ECT)
        0000 00.. = Differentiated Services Codepoint: Default (0)
        .... ..00 = Explicit Congestion Notification: Not ECN-Capable Transport (0)
    Total Length: 60
    Identification: 0x0000 (0)
    010. .... = Flags: 0x2, Don't fragment
        0... .... = Reserved bit: Not set
        .1.. .... = Don't fragment: Set
        ..0. .... = More fragments: Not set
    ...0 0000 0000 0000 = Fragment Offset: 0
    Time to Live: 238
    Protocol: TCP (6)
    Header Checksum: 0xbcb4 [validation disabled]
    [Header checksum status: Unverified]
    Source Address: 54.251.142.49
    Destination Address: 10.1.0.218
Transmission Control Protocol, Src Port: 443, Dst Port: 43628, Seq: 0, Ack: 1, Len: 0
    Source Port: 443
    Destination Port: 43628
    [Stream index: 0]
    [Conversation completeness: Incomplete, SYN_SENT (1)]
        ..0. .... = RST: Absent
        ...0 .... = FIN: Absent
        .... 0... = Data: Absent
        .... .0.. = ACK: Absent
        .... ..0. = SYN-ACK: Absent
        .... ...1 = SYN: Present
        [Completeness Flags: ·····S]
    [TCP Segment Len: 0]
    Sequence Number: 0    (relative sequence number)
    Sequence Number (raw): 2371871353
    [Next Sequence Number: 1    (relative sequence number)]
    Acknowledgment Number: 1    (relative ack number)
    Acknowledgment number (raw): 3695716251
    1010 .... = Header Length: 40 bytes (10)
    Flags: 0x012 (SYN, ACK)
        000. .... .... = Reserved: Not set
        ...0 .... .... = Accurate ECN: Not set
        .... 0... .... = Congestion Window Reduced: Not set
        .... .0.. .... = ECN-Echo: Not set
        .... ..0. .... = Urgent: Not set
        .... ...1 .... = Acknowledgment: Set
        .... .... 0... = Push: Not set
        .... .... .0.. = Reset: Not set
        .... .... ..1. = Syn: Set
            [Expert Info (Chat/Sequence): Connection establish acknowledge (SYN+ACK): server port 443]
                [Connection establish acknowledge (SYN+ACK): server port 443]
                [Severity level: Chat]
                [Group: Sequence]
        .... .... ...0 = Fin: Not set
        [TCP Flags: ·······A··S·]
    Window: 26847
    [Calculated window size: 26847]
    Checksum: 0xb4f3 [unverified]
    [Checksum Status: Unverified]
    Urgent Pointer: 0
    Options: (20 bytes), Maximum segment size, SACK permitted, Timestamps, No-Operation (NOP), Window scale
        TCP Option - Maximum segment size: 1460 bytes
            Kind: Maximum Segment Size (2)
            Length: 4
            MSS Value: 1460
        TCP Option - SACK permitted
            Kind: SACK Permitted (4)
            Length: 2
        TCP Option - Timestamps
            Kind: Time Stamp Option (8)
            Length: 10
            Timestamp value: 1638120232: TSval 1638120232, TSecr 2631303309
            Timestamp echo reply: 2631303309
        TCP Option - No-Operation (NOP)
            Kind: No-Operation (1)
        TCP Option - Window scale: 8 (multiply by 256)
            Kind: Window Scale (3)
            Length: 3
            Shift count: 8
            [Multiplier: 256]
    [Timestamps]
        [Time since first frame in this TCP stream: 0.206677000 seconds]
        [Time since previous frame in this TCP stream: 0.206674000 seconds]
    [SEQ/ACK analysis]
        [This is an ACK to the segment in frame: 1]
        [The RTT to ACK the segment was: 0.206677000 seconds]

0000  08 00 00 00 00 00 00 02 00 01 00 06 12 34 56 78   .............4Vx
0010  9a bc 00 00 45 00 00 3c 00 00 40 00 ee 06 bc b4   ....E..<..@.....
0020  36 fb 8e 31 0a 01 00 da 01 bb aa 6c 8d 5f e2 79   6..1.......l._.y
0030  dc 48 27 9b a0 12 68 df b4 f3 00 00 02 04 05 b4   .H'...h.........
0040  04 02 08 0a 61 a3 bb 28 9c d6 80 8d 01 03 03 08   ....a..(........

Frame 4: 72 bytes on wire (576 bits), 72 bytes captured (576 bits)
    Encapsulation type: Linux cooked-mode capture v2 (210)
    Arrival Time: Mar 30, 2026 12:16:37.997152000 UTC
    UTC Arrival Time: Mar 30, 2026 12:16:37.997152000 UTC
    Epoch Arrival Time: 1774872997.997152000
    [Time shift for this packet: 0.000000000 seconds]
    [Time delta from previous captured frame: 0.000050000 seconds]
    [Time delta from previous displayed frame: 0.000050000 seconds]
    [Time since reference or first frame: 0.206727000 seconds]
    Frame Number: 4
    Frame Length: 72 bytes (576 bits)
    Capture Length: 72 bytes (576 bits)
    [Frame is marked: False]
    [Frame is ignored: False]
    [Protocols in frame: sll:ethertype:ip:tcp]
Linux cooked capture v2
    Protocol: IPv4 (0x0800)
    Interface index: 2
    Link-layer address type: Ethernet (1)
    Packet type: Sent by us (4)
    Link-layer address length: 6
    Source: Microsoft_ca:3e:d7 (7c:ed:8d:ca:3e:d7)
    Unused: 0000
Internet Protocol Version 4, Src: 10.1.0.218, Dst: 54.251.142.49
    0100 .... = Version: 4
    .... 0101 = Header Length: 20 bytes (5)
    Differentiated Services Field: 0x00 (DSCP: CS0, ECN: Not-ECT)
        0000 00.. = Differentiated Services Codepoint: Default (0)
        .... ..00 = Explicit Congestion Notification: Not ECN-Capable Transport (0)
    Total Length: 52
    Identification: 0xf65e (63070)
    010. .... = Flags: 0x2, Don't fragment
        0... .... = Reserved bit: Not set
        .1.. .... = Don't fragment: Set
        ..0. .... = More fragments: Not set
    ...0 0000 0000 0000 = Fragment Offset: 0
    Time to Live: 64
    Protocol: TCP (6)
    Header Checksum: 0x745e [validation disabled]
    [Header checksum status: Unverified]
    Source Address: 10.1.0.218
    Destination Address: 54.251.142.49
Transmission Control Protocol, Src Port: 43628, Dst Port: 443, Seq: 1, Ack: 1, Len: 0
    Source Port: 43628
    Destination Port: 443
    [Stream index: 0]
    [Conversation completeness: Incomplete, CLIENT_ESTABLISHED (3)]
        ..0. .... = RST: Absent
        ...0 .... = FIN: Absent
        .... 0... = Data: Absent
        .... .0.. = ACK: Absent
        .... ..1. = SYN-ACK: Present
        .... ...1 = SYN: Present
        [Completeness Flags: ····SS]
    [TCP Segment Len: 0]
    Sequence Number: 1    (relative sequence number)
    Sequence Number (raw): 3695716251
    [Next Sequence Number: 1    (relative sequence number)]
    Acknowledgment Number: 1    (relative ack number)
    Acknowledgment number (raw): 2371871354
    1000 .... = Header Length: 32 bytes (8)
    Flags: 0x010 (ACK)
        000. .... .... = Reserved: Not set
        ...0 .... .... = Accurate ECN: Not set
        .... 0... .... = Congestion Window Reduced: Not set
        .... .0.. .... = ECN-Echo: Not set
        .... ..0. .... = Urgent: Not set
        .... ...1 .... = Acknowledgment: Set
        .... .... 0... = Push: Not set
        .... .... .0.. = Reset: Not set
        .... .... ..0. = Syn: Not set
        .... .... ...0 = Fin: Not set
        [TCP Flags: ·······A····]
    Window: 63
    [Calculated window size: 64512]
    [Window size scaling factor: 1024]
    Checksum: 0xd02d [unverified]
    [Checksum Status: Unverified]
    Urgent Pointer: 0
    Options: (12 bytes), No-Operation (NOP), No-Operation (NOP), Timestamps
        TCP Option - No-Operation (NOP)
            Kind: No-Operation (1)
        TCP Option - No-Operation (NOP)
            Kind: No-Operation (1)
        TCP Option - Timestamps
            Kind: Time Stamp Option (8)
            Length: 10
            Timestamp value: 2631303515: TSval 2631303515, TSecr 1638120232
            Timestamp echo reply: 1638120232
    [Timestamps]
        [Time since first frame in this TCP stream: 0.206727000 seconds]
        [Time since previous frame in this TCP stream: 0.000050000 seconds]
    [SEQ/ACK analysis]
        [This is an ACK to the segment in frame: 3]
        [The RTT to ACK the segment was: 0.000050000 seconds]
        [iRTT: 0.206724000 seconds]

0000  08 00 00 00 00 00 00 02 00 01 04 06 7c ed 8d ca   ............|...
0010  3e d7 00 00 45 00 00 34 f6 5e 40 00 40 06 74 5e   >...E..4.^@.@.t^
0020  0a 01 00 da 36 fb 8e 31 aa 6c 01 bb dc 48 27 9b   ....6..1.l...H'.
0030  8d 5f e2 7a 80 10 00 3f d0 2d 00 00 01 01 08 0a   ._.z...?.-......
0040  9c d6 81 5b 61 a3 bb 28                           ...[a..(

Frame 5: 72 bytes on wire (576 bits), 72 bytes captured (576 bits)
    Encapsulation type: Linux cooked-mode capture v2 (210)
    Arrival Time: Mar 30, 2026 12:16:37.997156000 UTC
    UTC Arrival Time: Mar 30, 2026 12:16:37.997156000 UTC
    Epoch Arrival Time: 1774872997.997156000
    [Time shift for this packet: 0.000000000 seconds]
    [Time delta from previous captured frame: 0.000004000 seconds]
    [Time delta from previous displayed frame: 0.000004000 seconds]
    [Time since reference or first frame: 0.206731000 seconds]
    Frame Number: 5
    Frame Length: 72 bytes (576 bits)
    Capture Length: 72 bytes (576 bits)
    [Frame is marked: False]
    [Frame is ignored: False]
    [Protocols in frame: sll:ethertype:ip:tcp]
Linux cooked capture v2
    Protocol: IPv4 (0x0800)
    Interface index: 3
    Link-layer address type: Ethernet (1)
    Packet type: Sent by us (4)
    Link-layer address length: 6
    Source: Microsoft_ca:3e:d7 (7c:ed:8d:ca:3e:d7)
    Unused: 0000
Internet Protocol Version 4, Src: 10.1.0.218, Dst: 54.251.142.49
    0100 .... = Version: 4
    .... 0101 = Header Length: 20 bytes (5)
    Differentiated Services Field: 0x00 (DSCP: CS0, ECN: Not-ECT)
        0000 00.. = Differentiated Services Codepoint: Default (0)
        .... ..00 = Explicit Congestion Notification: Not ECN-Capable Transport (0)
    Total Length: 52
    Identification: 0xf65e (63070)
    010. .... = Flags: 0x2, Don't fragment
        0... .... = Reserved bit: Not set
        .1.. .... = Don't fragment: Set
        ..0. .... = More fragments: Not set
    ...0 0000 0000 0000 = Fragment Offset: 0
    Time to Live: 64
    Protocol: TCP (6)
    Header Checksum: 0x745e [validation disabled]
    [Header checksum status: Unverified]
    Source Address: 10.1.0.218
    Destination Address: 54.251.142.49
Transmission Control Protocol, Src Port: 43628, Dst Port: 443, Seq: 1, Ack: 1, Len: 0
    Source Port: 43628
    Destination Port: 443
    [Stream index: 0]
    [Conversation completeness: Incomplete, ESTABLISHED (7)]
        ..0. .... = RST: Absent
        ...0 .... = FIN: Absent
        .... 0... = Data: Absent
        .... .1.. = ACK: Present
        .... ..1. = SYN-ACK: Present
        .... ...1 = SYN: Present
        [Completeness Flags: ···ASS]
    [TCP Segment Len: 0]
    Sequence Number: 1    (relative sequence number)
    Sequence Number (raw): 3695716251
    [Next Sequence Number: 1    (relative sequence number)]
    Acknowledgment Number: 1    (relative ack number)
    Acknowledgment number (raw): 2371871354
    1000 .... = Header Length: 32 bytes (8)
    Flags: 0x010 (ACK)
        000. .... .... = Reserved: Not set
        ...0 .... .... = Accurate ECN: Not set
        .... 0... .... = Congestion Window Reduced: Not set
        .... .0.. .... = ECN-Echo: Not set
        .... ..0. .... = Urgent: Not set
        .... ...1 .... = Acknowledgment: Set
        .... .... 0... = Push: Not set
        .... .... .0.. = Reset: Not set
        .... .... ..0. = Syn: Not set
        .... .... ...0 = Fin: Not set
        [TCP Flags: ·······A····]
    Window: 63
    [Calculated window size: 64512]
    [Window size scaling factor: 1024]
    Checksum: 0xd02d [unverified]
    [Checksum Status: Unverified]
    Urgent Pointer: 0
    Options: (12 bytes), No-Operation (NOP), No-Operation (NOP), Timestamps
        TCP Option - No-Operation (NOP)
            Kind: No-Operation (1)
        TCP Option - No-Operation (NOP)
            Kind: No-Operation (1)
        TCP Option - Timestamps
            Kind: Time Stamp Option (8)
            Length: 10
            Timestamp value: 2631303515: TSval 2631303515, TSecr 1638120232
            Timestamp echo reply: 1638120232
    [Timestamps]
        [Time since first frame in this TCP stream: 0.206731000 seconds]
        [Time since previous frame in this TCP stream: 0.000004000 seconds]
    [SEQ/ACK analysis]
        [iRTT: 0.206724000 seconds]
        [TCP Analysis Flags]
            [This is a TCP duplicate ack]
        [Duplicate ACK #: 1]
        [Duplicate to the ACK in frame: 4]
            [Expert Info (Note/Sequence): Duplicate ACK (#1)]
                [Duplicate ACK (#1)]
                [Severity level: Note]
                [Group: Sequence]

0000  08 00 00 00 00 00 00 03 00 01 04 06 7c ed 8d ca   ............|...
0010  3e d7 00 00 45 00 00 34 f6 5e 40 00 40 06 74 5e   >...E..4.^@.@.t^
0020  0a 01 00 da 36 fb 8e 31 aa 6c 01 bb dc 48 27 9b   ....6..1.l...H'.
0030  8d 5f e2 7a 80 10 00 3f d0 2d 00 00 01 01 08 0a   ._.z...?.-......
0040  9c d6 81 5b 61 a3 bb 28                           ...[a..(

Frame 6: 589 bytes on wire (4712 bits), 589 bytes captured (4712 bits)
    Encapsulation type: Linux cooked-mode capture v2 (210)
    Arrival Time: Mar 30, 2026 12:16:38.018879000 UTC
    UTC Arrival Time: Mar 30, 2026 12:16:38.018879000 UTC
    Epoch Arrival Time: 1774872998.018879000
    [Time shift for this packet: 0.000000000 seconds]
    [Time delta from previous captured frame: 0.021723000 seconds]
    [Time delta from previous displayed frame: 0.021723000 seconds]
    [Time since reference or first frame: 0.228454000 seconds]
    Frame Number: 6
    Frame Length: 589 bytes (4712 bits)
    Capture Length: 589 bytes (4712 bits)
    [Frame is marked: False]
    [Frame is ignored: False]
    [Protocols in frame: sll:ethertype:ip:tcp:tls]
Linux cooked capture v2
    Protocol: IPv4 (0x0800)
    Interface index: 2
    Link-layer address type: Ethernet (1)
    Packet type: Sent by us (4)
    Link-layer address length: 6
    Source: Microsoft_ca:3e:d7 (7c:ed:8d:ca:3e:d7)
    Unused: 0000
Internet Protocol Version 4, Src: 10.1.0.218, Dst: 54.251.142.49
    0100 .... = Version: 4
    .... 0101 = Header Length: 20 bytes (5)
    Differentiated Services Field: 0x00 (DSCP: CS0, ECN: Not-ECT)
        0000 00.. = Differentiated Services Codepoint: Default (0)
        .... ..00 = Explicit Congestion Notification: Not ECN-Capable Transport (0)
    Total Length: 569
    Identification: 0xf65f (63071)
    010. .... = Flags: 0x2, Don't fragment
        0... .... = Reserved bit: Not set
        .1.. .... = Don't fragment: Set
        ..0. .... = More fragments: Not set
    ...0 0000 0000 0000 = Fragment Offset: 0
    Time to Live: 64
    Protocol: TCP (6)
    Header Checksum: 0x7258 [validation disabled]
    [Header checksum status: Unverified]
    Source Address: 10.1.0.218
    Destination Address: 54.251.142.49
Transmission Control Protocol, Src Port: 43628, Dst Port: 443, Seq: 1, Ack: 1, Len: 517
    Source Port: 43628
    Destination Port: 443
    [Stream index: 0]
    [Conversation completeness: Incomplete, ESTABLISHED (7)]
        ..0. .... = RST: Absent
        ...0 .... = FIN: Absent
        .... 0... = Data: Absent
        .... .1.. = ACK: Present
        .... ..1. = SYN-ACK: Present
        .... ...1 = SYN: Present
        [Completeness Flags: ···ASS]
    [TCP Segment Len: 517]
    Sequence Number: 1    (relative sequence number)
    Sequence Number (raw): 3695716251
    [Next Sequence Number: 518    (relative sequence number)]
    Acknowledgment Number: 1    (relative ack number)
    Acknowledgment number (raw): 2371871354
    1000 .... = Header Length: 32 bytes (8)
    Flags: 0x018 (PSH, ACK)
        000. .... .... = Reserved: Not set
        ...0 .... .... = Accurate ECN: Not set
        .... 0... .... = Congestion Window Reduced: Not set
        .... .0.. .... = ECN-Echo: Not set
        .... ..0. .... = Urgent: Not set
        .... ...1 .... = Acknowledgment: Set
        .... .... 1... = Push: Set
        .... .... .0.. = Reset: Not set
        .... .... ..0. = Syn: Not set
        .... .... ...0 = Fin: Not set
        [TCP Flags: ·······AP···]
    Window: 63
    [Calculated window size: 64512]
    [Window size scaling factor: 1024]
    Checksum: 0xd232 [unverified]
    [Checksum Status: Unverified]
    Urgent Pointer: 0
    Options: (12 bytes), No-Operation (NOP), No-Operation (NOP), Timestamps
        TCP Option - No-Operation (NOP)
            Kind: No-Operation (1)
        TCP Option - No-Operation (NOP)
            Kind: No-Operation (1)
        TCP Option - Timestamps
            Kind: Time Stamp Option (8)
            Length: 10
            Timestamp value: 2631303537: TSval 2631303537, TSecr 1638120232
            Timestamp echo reply: 1638120232
    [Timestamps]
        [Time since first frame in this TCP stream: 0.228454000 seconds]
        [Time since previous frame in this TCP stream: 0.021723000 seconds]
    [SEQ/ACK analysis]
        [iRTT: 0.206724000 seconds]
        [Bytes in flight: 517]
        [Bytes sent since last PSH flag: 517]
    TCP payload (517 bytes)
Transport Layer Security
    TLSv1 Record Layer: Handshake Protocol: Client Hello
        Content Type: Handshake (22)
        Version: TLS 1.0 (0x0301)
        Length: 512
        Handshake Protocol: Client Hello
            Handshake Type: Client Hello (1)
            Length: 508
            Version: TLS 1.2 (0x0303)
            Random: 586b58d918bf0aeb48162244650abe4a911b19416c685e6364b10264236f53d2
                GMT Unix Time: Jan  3, 2017 07:55:05.000000000 UTC
                Random Bytes: 18bf0aeb48162244650abe4a911b19416c685e6364b10264236f53d2
            Session ID Length: 32
            Session ID: 2418a78c7d12ab1fc900767f422a49b959685c70aae71373f3aedba99a42f566
            Cipher Suites Length: 36
            Cipher Suites (18 suites)
                Cipher Suite: TLS_AES_256_GCM_SHA384 (0x1302)
                Cipher Suite: TLS_CHACHA20_POLY1305_SHA256 (0x1303)
                Cipher Suite: TLS_AES_128_GCM_SHA256 (0x1301)
                Cipher Suite: TLS_ECDHE_ECDSA_WITH_AES_256_GCM_SHA384 (0xc02c)
                Cipher Suite: TLS_ECDHE_RSA_WITH_AES_256_GCM_SHA384 (0xc030)
                Cipher Suite: TLS_ECDHE_ECDSA_WITH_AES_128_GCM_SHA256 (0xc02b)
                Cipher Suite: TLS_ECDHE_RSA_WITH_AES_128_GCM_SHA256 (0xc02f)
                Cipher Suite: TLS_ECDHE_ECDSA_WITH_CHACHA20_POLY1305_SHA256 (0xcca9)
                Cipher Suite: TLS_ECDHE_RSA_WITH_CHACHA20_POLY1305_SHA256 (0xcca8)
                Cipher Suite: TLS_ECDHE_ECDSA_WITH_AES_256_CBC_SHA384 (0xc024)
                Cipher Suite: TLS_ECDHE_RSA_WITH_AES_256_CBC_SHA384 (0xc028)
                Cipher Suite: TLS_ECDHE_ECDSA_WITH_AES_128_CBC_SHA256 (0xc023)
                Cipher Suite: TLS_ECDHE_RSA_WITH_AES_128_CBC_SHA256 (0xc027)
                Cipher Suite: TLS_DHE_RSA_WITH_AES_256_GCM_SHA384 (0x009f)
                Cipher Suite: TLS_DHE_RSA_WITH_AES_128_GCM_SHA256 (0x009e)
                Cipher Suite: TLS_DHE_RSA_WITH_AES_256_CBC_SHA256 (0x006b)
                Cipher Suite: TLS_DHE_RSA_WITH_AES_128_CBC_SHA256 (0x0067)
                Cipher Suite: TLS_EMPTY_RENEGOTIATION_INFO_SCSV (0x00ff)
            Compression Methods Length: 1
            Compression Methods (1 method)
                Compression Method: null (0)
            Extensions Length: 399
            Extension: server_name (len=29) name=mcd-gateway.grabtaxi.com
                Type: server_name (0)
                Length: 29
                Server Name Indication extension
                    Server Name list length: 27
                    Server Name Type: host_name (0)
                    Server Name length: 24
                    Server Name: mcd-gateway.grabtaxi.com
            Extension: ec_point_formats (len=4)
                Type: ec_point_formats (11)
                Length: 4
                EC point formats Length: 3
                Elliptic curves point formats (3)
                    EC point format: uncompressed (0)
                    EC point format: ansiX962_compressed_prime (1)
                    EC point format: ansiX962_compressed_char2 (2)
            Extension: supported_groups (len=22)
                Type: supported_groups (10)
                Length: 22
                Supported Groups List Length: 20
                Supported Groups (10 groups)
                    Supported Group: x25519 (0x001d)
                    Supported Group: secp256r1 (0x0017)
                    Supported Group: x448 (0x001e)
                    Supported Group: secp521r1 (0x0019)
                    Supported Group: secp384r1 (0x0018)
                    Supported Group: ffdhe2048 (0x0100)
                    Supported Group: ffdhe3072 (0x0101)
                    Supported Group: ffdhe4096 (0x0102)
                    Supported Group: ffdhe6144 (0x0103)
                    Supported Group: ffdhe8192 (0x0104)
            Extension: application_layer_protocol_negotiation (len=11)
                Type: application_layer_protocol_negotiation (16)
                Length: 11
                ALPN Extension Length: 9
                ALPN Protocol
                    ALPN string length: 8
                    ALPN Next Protocol: http/1.1
            Extension: encrypt_then_mac (len=0)
                Type: encrypt_then_mac (22)
                Length: 0
            Extension: extended_master_secret (len=0)
                Type: extended_master_secret (23)
                Length: 0
            Extension: post_handshake_auth (len=0)
                Type: post_handshake_auth (49)
                Length: 0
            Extension: signature_algorithms (len=42)
                Type: signature_algorithms (13)
                Length: 42
                Signature Hash Algorithms Length: 40
                Signature Hash Algorithms (20 algorithms)
                    Signature Algorithm: ecdsa_secp256r1_sha256 (0x0403)
                        Signature Hash Algorithm Hash: SHA256 (4)
                        Signature Hash Algorithm Signature: ECDSA (3)
                    Signature Algorithm: ecdsa_secp384r1_sha384 (0x0503)
                        Signature Hash Algorithm Hash: SHA384 (5)
                        Signature Hash Algorithm Signature: ECDSA (3)
                    Signature Algorithm: ecdsa_secp521r1_sha512 (0x0603)
                        Signature Hash Algorithm Hash: SHA512 (6)
                        Signature Hash Algorithm Signature: ECDSA (3)
                    Signature Algorithm: ed25519 (0x0807)
                        Signature Hash Algorithm Hash: Unknown (8)
                        Signature Hash Algorithm Signature: Unknown (7)
                    Signature Algorithm: ed448 (0x0808)
                        Signature Hash Algorithm Hash: Unknown (8)
                        Signature Hash Algorithm Signature: Unknown (8)
                    Signature Algorithm: rsa_pss_pss_sha256 (0x0809)
                        Signature Hash Algorithm Hash: Unknown (8)
                        Signature Hash Algorithm Signature: Unknown (9)
                    Signature Algorithm: rsa_pss_pss_sha384 (0x080a)
                        Signature Hash Algorithm Hash: Unknown (8)
                        Signature Hash Algorithm Signature: Unknown (10)
                    Signature Algorithm: rsa_pss_pss_sha512 (0x080b)
                        Signature Hash Algorithm Hash: Unknown (8)
                        Signature Hash Algorithm Signature: Unknown (11)
                    Signature Algorithm: rsa_pss_rsae_sha256 (0x0804)
                        Signature Hash Algorithm Hash: Unknown (8)
                        Signature Hash Algorithm Signature: SM2 (4)
                    Signature Algorithm: rsa_pss_rsae_sha384 (0x0805)
                        Signature Hash Algorithm Hash: Unknown (8)
                        Signature Hash Algorithm Signature: Unknown (5)
                    Signature Algorithm: rsa_pss_rsae_sha512 (0x0806)
                        Signature Hash Algorithm Hash: Unknown (8)
                        Signature Hash Algorithm Signature: Unknown (6)
                    Signature Algorithm: rsa_pkcs1_sha256 (0x0401)
                        Signature Hash Algorithm Hash: SHA256 (4)
                        Signature Hash Algorithm Signature: RSA (1)
                    Signature Algorithm: rsa_pkcs1_sha384 (0x0501)
                        Signature Hash Algorithm Hash: SHA384 (5)
                        Signature Hash Algorithm Signature: RSA (1)
                    Signature Algorithm: rsa_pkcs1_sha512 (0x0601)
                        Signature Hash Algorithm Hash: SHA512 (6)
                        Signature Hash Algorithm Signature: RSA (1)
                    Signature Algorithm: SHA224 ECDSA (0x0303)
                        Signature Hash Algorithm Hash: SHA224 (3)
                        Signature Hash Algorithm Signature: ECDSA (3)
                    Signature Algorithm: SHA224 RSA (0x0301)
                        Signature Hash Algorithm Hash: SHA224 (3)
                        Signature Hash Algorithm Signature: RSA (1)
                    Signature Algorithm: SHA224 DSA (0x0302)
                        Signature Hash Algorithm Hash: SHA224 (3)
                        Signature Hash Algorithm Signature: DSA (2)
                    Signature Algorithm: SHA256 DSA (0x0402)
                        Signature Hash Algorithm Hash: SHA256 (4)
                        Signature Hash Algorithm Signature: DSA (2)
                    Signature Algorithm: SHA384 DSA (0x0502)
                        Signature Hash Algorithm Hash: SHA384 (5)
                        Signature Hash Algorithm Signature: DSA (2)
                    Signature Algorithm: SHA512 DSA (0x0602)
                        Signature Hash Algorithm Hash: SHA512 (6)
                        Signature Hash Algorithm Signature: DSA (2)
            Extension: supported_versions (len=5) TLS 1.3, TLS 1.2
                Type: supported_versions (43)
                Length: 5
                Supported Versions length: 4
                Supported Version: TLS 1.3 (0x0304)
                Supported Version: TLS 1.2 (0x0303)
            Extension: psk_key_exchange_modes (len=2)
                Type: psk_key_exchange_modes (45)
                Length: 2
                PSK Key Exchange Modes Length: 1
                PSK Key Exchange Mode: PSK with (EC)DHE key establishment (psk_dhe_ke) (1)
            Extension: key_share (len=38) x25519
                Type: key_share (51)
                Length: 38
                Key Share extension
                    Client Key Share Length: 36
                    Key Share Entry: Group: x25519, Key Exchange length: 32
                        Group: x25519 (29)
                        Key Exchange Length: 32
                        Key Exchange: 347ce673f4f8c089cd8d708e97256c4ccf6a30af437e6cce50f04ebec25fb775
            Extension: padding (len=198)
                Type: padding (21)
                Length: 198
                Padding Data [truncated]: 000000000000000000000000000000000000000000000000000000000000000000000000000000000000000000000000000000000000000000000000000000000000000000000000000000000000000000000000000000000000000000000000000000000000000000000
            [JA4: t13d1812h1_85036bcba153_b26ce05bbdd6]
            [JA4_r [truncated]: t13d1812h1_0067,006b,009e,009f,00ff,1301,1302,1303,c023,c024,c027,c028,c02b,c02c,c02f,c030,cca8,cca9_000a,000b,000d,0015,0016,0017,002b,002d,0031,0033_0403,0503,0603,0807,0808,0809,080a,080b,0804,0805,0806,0401,0501,0601]
            [JA3 Fullstring: 771,4866-4867-4865-49196-49200-49195-49199-52393-52392-49188-49192-49187-49191-159-158-107-103-255,0-11-10-16-22-23-49-13-43-45-51-21,29-23-30-25-24-256-257-258-259-260,0-1-2]
            [JA3: a48c0d5f95b1ef98f560f324fd275da1]

0000  08 00 00 00 00 00 00 02 00 01 04 06 7c ed 8d ca   ............|...
0010  3e d7 00 00 45 00 02 39 f6 5f 40 00 40 06 72 58   >...E..9._@.@.rX
0020  0a 01 00 da 36 fb 8e 31 aa 6c 01 bb dc 48 27 9b   ....6..1.l...H'.
0030  8d 5f e2 7a 80 18 00 3f d2 32 00 00 01 01 08 0a   ._.z...?.2......
0040  9c d6 81 71 61 a3 bb 28 16 03 01 02 00 01 00 01   ...qa..(........
0050  fc 03 03 58 6b 58 d9 18 bf 0a eb 48 16 22 44 65   ...XkX.....H."De
0060  0a be 4a 91 1b 19 41 6c 68 5e 63 64 b1 02 64 23   ..J...Alh^cd..d#
0070  6f 53 d2 20 24 18 a7 8c 7d 12 ab 1f c9 00 76 7f   oS. $...}.....v.
0080  42 2a 49 b9 59 68 5c 70 aa e7 13 73 f3 ae db a9   B*I.Yh\p...s....
0090  9a 42 f5 66 00 24 13 02 13 03 13 01 c0 2c c0 30   .B.f.$.......,.0
00a0  c0 2b c0 2f cc a9 cc a8 c0 24 c0 28 c0 23 c0 27   .+./.....$.(.#.'
00b0  00 9f 00 9e 00 6b 00 67 00 ff 01 00 01 8f 00 00   .....k.g........
00c0  00 1d 00 1b 00 00 18 6d 63 64 2d 67 61 74 65 77   .......mcd-gatew
00d0  61 79 2e 67 72 61 62 74 61 78 69 2e 63 6f 6d 00   ay.grabtaxi.com.
00e0  0b 00 04 03 00 01 02 00 0a 00 16 00 14 00 1d 00   ................
00f0  17 00 1e 00 19 00 18 01 00 01 01 01 02 01 03 01   ................
0100  04 00 10 00 0b 00 09 08 68 74 74 70 2f 31 2e 31   ........http/1.1
0110  00 16 00 00 00 17 00 00 00 31 00 00 00 0d 00 2a   .........1.....*
0120  00 28 04 03 05 03 06 03 08 07 08 08 08 09 08 0a   .(..............
0130  08 0b 08 04 08 05 08 06 04 01 05 01 06 01 03 03   ................
0140  03 01 03 02 04 02 05 02 06 02 00 2b 00 05 04 03   ...........+....
0150  04 03 03 00 2d 00 02 01 01 00 33 00 26 00 24 00   ....-.....3.&.$.
0160  1d 00 20 34 7c e6 73 f4 f8 c0 89 cd 8d 70 8e 97   .. 4|.s......p..
0170  25 6c 4c cf 6a 30 af 43 7e 6c ce 50 f0 4e be c2   %lL.j0.C~l.P.N..
0180  5f b7 75 00 15 00 c6 00 00 00 00 00 00 00 00 00   _.u.............
0190  00 00 00 00 00 00 00 00 00 00 00 00 00 00 00 00   ................
01a0  00 00 00 00 00 00 00 00 00 00 00 00 00 00 00 00   ................
01b0  00 00 00 00 00 00 00 00 00 00 00 00 00 00 00 00   ................
01c0  00 00 00 00 00 00 00 00 00 00 00 00 00 00 00 00   ................
01d0  00 00 00 00 00 00 00 00 00 00 00 00 00 00 00 00   ................
01e0  00 00 00 00 00 00 00 00 00 00 00 00 00 00 00 00   ................
01f0  00 00 00 00 00 00 00 00 00 00 00 00 00 00 00 00   ................
0200  00 00 00 00 00 00 00 00 00 00 00 00 00 00 00 00   ................
0210  00 00 00 00 00 00 00 00 00 00 00 00 00 00 00 00   ................
0220  00 00 00 00 00 00 00 00 00 00 00 00 00 00 00 00   ................
0230  00 00 00 00 00 00 00 00 00 00 00 00 00 00 00 00   ................
0240  00 00 00 00 00 00 00 00 00 00 00 00 00            .............

Frame 7: 589 bytes on wire (4712 bits), 589 bytes captured (4712 bits)
    Encapsulation type: Linux cooked-mode capture v2 (210)
    Arrival Time: Mar 30, 2026 12:16:38.018882000 UTC
    UTC Arrival Time: Mar 30, 2026 12:16:38.018882000 UTC
    Epoch Arrival Time: 1774872998.018882000
    [Time shift for this packet: 0.000000000 seconds]
    [Time delta from previous captured frame: 0.000003000 seconds]
    [Time delta from previous displayed frame: 0.000003000 seconds]
    [Time since reference or first frame: 0.228457000 seconds]
    Frame Number: 7
    Frame Length: 589 bytes (4712 bits)
    Capture Length: 589 bytes (4712 bits)
    [Frame is marked: False]
    [Frame is ignored: False]
    [Protocols in frame: sll:ethertype:ip:tcp]
Linux cooked capture v2
    Protocol: IPv4 (0x0800)
    Interface index: 3
    Link-layer address type: Ethernet (1)
    Packet type: Sent by us (4)
    Link-layer address length: 6
    Source: Microsoft_ca:3e:d7 (7c:ed:8d:ca:3e:d7)
    Unused: 0000
Internet Protocol Version 4, Src: 10.1.0.218, Dst: 54.251.142.49
    0100 .... = Version: 4
    .... 0101 = Header Length: 20 bytes (5)
    Differentiated Services Field: 0x00 (DSCP: CS0, ECN: Not-ECT)
        0000 00.. = Differentiated Services Codepoint: Default (0)
        .... ..00 = Explicit Congestion Notification: Not ECN-Capable Transport (0)
    Total Length: 569
    Identification: 0xf65f (63071)
    010. .... = Flags: 0x2, Don't fragment
        0... .... = Reserved bit: Not set
        .1.. .... = Don't fragment: Set
        ..0. .... = More fragments: Not set
    ...0 0000 0000 0000 = Fragment Offset: 0
    Time to Live: 64
    Protocol: TCP (6)
    Header Checksum: 0x7258 [validation disabled]
    [Header checksum status: Unverified]
    Source Address: 10.1.0.218
    Destination Address: 54.251.142.49
Transmission Control Protocol, Src Port: 43628, Dst Port: 443, Seq: 1, Ack: 1, Len: 517
    Source Port: 43628
    Destination Port: 443
    [Stream index: 0]
    [Conversation completeness: Incomplete, DATA (15)]
        ..0. .... = RST: Absent
        ...0 .... = FIN: Absent
        .... 1... = Data: Present
        .... .1.. = ACK: Present
        .... ..1. = SYN-ACK: Present
        .... ...1 = SYN: Present
        [Completeness Flags: ··DASS]
    [TCP Segment Len: 517]
    Sequence Number: 1    (relative sequence number)
    Sequence Number (raw): 3695716251
    [Next Sequence Number: 518    (relative sequence number)]
    Acknowledgment Number: 1    (relative ack number)
    Acknowledgment number (raw): 2371871354
    1000 .... = Header Length: 32 bytes (8)
    Flags: 0x018 (PSH, ACK)
        000. .... .... = Reserved: Not set
        ...0 .... .... = Accurate ECN: Not set
        .... 0... .... = Congestion Window Reduced: Not set
        .... .0.. .... = ECN-Echo: Not set
        .... ..0. .... = Urgent: Not set
        .... ...1 .... = Acknowledgment: Set
        .... .... 1... = Push: Set
        .... .... .0.. = Reset: Not set
        .... .... ..0. = Syn: Not set
        .... .... ...0 = Fin: Not set
        [TCP Flags: ·······AP···]
    Window: 63
    [Calculated window size: 64512]
    [Window size scaling factor: 1024]
    Checksum: 0xd232 [unverified]
    [Checksum Status: Unverified]
    Urgent Pointer: 0
    Options: (12 bytes), No-Operation (NOP), No-Operation (NOP), Timestamps
        TCP Option - No-Operation (NOP)
            Kind: No-Operation (1)
        TCP Option - No-Operation (NOP)
            Kind: No-Operation (1)
        TCP Option - Timestamps
            Kind: Time Stamp Option (8)
            Length: 10
            Timestamp value: 2631303537: TSval 2631303537, TSecr 1638120232
            Timestamp echo reply: 1638120232
    [Timestamps]
        [Time since first frame in this TCP stream: 0.228457000 seconds]
        [Time since previous frame in this TCP stream: 0.000003000 seconds]
    [SEQ/ACK analysis]
        [iRTT: 0.206724000 seconds]
        [Bytes in flight: 517]
        [Bytes sent since last PSH flag: 517]
        [TCP Analysis Flags]
            [Expert Info (Note/Sequence): This frame is a (suspected) retransmission]
                [This frame is a (suspected) retransmission]
                [Severity level: Note]
                [Group: Sequence]
            [The RTO for this segment was: 0.000003000 seconds]
            [RTO based on delta from frame: 6]
    TCP payload (517 bytes)
    Retransmitted TCP segment data (517 bytes)

0000  08 00 00 00 00 00 00 03 00 01 04 06 7c ed 8d ca   ............|...
0010  3e d7 00 00 45 00 02 39 f6 5f 40 00 40 06 72 58   >...E..9._@.@.rX
0020  0a 01 00 da 36 fb 8e 31 aa 6c 01 bb dc 48 27 9b   ....6..1.l...H'.
0030  8d 5f e2 7a 80 18 00 3f d2 32 00 00 01 01 08 0a   ._.z...?.2......
0040  9c d6 81 71 61 a3 bb 28 16 03 01 02 00 01 00 01   ...qa..(........
0050  fc 03 03 58 6b 58 d9 18 bf 0a eb 48 16 22 44 65   ...XkX.....H."De
0060  0a be 4a 91 1b 19 41 6c 68 5e 63 64 b1 02 64 23   ..J...Alh^cd..d#
0070  6f 53 d2 20 24 18 a7 8c 7d 12 ab 1f c9 00 76 7f   oS. $...}.....v.
0080  42 2a 49 b9 59 68 5c 70 aa e7 13 73 f3 ae db a9   B*I.Yh\p...s....
0090  9a 42 f5 66 00 24 13 02 13 03 13 01 c0 2c c0 30   .B.f.$.......,.0
00a0  c0 2b c0 2f cc a9 cc a8 c0 24 c0 28 c0 23 c0 27   .+./.....$.(.#.'
00b0  00 9f 00 9e 00 6b 00 67 00 ff 01 00 01 8f 00 00   .....k.g........
00c0  00 1d 00 1b 00 00 18 6d 63 64 2d 67 61 74 65 77   .......mcd-gatew
00d0  61 79 2e 67 72 61 62 74 61 78 69 2e 63 6f 6d 00   ay.grabtaxi.com.
00e0  0b 00 04 03 00 01 02 00 0a 00 16 00 14 00 1d 00   ................
00f0  17 00 1e 00 19 00 18 01 00 01 01 01 02 01 03 01   ................
0100  04 00 10 00 0b 00 09 08 68 74 74 70 2f 31 2e 31   ........http/1.1
0110  00 16 00 00 00 17 00 00 00 31 00 00 00 0d 00 2a   .........1.....*
0120  00 28 04 03 05 03 06 03 08 07 08 08 08 09 08 0a   .(..............
0130  08 0b 08 04 08 05 08 06 04 01 05 01 06 01 03 03   ................
0140  03 01 03 02 04 02 05 02 06 02 00 2b 00 05 04 03   ...........+....
0150  04 03 03 00 2d 00 02 01 01 00 33 00 26 00 24 00   ....-.....3.&.$.
0160  1d 00 20 34 7c e6 73 f4 f8 c0 89 cd 8d 70 8e 97   .. 4|.s......p..
0170  25 6c 4c cf 6a 30 af 43 7e 6c ce 50 f0 4e be c2   %lL.j0.C~l.P.N..
0180  5f b7 75 00 15 00 c6 00 00 00 00 00 00 00 00 00   _.u.............
0190  00 00 00 00 00 00 00 00 00 00 00 00 00 00 00 00   ................
01a0  00 00 00 00 00 00 00 00 00 00 00 00 00 00 00 00   ................
01b0  00 00 00 00 00 00 00 00 00 00 00 00 00 00 00 00   ................
01c0  00 00 00 00 00 00 00 00 00 00 00 00 00 00 00 00   ................
01d0  00 00 00 00 00 00 00 00 00 00 00 00 00 00 00 00   ................
01e0  00 00 00 00 00 00 00 00 00 00 00 00 00 00 00 00   ................
01f0  00 00 00 00 00 00 00 00 00 00 00 00 00 00 00 00   ................
0200  00 00 00 00 00 00 00 00 00 00 00 00 00 00 00 00   ................
0210  00 00 00 00 00 00 00 00 00 00 00 00 00 00 00 00   ................
0220  00 00 00 00 00 00 00 00 00 00 00 00 00 00 00 00   ................
0230  00 00 00 00 00 00 00 00 00 00 00 00 00 00 00 00   ................
0240  00 00 00 00 00 00 00 00 00 00 00 00 00            .............

Frame 8: 72 bytes on wire (576 bits), 72 bytes captured (576 bits)
    Encapsulation type: Linux cooked-mode capture v2 (210)
    Arrival Time: Mar 30, 2026 12:16:38.225012000 UTC
    UTC Arrival Time: Mar 30, 2026 12:16:38.225012000 UTC
    Epoch Arrival Time: 1774872998.225012000
    [Time shift for this packet: 0.000000000 seconds]
    [Time delta from previous captured frame: 0.206130000 seconds]
    [Time delta from previous displayed frame: 0.206130000 seconds]
    [Time since reference or first frame: 0.434587000 seconds]
    Frame Number: 8
    Frame Length: 72 bytes (576 bits)
    Capture Length: 72 bytes (576 bits)
    [Frame is marked: False]
    [Frame is ignored: False]
    [Protocols in frame: sll:ethertype:ip:tcp]
Linux cooked capture v2
    Protocol: IPv4 (0x0800)
    Interface index: 3
    Link-layer address type: Ethernet (1)
    Packet type: Unicast to us (0)
    Link-layer address length: 6
    Source: 12:34:56:78:9a:bc (12:34:56:78:9a:bc)
    Unused: 0000
Internet Protocol Version 4, Src: 54.251.142.49, Dst: 10.1.0.218
    0100 .... = Version: 4
    .... 0101 = Header Length: 20 bytes (5)
    Differentiated Services Field: 0x00 (DSCP: CS0, ECN: Not-ECT)
        0000 00.. = Differentiated Services Codepoint: Default (0)
        .... ..00 = Explicit Congestion Notification: Not ECN-Capable Transport (0)
    Total Length: 52
    Identification: 0xd164 (53604)
    010. .... = Flags: 0x2, Don't fragment
        0... .... = Reserved bit: Not set
        .1.. .... = Don't fragment: Set
        ..0. .... = More fragments: Not set
    ...0 0000 0000 0000 = Fragment Offset: 0
    Time to Live: 238
    Protocol: TCP (6)
    Header Checksum: 0xeb57 [validation disabled]
    [Header checksum status: Unverified]
    Source Address: 54.251.142.49
    Destination Address: 10.1.0.218
Transmission Control Protocol, Src Port: 443, Dst Port: 43628, Seq: 1, Ack: 518, Len: 0
    Source Port: 443
    Destination Port: 43628
    [Stream index: 0]
    [Conversation completeness: Incomplete, DATA (15)]
        ..0. .... = RST: Absent
        ...0 .... = FIN: Absent
        .... 1... = Data: Present
        .... .1.. = ACK: Present
        .... ..1. = SYN-ACK: Present
        .... ...1 = SYN: Present
        [Completeness Flags: ··DASS]
    [TCP Segment Len: 0]
    Sequence Number: 1    (relative sequence number)
    Sequence Number (raw): 2371871354
    [Next Sequence Number: 1    (relative sequence number)]
    Acknowledgment Number: 518    (relative ack number)
    Acknowledgment number (raw): 3695716768
    1000 .... = Header Length: 32 bytes (8)
    Flags: 0x010 (ACK)
        000. .... .... = Reserved: Not set
        ...0 .... .... = Accurate ECN: Not set
        .... 0... .... = Congestion Window Reduced: Not set
        .... .0.. .... = ECN-Echo: Not set
        .... ..0. .... = Urgent: Not set
        .... ...1 .... = Acknowledgment: Set
        .... .... 0... = Push: Not set
        .... .... .0.. = Reset: Not set
        .... .... ..0. = Syn: Not set
        .... .... ...0 = Fin: Not set
        [TCP Flags: ·······A····]
    Window: 117
    [Calculated window size: 29952]
    [Window size scaling factor: 256]
    Checksum: 0x4856 [unverified]
    [Checksum Status: Unverified]
    Urgent Pointer: 0
    Options: (12 bytes), No-Operation (NOP), No-Operation (NOP), Timestamps
        TCP Option - No-Operation (NOP)
            Kind: No-Operation (1)
        TCP Option - No-Operation (NOP)
            Kind: No-Operation (1)
        TCP Option - Timestamps
            Kind: Time Stamp Option (8)
            Length: 10
            Timestamp value: 1638120468: TSval 1638120468, TSecr 2631303537
            Timestamp echo reply: 2631303537
    [Timestamps]
        [Time since first frame in this TCP stream: 0.434587000 seconds]
        [Time since previous frame in this TCP stream: 0.206130000 seconds]
    [SEQ/ACK analysis]
        [This is an ACK to the segment in frame: 6]
        [The RTT to ACK the segment was: 0.206133000 seconds]
        [iRTT: 0.206724000 seconds]

0000  08 00 00 00 00 00 00 03 00 01 00 06 12 34 56 78   .............4Vx
0010  9a bc 00 00 45 00 00 34 d1 64 40 00 ee 06 eb 57   ....E..4.d@....W
0020  36 fb 8e 31 0a 01 00 da 01 bb aa 6c 8d 5f e2 7a   6..1.......l._.z
0030  dc 48 29 a0 80 10 00 75 48 56 00 00 01 01 08 0a   .H)....uHV......
0040  61 a3 bc 14 9c d6 81 71                           a......q

Frame 9: 72 bytes on wire (576 bits), 72 bytes captured (576 bits)
    Encapsulation type: Linux cooked-mode capture v2 (210)
    Arrival Time: Mar 30, 2026 12:16:38.225012000 UTC
    UTC Arrival Time: Mar 30, 2026 12:16:38.225012000 UTC
    Epoch Arrival Time: 1774872998.225012000
    [Time shift for this packet: 0.000000000 seconds]
    [Time delta from previous captured frame: 0.000000000 seconds]
    [Time delta from previous displayed frame: 0.000000000 seconds]
    [Time since reference or first frame: 0.434587000 seconds]
    Frame Number: 9
    Frame Length: 72 bytes (576 bits)
    Capture Length: 72 bytes (576 bits)
    [Frame is marked: False]
    [Frame is ignored: False]
    [Protocols in frame: sll:ethertype:ip:tcp]
Linux cooked capture v2
    Protocol: IPv4 (0x0800)
    Interface index: 2
    Link-layer address type: Ethernet (1)
    Packet type: Unicast to us (0)
    Link-layer address length: 6
    Source: 12:34:56:78:9a:bc (12:34:56:78:9a:bc)
    Unused: 0000
Internet Protocol Version 4, Src: 54.251.142.49, Dst: 10.1.0.218
    0100 .... = Version: 4
    .... 0101 = Header Length: 20 bytes (5)
    Differentiated Services Field: 0x00 (DSCP: CS0, ECN: Not-ECT)
        0000 00.. = Differentiated Services Codepoint: Default (0)
        .... ..00 = Explicit Congestion Notification: Not ECN-Capable Transport (0)
    Total Length: 52
    Identification: 0xd164 (53604)
    010. .... = Flags: 0x2, Don't fragment
        0... .... = Reserved bit: Not set
        .1.. .... = Don't fragment: Set
        ..0. .... = More fragments: Not set
    ...0 0000 0000 0000 = Fragment Offset: 0
    Time to Live: 238
    Protocol: TCP (6)
    Header Checksum: 0xeb57 [validation disabled]
    [Header checksum status: Unverified]
    Source Address: 54.251.142.49
    Destination Address: 10.1.0.218
Transmission Control Protocol, Src Port: 443, Dst Port: 43628, Seq: 1, Ack: 518, Len: 0
    Source Port: 443
    Destination Port: 43628
    [Stream index: 0]
    [Conversation completeness: Incomplete, DATA (15)]
        ..0. .... = RST: Absent
        ...0 .... = FIN: Absent
        .... 1... = Data: Present
        .... .1.. = ACK: Present
        .... ..1. = SYN-ACK: Present
        .... ...1 = SYN: Present
        [Completeness Flags: ··DASS]
    [TCP Segment Len: 0]
    Sequence Number: 1    (relative sequence number)
    Sequence Number (raw): 2371871354
    [Next Sequence Number: 1    (relative sequence number)]
    Acknowledgment Number: 518    (relative ack number)
    Acknowledgment number (raw): 3695716768
    1000 .... = Header Length: 32 bytes (8)
    Flags: 0x010 (ACK)
        000. .... .... = Reserved: Not set
        ...0 .... .... = Accurate ECN: Not set
        .... 0... .... = Congestion Window Reduced: Not set
        .... .0.. .... = ECN-Echo: Not set
        .... ..0. .... = Urgent: Not set
        .... ...1 .... = Acknowledgment: Set
        .... .... 0... = Push: Not set
        .... .... .0.. = Reset: Not set
        .... .... ..0. = Syn: Not set
        .... .... ...0 = Fin: Not set
        [TCP Flags: ·······A····]
    Window: 117
    [Calculated window size: 29952]
    [Window size scaling factor: 256]
    Checksum: 0x4856 [unverified]
    [Checksum Status: Unverified]
    Urgent Pointer: 0
    Options: (12 bytes), No-Operation (NOP), No-Operation (NOP), Timestamps
        TCP Option - No-Operation (NOP)
            Kind: No-Operation (1)
        TCP Option - No-Operation (NOP)
            Kind: No-Operation (1)
        TCP Option - Timestamps
            Kind: Time Stamp Option (8)
            Length: 10
            Timestamp value: 1638120468: TSval 1638120468, TSecr 2631303537
            Timestamp echo reply: 2631303537
    [Timestamps]
        [Time since first frame in this TCP stream: 0.434587000 seconds]
        [Time since previous frame in this TCP stream: 0.000000000 seconds]
    [SEQ/ACK analysis]
        [iRTT: 0.206724000 seconds]
        [TCP Analysis Flags]
            [This is a TCP duplicate ack]
        [Duplicate ACK #: 1]
        [Duplicate to the ACK in frame: 8]
            [Expert Info (Note/Sequence): Duplicate ACK (#1)]
                [Duplicate ACK (#1)]
                [Severity level: Note]
                [Group: Sequence]

0000  08 00 00 00 00 00 00 02 00 01 00 06 12 34 56 78   .............4Vx
0010  9a bc 00 00 45 00 00 34 d1 64 40 00 ee 06 eb 57   ....E..4.d@....W
0020  36 fb 8e 31 0a 01 00 da 01 bb aa 6c 8d 5f e2 7a   6..1.......l._.z
0030  dc 48 29 a0 80 10 00 75 48 56 00 00 01 01 08 0a   .H)....uHV......
0040  61 a3 bc 14 9c d6 81 71                           a......q

Frame 10: 4302 bytes on wire (34416 bits), 4302 bytes captured (34416 bits)
    Encapsulation type: Linux cooked-mode capture v2 (210)
    Arrival Time: Mar 30, 2026 12:16:38.225906000 UTC
    UTC Arrival Time: Mar 30, 2026 12:16:38.225906000 UTC
    Epoch Arrival Time: 1774872998.225906000
    [Time shift for this packet: 0.000000000 seconds]
    [Time delta from previous captured frame: 0.000894000 seconds]
    [Time delta from previous displayed frame: 0.000894000 seconds]
    [Time since reference or first frame: 0.435481000 seconds]
    Frame Number: 10
    Frame Length: 4302 bytes (34416 bits)
    Capture Length: 4302 bytes (34416 bits)
    [Frame is marked: False]
    [Frame is ignored: False]
    [Protocols in frame [truncated]: sll:ethertype:ip:tcp:tls:x509sat:x509sat:x509sat:x509sat:x509ce:x509ce:x509ce:x509ce:x509ce:x509ce:x509ce:pkix1implicit:x509ce:tls:x509sat:x509sat:x509sat:x509sat:x509sat:x509sat:x509ce:x509ce:x509ce:x509ce:]
Linux cooked capture v2
    Protocol: IPv4 (0x0800)
    Interface index: 3
    Link-layer address type: Ethernet (1)
    Packet type: Unicast to us (0)
    Link-layer address length: 6
    Source: 12:34:56:78:9a:bc (12:34:56:78:9a:bc)
    Unused: 0000
Internet Protocol Version 4, Src: 54.251.142.49, Dst: 10.1.0.218
    0100 .... = Version: 4
    .... 0101 = Header Length: 20 bytes (5)
    Differentiated Services Field: 0x00 (DSCP: CS0, ECN: Not-ECT)
        0000 00.. = Differentiated Services Codepoint: Default (0)
        .... ..00 = Explicit Congestion Notification: Not ECN-Capable Transport (0)
    Total Length: 4282
    Identification: 0xd165 (53605)
    010. .... = Flags: 0x2, Don't fragment
        0... .... = Reserved bit: Not set
        .1.. .... = Don't fragment: Set
        ..0. .... = More fragments: Not set
    ...0 0000 0000 0000 = Fragment Offset: 0
    Time to Live: 238
    Protocol: TCP (6)
    Header Checksum: 0xdad0 [validation disabled]
    [Header checksum status: Unverified]
    Source Address: 54.251.142.49
    Destination Address: 10.1.0.218
Transmission Control Protocol, Src Port: 443, Dst Port: 43628, Seq: 1, Ack: 518, Len: 4230
    Source Port: 443
    Destination Port: 43628
    [Stream index: 0]
    [Conversation completeness: Incomplete, DATA (15)]
        ..0. .... = RST: Absent
        ...0 .... = FIN: Absent
        .... 1... = Data: Present
        .... .1.. = ACK: Present
        .... ..1. = SYN-ACK: Present
        .... ...1 = SYN: Present
        [Completeness Flags: ··DASS]
    [TCP Segment Len: 4230]
    Sequence Number: 1    (relative sequence number)
    Sequence Number (raw): 2371871354
    [Next Sequence Number: 4231    (relative sequence number)]
    Acknowledgment Number: 518    (relative ack number)
    Acknowledgment number (raw): 3695716768
    1000 .... = Header Length: 32 bytes (8)
    Flags: 0x018 (PSH, ACK)
        000. .... .... = Reserved: Not set
        ...0 .... .... = Accurate ECN: Not set
        .... 0... .... = Congestion Window Reduced: Not set
        .... .0.. .... = ECN-Echo: Not set
        .... ..0. .... = Urgent: Not set
        .... ...1 .... = Acknowledgment: Set
        .... .... 1... = Push: Set
        .... .... .0.. = Reset: Not set
        .... .... ..0. = Syn: Not set
        .... .... ...0 = Fin: Not set
        [TCP Flags: ·······AP···]
    Window: 117
    [Calculated window size: 29952]
    [Window size scaling factor: 256]
    Checksum: 0xe0b3 [unverified]
    [Checksum Status: Unverified]
    Urgent Pointer: 0
    Options: (12 bytes), No-Operation (NOP), No-Operation (NOP), Timestamps
        TCP Option - No-Operation (NOP)
            Kind: No-Operation (1)
        TCP Option - No-Operation (NOP)
            Kind: No-Operation (1)
        TCP Option - Timestamps
            Kind: Time Stamp Option (8)
            Length: 10
            Timestamp value: 1638120469: TSval 1638120469, TSecr 2631303537
            Timestamp echo reply: 2631303537
    [Timestamps]
        [Time since first frame in this TCP stream: 0.435481000 seconds]
        [Time since previous frame in this TCP stream: 0.000894000 seconds]
    [SEQ/ACK analysis]
        [iRTT: 0.206724000 seconds]
        [Bytes in flight: 4230]
        [Bytes sent since last PSH flag: 4230]
    TCP payload (4230 bytes)
Transport Layer Security
    TLSv1.2 Record Layer: Handshake Protocol: Server Hello
        Content Type: Handshake (22)
        Version: TLS 1.2 (0x0303)
        Length: 89
        Handshake Protocol: Server Hello
            Handshake Type: Server Hello (2)
            Length: 85
            Version: TLS 1.2 (0x0303)
            Random: 18f1036de978bda64d4033f70b6874216e9a470b76fa47ef5bd551de8b976a15
                GMT Unix Time: Apr  6, 1983 03:37:17.000000000 UTC
                Random Bytes: e978bda64d4033f70b6874216e9a470b76fa47ef5bd551de8b976a15
            Session ID Length: 32
            Session ID: 74f3103f2353f12c76f0169e5cd542c78a1ac566e77e1e777baf2fd172c39082
            Cipher Suite: TLS_ECDHE_RSA_WITH_AES_128_GCM_SHA256 (0xc02f)
            Compression Method: null (0)
            Extensions Length: 13
            Extension: renegotiation_info (len=1)
                Type: renegotiation_info (65281)
                Length: 1
                Renegotiation Info extension
                    Renegotiation info extension length: 0
            Extension: ec_point_formats (len=4)
                Type: ec_point_formats (11)
                Length: 4
                EC point formats Length: 3
                Elliptic curves point formats (3)
                    EC point format: uncompressed (0)
                    EC point format: ansiX962_compressed_prime (1)
                    EC point format: ansiX962_compressed_char2 (2)
            [JA3S Fullstring: 771,49199,65281-11]
            [JA3S: 303951d4c50efb2e991652225a6f02b1]
    TLSv1.2 Record Layer: Handshake Protocol: Certificate
        Content Type: Handshake (22)
        Version: TLS 1.2 (0x0303)
        Length: 3784
        Handshake Protocol: Certificate
            Handshake Type: Certificate (11)
            Length: 3780
            Certificates Length: 3777
            Certificates (3777 bytes)
                Certificate Length: 1472
                Certificate [truncated]: 308205bc308204a4a00302010202100c00d20d5fbc30f95072144d7862f9ac300d06092a864886f70d01010b0500303c310b3009060355040613025553310f300d060355040a1306416d617a6f6e311c301a06035504031313416d617a6f6e205253412032303438204d30
                    signedCertificate
                        version: v3 (2)
                        serialNumber: 0x0c00d20d5fbc30f95072144d7862f9ac
                        signature (sha256WithRSAEncryption)
                            Algorithm Id: 1.2.840.113549.1.1.11 (sha256WithRSAEncryption)
                        issuer: rdnSequence (0)
                            rdnSequence: 3 items (id-at-commonName=Amazon RSA 2048 M04,id-at-organizationName=Amazon,id-at-countryName=US)
                                RDNSequence item: 1 item (id-at-countryName=US)
                                    RelativeDistinguishedName item (id-at-countryName=US)
                                        Object Id: 2.5.4.6 (id-at-countryName)
                                        CountryName: US
                                RDNSequence item: 1 item (id-at-organizationName=Amazon)
                                    RelativeDistinguishedName item (id-at-organizationName=Amazon)
                                        Object Id: 2.5.4.10 (id-at-organizationName)
                                        DirectoryString: printableString (1)
                                            printableString: Amazon
                                RDNSequence item: 1 item (id-at-commonName=Amazon RSA 2048 M04)
                                    RelativeDistinguishedName item (id-at-commonName=Amazon RSA 2048 M04)
                                        Object Id: 2.5.4.3 (id-at-commonName)
                                        DirectoryString: printableString (1)
                                            printableString: Amazon RSA 2048 M04
                        validity
                            notBefore: utcTime (0)
                                utcTime: 2025-09-10 00:00:00 (UTC)
                            notAfter: utcTime (0)
                                utcTime: 2026-10-09 23:59:59 (UTC)
                        subject: rdnSequence (0)
                            rdnSequence: 1 item (id-at-commonName=*.grabtaxi.com)
                                RDNSequence item: 1 item (id-at-commonName=*.grabtaxi.com)
                                    RelativeDistinguishedName item (id-at-commonName=*.grabtaxi.com)
                                        Object Id: 2.5.4.3 (id-at-commonName)
                                        DirectoryString: uTF8String (4)
                                            uTF8String: *.grabtaxi.com
                        subjectPublicKeyInfo
                            algorithm (rsaEncryption)
                                Algorithm Id: 1.2.840.113549.1.1.1 (rsaEncryption)
                            subjectPublicKey [truncated]: 3082010a0282010100afd981a5a6ab7176e93a9ab3030d015baa8875d8c9675f823836a5cce818abbe4b0ad3b78323703f46a50c38e62850e09b6773911d4464aea447d6a2807f539ff314d57c17a294c2b3b7e0c341392473501093f3ba5a8afc6956dc901b2f85f
                                modulus: 0x00afd981a5a6ab7176e93a9ab3030d015baa8875d8c9675f823836a5cce818abbe4b0ad3…
                                publicExponent: 65537
                        extensions: 10 items
                            Extension (id-ce-authorityKeyIdentifier)
                                Extension Id: 2.5.29.35 (id-ce-authorityKeyIdentifier)
                                AuthorityKeyIdentifier
                                    keyIdentifier: 1f5292615682547f8166d81d3d0aaa325c87dd08
                            Extension (id-ce-subjectKeyIdentifier)
                                Extension Id: 2.5.29.14 (id-ce-subjectKeyIdentifier)
                                SubjectKeyIdentifier: 812ba2f2c1b95425fead7d3bb4ccd0939af9a026
                            Extension (id-ce-subjectAltName)
                                Extension Id: 2.5.29.17 (id-ce-subjectAltName)
                                GeneralNames: 1 item
                                    GeneralName: dNSName (2)
                                        dNSName: *.grabtaxi.com
                            Extension (id-ce-certificatePolicies)
                                Extension Id: 2.5.29.32 (id-ce-certificatePolicies)
                                CertificatePoliciesSyntax: 1 item
                                    PolicyInformation
                                        policyIdentifier: 2.23.140.1.2.1 (joint-iso-itu-t.23.140.1.2.1)
                            Extension (id-ce-keyUsage)
                                Extension Id: 2.5.29.15 (id-ce-keyUsage)
                                critical: True
                                Padding: 5
                                KeyUsage: a0
                                    1... .... = digitalSignature: True
                                    .0.. .... = contentCommitment: False
                                    ..1. .... = keyEncipherment: True
                                    ...0 .... = dataEncipherment: False
                                    .... 0... = keyAgreement: False
                                    .... .0.. = keyCertSign: False
                                    .... ..0. = cRLSign: False
                                    .... ...0 = encipherOnly: False
                                    0... .... = decipherOnly: False
                            Extension (id-ce-extKeyUsage)
                                Extension Id: 2.5.29.37 (id-ce-extKeyUsage)
                                KeyPurposeIDs: 1 item
                                    KeyPurposeId: 1.3.6.1.5.5.7.3.1 (id-kp-serverAuth)
                            Extension (id-ce-cRLDistributionPoints)
                                Extension Id: 2.5.29.31 (id-ce-cRLDistributionPoints)
                                CRLDistPointsSyntax: 1 item
                                    DistributionPoint
                                        distributionPoint: fullName (0)
                                            fullName: 1 item
                                                GeneralName: uniformResourceIdentifier (6)
                                                    uniformResourceIdentifier: http://crl.r2m04.amazontrust.com/r2m04.crl
                            Extension (id-pe-authorityInfoAccess)
                                Extension Id: 1.3.6.1.5.5.7.1.1 (id-pe-authorityInfoAccess)
                                AuthorityInfoAccessSyntax: 2 items
                                    AccessDescription
                                        accessMethod: 1.3.6.1.5.5.7.48.1 (id-ad-ocsp)
                                        accessLocation: 6
                                            uniformResourceIdentifier: http://ocsp.r2m04.amazontrust.com
                                    AccessDescription
                                        accessMethod: 1.3.6.1.5.5.7.48.2 (id-ad-caIssuers)
                                        accessLocation: 6
                                            uniformResourceIdentifier: http://crt.r2m04.amazontrust.com/r2m04.cer
                            Extension (id-ce-basicConstraints)
                                Extension Id: 2.5.29.19 (id-ce-basicConstraints)
                                critical: True
                                BasicConstraintsSyntax [0 length]
                            Extension (SignedCertificateTimestampList)
                                Extension Id: 1.3.6.1.4.1.11129.2.4.2 (SignedCertificateTimestampList)
                                Serialized SCT List Length: 358
                                Signed Certificate Timestamp (Unknown Log)
                                    Serialized SCT Length: 117
                                    SCT Version: 0
                                    Log ID: d76d7d10d1a7f577c2c7e95fd700bff982c9335a65e1d0b3017317c0c8c56977
                                    Timestamp: Sep 10, 2025 00:23:57.968000000 UTC
                                    Extensions length: 0
                                    Signature Algorithm: ecdsa_secp256r1_sha256 (0x0403)
                                        Signature Hash Algorithm Hash: SHA256 (4)
                                        Signature Hash Algorithm Signature: ECDSA (3)
                                    Signature Length: 70
                                    Signature: 304402203d83f45f17c6c689a71a9384f029d07705ccf6fb7fecfdac8340dd0d6037b76302204d308c75924316472e65d91adfdcac7740c7f1e30eb6e9ab6865c34fa68866de
                                Signed Certificate Timestamp (Unknown Log)
                                    Serialized SCT Length: 117
                                    SCT Version: 0
                                    Log ID: c2317e574519a345ee7f38deb29041ebc7c2215a22bf7fd5b5ad769ad90e52cd
                                    Timestamp: Sep 10, 2025 00:23:58.034000000 UTC
                                    Extensions length: 0
                                    Signature Algorithm: ecdsa_secp256r1_sha256 (0x0403)
                                        Signature Hash Algorithm Hash: SHA256 (4)
                                        Signature Hash Algorithm Signature: ECDSA (3)
                                    Signature Length: 70
                                    Signature: 304402203a472506e33e6f739f86ead4f21a63177e3c01ff1b9bfcc81a1665fb6285caf702207f350c2cb9d3c0fe06694ebd67b398f5f000142d2e5b5406f2710cdf69213484
                                Signed Certificate Timestamp (Unknown Log)
                                    Serialized SCT Length: 118
                                    SCT Version: 0
                                    Log ID: 944e4387faecc1ef81f3192426a8186501c7d35f3802013f72677d55372e19d8
                                    Timestamp: Sep 10, 2025 00:23:58.032000000 UTC
                                    Extensions length: 0
                                    Signature Algorithm: ecdsa_secp256r1_sha256 (0x0403)
                                        Signature Hash Algorithm Hash: SHA256 (4)
                                        Signature Hash Algorithm Signature: ECDSA (3)
                                    Signature Length: 71
                                    Signature: 304502210080981e399add4bf7a42fb20213f1e96b7be7355ec10211753f52c375c301a86e022040b6ff58c293774cc044555605c23296494a7d6e9abfe6c06e66fb6d3f019f45
                    algorithmIdentifier (sha256WithRSAEncryption)
                        Algorithm Id: 1.2.840.113549.1.1.11 (sha256WithRSAEncryption)
                    Padding: 0
                    encrypted [truncated]: 4f7cc48f9edef6aef99db25d35123c9d2b4dfad6b9293742cc3662de9e03f3a20c37cc9f145835129def6faf2ad5731d90a4e97e570bc7fc682825bb112fffae393f9e4700e9008441525f1977ddab7bdb3553ee55b28999603bbacea789da486046516006076fbd20387303
                Certificate Length: 1122
                Certificate [truncated]: 3082045e30820346a00302010202130773124f2a952e3ed18a58bdb85d1bc0ce5f27300d06092a864886f70d01010b05003039310b3009060355040613025553310f300d060355040a1306416d617a6f6e3119301706035504031310416d617a6f6e20526f6f7420434120
                    signedCertificate
                        version: v3 (2)
                        serialNumber: 0x0773124f2a952e3ed18a58bdb85d1bc0ce5f27
                        signature (sha256WithRSAEncryption)
                            Algorithm Id: 1.2.840.113549.1.1.11 (sha256WithRSAEncryption)
                        issuer: rdnSequence (0)
                            rdnSequence: 3 items (id-at-commonName=Amazon Root CA 1,id-at-organizationName=Amazon,id-at-countryName=US)
                                RDNSequence item: 1 item (id-at-countryName=US)
                                    RelativeDistinguishedName item (id-at-countryName=US)
                                        Object Id: 2.5.4.6 (id-at-countryName)
                                        CountryName: US
                                RDNSequence item: 1 item (id-at-organizationName=Amazon)
                                    RelativeDistinguishedName item (id-at-organizationName=Amazon)
                                        Object Id: 2.5.4.10 (id-at-organizationName)
                                        DirectoryString: printableString (1)
                                            printableString: Amazon
                                RDNSequence item: 1 item (id-at-commonName=Amazon Root CA 1)
                                    RelativeDistinguishedName item (id-at-commonName=Amazon Root CA 1)
                                        Object Id: 2.5.4.3 (id-at-commonName)
                                        DirectoryString: printableString (1)
                                            printableString: Amazon Root CA 1
                        validity
                            notBefore: utcTime (0)
                                utcTime: 2022-08-23 22:26:35 (UTC)
                            notAfter: utcTime (0)
                                utcTime: 2030-08-23 22:26:35 (UTC)
                        subject: rdnSequence (0)
                            rdnSequence: 3 items (id-at-commonName=Amazon RSA 2048 M04,id-at-organizationName=Amazon,id-at-countryName=US)
                                RDNSequence item: 1 item (id-at-countryName=US)
                                    RelativeDistinguishedName item (id-at-countryName=US)
                                        Object Id: 2.5.4.6 (id-at-countryName)
                                        CountryName: US
                                RDNSequence item: 1 item (id-at-organizationName=Amazon)
                                    RelativeDistinguishedName item (id-at-organizationName=Amazon)
                                        Object Id: 2.5.4.10 (id-at-organizationName)
                                        DirectoryString: printableString (1)
                                            printableString: Amazon
                                RDNSequence item: 1 item (id-at-commonName=Amazon RSA 2048 M04)
                                    RelativeDistinguishedName item (id-at-commonName=Amazon RSA 2048 M04)
                                        Object Id: 2.5.4.3 (id-at-commonName)
                                        DirectoryString: printableString (1)
                                            printableString: Amazon RSA 2048 M04
                        subjectPublicKeyInfo
                            algorithm (rsaEncryption)
                                Algorithm Id: 1.2.840.113549.1.1.1 (rsaEncryption)
                            subjectPublicKey [truncated]: 3082010a0282010100cde9551e809503a9e317bbefa15d78f5f27a3800dfc998c75a2ef7f8eba55e927e7fbfa2a04a830858e9e3ec4071d06b258125d067bf85b3dfadea448e17521f6cc01149d754e76772ea38cbc7996ab6fa5a00d103ed39f5dd2767c704bac1a
                                modulus: 0x00cde9551e809503a9e317bbefa15d78f5f27a3800dfc998c75a2ef7f8eba55e927e7fbf…
                                publicExponent: 65537
                        extensions: 8 items
                            Extension (id-ce-basicConstraints)
                                Extension Id: 2.5.29.19 (id-ce-basicConstraints)
                                critical: True
                                BasicConstraintsSyntax
                                    cA: True
                                    pathLenConstraint: 0
                            Extension (id-ce-keyUsage)
                                Extension Id: 2.5.29.15 (id-ce-keyUsage)
                                critical: True
                                Padding: 1
                                KeyUsage: 86
                                    1... .... = digitalSignature: True
                                    .0.. .... = contentCommitment: False
                                    ..0. .... = keyEncipherment: False
                                    ...0 .... = dataEncipherment: False
                                    .... 0... = keyAgreement: False
                                    .... .1.. = keyCertSign: True
                                    .... ..1. = cRLSign: True
                                    .... ...0 = encipherOnly: False
                                    0... .... = decipherOnly: False
                            Extension (id-ce-extKeyUsage)
                                Extension Id: 2.5.29.37 (id-ce-extKeyUsage)
                                KeyPurposeIDs: 2 items
                                    KeyPurposeId: 1.3.6.1.5.5.7.3.1 (id-kp-serverAuth)
                                    KeyPurposeId: 1.3.6.1.5.5.7.3.2 (id-kp-clientAuth)
                            Extension (id-ce-subjectKeyIdentifier)
                                Extension Id: 2.5.29.14 (id-ce-subjectKeyIdentifier)
                                SubjectKeyIdentifier: 1f5292615682547f8166d81d3d0aaa325c87dd08
                            Extension (id-ce-authorityKeyIdentifier)
                                Extension Id: 2.5.29.35 (id-ce-authorityKeyIdentifier)
                                AuthorityKeyIdentifier
                                    keyIdentifier: 8418cc8534ecbc0c94942e08599cc7b2104e0a08
                            Extension (id-pe-authorityInfoAccess)
                                Extension Id: 1.3.6.1.5.5.7.1.1 (id-pe-authorityInfoAccess)
                                AuthorityInfoAccessSyntax: 2 items
                                    AccessDescription
                                        accessMethod: 1.3.6.1.5.5.7.48.1 (id-ad-ocsp)
                                        accessLocation: 6
                                            uniformResourceIdentifier: http://ocsp.rootca1.amazontrust.com
                                    AccessDescription
                                        accessMethod: 1.3.6.1.5.5.7.48.2 (id-ad-caIssuers)
                                        accessLocation: 6
                                            uniformResourceIdentifier: http://crt.rootca1.amazontrust.com/rootca1.cer
                            Extension (id-ce-cRLDistributionPoints)
                                Extension Id: 2.5.29.31 (id-ce-cRLDistributionPoints)
                                CRLDistPointsSyntax: 1 item
                                    DistributionPoint
                                        distributionPoint: fullName (0)
                                            fullName: 1 item
                                                GeneralName: uniformResourceIdentifier (6)
                                                    uniformResourceIdentifier: http://crl.rootca1.amazontrust.com/rootca1.crl
                            Extension (id-ce-certificatePolicies)
                                Extension Id: 2.5.29.32 (id-ce-certificatePolicies)
                                CertificatePoliciesSyntax: 1 item
                                    PolicyInformation
                                        policyIdentifier: 2.23.140.1.2.1 (joint-iso-itu-t.23.140.1.2.1)
                    algorithmIdentifier (sha256WithRSAEncryption)
                        Algorithm Id: 1.2.840.113549.1.1.11 (sha256WithRSAEncryption)
                    Padding: 0
                    encrypted [truncated]: 3ed4ee54b0068db96de51f326da4d1b006765df5011816dc698809c8695e2a0299c64bd382c3964fc227bb612943645e72c853ec161502d90f6e24763f0915756f98488861f4fbafb0e4f80a898d4c5ae593f1501a263171bee84cedafde7cdd93230d5677a58297a6118acb
                Certificate Length: 1174
                Certificate [truncated]: 308204923082037aa0030201020213067f944a2a27cdf3fac2ae2b01f908eeb9c4c6300d06092a864886f70d01010b0500308198310b30090603550406130255533110300e060355040813074172697a6f6e61311330110603550407130a53636f74747364616c65312530
                    signedCertificate
                        version: v3 (2)
                        serialNumber: 0x067f944a2a27cdf3fac2ae2b01f908eeb9c4c6
                        signature (sha256WithRSAEncryption)
                            Algorithm Id: 1.2.840.113549.1.1.11 (sha256WithRSAEncryption)
                        issuer: rdnSequence (0)
                            rdnSequence: 5 items (id-at-commonName=Starfield Services Root Certificate Authority - G2,id-at-organizationName=Starfield Technologies, Inc.,id-at-localityName=Scottsdale,id-at-stateOrProvinceName=Arizona,id-at-countryName=US)
                                RDNSequence item: 1 item (id-at-countryName=US)
                                    RelativeDistinguishedName item (id-at-countryName=US)
                                        Object Id: 2.5.4.6 (id-at-countryName)
                                        CountryName: US
                                RDNSequence item: 1 item (id-at-stateOrProvinceName=Arizona)
                                    RelativeDistinguishedName item (id-at-stateOrProvinceName=Arizona)
                                        Object Id: 2.5.4.8 (id-at-stateOrProvinceName)
                                        DirectoryString: printableString (1)
                                            printableString: Arizona
                                RDNSequence item: 1 item (id-at-localityName=Scottsdale)
                                    RelativeDistinguishedName item (id-at-localityName=Scottsdale)
                                        Object Id: 2.5.4.7 (id-at-localityName)
                                        DirectoryString: printableString (1)
                                            printableString: Scottsdale
                                RDNSequence item: 1 item (id-at-organizationName=Starfield Technologies, Inc.)
                                    RelativeDistinguishedName item (id-at-organizationName=Starfield Technologies, Inc.)
                                        Object Id: 2.5.4.10 (id-at-organizationName)
                                        DirectoryString: printableString (1)
                                            printableString: Starfield Technologies, Inc.
                                RDNSequence item: 1 item (id-at-commonName=Starfield Services Root Certificate Authority - G2)
                                    RelativeDistinguishedName item (id-at-commonName=Starfield Services Root Certificate Authority - G2)
                                        Object Id: 2.5.4.3 (id-at-commonName)
                                        DirectoryString: printableString (1)
                                            printableString: Starfield Services Root Certificate Authority - G2
                        validity
                            notBefore: utcTime (0)
                                utcTime: 2015-05-25 12:00:00 (UTC)
                            notAfter: utcTime (0)
                                utcTime: 2037-12-31 01:00:00 (UTC)
                        subject: rdnSequence (0)
                            rdnSequence: 3 items (id-at-commonName=Amazon Root CA 1,id-at-organizationName=Amazon,id-at-countryName=US)
                                RDNSequence item: 1 item (id-at-countryName=US)
                                    RelativeDistinguishedName item (id-at-countryName=US)
                                        Object Id: 2.5.4.6 (id-at-countryName)
                                        CountryName: US
                                RDNSequence item: 1 item (id-at-organizationName=Amazon)
                                    RelativeDistinguishedName item (id-at-organizationName=Amazon)
                                        Object Id: 2.5.4.10 (id-at-organizationName)
                                        DirectoryString: printableString (1)
                                            printableString: Amazon
                                RDNSequence item: 1 item (id-at-commonName=Amazon Root CA 1)
                                    RelativeDistinguishedName item (id-at-commonName=Amazon Root CA 1)
                                        Object Id: 2.5.4.3 (id-at-commonName)
                                        DirectoryString: printableString (1)
                                            printableString: Amazon Root CA 1
                        subjectPublicKeyInfo
                            algorithm (rsaEncryption)
                                Algorithm Id: 1.2.840.113549.1.1.1 (rsaEncryption)
                            subjectPublicKey [truncated]: 3082010a0282010100b2788071ca78d5e371af478050747d6ed8d78876f49968f7582160f97484012fac022d86d3a0437a4eb2a4d036ba01be8ddb48c80717364cf4ee8823c73eeb37f5b519f84968b0ded7b976381d619ea4fe8236a5e54a56e445e1f9fdb416fa7
                                modulus: 0x00b2788071ca78d5e371af478050747d6ed8d78876f49968f7582160f97484012fac022d…
                                publicExponent: 65537
                        extensions: 7 items
                            Extension (id-ce-basicConstraints)
                                Extension Id: 2.5.29.19 (id-ce-basicConstraints)
                                critical: True
                                BasicConstraintsSyntax
                                    cA: True
                            Extension (id-ce-keyUsage)
                                Extension Id: 2.5.29.15 (id-ce-keyUsage)
                                critical: True
                                Padding: 1
                                KeyUsage: 86
                                    1... .... = digitalSignature: True
                                    .0.. .... = contentCommitment: False
                                    ..0. .... = keyEncipherment: False
                                    ...0 .... = dataEncipherment: False
                                    .... 0... = keyAgreement: False
                                    .... .1.. = keyCertSign: True
                                    .... ..1. = cRLSign: True
                                    .... ...0 = encipherOnly: False
                                    0... .... = decipherOnly: False
                            Extension (id-ce-subjectKeyIdentifier)
                                Extension Id: 2.5.29.14 (id-ce-subjectKeyIdentifier)
                                SubjectKeyIdentifier: 8418cc8534ecbc0c94942e08599cc7b2104e0a08
                            Extension (id-ce-authorityKeyIdentifier)
                                Extension Id: 2.5.29.35 (id-ce-authorityKeyIdentifier)
                                AuthorityKeyIdentifier
                                    keyIdentifier: 9c5f00dfaa01d7302b3888a2b86d4a9cf2119183
                            Extension (id-pe-authorityInfoAccess)
                                Extension Id: 1.3.6.1.5.5.7.1.1 (id-pe-authorityInfoAccess)
                                AuthorityInfoAccessSyntax: 2 items
                                    AccessDescription
                                        accessMethod: 1.3.6.1.5.5.7.48.1 (id-ad-ocsp)
                                        accessLocation: 6
                                            uniformResourceIdentifier: http://ocsp.rootg2.amazontrust.com
                                    AccessDescription
                                        accessMethod: 1.3.6.1.5.5.7.48.2 (id-ad-caIssuers)
                                        accessLocation: 6
                                            uniformResourceIdentifier: http://crt.rootg2.amazontrust.com/rootg2.cer
                            Extension (id-ce-cRLDistributionPoints)
                                Extension Id: 2.5.29.31 (id-ce-cRLDistributionPoints)
                                CRLDistPointsSyntax: 1 item
                                    DistributionPoint
                                        distributionPoint: fullName (0)
                                            fullName: 1 item
                                                GeneralName: uniformResourceIdentifier (6)
                                                    uniformResourceIdentifier: http://crl.rootg2.amazontrust.com/rootg2.crl
                            Extension (id-ce-certificatePolicies)
                                Extension Id: 2.5.29.32 (id-ce-certificatePolicies)
                                CertificatePoliciesSyntax: 1 item
                                    PolicyInformation
                                        policyIdentifier: 2.5.29.32.0 (anyPolicy)
                    algorithmIdentifier (sha256WithRSAEncryption)
                        Algorithm Id: 1.2.840.113549.1.1.11 (sha256WithRSAEncryption)
                    Padding: 0
                    encrypted [truncated]: 6237425cbc10b53e8b2ce90c9b6c45e207007af9c5580bb9088c3eedb3253cb56f50e4cd356aa79334963221a94844ab9ced3db4aa736de47f1680896ccf280318834779a3107e305bac3bb060e077d408a6e11d7c5ec0bbf99a7b229da700097eac461783dc9c2657993039
    TLSv1.2 Record Layer: Handshake Protocol: Server Key Exchange
        Content Type: Handshake (22)
        Version: TLS 1.2 (0x0303)
        Length: 333
        Handshake Protocol: Server Key Exchange
            Handshake Type: Server Key Exchange (12)
            Length: 329
            EC Diffie-Hellman Server Params
                Curve Type: named_curve (0x03)
                Named Curve: secp256r1 (0x0017)
                Pubkey Length: 65
                Pubkey: 049f1450f073893f4ec602a3a57f9be8d10b47131d7a7debbd84f0c4cb4e58b2496205edee48eef11489bef7dc30c602dcd2ca8547bb633ee8bd414e8fd568f441
                Signature Algorithm: rsa_pkcs1_sha512 (0x0601)
                    Signature Hash Algorithm Hash: SHA512 (6)
                    Signature Hash Algorithm Signature: RSA (1)
                Signature Length: 256
                Signature [truncated]: 8122cee20128f4ce91ae055985e8180c6398d7c7c20d3cef368016f69d6bc86b165b59e2d42acf22e8665734580bf8e1fcbecf870ac07d24d56d32597aa78223192c095871054f983f6b510e3ce4de026307ccd2f1308ebb49f60a8cc167c84dcb9e8cda3f21fad7c5ea2864
    TLSv1.2 Record Layer: Handshake Protocol: Server Hello Done
        Content Type: Handshake (22)
        Version: TLS 1.2 (0x0303)
        Length: 4
        Handshake Protocol: Server Hello Done
            Handshake Type: Server Hello Done (14)
            Length: 0

0000  08 00 00 00 00 00 00 03 00 01 00 06 12 34 56 78   .............4Vx
0010  9a bc 00 00 45 00 10 ba d1 65 40 00 ee 06 da d0   ....E....e@.....
0020  36 fb 8e 31 0a 01 00 da 01 bb aa 6c 8d 5f e2 7a   6..1.......l._.z
0030  dc 48 29 a0 80 18 00 75 e0 b3 00 00 01 01 08 0a   .H)....u........
0040  61 a3 bc 15 9c d6 81 71 16 03 03 00 59 02 00 00   a......q....Y...
0050  55 03 03 18 f1 03 6d e9 78 bd a6 4d 40 33 f7 0b   U.....m.x..M@3..
0060  68 74 21 6e 9a 47 0b 76 fa 47 ef 5b d5 51 de 8b   ht!n.G.v.G.[.Q..
0070  97 6a 15 20 74 f3 10 3f 23 53 f1 2c 76 f0 16 9e   .j. t..?#S.,v...
0080  5c d5 42 c7 8a 1a c5 66 e7 7e 1e 77 7b af 2f d1   \.B....f.~.w{./.
0090  72 c3 90 82 c0 2f 00 00 0d ff 01 00 01 00 00 0b   r..../..........
00a0  00 04 03 00 01 02 16 03 03 0e c8 0b 00 0e c4 00   ................
00b0  0e c1 00 05 c0 30 82 05 bc 30 82 04 a4 a0 03 02   .....0...0......
00c0  01 02 02 10 0c 00 d2 0d 5f bc 30 f9 50 72 14 4d   ........_.0.Pr.M
00d0  78 62 f9 ac 30 0d 06 09 2a 86 48 86 f7 0d 01 01   xb..0...*.H.....
00e0  0b 05 00 30 3c 31 0b 30 09 06 03 55 04 06 13 02   ...0<1.0...U....
00f0  55 53 31 0f 30 0d 06 03 55 04 0a 13 06 41 6d 61   US1.0...U....Ama
0100  7a 6f 6e 31 1c 30 1a 06 03 55 04 03 13 13 41 6d   zon1.0...U....Am
0110  61 7a 6f 6e 20 52 53 41 20 32 30 34 38 20 4d 30   azon RSA 2048 M0
0120  34 30 1e 17 0d 32 35 30 39 31 30 30 30 30 30 30   40...25091000000
0130  30 5a 17 0d 32 36 31 30 30 39 32 33 35 39 35 39   0Z..261009235959
0140  5a 30 19 31 17 30 15 06 03 55 04 03 0c 0e 2a 2e   Z0.1.0...U....*.
0150  67 72 61 62 74 61 78 69 2e 63 6f 6d 30 82 01 22   grabtaxi.com0.."
0160  30 0d 06 09 2a 86 48 86 f7 0d 01 01 01 05 00 03   0...*.H.........
0170  82 01 0f 00 30 82 01 0a 02 82 01 01 00 af d9 81   ....0...........
0180  a5 a6 ab 71 76 e9 3a 9a b3 03 0d 01 5b aa 88 75   ...qv.:.....[..u
0190  d8 c9 67 5f 82 38 36 a5 cc e8 18 ab be 4b 0a d3   ..g_.86......K..
01a0  b7 83 23 70 3f 46 a5 0c 38 e6 28 50 e0 9b 67 73   ..#p?F..8.(P..gs
01b0  91 1d 44 64 ae a4 47 d6 a2 80 7f 53 9f f3 14 d5   ..Dd..G....S....
01c0  7c 17 a2 94 c2 b3 b7 e0 c3 41 39 24 73 50 10 93   |........A9$sP..
01d0  f3 ba 5a 8a fc 69 56 dc 90 1b 2f 85 f4 7d 0d 51   ..Z..iV.../..}.Q
01e0  c4 9b 10 66 fe 1d d8 fe b8 c5 b0 ca e2 d7 e6 15   ...f............
01f0  5a 9f 55 87 43 00 de 29 97 5b d8 fa d7 bd 99 cc   Z.U.C..).[......
0200  3f 64 fb c8 52 e9 08 62 9a 3b b8 ae a2 2a 8a 95   ?d..R..b.;...*..
0210  b8 35 3e a9 a5 32 6a 5c a2 af 1f 77 8f ef 0c 4d   .5>..2j\...w...M
0220  12 90 3d a6 10 06 1b d6 69 e4 49 95 6a 96 f6 c1   ..=.....i.I.j...
0230  3c 79 c8 ae 23 fa 9a ae 0c 2d d7 c4 a4 2d 2b 19   <y..#....-...-+.
0240  10 19 4a d9 c0 d3 8c f2 0b a1 53 fc 59 85 d3 52   ..J.......S.Y..R
0250  e9 7d 63 cf a4 7e 04 d9 a8 62 41 d3 38 17 0b c9   .}c..~...bA.8...
0260  1c 2f e0 ee 6c 79 ab 91 29 2b af c2 b4 19 a7 ab   ./..ly..)+......
0270  4f b2 ce f6 b4 69 3f f4 39 af c3 b3 6b 02 03 01   O....i?.9...k...
0280  00 01 a3 82 02 db 30 82 02 d7 30 1f 06 03 55 1d   ......0...0...U.
0290  23 04 18 30 16 80 14 1f 52 92 61 56 82 54 7f 81   #..0....R.aV.T..
02a0  66 d8 1d 3d 0a aa 32 5c 87 dd 08 30 1d 06 03 55   f..=..2\...0...U
02b0  1d 0e 04 16 04 14 81 2b a2 f2 c1 b9 54 25 fe ad   .......+....T%..
02c0  7d 3b b4 cc d0 93 9a f9 a0 26 30 19 06 03 55 1d   };.......&0...U.
02d0  11 04 12 30 10 82 0e 2a 2e 67 72 61 62 74 61 78   ...0...*.grabtax
02e0  69 2e 63 6f 6d 30 13 06 03 55 1d 20 04 0c 30 0a   i.com0...U. ..0.
02f0  30 08 06 06 67 81 0c 01 02 01 30 0e 06 03 55 1d   0...g.....0...U.
0300  0f 01 01 ff 04 04 03 02 05 a0 30 13 06 03 55 1d   ..........0...U.
0310  25 04 0c 30 0a 06 08 2b 06 01 05 05 07 03 01 30   %..0...+.......0
0320  3b 06 03 55 1d 1f 04 34 30 32 30 30 a0 2e a0 2c   ;..U...40200...,
0330  86 2a 68 74 74 70 3a 2f 2f 63 72 6c 2e 72 32 6d   .*http://crl.r2m
0340  30 34 2e 61 6d 61 7a 6f 6e 74 72 75 73 74 2e 63   04.amazontrust.c
0350  6f 6d 2f 72 32 6d 30 34 2e 63 72 6c 30 75 06 08   om/r2m04.crl0u..
0360  2b 06 01 05 05 07 01 01 04 69 30 67 30 2d 06 08   +........i0g0-..
0370  2b 06 01 05 05 07 30 01 86 21 68 74 74 70 3a 2f   +.....0..!http:/
0380  2f 6f 63 73 70 2e 72 32 6d 30 34 2e 61 6d 61 7a   /ocsp.r2m04.amaz
0390  6f 6e 74 72 75 73 74 2e 63 6f 6d 30 36 06 08 2b   ontrust.com06..+
03a0  06 01 05 05 07 30 02 86 2a 68 74 74 70 3a 2f 2f   .....0..*http://
03b0  63 72 74 2e 72 32 6d 30 34 2e 61 6d 61 7a 6f 6e   crt.r2m04.amazon
03c0  74 72 75 73 74 2e 63 6f 6d 2f 72 32 6d 30 34 2e   trust.com/r2m04.
03d0  63 65 72 30 0c 06 03 55 1d 13 01 01 ff 04 02 30   cer0...U.......0
03e0  00 30 82 01 7c 06 0a 2b 06 01 04 01 d6 79 02 04   .0..|..+.....y..
03f0  02 04 82 01 6c 04 82 01 68 01 66 00 75 00 d7 6d   ....l...h.f.u..m
0400  7d 10 d1 a7 f5 77 c2 c7 e9 5f d7 00 bf f9 82 c9   }....w..._......
0410  33 5a 65 e1 d0 b3 01 73 17 c0 c8 c5 69 77 00 00   3Ze....s....iw..
0420  01 99 31 01 fd 10 00 00 04 03 00 46 30 44 02 20   ..1........F0D. 
0430  3d 83 f4 5f 17 c6 c6 89 a7 1a 93 84 f0 29 d0 77   =.._.........).w
0440  05 cc f6 fb 7f ec fd ac 83 40 dd 0d 60 37 b7 63   .........@..`7.c
0450  02 20 4d 30 8c 75 92 43 16 47 2e 65 d9 1a df dc   . M0.u.C.G.e....
0460  ac 77 40 c7 f1 e3 0e b6 e9 ab 68 65 c3 4f a6 88   .w@.......he.O..
0470  66 de 00 75 00 c2 31 7e 57 45 19 a3 45 ee 7f 38   f..u..1~WE..E..8
0480  de b2 90 41 eb c7 c2 21 5a 22 bf 7f d5 b5 ad 76   ...A...!Z".....v
0490  9a d9 0e 52 cd 00 00 01 99 31 01 fd 52 00 00 04   ...R.....1..R...
04a0  03 00 46 30 44 02 20 3a 47 25 06 e3 3e 6f 73 9f   ..F0D. :G%..>os.
04b0  86 ea d4 f2 1a 63 17 7e 3c 01 ff 1b 9b fc c8 1a   .....c.~<.......
04c0  16 65 fb 62 85 ca f7 02 20 7f 35 0c 2c b9 d3 c0   .e.b.... .5.,...
04d0  fe 06 69 4e bd 67 b3 98 f5 f0 00 14 2d 2e 5b 54   ..iN.g......-.[T
04e0  06 f2 71 0c df 69 21 34 84 00 76 00 94 4e 43 87   ..q..i!4..v..NC.
04f0  fa ec c1 ef 81 f3 19 24 26 a8 18 65 01 c7 d3 5f   .......$&..e..._
