=== GRAB NETWORK REPORT ===
Run Date: Mon Mar 30 12:10:29 UTC 2026
---------------------------
Frame 1: 80 bytes on wire (640 bits), 80 bytes captured (640 bits)
    Encapsulation type: Linux cooked-mode capture v2 (210)
    Arrival Time: Mar 30, 2026 12:10:23.558005000 UTC
    UTC Arrival Time: Mar 30, 2026 12:10:23.558005000 UTC
    Epoch Arrival Time: 1774872623.558005000
    [Time shift for this packet: 0.000000000 seconds]
    [Time delta from previous captured frame: 0.000000000 seconds]
    [Time delta from previous displayed frame: 0.000000000 seconds]
    [Time since reference or first frame: 0.000000000 seconds]
    Frame Number: 1
    Frame Length: 80 bytes (640 bits)
    Capture Length: 80 bytes (640 bits)
    [Frame is marked: False]
    [Frame is ignored: False]
    [Protocols in frame: sll:ethertype:ip:tcp]
Linux cooked capture v2
    Protocol: IPv4 (0x0800)
    Interface index: 2
    Link-layer address type: Ethernet (1)
    Packet type: Sent by us (4)
    Link-layer address length: 6
    Source: Microsoft_55:4a:a4 (7c:ed:8d:55:4a:a4)
    Unused: 0000
Internet Protocol Version 4, Src: 10.1.1.152, Dst: 3.0.108.130
    0100 .... = Version: 4
    .... 0101 = Header Length: 20 bytes (5)
    Differentiated Services Field: 0x00 (DSCP: CS0, ECN: Not-ECT)
        0000 00.. = Differentiated Services Codepoint: Default (0)
        .... ..00 = Explicit Congestion Notification: Not ECN-Capable Transport (0)
    Total Length: 60
    Identification: 0xde83 (56963)
    010. .... = Flags: 0x2, Don't fragment
        0... .... = Reserved bit: Not set
        .1.. .... = Don't fragment: Set
        ..0. .... = More fragments: Not set
    ...0 0000 0000 0000 = Fragment Offset: 0
    Time to Live: 64
    Protocol: TCP (6)
    Header Checksum: 0xe11d [validation disabled]
    [Header checksum status: Unverified]
    Source Address: 10.1.1.152
    Destination Address: 3.0.108.130
Transmission Control Protocol, Src Port: 36370, Dst Port: 443, Seq: 0, Len: 0
    Source Port: 36370
    Destination Port: 443
    [Stream index: 0]
    [Conversation completeness: Incomplete (0)]
        ..0. .... = RST: Absent
        ...0 .... = FIN: Absent
        .... 0... = Data: Absent
        .... .0.. = ACK: Absent
        .... ..0. = SYN-ACK: Absent
        .... ...0 = SYN: Absent
        [Completeness Flags: [ Null ]]
    [TCP Segment Len: 0]
    Sequence Number: 0    (relative sequence number)
    Sequence Number (raw): 2036428819
    [Next Sequence Number: 1    (relative sequence number)]
    Acknowledgment Number: 0
    Acknowledgment number (raw): 0
    1010 .... = Header Length: 40 bytes (10)
    Flags: 0x002 (SYN)
        000. .... .... = Reserved: Not set
        ...0 .... .... = Accurate ECN: Not set
        .... 0... .... = Congestion Window Reduced: Not set
        .... .0.. .... = ECN-Echo: Not set
        .... ..0. .... = Urgent: Not set
        .... ...0 .... = Acknowledgment: Not set
        .... .... 0... = Push: Not set
        .... .... .0.. = Reset: Not set
        .... .... ..1. = Syn: Set
            [Expert Info (Chat/Sequence): Connection establish request (SYN): server port 443]
                [Connection establish request (SYN): server port 443]
                [Severity level: Chat]
                [Group: Sequence]
        .... .... ...0 = Fin: Not set
        [TCP Flags: ··········S·]
    Window: 64240
    [Calculated window size: 64240]
    Checksum: 0x7b49 [unverified]
    [Checksum Status: Unverified]
    Urgent Pointer: 0
    Options: (20 bytes), Maximum segment size, SACK permitted, Timestamps, No-Operation (NOP), Window scale
        TCP Option - Maximum segment size: 1460 bytes
            Kind: Maximum Segment Size (2)
            Length: 4
            MSS Value: 1460
        TCP Option - SACK permitted
            Kind: SACK Permitted (4)
            Length: 2
        TCP Option - Timestamps
            Kind: Time Stamp Option (8)
            Length: 10
            Timestamp value: 2254932154: TSval 2254932154, TSecr 0
            Timestamp echo reply: 0
        TCP Option - No-Operation (NOP)
            Kind: No-Operation (1)
        TCP Option - Window scale: 10 (multiply by 1024)
            Kind: Window Scale (3)
            Length: 3
            Shift count: 10
            [Multiplier: 1024]
    [Timestamps]
        [Time since first frame in this TCP stream: 0.000000000 seconds]
        [Time since previous frame in this TCP stream: 0.000000000 seconds]

0000  08 00 00 00 00 00 00 02 00 01 04 06 7c ed 8d 55   ............|..U
0010  4a a4 00 00 45 00 00 3c de 83 40 00 40 06 e1 1d   J...E..<..@.@...
0020  0a 01 01 98 03 00 6c 82 8e 12 01 bb 79 61 70 13   ......l.....yap.
0030  00 00 00 00 a0 02 fa f0 7b 49 00 00 02 04 05 b4   ........{I......
0040  04 02 08 0a 86 67 88 ba 00 00 00 00 01 03 03 0a   .....g..........

Frame 2: 80 bytes on wire (640 bits), 80 bytes captured (640 bits)
    Encapsulation type: Linux cooked-mode capture v2 (210)
    Arrival Time: Mar 30, 2026 12:10:23.558026000 UTC
    UTC Arrival Time: Mar 30, 2026 12:10:23.558026000 UTC
    Epoch Arrival Time: 1774872623.558026000
    [Time shift for this packet: 0.000000000 seconds]
    [Time delta from previous captured frame: 0.000021000 seconds]
    [Time delta from previous displayed frame: 0.000021000 seconds]
    [Time since reference or first frame: 0.000021000 seconds]
    Frame Number: 2
    Frame Length: 80 bytes (640 bits)
    Capture Length: 80 bytes (640 bits)
    [Frame is marked: False]
    [Frame is ignored: False]
    [Protocols in frame: sll:ethertype:ip:tcp]
Linux cooked capture v2
    Protocol: IPv4 (0x0800)
    Interface index: 3
    Link-layer address type: Ethernet (1)
    Packet type: Sent by us (4)
    Link-layer address length: 6
    Source: Microsoft_55:4a:a4 (7c:ed:8d:55:4a:a4)
    Unused: 0000
Internet Protocol Version 4, Src: 10.1.1.152, Dst: 3.0.108.130
    0100 .... = Version: 4
    .... 0101 = Header Length: 20 bytes (5)
    Differentiated Services Field: 0x00 (DSCP: CS0, ECN: Not-ECT)
        0000 00.. = Differentiated Services Codepoint: Default (0)
        .... ..00 = Explicit Congestion Notification: Not ECN-Capable Transport (0)
    Total Length: 60
    Identification: 0xde83 (56963)
    010. .... = Flags: 0x2, Don't fragment
        0... .... = Reserved bit: Not set
        .1.. .... = Don't fragment: Set
        ..0. .... = More fragments: Not set
    ...0 0000 0000 0000 = Fragment Offset: 0
    Time to Live: 64
    Protocol: TCP (6)
    Header Checksum: 0xe11d [validation disabled]
    [Header checksum status: Unverified]
    Source Address: 10.1.1.152
    Destination Address: 3.0.108.130
Transmission Control Protocol, Src Port: 36370, Dst Port: 443, Seq: 0, Len: 0
    Source Port: 36370
    Destination Port: 443
    [Stream index: 0]
    [Conversation completeness: Incomplete, SYN_SENT (1)]
        ..0. .... = RST: Absent
        ...0 .... = FIN: Absent
        .... 0... = Data: Absent
        .... .0.. = ACK: Absent
        .... ..0. = SYN-ACK: Absent
        .... ...1 = SYN: Present
        [Completeness Flags: ·····S]
    [TCP Segment Len: 0]
    Sequence Number: 0    (relative sequence number)
    Sequence Number (raw): 2036428819
    [Next Sequence Number: 1    (relative sequence number)]
    Acknowledgment Number: 0
    Acknowledgment number (raw): 0
    1010 .... = Header Length: 40 bytes (10)
    Flags: 0x002 (SYN)
        000. .... .... = Reserved: Not set
        ...0 .... .... = Accurate ECN: Not set
        .... 0... .... = Congestion Window Reduced: Not set
        .... .0.. .... = ECN-Echo: Not set
        .... ..0. .... = Urgent: Not set
        .... ...0 .... = Acknowledgment: Not set
        .... .... 0... = Push: Not set
        .... .... .0.. = Reset: Not set
        .... .... ..1. = Syn: Set
            [Expert Info (Chat/Sequence): Connection establish request (SYN): server port 443]
                [Connection establish request (SYN): server port 443]
                [Severity level: Chat]
                [Group: Sequence]
        .... .... ...0 = Fin: Not set
        [TCP Flags: ··········S·]
    Window: 64240
    [Calculated window size: 64240]
    Checksum: 0x7b49 [unverified]
    [Checksum Status: Unverified]
    Urgent Pointer: 0
    Options: (20 bytes), Maximum segment size, SACK permitted, Timestamps, No-Operation (NOP), Window scale
        TCP Option - Maximum segment size: 1460 bytes
            Kind: Maximum Segment Size (2)
            Length: 4
            MSS Value: 1460
        TCP Option - SACK permitted
            Kind: SACK Permitted (4)
            Length: 2
        TCP Option - Timestamps
            Kind: Time Stamp Option (8)
            Length: 10
            Timestamp value: 2254932154: TSval 2254932154, TSecr 0
            Timestamp echo reply: 0
        TCP Option - No-Operation (NOP)
            Kind: No-Operation (1)
        TCP Option - Window scale: 10 (multiply by 1024)
            Kind: Window Scale (3)
            Length: 3
            Shift count: 10
            [Multiplier: 1024]
    [Timestamps]
        [Time since first frame in this TCP stream: 0.000021000 seconds]
        [Time since previous frame in this TCP stream: 0.000021000 seconds]
    [SEQ/ACK analysis]
        [TCP Analysis Flags]
            [Expert Info (Note/Sequence): This frame is a (suspected) retransmission]
                [This frame is a (suspected) retransmission]
                [Severity level: Note]
                [Group: Sequence]
            [The RTO for this segment was: 0.000021000 seconds]
            [RTO based on delta from frame: 1]

0000  08 00 00 00 00 00 00 03 00 01 04 06 7c ed 8d 55   ............|..U
0010  4a a4 00 00 45 00 00 3c de 83 40 00 40 06 e1 1d   J...E..<..@.@...
0020  0a 01 01 98 03 00 6c 82 8e 12 01 bb 79 61 70 13   ......l.....yap.
0030  00 00 00 00 a0 02 fa f0 7b 49 00 00 02 04 05 b4   ........{I......
0040  04 02 08 0a 86 67 88 ba 00 00 00 00 01 03 03 0a   .....g..........

Frame 3: 80 bytes on wire (640 bits), 80 bytes captured (640 bits)
    Encapsulation type: Linux cooked-mode capture v2 (210)
    Arrival Time: Mar 30, 2026 12:10:23.765484000 UTC
    UTC Arrival Time: Mar 30, 2026 12:10:23.765484000 UTC
    Epoch Arrival Time: 1774872623.765484000
    [Time shift for this packet: 0.000000000 seconds]
    [Time delta from previous captured frame: 0.207458000 seconds]
    [Time delta from previous displayed frame: 0.207458000 seconds]
    [Time since reference or first frame: 0.207479000 seconds]
    Frame Number: 3
    Frame Length: 80 bytes (640 bits)
    Capture Length: 80 bytes (640 bits)
    [Frame is marked: False]
    [Frame is ignored: False]
    [Protocols in frame: sll:ethertype:ip:tcp]
Linux cooked capture v2
    Protocol: IPv4 (0x0800)
    Interface index: 3
    Link-layer address type: Ethernet (1)
    Packet type: Unicast to us (0)
    Link-layer address length: 6
    Source: 12:34:56:78:9a:bc (12:34:56:78:9a:bc)
    Unused: 0000
Internet Protocol Version 4, Src: 3.0.108.130, Dst: 10.1.1.152
    0100 .... = Version: 4
    .... 0101 = Header Length: 20 bytes (5)
    Differentiated Services Field: 0x00 (DSCP: CS0, ECN: Not-ECT)
        0000 00.. = Differentiated Services Codepoint: Default (0)
        .... ..00 = Explicit Congestion Notification: Not ECN-Capable Transport (0)
    Total Length: 60
    Identification: 0x0000 (0)
    010. .... = Flags: 0x2, Don't fragment
        0... .... = Reserved bit: Not set
        .1.. .... = Don't fragment: Set
        ..0. .... = More fragments: Not set
    ...0 0000 0000 0000 = Fragment Offset: 0
    Time to Live: 236
    Protocol: TCP (6)
    Header Checksum: 0x13a1 [validation disabled]
    [Header checksum status: Unverified]
    Source Address: 3.0.108.130
    Destination Address: 10.1.1.152
Transmission Control Protocol, Src Port: 443, Dst Port: 36370, Seq: 0, Ack: 1, Len: 0
    Source Port: 443
    Destination Port: 36370
    [Stream index: 0]
    [Conversation completeness: Incomplete, SYN_SENT (1)]
        ..0. .... = RST: Absent
        ...0 .... = FIN: Absent
        .... 0... = Data: Absent
        .... .0.. = ACK: Absent
        .... ..0. = SYN-ACK: Absent
        .... ...1 = SYN: Present
        [Completeness Flags: ·····S]
    [TCP Segment Len: 0]
    Sequence Number: 0    (relative sequence number)
    Sequence Number (raw): 1936952573
    [Next Sequence Number: 1    (relative sequence number)]
    Acknowledgment Number: 1    (relative ack number)
    Acknowledgment number (raw): 2036428820
    1010 .... = Header Length: 40 bytes (10)
    Flags: 0x012 (SYN, ACK)
        000. .... .... = Reserved: Not set
        ...0 .... .... = Accurate ECN: Not set
        .... 0... .... = Congestion Window Reduced: Not set
        .... .0.. .... = ECN-Echo: Not set
        .... ..0. .... = Urgent: Not set
        .... ...1 .... = Acknowledgment: Set
        .... .... 0... = Push: Not set
        .... .... .0.. = Reset: Not set
        .... .... ..1. = Syn: Set
            [Expert Info (Chat/Sequence): Connection establish acknowledge (SYN+ACK): server port 443]
                [Connection establish acknowledge (SYN+ACK): server port 443]
                [Severity level: Chat]
                [Group: Sequence]
        .... .... ...0 = Fin: Not set
        [TCP Flags: ·······A··S·]
    Window: 26847
    [Calculated window size: 26847]
    Checksum: 0x7fe3 [unverified]
    [Checksum Status: Unverified]
    Urgent Pointer: 0
    Options: (20 bytes), Maximum segment size, SACK permitted, Timestamps, No-Operation (NOP), Window scale
        TCP Option - Maximum segment size: 1460 bytes
            Kind: Maximum Segment Size (2)
            Length: 4
            MSS Value: 1460
        TCP Option - SACK permitted
            Kind: SACK Permitted (4)
            Length: 2
        TCP Option - Timestamps
            Kind: Time Stamp Option (8)
            Length: 10
            Timestamp value: 4111033905: TSval 4111033905, TSecr 2254932154
            Timestamp echo reply: 2254932154
        TCP Option - No-Operation (NOP)
            Kind: No-Operation (1)
        TCP Option - Window scale: 8 (multiply by 256)
            Kind: Window Scale (3)
            Length: 3
            Shift count: 8
            [Multiplier: 256]
    [Timestamps]
        [Time since first frame in this TCP stream: 0.207479000 seconds]
        [Time since previous frame in this TCP stream: 0.207458000 seconds]
    [SEQ/ACK analysis]
        [This is an ACK to the segment in frame: 1]
        [The RTT to ACK the segment was: 0.207479000 seconds]

0000  08 00 00 00 00 00 00 03 00 01 00 06 12 34 56 78   .............4Vx
0010  9a bc 00 00 45 00 00 3c 00 00 40 00 ec 06 13 a1   ....E..<..@.....
0020  03 00 6c 82 0a 01 01 98 01 bb 8e 12 73 73 8c fd   ..l.........ss..
0030  79 61 70 14 a0 12 68 df 7f e3 00 00 02 04 05 b4   yap...h.........
0040  04 02 08 0a f5 09 66 31 86 67 88 ba 01 03 03 08   ......f1.g......

Frame 4: 80 bytes on wire (640 bits), 80 bytes captured (640 bits)
    Encapsulation type: Linux cooked-mode capture v2 (210)
    Arrival Time: Mar 30, 2026 12:10:23.765484000 UTC
    UTC Arrival Time: Mar 30, 2026 12:10:23.765484000 UTC
    Epoch Arrival Time: 1774872623.765484000
    [Time shift for this packet: 0.000000000 seconds]
    [Time delta from previous captured frame: 0.000000000 seconds]
    [Time delta from previous displayed frame: 0.000000000 seconds]
    [Time since reference or first frame: 0.207479000 seconds]
    Frame Number: 4
    Frame Length: 80 bytes (640 bits)
    Capture Length: 80 bytes (640 bits)
    [Frame is marked: False]
    [Frame is ignored: False]
    [Protocols in frame: sll:ethertype:ip:tcp]
Linux cooked capture v2
    Protocol: IPv4 (0x0800)
    Interface index: 2
    Link-layer address type: Ethernet (1)
    Packet type: Unicast to us (0)
    Link-layer address length: 6
    Source: 12:34:56:78:9a:bc (12:34:56:78:9a:bc)
    Unused: 0000
Internet Protocol Version 4, Src: 3.0.108.130, Dst: 10.1.1.152
    0100 .... = Version: 4
    .... 0101 = Header Length: 20 bytes (5)
    Differentiated Services Field: 0x00 (DSCP: CS0, ECN: Not-ECT)
        0000 00.. = Differentiated Services Codepoint: Default (0)
        .... ..00 = Explicit Congestion Notification: Not ECN-Capable Transport (0)
    Total Length: 60
    Identification: 0x0000 (0)
    010. .... = Flags: 0x2, Don't fragment
        0... .... = Reserved bit: Not set
        .1.. .... = Don't fragment: Set
        ..0. .... = More fragments: Not set
    ...0 0000 0000 0000 = Fragment Offset: 0
    Time to Live: 236
    Protocol: TCP (6)
    Header Checksum: 0x13a1 [validation disabled]
    [Header checksum status: Unverified]
    Source Address: 3.0.108.130
    Destination Address: 10.1.1.152
Transmission Control Protocol, Src Port: 443, Dst Port: 36370, Seq: 0, Ack: 1, Len: 0
    Source Port: 443
    Destination Port: 36370
    [Stream index: 0]
    [Conversation completeness: Incomplete, CLIENT_ESTABLISHED (3)]
        ..0. .... = RST: Absent
        ...0 .... = FIN: Absent
        .... 0... = Data: Absent
        .... .0.. = ACK: Absent
        .... ..1. = SYN-ACK: Present
        .... ...1 = SYN: Present
        [Completeness Flags: ····SS]
    [TCP Segment Len: 0]
    Sequence Number: 0    (relative sequence number)
    Sequence Number (raw): 1936952573
    [Next Sequence Number: 1    (relative sequence number)]
    Acknowledgment Number: 1    (relative ack number)
    Acknowledgment number (raw): 2036428820
    1010 .... = Header Length: 40 bytes (10)
    Flags: 0x012 (SYN, ACK)
        000. .... .... = Reserved: Not set
        ...0 .... .... = Accurate ECN: Not set
        .... 0... .... = Congestion Window Reduced: Not set
        .... .0.. .... = ECN-Echo: Not set
        .... ..0. .... = Urgent: Not set
        .... ...1 .... = Acknowledgment: Set
        .... .... 0... = Push: Not set
        .... .... .0.. = Reset: Not set
        .... .... ..1. = Syn: Set
            [Expert Info (Chat/Sequence): Connection establish acknowledge (SYN+ACK): server port 443]
                [Connection establish acknowledge (SYN+ACK): server port 443]
                [Severity level: Chat]
                [Group: Sequence]
        .... .... ...0 = Fin: Not set
        [TCP Flags: ·······A··S·]
    Window: 26847
    [Calculated window size: 26847]
    Checksum: 0x7fe3 [unverified]
    [Checksum Status: Unverified]
    Urgent Pointer: 0
    Options: (20 bytes), Maximum segment size, SACK permitted, Timestamps, No-Operation (NOP), Window scale
        TCP Option - Maximum segment size: 1460 bytes
            Kind: Maximum Segment Size (2)
            Length: 4
            MSS Value: 1460
        TCP Option - SACK permitted
            Kind: SACK Permitted (4)
            Length: 2
        TCP Option - Timestamps
            Kind: Time Stamp Option (8)
            Length: 10
            Timestamp value: 4111033905: TSval 4111033905, TSecr 2254932154
            Timestamp echo reply: 2254932154
        TCP Option - No-Operation (NOP)
            Kind: No-Operation (1)
        TCP Option - Window scale: 8 (multiply by 256)
            Kind: Window Scale (3)
            Length: 3
            Shift count: 8
            [Multiplier: 256]
    [Timestamps]
        [Time since first frame in this TCP stream: 0.207479000 seconds]
        [Time since previous frame in this TCP stream: 0.000000000 seconds]
    [SEQ/ACK analysis]
        [TCP Analysis Flags]
            [Expert Info (Note/Sequence): This frame is a (suspected) retransmission]
                [This frame is a (suspected) retransmission]
                [Severity level: Note]
                [Group: Sequence]

0000  08 00 00 00 00 00 00 02 00 01 00 06 12 34 56 78   .............4Vx
0010  9a bc 00 00 45 00 00 3c 00 00 40 00 ec 06 13 a1   ....E..<..@.....
0020  03 00 6c 82 0a 01 01 98 01 bb 8e 12 73 73 8c fd   ..l.........ss..
0030  79 61 70 14 a0 12 68 df 7f e3 00 00 02 04 05 b4   yap...h.........
0040  04 02 08 0a f5 09 66 31 86 67 88 ba 01 03 03 08   ......f1.g......

Frame 5: 72 bytes on wire (576 bits), 72 bytes captured (576 bits)
    Encapsulation type: Linux cooked-mode capture v2 (210)
    Arrival Time: Mar 30, 2026 12:10:23.765532000 UTC
    UTC Arrival Time: Mar 30, 2026 12:10:23.765532000 UTC
    Epoch Arrival Time: 1774872623.765532000
    [Time shift for this packet: 0.000000000 seconds]
    [Time delta from previous captured frame: 0.000048000 seconds]
    [Time delta from previous displayed frame: 0.000048000 seconds]
    [Time since reference or first frame: 0.207527000 seconds]
    Frame Number: 5
    Frame Length: 72 bytes (576 bits)
    Capture Length: 72 bytes (576 bits)
    [Frame is marked: False]
    [Frame is ignored: False]
    [Protocols in frame: sll:ethertype:ip:tcp]
Linux cooked capture v2
    Protocol: IPv4 (0x0800)
    Interface index: 2
    Link-layer address type: Ethernet (1)
    Packet type: Sent by us (4)
    Link-layer address length: 6
    Source: Microsoft_55:4a:a4 (7c:ed:8d:55:4a:a4)
    Unused: 0000
Internet Protocol Version 4, Src: 10.1.1.152, Dst: 3.0.108.130
    0100 .... = Version: 4
    .... 0101 = Header Length: 20 bytes (5)
    Differentiated Services Field: 0x00 (DSCP: CS0, ECN: Not-ECT)
        0000 00.. = Differentiated Services Codepoint: Default (0)
        .... ..00 = Explicit Congestion Notification: Not ECN-Capable Transport (0)
    Total Length: 52
    Identification: 0xde84 (56964)
    010. .... = Flags: 0x2, Don't fragment
        0... .... = Reserved bit: Not set
        .1.. .... = Don't fragment: Set
        ..0. .... = More fragments: Not set
    ...0 0000 0000 0000 = Fragment Offset: 0
    Time to Live: 64
    Protocol: TCP (6)
    Header Checksum: 0xe124 [validation disabled]
    [Header checksum status: Unverified]
    Source Address: 10.1.1.152
    Destination Address: 3.0.108.130
Transmission Control Protocol, Src Port: 36370, Dst Port: 443, Seq: 1, Ack: 1, Len: 0
    Source Port: 36370
    Destination Port: 443
    [Stream index: 0]
    [Conversation completeness: Incomplete, CLIENT_ESTABLISHED (3)]
        ..0. .... = RST: Absent
        ...0 .... = FIN: Absent
        .... 0... = Data: Absent
        .... .0.. = ACK: Absent
        .... ..1. = SYN-ACK: Present
        .... ...1 = SYN: Present
        [Completeness Flags: ····SS]
    [TCP Segment Len: 0]
    Sequence Number: 1    (relative sequence number)
    Sequence Number (raw): 2036428820
    [Next Sequence Number: 1    (relative sequence number)]
    Acknowledgment Number: 1    (relative ack number)
    Acknowledgment number (raw): 1936952574
    1000 .... = Header Length: 32 bytes (8)
    Flags: 0x010 (ACK)
        000. .... .... = Reserved: Not set
        ...0 .... .... = Accurate ECN: Not set
        .... 0... .... = Congestion Window Reduced: Not set
        .... .0.. .... = ECN-Echo: Not set
        .... ..0. .... = Urgent: Not set
        .... ...1 .... = Acknowledgment: Set
        .... .... 0... = Push: Not set
        .... .... .0.. = Reset: Not set
        .... .... ..0. = Syn: Not set
        .... .... ...0 = Fin: Not set
        [TCP Flags: ·······A····]
    Window: 63
    [Calculated window size: 64512]
    [Window size scaling factor: 1024]
    Checksum: 0x7b41 [unverified]
    [Checksum Status: Unverified]
    Urgent Pointer: 0
    Options: (12 bytes), No-Operation (NOP), No-Operation (NOP), Timestamps
        TCP Option - No-Operation (NOP)
            Kind: No-Operation (1)
        TCP Option - No-Operation (NOP)
            Kind: No-Operation (1)
        TCP Option - Timestamps
            Kind: Time Stamp Option (8)
            Length: 10
            Timestamp value: 2254932362: TSval 2254932362, TSecr 4111033905
            Timestamp echo reply: 4111033905
    [Timestamps]
        [Time since first frame in this TCP stream: 0.207527000 seconds]
        [Time since previous frame in this TCP stream: 0.000048000 seconds]
    [SEQ/ACK analysis]
        [This is an ACK to the segment in frame: 3]
        [The RTT to ACK the segment was: 0.000048000 seconds]
        [iRTT: 0.207506000 seconds]

0000  08 00 00 00 00 00 00 02 00 01 04 06 7c ed 8d 55   ............|..U
0010  4a a4 00 00 45 00 00 34 de 84 40 00 40 06 e1 24   J...E..4..@.@..$
0020  0a 01 01 98 03 00 6c 82 8e 12 01 bb 79 61 70 14   ......l.....yap.
0030  73 73 8c fe 80 10 00 3f 7b 41 00 00 01 01 08 0a   ss.....?{A......
0040  86 67 89 8a f5 09 66 31                           .g....f1

Frame 6: 72 bytes on wire (576 bits), 72 bytes captured (576 bits)
    Encapsulation type: Linux cooked-mode capture v2 (210)
    Arrival Time: Mar 30, 2026 12:10:23.765535000 UTC
    UTC Arrival Time: Mar 30, 2026 12:10:23.765535000 UTC
    Epoch Arrival Time: 1774872623.765535000
    [Time shift for this packet: 0.000000000 seconds]
    [Time delta from previous captured frame: 0.000003000 seconds]
    [Time delta from previous displayed frame: 0.000003000 seconds]
    [Time since reference or first frame: 0.207530000 seconds]
    Frame Number: 6
    Frame Length: 72 bytes (576 bits)
    Capture Length: 72 bytes (576 bits)
    [Frame is marked: False]
    [Frame is ignored: False]
    [Protocols in frame: sll:ethertype:ip:tcp]
Linux cooked capture v2
    Protocol: IPv4 (0x0800)
    Interface index: 3
    Link-layer address type: Ethernet (1)
    Packet type: Sent by us (4)
    Link-layer address length: 6
    Source: Microsoft_55:4a:a4 (7c:ed:8d:55:4a:a4)
    Unused: 0000
Internet Protocol Version 4, Src: 10.1.1.152, Dst: 3.0.108.130
    0100 .... = Version: 4
    .... 0101 = Header Length: 20 bytes (5)
    Differentiated Services Field: 0x00 (DSCP: CS0, ECN: Not-ECT)
        0000 00.. = Differentiated Services Codepoint: Default (0)
        .... ..00 = Explicit Congestion Notification: Not ECN-Capable Transport (0)
    Total Length: 52
    Identification: 0xde84 (56964)
    010. .... = Flags: 0x2, Don't fragment
        0... .... = Reserved bit: Not set
        .1.. .... = Don't fragment: Set
        ..0. .... = More fragments: Not set
    ...0 0000 0000 0000 = Fragment Offset: 0
    Time to Live: 64
    Protocol: TCP (6)
    Header Checksum: 0xe124 [validation disabled]
    [Header checksum status: Unverified]
    Source Address: 10.1.1.152
    Destination Address: 3.0.108.130
Transmission Control Protocol, Src Port: 36370, Dst Port: 443, Seq: 1, Ack: 1, Len: 0
    Source Port: 36370
    Destination Port: 443
    [Stream index: 0]
    [Conversation completeness: Incomplete, ESTABLISHED (7)]
        ..0. .... = RST: Absent
        ...0 .... = FIN: Absent
        .... 0... = Data: Absent
        .... .1.. = ACK: Present
        .... ..1. = SYN-ACK: Present
        .... ...1 = SYN: Present
        [Completeness Flags: ···ASS]
    [TCP Segment Len: 0]
    Sequence Number: 1    (relative sequence number)
    Sequence Number (raw): 2036428820
    [Next Sequence Number: 1    (relative sequence number)]
    Acknowledgment Number: 1    (relative ack number)
    Acknowledgment number (raw): 1936952574
    1000 .... = Header Length: 32 bytes (8)
    Flags: 0x010 (ACK)
        000. .... .... = Reserved: Not set
        ...0 .... .... = Accurate ECN: Not set
        .... 0... .... = Congestion Window Reduced: Not set
        .... .0.. .... = ECN-Echo: Not set
        .... ..0. .... = Urgent: Not set
        .... ...1 .... = Acknowledgment: Set
        .... .... 0... = Push: Not set
        .... .... .0.. = Reset: Not set
        .... .... ..0. = Syn: Not set
        .... .... ...0 = Fin: Not set
        [TCP Flags: ·······A····]
    Window: 63
    [Calculated window size: 64512]
    [Window size scaling factor: 1024]
    Checksum: 0x7b41 [unverified]
    [Checksum Status: Unverified]
    Urgent Pointer: 0
    Options: (12 bytes), No-Operation (NOP), No-Operation (NOP), Timestamps
        TCP Option - No-Operation (NOP)
            Kind: No-Operation (1)
        TCP Option - No-Operation (NOP)
            Kind: No-Operation (1)
        TCP Option - Timestamps
            Kind: Time Stamp Option (8)
            Length: 10
            Timestamp value: 2254932362: TSval 2254932362, TSecr 4111033905
            Timestamp echo reply: 4111033905
    [Timestamps]
        [Time since first frame in this TCP stream: 0.207530000 seconds]
        [Time since previous frame in this TCP stream: 0.000003000 seconds]
    [SEQ/ACK analysis]
        [iRTT: 0.207506000 seconds]
        [TCP Analysis Flags]
            [This is a TCP duplicate ack]
        [Duplicate ACK #: 1]
        [Duplicate to the ACK in frame: 5]
            [Expert Info (Note/Sequence): Duplicate ACK (#1)]
                [Duplicate ACK (#1)]
                [Severity level: Note]
                [Group: Sequence]

0000  08 00 00 00 00 00 00 03 00 01 04 06 7c ed 8d 55   ............|..U
0010  4a a4 00 00 45 00 00 34 de 84 40 00 40 06 e1 24   J...E..4..@.@..$
0020  0a 01 01 98 03 00 6c 82 8e 12 01 bb 79 61 70 14   ......l.....yap.
0030  73 73 8c fe 80 10 00 3f 7b 41 00 00 01 01 08 0a   ss.....?{A......
0040  86 67 89 8a f5 09 66 31                           .g....f1

Frame 7: 589 bytes on wire (4712 bits), 589 bytes captured (4712 bits)
    Encapsulation type: Linux cooked-mode capture v2 (210)
    Arrival Time: Mar 30, 2026 12:10:23.786919000 UTC
    UTC Arrival Time: Mar 30, 2026 12:10:23.786919000 UTC
    Epoch Arrival Time: 1774872623.786919000
    [Time shift for this packet: 0.000000000 seconds]
    [Time delta from previous captured frame: 0.021384000 seconds]
    [Time delta from previous displayed frame: 0.021384000 seconds]
    [Time since reference or first frame: 0.228914000 seconds]
    Frame Number: 7
    Frame Length: 589 bytes (4712 bits)
    Capture Length: 589 bytes (4712 bits)
    [Frame is marked: False]
    [Frame is ignored: False]
    [Protocols in frame: sll:ethertype:ip:tcp:tls]
Linux cooked capture v2
    Protocol: IPv4 (0x0800)
    Interface index: 2
    Link-layer address type: Ethernet (1)
    Packet type: Sent by us (4)
    Link-layer address length: 6
    Source: Microsoft_55:4a:a4 (7c:ed:8d:55:4a:a4)
    Unused: 0000
Internet Protocol Version 4, Src: 10.1.1.152, Dst: 3.0.108.130
    0100 .... = Version: 4
    .... 0101 = Header Length: 20 bytes (5)
    Differentiated Services Field: 0x00 (DSCP: CS0, ECN: Not-ECT)
        0000 00.. = Differentiated Services Codepoint: Default (0)
        .... ..00 = Explicit Congestion Notification: Not ECN-Capable Transport (0)
    Total Length: 569
    Identification: 0xde85 (56965)
    010. .... = Flags: 0x2, Don't fragment
        0... .... = Reserved bit: Not set
        .1.. .... = Don't fragment: Set
        ..0. .... = More fragments: Not set
    ...0 0000 0000 0000 = Fragment Offset: 0
    Time to Live: 64
    Protocol: TCP (6)
    Header Checksum: 0xdf1e [validation disabled]
    [Header checksum status: Unverified]
    Source Address: 10.1.1.152
    Destination Address: 3.0.108.130
Transmission Control Protocol, Src Port: 36370, Dst Port: 443, Seq: 1, Ack: 1, Len: 517
    Source Port: 36370
    Destination Port: 443
    [Stream index: 0]
    [Conversation completeness: Incomplete, ESTABLISHED (7)]
        ..0. .... = RST: Absent
        ...0 .... = FIN: Absent
        .... 0... = Data: Absent
        .... .1.. = ACK: Present
        .... ..1. = SYN-ACK: Present
        .... ...1 = SYN: Present
        [Completeness Flags: ···ASS]
    [TCP Segment Len: 517]
    Sequence Number: 1    (relative sequence number)
    Sequence Number (raw): 2036428820
    [Next Sequence Number: 518    (relative sequence number)]
    Acknowledgment Number: 1    (relative ack number)
    Acknowledgment number (raw): 1936952574
    1000 .... = Header Length: 32 bytes (8)
    Flags: 0x018 (PSH, ACK)
        000. .... .... = Reserved: Not set
        ...0 .... .... = Accurate ECN: Not set
        .... 0... .... = Congestion Window Reduced: Not set
        .... .0.. .... = ECN-Echo: Not set
        .... ..0. .... = Urgent: Not set
        .... ...1 .... = Acknowledgment: Set
        .... .... 1... = Push: Set
        .... .... .0.. = Reset: Not set
        .... .... ..0. = Syn: Not set
        .... .... ...0 = Fin: Not set
        [TCP Flags: ·······AP···]
    Window: 63
    [Calculated window size: 64512]
    [Window size scaling factor: 1024]
    Checksum: 0x7d46 [unverified]
    [Checksum Status: Unverified]
    Urgent Pointer: 0
    Options: (12 bytes), No-Operation (NOP), No-Operation (NOP), Timestamps
        TCP Option - No-Operation (NOP)
            Kind: No-Operation (1)
        TCP Option - No-Operation (NOP)
            Kind: No-Operation (1)
        TCP Option - Timestamps
            Kind: Time Stamp Option (8)
            Length: 10
            Timestamp value: 2254932383: TSval 2254932383, TSecr 4111033905
            Timestamp echo reply: 4111033905
    [Timestamps]
        [Time since first frame in this TCP stream: 0.228914000 seconds]
        [Time since previous frame in this TCP stream: 0.021384000 seconds]
    [SEQ/ACK analysis]
        [iRTT: 0.207506000 seconds]
        [Bytes in flight: 517]
        [Bytes sent since last PSH flag: 517]
    TCP payload (517 bytes)
Transport Layer Security
    TLSv1 Record Layer: Handshake Protocol: Client Hello
        Content Type: Handshake (22)
        Version: TLS 1.0 (0x0301)
        Length: 512
        Handshake Protocol: Client Hello
            Handshake Type: Client Hello (1)
            Length: 508
            Version: TLS 1.2 (0x0303)
            Random: 406168e8f777e2a3a73c5adfd712c7b5458361b224c92119cba2bdb6a201459d
                GMT Unix Time: Mar 24, 2004 10:54:32.000000000 UTC
                Random Bytes: f777e2a3a73c5adfd712c7b5458361b224c92119cba2bdb6a201459d
            Session ID Length: 32
            Session ID: 26463016428d333d68e3d8c63be19dc4385b1fde039affe5ff3074751fb0f163
            Cipher Suites Length: 36
            Cipher Suites (18 suites)
                Cipher Suite: TLS_AES_256_GCM_SHA384 (0x1302)
                Cipher Suite: TLS_CHACHA20_POLY1305_SHA256 (0x1303)
                Cipher Suite: TLS_AES_128_GCM_SHA256 (0x1301)
                Cipher Suite: TLS_ECDHE_ECDSA_WITH_AES_256_GCM_SHA384 (0xc02c)
                Cipher Suite: TLS_ECDHE_RSA_WITH_AES_256_GCM_SHA384 (0xc030)
                Cipher Suite: TLS_ECDHE_ECDSA_WITH_AES_128_GCM_SHA256 (0xc02b)
                Cipher Suite: TLS_ECDHE_RSA_WITH_AES_128_GCM_SHA256 (0xc02f)
                Cipher Suite: TLS_ECDHE_ECDSA_WITH_CHACHA20_POLY1305_SHA256 (0xcca9)
                Cipher Suite: TLS_ECDHE_RSA_WITH_CHACHA20_POLY1305_SHA256 (0xcca8)
                Cipher Suite: TLS_ECDHE_ECDSA_WITH_AES_256_CBC_SHA384 (0xc024)
                Cipher Suite: TLS_ECDHE_RSA_WITH_AES_256_CBC_SHA384 (0xc028)
                Cipher Suite: TLS_ECDHE_ECDSA_WITH_AES_128_CBC_SHA256 (0xc023)
                Cipher Suite: TLS_ECDHE_RSA_WITH_AES_128_CBC_SHA256 (0xc027)
                Cipher Suite: TLS_DHE_RSA_WITH_AES_256_GCM_SHA384 (0x009f)
                Cipher Suite: TLS_DHE_RSA_WITH_AES_128_GCM_SHA256 (0x009e)
                Cipher Suite: TLS_DHE_RSA_WITH_AES_256_CBC_SHA256 (0x006b)
                Cipher Suite: TLS_DHE_RSA_WITH_AES_128_CBC_SHA256 (0x0067)
                Cipher Suite: TLS_EMPTY_RENEGOTIATION_INFO_SCSV (0x00ff)
            Compression Methods Length: 1
            Compression Methods (1 method)
                Compression Method: null (0)
            Extensions Length: 399
            Extension: server_name (len=29) name=mcd-gateway.grabtaxi.com
                Type: server_name (0)
                Length: 29
                Server Name Indication extension
                    Server Name list length: 27
                    Server Name Type: host_name (0)
                    Server Name length: 24
                    Server Name: mcd-gateway.grabtaxi.com
            Extension: ec_point_formats (len=4)
                Type: ec_point_formats (11)
                Length: 4
                EC point formats Length: 3
                Elliptic curves point formats (3)
                    EC point format: uncompressed (0)
                    EC point format: ansiX962_compressed_prime (1)
                    EC point format: ansiX962_compressed_char2 (2)
            Extension: supported_groups (len=22)
                Type: supported_groups (10)
                Length: 22
                Supported Groups List Length: 20
                Supported Groups (10 groups)
                    Supported Group: x25519 (0x001d)
                    Supported Group: secp256r1 (0x0017)
                    Supported Group: x448 (0x001e)
                    Supported Group: secp521r1 (0x0019)
                    Supported Group: secp384r1 (0x0018)
                    Supported Group: ffdhe2048 (0x0100)
                    Supported Group: ffdhe3072 (0x0101)
                    Supported Group: ffdhe4096 (0x0102)
                    Supported Group: ffdhe6144 (0x0103)
                    Supported Group: ffdhe8192 (0x0104)
            Extension: application_layer_protocol_negotiation (len=11)
                Type: application_layer_protocol_negotiation (16)
                Length: 11
                ALPN Extension Length: 9
                ALPN Protocol
                    ALPN string length: 8
                    ALPN Next Protocol: http/1.1
            Extension: encrypt_then_mac (len=0)
                Type: encrypt_then_mac (22)
                Length: 0
            Extension: extended_master_secret (len=0)
                Type: extended_master_secret (23)
                Length: 0
            Extension: post_handshake_auth (len=0)
                Type: post_handshake_auth (49)
                Length: 0
            Extension: signature_algorithms (len=42)
                Type: signature_algorithms (13)
                Length: 42
                Signature Hash Algorithms Length: 40
                Signature Hash Algorithms (20 algorithms)
                    Signature Algorithm: ecdsa_secp256r1_sha256 (0x0403)
                        Signature Hash Algorithm Hash: SHA256 (4)
                        Signature Hash Algorithm Signature: ECDSA (3)
                    Signature Algorithm: ecdsa_secp384r1_sha384 (0x0503)
                        Signature Hash Algorithm Hash: SHA384 (5)
                        Signature Hash Algorithm Signature: ECDSA (3)
                    Signature Algorithm: ecdsa_secp521r1_sha512 (0x0603)
                        Signature Hash Algorithm Hash: SHA512 (6)
                        Signature Hash Algorithm Signature: ECDSA (3)
                    Signature Algorithm: ed25519 (0x0807)
                        Signature Hash Algorithm Hash: Unknown (8)
                        Signature Hash Algorithm Signature: Unknown (7)
                    Signature Algorithm: ed448 (0x0808)
                        Signature Hash Algorithm Hash: Unknown (8)
                        Signature Hash Algorithm Signature: Unknown (8)
                    Signature Algorithm: rsa_pss_pss_sha256 (0x0809)
                        Signature Hash Algorithm Hash: Unknown (8)
                        Signature Hash Algorithm Signature: Unknown (9)
                    Signature Algorithm: rsa_pss_pss_sha384 (0x080a)
                        Signature Hash Algorithm Hash: Unknown (8)
                        Signature Hash Algorithm Signature: Unknown (10)
                    Signature Algorithm: rsa_pss_pss_sha512 (0x080b)
                        Signature Hash Algorithm Hash: Unknown (8)
                        Signature Hash Algorithm Signature: Unknown (11)
                    Signature Algorithm: rsa_pss_rsae_sha256 (0x0804)
                        Signature Hash Algorithm Hash: Unknown (8)
                        Signature Hash Algorithm Signature: SM2 (4)
                    Signature Algorithm: rsa_pss_rsae_sha384 (0x0805)
                        Signature Hash Algorithm Hash: Unknown (8)
                        Signature Hash Algorithm Signature: Unknown (5)
                    Signature Algorithm: rsa_pss_rsae_sha512 (0x0806)
                        Signature Hash Algorithm Hash: Unknown (8)
                        Signature Hash Algorithm Signature: Unknown (6)
                    Signature Algorithm: rsa_pkcs1_sha256 (0x0401)
                        Signature Hash Algorithm Hash: SHA256 (4)
                        Signature Hash Algorithm Signature: RSA (1)
                    Signature Algorithm: rsa_pkcs1_sha384 (0x0501)
                        Signature Hash Algorithm Hash: SHA384 (5)
                        Signature Hash Algorithm Signature: RSA (1)
                    Signature Algorithm: rsa_pkcs1_sha512 (0x0601)
                        Signature Hash Algorithm Hash: SHA512 (6)
                        Signature Hash Algorithm Signature: RSA (1)
                    Signature Algorithm: SHA224 ECDSA (0x0303)
                        Signature Hash Algorithm Hash: SHA224 (3)
                        Signature Hash Algorithm Signature: ECDSA (3)
                    Signature Algorithm: SHA224 RSA (0x0301)
                        Signature Hash Algorithm Hash: SHA224 (3)
                        Signature Hash Algorithm Signature: RSA (1)
                    Signature Algorithm: SHA224 DSA (0x0302)
                        Signature Hash Algorithm Hash: SHA224 (3)
                        Signature Hash Algorithm Signature: DSA (2)
                    Signature Algorithm: SHA256 DSA (0x0402)
                        Signature Hash Algorithm Hash: SHA256 (4)
                        Signature Hash Algorithm Signature: DSA (2)
                    Signature Algorithm: SHA384 DSA (0x0502)
                        Signature Hash Algorithm Hash: SHA384 (5)
                        Signature Hash Algorithm Signature: DSA (2)
                    Signature Algorithm: SHA512 DSA (0x0602)
                        Signature Hash Algorithm Hash: SHA512 (6)
                        Signature Hash Algorithm Signature: DSA (2)
            Extension: supported_versions (len=5) TLS 1.3, TLS 1.2
                Type: supported_versions (43)
                Length: 5
                Supported Versions length: 4
                Supported Version: TLS 1.3 (0x0304)
                Supported Version: TLS 1.2 (0x0303)
            Extension: psk_key_exchange_modes (len=2)
                Type: psk_key_exchange_modes (45)
                Length: 2
                PSK Key Exchange Modes Length: 1
                PSK Key Exchange Mode: PSK with (EC)DHE key establishment (psk_dhe_ke) (1)
            Extension: key_share (len=38) x25519
                Type: key_share (51)
                Length: 38
                Key Share extension
                    Client Key Share Length: 36
                    Key Share Entry: Group: x25519, Key Exchange length: 32
                        Group: x25519 (29)
                        Key Exchange Length: 32
                        Key Exchange: e1953e7ace92a4b5fedfda955c0b25181d61bbdecd90964509b547cc5efad200
            Extension: padding (len=198)
                Type: padding (21)
                Length: 198
                Padding Data [truncated]: 000000000000000000000000000000000000000000000000000000000000000000000000000000000000000000000000000000000000000000000000000000000000000000000000000000000000000000000000000000000000000000000000000000000000000000000
            [JA4: t13d1812h1_85036bcba153_b26ce05bbdd6]
            [JA4_r [truncated]: t13d1812h1_0067,006b,009e,009f,00ff,1301,1302,1303,c023,c024,c027,c028,c02b,c02c,c02f,c030,cca8,cca9_000a,000b,000d,0015,0016,0017,002b,002d,0031,0033_0403,0503,0603,0807,0808,0809,080a,080b,0804,0805,0806,0401,0501,0601]
            [JA3 Fullstring: 771,4866-4867-4865-49196-49200-49195-49199-52393-52392-49188-49192-49187-49191-159-158-107-103-255,0-11-10-16-22-23-49-13-43-45-51-21,29-23-30-25-24-256-257-258-259-260,0-1-2]
            [JA3: a48c0d5f95b1ef98f560f324fd275da1]

0000  08 00 00 00 00 00 00 02 00 01 04 06 7c ed 8d 55   ............|..U
0010  4a a4 00 00 45 00 02 39 de 85 40 00 40 06 df 1e   J...E..9..@.@...
0020  0a 01 01 98 03 00 6c 82 8e 12 01 bb 79 61 70 14   ......l.....yap.
0030  73 73 8c fe 80 18 00 3f 7d 46 00 00 01 01 08 0a   ss.....?}F......
0040  86 67 89 9f f5 09 66 31 16 03 01 02 00 01 00 01   .g....f1........
0050  fc 03 03 40 61 68 e8 f7 77 e2 a3 a7 3c 5a df d7   ...@ah..w...<Z..
0060  12 c7 b5 45 83 61 b2 24 c9 21 19 cb a2 bd b6 a2   ...E.a.$.!......
0070  01 45 9d 20 26 46 30 16 42 8d 33 3d 68 e3 d8 c6   .E. &F0.B.3=h...
0080  3b e1 9d c4 38 5b 1f de 03 9a ff e5 ff 30 74 75   ;...8[.......0tu
0090  1f b0 f1 63 00 24 13 02 13 03 13 01 c0 2c c0 30   ...c.$.......,.0
00a0  c0 2b c0 2f cc a9 cc a8 c0 24 c0 28 c0 23 c0 27   .+./.....$.(.#.'
00b0  00 9f 00 9e 00 6b 00 67 00 ff 01 00 01 8f 00 00   .....k.g........
00c0  00 1d 00 1b 00 00 18 6d 63 64 2d 67 61 74 65 77   .......mcd-gatew
00d0  61 79 2e 67 72 61 62 74 61 78 69 2e 63 6f 6d 00   ay.grabtaxi.com.
00e0  0b 00 04 03 00 01 02 00 0a 00 16 00 14 00 1d 00   ................
00f0  17 00 1e 00 19 00 18 01 00 01 01 01 02 01 03 01   ................
0100  04 00 10 00 0b 00 09 08 68 74 74 70 2f 31 2e 31   ........http/1.1
0110  00 16 00 00 00 17 00 00 00 31 00 00 00 0d 00 2a   .........1.....*
0120  00 28 04 03 05 03 06 03 08 07 08 08 08 09 08 0a   .(..............
0130  08 0b 08 04 08 05 08 06 04 01 05 01 06 01 03 03   ................
0140  03 01 03 02 04 02 05 02 06 02 00 2b 00 05 04 03   ...........+....
0150  04 03 03 00 2d 00 02 01 01 00 33 00 26 00 24 00   ....-.....3.&.$.
0160  1d 00 20 e1 95 3e 7a ce 92 a4 b5 fe df da 95 5c   .. ..>z........\
0170  0b 25 18 1d 61 bb de cd 90 96 45 09 b5 47 cc 5e   .%..a.....E..G.^
0180  fa d2 00 00 15 00 c6 00 00 00 00 00 00 00 00 00   ................
0190  00 00 00 00 00 00 00 00 00 00 00 00 00 00 00 00   ................
01a0  00 00 00 00 00 00 00 00 00 00 00 00 00 00 00 00   ................
01b0  00 00 00 00 00 00 00 00 00 00 00 00 00 00 00 00   ................
01c0  00 00 00 00 00 00 00 00 00 00 00 00 00 00 00 00   ................
01d0  00 00 00 00 00 00 00 00 00 00 00 00 00 00 00 00   ................
01e0  00 00 00 00 00 00 00 00 00 00 00 00 00 00 00 00   ................
01f0  00 00 00 00 00 00 00 00 00 00 00 00 00 00 00 00   ................
0200  00 00 00 00 00 00 00 00 00 00 00 00 00 00 00 00   ................
0210  00 00 00 00 00 00 00 00 00 00 00 00 00 00 00 00   ................
0220  00 00 00 00 00 00 00 00 00 00 00 00 00 00 00 00   ................
0230  00 00 00 00 00 00 00 00 00 00 00 00 00 00 00 00   ................
0240  00 00 00 00 00 00 00 00 00 00 00 00 00            .............

Frame 8: 589 bytes on wire (4712 bits), 589 bytes captured (4712 bits)
    Encapsulation type: Linux cooked-mode capture v2 (210)
    Arrival Time: Mar 30, 2026 12:10:23.786924000 UTC
    UTC Arrival Time: Mar 30, 2026 12:10:23.786924000 UTC
    Epoch Arrival Time: 1774872623.786924000
    [Time shift for this packet: 0.000000000 seconds]
    [Time delta from previous captured frame: 0.000005000 seconds]
    [Time delta from previous displayed frame: 0.000005000 seconds]
    [Time since reference or first frame: 0.228919000 seconds]
    Frame Number: 8
    Frame Length: 589 bytes (4712 bits)
    Capture Length: 589 bytes (4712 bits)
    [Frame is marked: False]
    [Frame is ignored: False]
    [Protocols in frame: sll:ethertype:ip:tcp]
Linux cooked capture v2
    Protocol: IPv4 (0x0800)
    Interface index: 3
    Link-layer address type: Ethernet (1)
    Packet type: Sent by us (4)
    Link-layer address length: 6
    Source: Microsoft_55:4a:a4 (7c:ed:8d:55:4a:a4)
    Unused: 0000
Internet Protocol Version 4, Src: 10.1.1.152, Dst: 3.0.108.130
    0100 .... = Version: 4
    .... 0101 = Header Length: 20 bytes (5)
    Differentiated Services Field: 0x00 (DSCP: CS0, ECN: Not-ECT)
        0000 00.. = Differentiated Services Codepoint: Default (0)
        .... ..00 = Explicit Congestion Notification: Not ECN-Capable Transport (0)
    Total Length: 569
    Identification: 0xde85 (56965)
    010. .... = Flags: 0x2, Don't fragment
        0... .... = Reserved bit: Not set
        .1.. .... = Don't fragment: Set
        ..0. .... = More fragments: Not set
    ...0 0000 0000 0000 = Fragment Offset: 0
    Time to Live: 64
    Protocol: TCP (6)
    Header Checksum: 0xdf1e [validation disabled]
    [Header checksum status: Unverified]
    Source Address: 10.1.1.152
    Destination Address: 3.0.108.130
Transmission Control Protocol, Src Port: 36370, Dst Port: 443, Seq: 1, Ack: 1, Len: 517
    Source Port: 36370
    Destination Port: 443
    [Stream index: 0]
    [Conversation completeness: Incomplete, DATA (15)]
        ..0. .... = RST: Absent
        ...0 .... = FIN: Absent
        .... 1... = Data: Present
        .... .1.. = ACK: Present
        .... ..1. = SYN-ACK: Present
        .... ...1 = SYN: Present
        [Completeness Flags: ··DASS]
    [TCP Segment Len: 517]
    Sequence Number: 1    (relative sequence number)
    Sequence Number (raw): 2036428820
    [Next Sequence Number: 518    (relative sequence number)]
    Acknowledgment Number: 1    (relative ack number)
    Acknowledgment number (raw): 1936952574
    1000 .... = Header Length: 32 bytes (8)
    Flags: 0x018 (PSH, ACK)
        000. .... .... = Reserved: Not set
        ...0 .... .... = Accurate ECN: Not set
        .... 0... .... = Congestion Window Reduced: Not set
        .... .0.. .... = ECN-Echo: Not set
        .... ..0. .... = Urgent: Not set
        .... ...1 .... = Acknowledgment: Set
        .... .... 1... = Push: Set
        .... .... .0.. = Reset: Not set
        .... .... ..0. = Syn: Not set
        .... .... ...0 = Fin: Not set
        [TCP Flags: ·······AP···]
    Window: 63
    [Calculated window size: 64512]
    [Window size scaling factor: 1024]
    Checksum: 0x7d46 [unverified]
    [Checksum Status: Unverified]
    Urgent Pointer: 0
    Options: (12 bytes), No-Operation (NOP), No-Operation (NOP), Timestamps
        TCP Option - No-Operation (NOP)
            Kind: No-Operation (1)
        TCP Option - No-Operation (NOP)
            Kind: No-Operation (1)
        TCP Option - Timestamps
            Kind: Time Stamp Option (8)
            Length: 10
            Timestamp value: 2254932383: TSval 2254932383, TSecr 4111033905
            Timestamp echo reply: 4111033905
    [Timestamps]
        [Time since first frame in this TCP stream: 0.228919000 seconds]
        [Time since previous frame in this TCP stream: 0.000005000 seconds]
    [SEQ/ACK analysis]
        [iRTT: 0.207506000 seconds]
        [Bytes in flight: 517]
        [Bytes sent since last PSH flag: 517]
        [TCP Analysis Flags]
            [Expert Info (Note/Sequence): This frame is a (suspected) retransmission]
                [This frame is a (suspected) retransmission]
                [Severity level: Note]
                [Group: Sequence]
            [The RTO for this segment was: 0.000005000 seconds]
            [RTO based on delta from frame: 7]
    TCP payload (517 bytes)
    Retransmitted TCP segment data (517 bytes)

0000  08 00 00 00 00 00 00 03 00 01 04 06 7c ed 8d 55   ............|..U
0010  4a a4 00 00 45 00 02 39 de 85 40 00 40 06 df 1e   J...E..9..@.@...
0020  0a 01 01 98 03 00 6c 82 8e 12 01 bb 79 61 70 14   ......l.....yap.
0030  73 73 8c fe 80 18 00 3f 7d 46 00 00 01 01 08 0a   ss.....?}F......
0040  86 67 89 9f f5 09 66 31 16 03 01 02 00 01 00 01   .g....f1........
0050  fc 03 03 40 61 68 e8 f7 77 e2 a3 a7 3c 5a df d7   ...@ah..w...<Z..
0060  12 c7 b5 45 83 61 b2 24 c9 21 19 cb a2 bd b6 a2   ...E.a.$.!......
0070  01 45 9d 20 26 46 30 16 42 8d 33 3d 68 e3 d8 c6   .E. &F0.B.3=h...
0080  3b e1 9d c4 38 5b 1f de 03 9a ff e5 ff 30 74 75   ;...8[.......0tu
0090  1f b0 f1 63 00 24 13 02 13 03 13 01 c0 2c c0 30   ...c.$.......,.0
00a0  c0 2b c0 2f cc a9 cc a8 c0 24 c0 28 c0 23 c0 27   .+./.....$.(.#.'
00b0  00 9f 00 9e 00 6b 00 67 00 ff 01 00 01 8f 00 00   .....k.g........
00c0  00 1d 00 1b 00 00 18 6d 63 64 2d 67 61 74 65 77   .......mcd-gatew
00d0  61 79 2e 67 72 61 62 74 61 78 69 2e 63 6f 6d 00   ay.grabtaxi.com.
00e0  0b 00 04 03 00 01 02 00 0a 00 16 00 14 00 1d 00   ................
00f0  17 00 1e 00 19 00 18 01 00 01 01 01 02 01 03 01   ................
0100  04 00 10 00 0b 00 09 08 68 74 74 70 2f 31 2e 31   ........http/1.1
0110  00 16 00 00 00 17 00 00 00 31 00 00 00 0d 00 2a   .........1.....*
0120  00 28 04 03 05 03 06 03 08 07 08 08 08 09 08 0a   .(..............
0130  08 0b 08 04 08 05 08 06 04 01 05 01 06 01 03 03   ................
0140  03 01 03 02 04 02 05 02 06 02 00 2b 00 05 04 03   ...........+....
0150  04 03 03 00 2d 00 02 01 01 00 33 00 26 00 24 00   ....-.....3.&.$.
0160  1d 00 20 e1 95 3e 7a ce 92 a4 b5 fe df da 95 5c   .. ..>z........\
0170  0b 25 18 1d 61 bb de cd 90 96 45 09 b5 47 cc 5e   .%..a.....E..G.^
0180  fa d2 00 00 15 00 c6 00 00 00 00 00 00 00 00 00   ................
0190  00 00 00 00 00 00 00 00 00 00 00 00 00 00 00 00   ................
01a0  00 00 00 00 00 00 00 00 00 00 00 00 00 00 00 00   ................
01b0  00 00 00 00 00 00 00 00 00 00 00 00 00 00 00 00   ................
01c0  00 00 00 00 00 00 00 00 00 00 00 00 00 00 00 00   ................
01d0  00 00 00 00 00 00 00 00 00 00 00 00 00 00 00 00   ................
01e0  00 00 00 00 00 00 00 00 00 00 00 00 00 00 00 00   ................
01f0  00 00 00 00 00 00 00 00 00 00 00 00 00 00 00 00   ................
0200  00 00 00 00 00 00 00 00 00 00 00 00 00 00 00 00   ................
0210  00 00 00 00 00 00 00 00 00 00 00 00 00 00 00 00   ................
0220  00 00 00 00 00 00 00 00 00 00 00 00 00 00 00 00   ................
0230  00 00 00 00 00 00 00 00 00 00 00 00 00 00 00 00   ................
0240  00 00 00 00 00 00 00 00 00 00 00 00 00            .............

Frame 9: 72 bytes on wire (576 bits), 72 bytes captured (576 bits)
    Encapsulation type: Linux cooked-mode capture v2 (210)
    Arrival Time: Mar 30, 2026 12:10:23.993857000 UTC
    UTC Arrival Time: Mar 30, 2026 12:10:23.993857000 UTC
    Epoch Arrival Time: 1774872623.993857000
    [Time shift for this packet: 0.000000000 seconds]
    [Time delta from previous captured frame: 0.206933000 seconds]
    [Time delta from previous displayed frame: 0.206933000 seconds]
    [Time since reference or first frame: 0.435852000 seconds]
    Frame Number: 9
    Frame Length: 72 bytes (576 bits)
    Capture Length: 72 bytes (576 bits)
    [Frame is marked: False]
    [Frame is ignored: False]
    [Protocols in frame: sll:ethertype:ip:tcp]
Linux cooked capture v2
    Protocol: IPv4 (0x0800)
    Interface index: 3
    Link-layer address type: Ethernet (1)
    Packet type: Unicast to us (0)
    Link-layer address length: 6
    Source: 12:34:56:78:9a:bc (12:34:56:78:9a:bc)
    Unused: 0000
Internet Protocol Version 4, Src: 3.0.108.130, Dst: 10.1.1.152
    0100 .... = Version: 4
    .... 0101 = Header Length: 20 bytes (5)
    Differentiated Services Field: 0x00 (DSCP: CS0, ECN: Not-ECT)
        0000 00.. = Differentiated Services Codepoint: Default (0)
        .... ..00 = Explicit Congestion Notification: Not ECN-Capable Transport (0)
    Total Length: 52
    Identification: 0x28e7 (10471)
    010. .... = Flags: 0x2, Don't fragment
        0... .... = Reserved bit: Not set
        .1.. .... = Don't fragment: Set
        ..0. .... = More fragments: Not set
    ...0 0000 0000 0000 = Fragment Offset: 0
    Time to Live: 236
    Protocol: TCP (6)
    Header Checksum: 0xeac1 [validation disabled]
    [Header checksum status: Unverified]
    Source Address: 3.0.108.130
    Destination Address: 10.1.1.152
Transmission Control Protocol, Src Port: 443, Dst Port: 36370, Seq: 1, Ack: 518, Len: 0
    Source Port: 443
    Destination Port: 36370
    [Stream index: 0]
    [Conversation completeness: Incomplete, DATA (15)]
        ..0. .... = RST: Absent
        ...0 .... = FIN: Absent
        .... 1... = Data: Present
        .... .1.. = ACK: Present
        .... ..1. = SYN-ACK: Present
        .... ...1 = SYN: Present
        [Completeness Flags: ··DASS]
    [TCP Segment Len: 0]
    Sequence Number: 1    (relative sequence number)
    Sequence Number (raw): 1936952574
    [Next Sequence Number: 1    (relative sequence number)]
    Acknowledgment Number: 518    (relative ack number)
    Acknowledgment number (raw): 2036429337
    1000 .... = Header Length: 32 bytes (8)
    Flags: 0x010 (ACK)
        000. .... .... = Reserved: Not set
        ...0 .... .... = Accurate ECN: Not set
        .... 0... .... = Congestion Window Reduced: Not set
        .... .0.. .... = ECN-Echo: Not set
        .... ..0. .... = Urgent: Not set
        .... ...1 .... = Acknowledgment: Set
        .... .... 0... = Push: Not set
        .... .... .0.. = Reset: Not set
        .... .... ..0. = Syn: Not set
        .... .... ...0 = Fin: Not set
        [TCP Flags: ·······A····]
    Window: 117
    [Calculated window size: 29952]
    [Window size scaling factor: 256]
    Checksum: 0x133f [unverified]
    [Checksum Status: Unverified]
    Urgent Pointer: 0
    Options: (12 bytes), No-Operation (NOP), No-Operation (NOP), Timestamps
        TCP Option - No-Operation (NOP)
            Kind: No-Operation (1)
        TCP Option - No-Operation (NOP)
            Kind: No-Operation (1)
        TCP Option - Timestamps
            Kind: Time Stamp Option (8)
            Length: 10
            Timestamp value: 4111034147: TSval 4111034147, TSecr 2254932383
            Timestamp echo reply: 2254932383
    [Timestamps]
        [Time since first frame in this TCP stream: 0.435852000 seconds]
        [Time since previous frame in this TCP stream: 0.206933000 seconds]
    [SEQ/ACK analysis]
        [This is an ACK to the segment in frame: 7]
        [The RTT to ACK the segment was: 0.206938000 seconds]
        [iRTT: 0.207506000 seconds]

0000  08 00 00 00 00 00 00 03 00 01 00 06 12 34 56 78   .............4Vx
0010  9a bc 00 00 45 00 00 34 28 e7 40 00 ec 06 ea c1   ....E..4(.@.....
0020  03 00 6c 82 0a 01 01 98 01 bb 8e 12 73 73 8c fe   ..l.........ss..
0030  79 61 72 19 80 10 00 75 13 3f 00 00 01 01 08 0a   yar....u.?......
0040  f5 09 67 23 86 67 89 9f                           ..g#.g..

Frame 10: 72 bytes on wire (576 bits), 72 bytes captured (576 bits)
    Encapsulation type: Linux cooked-mode capture v2 (210)
    Arrival Time: Mar 30, 2026 12:10:23.993857000 UTC
    UTC Arrival Time: Mar 30, 2026 12:10:23.993857000 UTC
    Epoch Arrival Time: 1774872623.993857000
    [Time shift for this packet: 0.000000000 seconds]
    [Time delta from previous captured frame: 0.000000000 seconds]
    [Time delta from previous displayed frame: 0.000000000 seconds]
    [Time since reference or first frame: 0.435852000 seconds]
    Frame Number: 10
    Frame Length: 72 bytes (576 bits)
    Capture Length: 72 bytes (576 bits)
    [Frame is marked: False]
    [Frame is ignored: False]
    [Protocols in frame: sll:ethertype:ip:tcp]
Linux cooked capture v2
    Protocol: IPv4 (0x0800)
    Interface index: 2
    Link-layer address type: Ethernet (1)
    Packet type: Unicast to us (0)
    Link-layer address length: 6
    Source: 12:34:56:78:9a:bc (12:34:56:78:9a:bc)
    Unused: 0000
Internet Protocol Version 4, Src: 3.0.108.130, Dst: 10.1.1.152
    0100 .... = Version: 4
    .... 0101 = Header Length: 20 bytes (5)
    Differentiated Services Field: 0x00 (DSCP: CS0, ECN: Not-ECT)
        0000 00.. = Differentiated Services Codepoint: Default (0)
        .... ..00 = Explicit Congestion Notification: Not ECN-Capable Transport (0)
    Total Length: 52
    Identification: 0x28e7 (10471)
    010. .... = Flags: 0x2, Don't fragment
        0... .... = Reserved bit: Not set
        .1.. .... = Don't fragment: Set
        ..0. .... = More fragments: Not set
    ...0 0000 0000 0000 = Fragment Offset: 0
    Time to Live: 236
    Protocol: TCP (6)
    Header Checksum: 0xeac1 [validation disabled]
    [Header checksum status: Unverified]
    Source Address: 3.0.108.130
    Destination Address: 10.1.1.152
Transmission Control Protocol, Src Port: 443, Dst Port: 36370, Seq: 1, Ack: 518, Len: 0
    Source Port: 443
    Destination Port: 36370
    [Stream index: 0]
    [Conversation completeness: Incomplete, DATA (15)]
        ..0. .... = RST: Absent
        ...0 .... = FIN: Absent
        .... 1... = Data: Present
        .... .1.. = ACK: Present
        .... ..1. = SYN-ACK: Present
        .... ...1 = SYN: Present
        [Completeness Flags: ··DASS]
    [TCP Segment Len: 0]
    Sequence Number: 1    (relative sequence number)
    Sequence Number (raw): 1936952574
    [Next Sequence Number: 1    (relative sequence number)]
    Acknowledgment Number: 518    (relative ack number)
    Acknowledgment number (raw): 2036429337
    1000 .... = Header Length: 32 bytes (8)
    Flags: 0x010 (ACK)
        000. .... .... = Reserved: Not set
        ...0 .... .... = Accurate ECN: Not set
        .... 0... .... = Congestion Window Reduced: Not set
        .... .0.. .... = ECN-Echo: Not set
        .... ..0. .... = Urgent: Not set
        .... ...1 .... = Acknowledgment: Set
        .... .... 0... = Push: Not set
        .... .... .0.. = Reset: Not set
        .... .... ..0. = Syn: Not set
        .... .... ...0 = Fin: Not set
        [TCP Flags: ·······A····]
    Window: 117
    [Calculated window size: 29952]
    [Window size scaling factor: 256]
    Checksum: 0x133f [unverified]
    [Checksum Status: Unverified]
    Urgent Pointer: 0
    Options: (12 bytes), No-Operation (NOP), No-Operation (NOP), Timestamps
        TCP Option - No-Operation (NOP)
            Kind: No-Operation (1)
        TCP Option - No-Operation (NOP)
            Kind: No-Operation (1)
        TCP Option - Timestamps
            Kind: Time Stamp Option (8)
            Length: 10
            Timestamp value: 4111034147: TSval 4111034147, TSecr 2254932383
            Timestamp echo reply: 2254932383
    [Timestamps]
        [Time since first frame in this TCP stream: 0.435852000 seconds]
        [Time since previous frame in this TCP stream: 0.000000000 seconds]
    [SEQ/ACK analysis]
        [iRTT: 0.207506000 seconds]
        [TCP Analysis Flags]
            [This is a TCP duplicate ack]
        [Duplicate ACK #: 1]
        [Duplicate to the ACK in frame: 9]
            [Expert Info (Note/Sequence): Duplicate ACK (#1)]
                [Duplicate ACK (#1)]
                [Severity level: Note]
                [Group: Sequence]

0000  08 00 00 00 00 00 00 02 00 01 00 06 12 34 56 78   .............4Vx
0010  9a bc 00 00 45 00 00 34 28 e7 40 00 ec 06 ea c1   ....E..4(.@.....
0020  03 00 6c 82 0a 01 01 98 01 bb 8e 12 73 73 8c fe   ..l.........ss..
0030  79 61 72 19 80 10 00 75 13 3f 00 00 01 01 08 0a   yar....u.?......
0040  f5 09 67 23 86 67 89 9f                           ..g#.g..

Frame 11: 4302 bytes on wire (34416 bits), 4302 bytes captured (34416 bits)
    Encapsulation type: Linux cooked-mode capture v2 (210)
    Arrival Time: Mar 30, 2026 12:10:23.994645000 UTC
    UTC Arrival Time: Mar 30, 2026 12:10:23.994645000 UTC
    Epoch Arrival Time: 1774872623.994645000
    [Time shift for this packet: 0.000000000 seconds]
    [Time delta from previous captured frame: 0.000788000 seconds]
    [Time delta from previous displayed frame: 0.000788000 seconds]
    [Time since reference or first frame: 0.436640000 seconds]
    Frame Number: 11
    Frame Length: 4302 bytes (34416 bits)
    Capture Length: 4302 bytes (34416 bits)
    [Frame is marked: False]
    [Frame is ignored: False]
    [Protocols in frame [truncated]: sll:ethertype:ip:tcp:tls:x509sat:x509sat:x509sat:x509sat:x509ce:x509ce:x509ce:x509ce:x509ce:x509ce:x509ce:pkix1implicit:x509ce:tls:x509sat:x509sat:x509sat:x509sat:x509sat:x509sat:x509ce:x509ce:x509ce:x509ce:]
Linux cooked capture v2
    Protocol: IPv4 (0x0800)
    Interface index: 3
    Link-layer address type: Ethernet (1)
    Packet type: Unicast to us (0)
    Link-layer address length: 6
    Source: 12:34:56:78:9a:bc (12:34:56:78:9a:bc)
    Unused: 0000
Internet Protocol Version 4, Src: 3.0.108.130, Dst: 10.1.1.152
    0100 .... = Version: 4
    .... 0101 = Header Length: 20 bytes (5)
    Differentiated Services Field: 0x00 (DSCP: CS0, ECN: Not-ECT)
        0000 00.. = Differentiated Services Codepoint: Default (0)
        .... ..00 = Explicit Congestion Notification: Not ECN-Capable Transport (0)
    Total Length: 4282
    Identification: 0x28e8 (10472)
    010. .... = Flags: 0x2, Don't fragment
        0... .... = Reserved bit: Not set
        .1.. .... = Don't fragment: Set
        ..0. .... = More fragments: Not set
    ...0 0000 0000 0000 = Fragment Offset: 0
    Time to Live: 236
    Protocol: TCP (6)
    Header Checksum: 0xda3a [validation disabled]
    [Header checksum status: Unverified]
    Source Address: 3.0.108.130
    Destination Address: 10.1.1.152
Transmission Control Protocol, Src Port: 443, Dst Port: 36370, Seq: 1, Ack: 518, Len: 4230
    Source Port: 443
    Destination Port: 36370
    [Stream index: 0]
    [Conversation completeness: Incomplete, DATA (15)]
        ..0. .... = RST: Absent
        ...0 .... = FIN: Absent
        .... 1... = Data: Present
        .... .1.. = ACK: Present
        .... ..1. = SYN-ACK: Present
        .... ...1 = SYN: Present
        [Completeness Flags: ··DASS]
    [TCP Segment Len: 4230]
    Sequence Number: 1    (relative sequence number)
    Sequence Number (raw): 1936952574
    [Next Sequence Number: 4231    (relative sequence number)]
    Acknowledgment Number: 518    (relative ack number)
    Acknowledgment number (raw): 2036429337
    1000 .... = Header Length: 32 bytes (8)
    Flags: 0x018 (PSH, ACK)
        000. .... .... = Reserved: Not set
        ...0 .... .... = Accurate ECN: Not set
        .... 0... .... = Congestion Window Reduced: Not set
        .... .0.. .... = ECN-Echo: Not set
        .... ..0. .... = Urgent: Not set
        .... ...1 .... = Acknowledgment: Set
        .... .... 1... = Push: Set
        .... .... .0.. = Reset: Not set
        .... .... ..0. = Syn: Not set
        .... .... ...0 = Fin: Not set
        [TCP Flags: ·······AP···]
    Window: 117
    [Calculated window size: 29952]
    [Window size scaling factor: 256]
    Checksum: 0x8bc7 [unverified]
    [Checksum Status: Unverified]
    Urgent Pointer: 0
    Options: (12 bytes), No-Operation (NOP), No-Operation (NOP), Timestamps
        TCP Option - No-Operation (NOP)
            Kind: No-Operation (1)
        TCP Option - No-Operation (NOP)
            Kind: No-Operation (1)
        TCP Option - Timestamps
            Kind: Time Stamp Option (8)
            Length: 10
            Timestamp value: 4111034147: TSval 4111034147, TSecr 2254932383
            Timestamp echo reply: 2254932383
    [Timestamps]
        [Time since first frame in this TCP stream: 0.436640000 seconds]
        [Time since previous frame in this TCP stream: 0.000788000 seconds]
    [SEQ/ACK analysis]
        [iRTT: 0.207506000 seconds]
        [Bytes in flight: 4230]
        [Bytes sent since last PSH flag: 4230]
    TCP payload (4230 bytes)
Transport Layer Security
    TLSv1.2 Record Layer: Handshake Protocol: Server Hello
        Content Type: Handshake (22)
        Version: TLS 1.2 (0x0303)
        Length: 89
        Handshake Protocol: Server Hello
            Handshake Type: Server Hello (2)
            Length: 85
            Version: TLS 1.2 (0x0303)
            Random: 2fcb364eef8c9a3f5495b38c4ed0a7fc6ff57fa1c3c02b1284c91d15ce30c92a
                GMT Unix Time: May 30, 1995 15:14:22.000000000 UTC
                Random Bytes: ef8c9a3f5495b38c4ed0a7fc6ff57fa1c3c02b1284c91d15ce30c92a
            Session ID Length: 32
            Session ID: 8aae9cf286188fb183ab646fe970c8409927c110275adeb01989c514cf649918
            Cipher Suite: TLS_ECDHE_RSA_WITH_AES_128_GCM_SHA256 (0xc02f)
            Compression Method: null (0)
            Extensions Length: 13
            Extension: renegotiation_info (len=1)
                Type: renegotiation_info (65281)
                Length: 1
                Renegotiation Info extension
                    Renegotiation info extension length: 0
            Extension: ec_point_formats (len=4)
                Type: ec_point_formats (11)
                Length: 4
                EC point formats Length: 3
                Elliptic curves point formats (3)
                    EC point format: uncompressed (0)
                    EC point format: ansiX962_compressed_prime (1)
                    EC point format: ansiX962_compressed_char2 (2)
            [JA3S Fullstring: 771,49199,65281-11]
            [JA3S: 303951d4c50efb2e991652225a6f02b1]
    TLSv1.2 Record Layer: Handshake Protocol: Certificate
        Content Type: Handshake (22)
        Version: TLS 1.2 (0x0303)
        Length: 3784
        Handshake Protocol: Certificate
            Handshake Type: Certificate (11)
            Length: 3780
            Certificates Length: 3777
            Certificates (3777 bytes)
                Certificate Length: 1472
                Certificate [truncated]: 308205bc308204a4a00302010202100c00d20d5fbc30f95072144d7862f9ac300d06092a864886f70d01010b0500303c310b3009060355040613025553310f300d060355040a1306416d617a6f6e311c301a06035504031313416d617a6f6e205253412032303438204d30
                    signedCertificate
                        version: v3 (2)
                        serialNumber: 0x0c00d20d5fbc30f95072144d7862f9ac
                        signature (sha256WithRSAEncryption)
                            Algorithm Id: 1.2.840.113549.1.1.11 (sha256WithRSAEncryption)
                        issuer: rdnSequence (0)
                            rdnSequence: 3 items (id-at-commonName=Amazon RSA 2048 M04,id-at-organizationName=Amazon,id-at-countryName=US)
                                RDNSequence item: 1 item (id-at-countryName=US)
                                    RelativeDistinguishedName item (id-at-countryName=US)
                                        Object Id: 2.5.4.6 (id-at-countryName)
                                        CountryName: US
                                RDNSequence item: 1 item (id-at-organizationName=Amazon)
                                    RelativeDistinguishedName item (id-at-organizationName=Amazon)
                                        Object Id: 2.5.4.10 (id-at-organizationName)
                                        DirectoryString: printableString (1)
                                            printableString: Amazon
                                RDNSequence item: 1 item (id-at-commonName=Amazon RSA 2048 M04)
                                    RelativeDistinguishedName item (id-at-commonName=Amazon RSA 2048 M04)
                                        Object Id: 2.5.4.3 (id-at-commonName)
                                        DirectoryString: printableString (1)
                                            printableString: Amazon RSA 2048 M04
                        validity
                            notBefore: utcTime (0)
                                utcTime: 2025-09-10 00:00:00 (UTC)
                            notAfter: utcTime (0)
                                utcTime: 2026-10-09 23:59:59 (UTC)
                        subject: rdnSequence (0)
                            rdnSequence: 1 item (id-at-commonName=*.grabtaxi.com)
                                RDNSequence item: 1 item (id-at-commonName=*.grabtaxi.com)
                                    RelativeDistinguishedName item (id-at-commonName=*.grabtaxi.com)
                                        Object Id: 2.5.4.3 (id-at-commonName)
                                        DirectoryString: uTF8String (4)
                                            uTF8String: *.grabtaxi.com
                        subjectPublicKeyInfo
                            algorithm (rsaEncryption)
                                Algorithm Id: 1.2.840.113549.1.1.1 (rsaEncryption)
                            subjectPublicKey [truncated]: 3082010a0282010100afd981a5a6ab7176e93a9ab3030d015baa8875d8c9675f823836a5cce818abbe4b0ad3b78323703f46a50c38e62850e09b6773911d4464aea447d6a2807f539ff314d57c17a294c2b3b7e0c341392473501093f3ba5a8afc6956dc901b2f85f
                                modulus: 0x00afd981a5a6ab7176e93a9ab3030d015baa8875d8c9675f823836a5cce818abbe4b0ad3…
                                publicExponent: 65537
                        extensions: 10 items
                            Extension (id-ce-authorityKeyIdentifier)
                                Extension Id: 2.5.29.35 (id-ce-authorityKeyIdentifier)
                                AuthorityKeyIdentifier
                                    keyIdentifier: 1f5292615682547f8166d81d3d0aaa325c87dd08
                            Extension (id-ce-subjectKeyIdentifier)
                                Extension Id: 2.5.29.14 (id-ce-subjectKeyIdentifier)
                                SubjectKeyIdentifier: 812ba2f2c1b95425fead7d3bb4ccd0939af9a026
                            Extension (id-ce-subjectAltName)
                                Extension Id: 2.5.29.17 (id-ce-subjectAltName)
                                GeneralNames: 1 item
                                    GeneralName: dNSName (2)
                                        dNSName: *.grabtaxi.com
                            Extension (id-ce-certificatePolicies)
                                Extension Id: 2.5.29.32 (id-ce-certificatePolicies)
                                CertificatePoliciesSyntax: 1 item
                                    PolicyInformation
                                        policyIdentifier: 2.23.140.1.2.1 (joint-iso-itu-t.23.140.1.2.1)
                            Extension (id-ce-keyUsage)
                                Extension Id: 2.5.29.15 (id-ce-keyUsage)
                                critical: True
                                Padding: 5
                                KeyUsage: a0
                                    1... .... = digitalSignature: True
                                    .0.. .... = contentCommitment: False
                                    ..1. .... = keyEncipherment: True
                                    ...0 .... = dataEncipherment: False
                                    .... 0... = keyAgreement: False
                                    .... .0.. = keyCertSign: False
                                    .... ..0. = cRLSign: False
                                    .... ...0 = encipherOnly: False
                                    0... .... = decipherOnly: False
                            Extension (id-ce-extKeyUsage)
                                Extension Id: 2.5.29.37 (id-ce-extKeyUsage)
                                KeyPurposeIDs: 1 item
                                    KeyPurposeId: 1.3.6.1.5.5.7.3.1 (id-kp-serverAuth)
                            Extension (id-ce-cRLDistributionPoints)
                                Extension Id: 2.5.29.31 (id-ce-cRLDistributionPoints)
                                CRLDistPointsSyntax: 1 item
                                    DistributionPoint
                                        distributionPoint: fullName (0)
                                            fullName: 1 item
                                                GeneralName: uniformResourceIdentifier (6)
                                                    uniformResourceIdentifier: http://crl.r2m04.amazontrust.com/r2m04.crl
                            Extension (id-pe-authorityInfoAccess)
                                Extension Id: 1.3.6.1.5.5.7.1.1 (id-pe-authorityInfoAccess)
                                AuthorityInfoAccessSyntax: 2 items
                                    AccessDescription
                                        accessMethod: 1.3.6.1.5.5.7.48.1 (id-ad-ocsp)
                                        accessLocation: 6
                                            uniformResourceIdentifier: http://ocsp.r2m04.amazontrust.com
                                    AccessDescription
                                        accessMethod: 1.3.6.1.5.5.7.48.2 (id-ad-caIssuers)
                                        accessLocation: 6
                                            uniformResourceIdentifier: http://crt.r2m04.amazontrust.com/r2m04.cer
                            Extension (id-ce-basicConstraints)
                                Extension Id: 2.5.29.19 (id-ce-basicConstraints)
                                critical: True
                                BasicConstraintsSyntax [0 length]
                            Extension (SignedCertificateTimestampList)
                                Extension Id: 1.3.6.1.4.1.11129.2.4.2 (SignedCertificateTimestampList)
                                Serialized SCT List Length: 358
                                Signed Certificate Timestamp (Unknown Log)
                                    Serialized SCT Length: 117
                                    SCT Version: 0
                                    Log ID: d76d7d10d1a7f577c2c7e95fd700bff982c9335a65e1d0b3017317c0c8c56977
                                    Timestamp: Sep 10, 2025 00:23:57.968000000 UTC
                                    Extensions length: 0
                                    Signature Algorithm: ecdsa_secp256r1_sha256 (0x0403)
                                        Signature Hash Algorithm Hash: SHA256 (4)
                                        Signature Hash Algorithm Signature: ECDSA (3)
                                    Signature Length: 70
                                    Signature: 304402203d83f45f17c6c689a71a9384f029d07705ccf6fb7fecfdac8340dd0d6037b76302204d308c75924316472e65d91adfdcac7740c7f1e30eb6e9ab6865c34fa68866de
                                Signed Certificate Timestamp (Unknown Log)
                                    Serialized SCT Length: 117
                                    SCT Version: 0
                                    Log ID: c2317e574519a345ee7f38deb29041ebc7c2215a22bf7fd5b5ad769ad90e52cd
                                    Timestamp: Sep 10, 2025 00:23:58.034000000 UTC
                                    Extensions length: 0
                                    Signature Algorithm: ecdsa_secp256r1_sha256 (0x0403)
                                        Signature Hash Algorithm Hash: SHA256 (4)
                                        Signature Hash Algorithm Signature: ECDSA (3)
                                    Signature Length: 70
                                    Signature: 304402203a472506e33e6f739f86ead4f21a63177e3c01ff1b9bfcc81a1665fb6285caf702207f350c2cb9d3c0fe06694ebd67b398f5f000142d2e5b5406f2710cdf69213484
                                Signed Certificate Timestamp (Unknown Log)
                                    Serialized SCT Length: 118
                                    SCT Version: 0
                                    Log ID: 944e4387faecc1ef81f3192426a8186501c7d35f3802013f72677d55372e19d8
                                    Timestamp: Sep 10, 2025 00:23:58.032000000 UTC
                                    Extensions length: 0
                                    Signature Algorithm: ecdsa_secp256r1_sha256 (0x0403)
                                        Signature Hash Algorithm Hash: SHA256 (4)
                                        Signature Hash Algorithm Signature: ECDSA (3)
                                    Signature Length: 71
                                    Signature: 304502210080981e399add4bf7a42fb20213f1e96b7be7355ec10211753f52c375c301a86e022040b6ff58c293774cc044555605c23296494a7d6e9abfe6c06e66fb6d3f019f45
                    algorithmIdentifier (sha256WithRSAEncryption)
                        Algorithm Id: 1.2.840.113549.1.1.11 (sha256WithRSAEncryption)
                    Padding: 0
                    encrypted [truncated]: 4f7cc48f9edef6aef99db25d35123c9d2b4dfad6b9293742cc3662de9e03f3a20c37cc9f145835129def6faf2ad5731d90a4e97e570bc7fc682825bb112fffae393f9e4700e9008441525f1977ddab7bdb3553ee55b28999603bbacea789da486046516006076fbd20387303
                Certificate Length: 1122
                Certificate [truncated]: 3082045e30820346a00302010202130773124f2a952e3ed18a58bdb85d1bc0ce5f27300d06092a864886f70d01010b05003039310b3009060355040613025553310f300d060355040a1306416d617a6f6e3119301706035504031310416d617a6f6e20526f6f7420434120
                    signedCertificate
                        version: v3 (2)
                        serialNumber: 0x0773124f2a952e3ed18a58bdb85d1bc0ce5f27
                        signature (sha256WithRSAEncryption)
                            Algorithm Id: 1.2.840.113549.1.1.11 (sha256WithRSAEncryption)
                        issuer: rdnSequence (0)
                            rdnSequence: 3 items (id-at-commonName=Amazon Root CA 1,id-at-organizationName=Amazon,id-at-countryName=US)
                                RDNSequence item: 1 item (id-at-countryName=US)
                                    RelativeDistinguishedName item (id-at-countryName=US)
                                        Object Id: 2.5.4.6 (id-at-countryName)
                                        CountryName: US
                                RDNSequence item: 1 item (id-at-organizationName=Amazon)
                                    RelativeDistinguishedName item (id-at-organizationName=Amazon)
                                        Object Id: 2.5.4.10 (id-at-organizationName)
                                        DirectoryString: printableString (1)
                                            printableString: Amazon
                                RDNSequence item: 1 item (id-at-commonName=Amazon Root CA 1)
                                    RelativeDistinguishedName item (id-at-commonName=Amazon Root CA 1)
                                        Object Id: 2.5.4.3 (id-at-commonName)
                                        DirectoryString: printableString (1)
                                            printableString: Amazon Root CA 1
                        validity
                            notBefore: utcTime (0)
                                utcTime: 2022-08-23 22:26:35 (UTC)
                            notAfter: utcTime (0)
                                utcTime: 2030-08-23 22:26:35 (UTC)
                        subject: rdnSequence (0)
                            rdnSequence: 3 items (id-at-commonName=Amazon RSA 2048 M04,id-at-organizationName=Amazon,id-at-countryName=US)
                                RDNSequence item: 1 item (id-at-countryName=US)
                                    RelativeDistinguishedName item (id-at-countryName=US)
                                        Object Id: 2.5.4.6 (id-at-countryName)
                                        CountryName: US
                                RDNSequence item: 1 item (id-at-organizationName=Amazon)
                                    RelativeDistinguishedName item (id-at-organizationName=Amazon)
                                        Object Id: 2.5.4.10 (id-at-organizationName)
                                        DirectoryString: printableString (1)
                                            printableString: Amazon
                                RDNSequence item: 1 item (id-at-commonName=Amazon RSA 2048 M04)
                                    RelativeDistinguishedName item (id-at-commonName=Amazon RSA 2048 M04)
                                        Object Id: 2.5.4.3 (id-at-commonName)
                                        DirectoryString: printableString (1)
                                            printableString: Amazon RSA 2048 M04
                        subjectPublicKeyInfo
                            algorithm (rsaEncryption)
                                Algorithm Id: 1.2.840.113549.1.1.1 (rsaEncryption)
                            subjectPublicKey [truncated]: 3082010a0282010100cde9551e809503a9e317bbefa15d78f5f27a3800dfc998c75a2ef7f8eba55e927e7fbfa2a04a830858e9e3ec4071d06b258125d067bf85b3dfadea448e17521f6cc01149d754e76772ea38cbc7996ab6fa5a00d103ed39f5dd2767c704bac1a
                                modulus: 0x00cde9551e809503a9e317bbefa15d78f5f27a3800dfc998c75a2ef7f8eba55e927e7fbf…
                                publicExponent: 65537
                        extensions: 8 items
                            Extension (id-ce-basicConstraints)
                                Extension Id: 2.5.29.19 (id-ce-basicConstraints)
                                critical: True
                                BasicConstraintsSyntax
                                    cA: True
                                    pathLenConstraint: 0
                            Extension (id-ce-keyUsage)
                                Extension Id: 2.5.29.15 (id-ce-keyUsage)
                                critical: True
                                Padding: 1
                                KeyUsage: 86
                                    1... .... = digitalSignature: True
                                    .0.. .... = contentCommitment: False
                                    ..0. .... = keyEncipherment: False
                                    ...0 .... = dataEncipherment: False
                                    .... 0... = keyAgreement: False
                                    .... .1.. = keyCertSign: True
                                    .... ..1. = cRLSign: True
                                    .... ...0 = encipherOnly: False
                                    0... .... = decipherOnly: False
                            Extension (id-ce-extKeyUsage)
                                Extension Id: 2.5.29.37 (id-ce-extKeyUsage)
                                KeyPurposeIDs: 2 items
                                    KeyPurposeId: 1.3.6.1.5.5.7.3.1 (id-kp-serverAuth)
                                    KeyPurposeId: 1.3.6.1.5.5.7.3.2 (id-kp-clientAuth)
                            Extension (id-ce-subjectKeyIdentifier)
                                Extension Id: 2.5.29.14 (id-ce-subjectKeyIdentifier)
                                SubjectKeyIdentifier: 1f5292615682547f8166d81d3d0aaa325c87dd08
                            Extension (id-ce-authorityKeyIdentifier)
                                Extension Id: 2.5.29.35 (id-ce-authorityKeyIdentifier)
                                AuthorityKeyIdentifier
                                    keyIdentifier: 8418cc8534ecbc0c94942e08599cc7b2104e0a08
                            Extension (id-pe-authorityInfoAccess)
                                Extension Id: 1.3.6.1.5.5.7.1.1 (id-pe-authorityInfoAccess)
                                AuthorityInfoAccessSyntax: 2 items
                                    AccessDescription
                                        accessMethod: 1.3.6.1.5.5.7.48.1 (id-ad-ocsp)
                                        accessLocation: 6
                                            uniformResourceIdentifier: http://ocsp.rootca1.amazontrust.com
                                    AccessDescription
                                        accessMethod: 1.3.6.1.5.5.7.48.2 (id-ad-caIssuers)
                                        accessLocation: 6
                                            uniformResourceIdentifier: http://crt.rootca1.amazontrust.com/rootca1.cer
                            Extension (id-ce-cRLDistributionPoints)
                                Extension Id: 2.5.29.31 (id-ce-cRLDistributionPoints)
                                CRLDistPointsSyntax: 1 item
                                    DistributionPoint
                                        distributionPoint: fullName (0)
                                            fullName: 1 item
                                                GeneralName: uniformResourceIdentifier (6)
                                                    uniformResourceIdentifier: http://crl.rootca1.amazontrust.com/rootca1.crl
                            Extension (id-ce-certificatePolicies)
                                Extension Id: 2.5.29.32 (id-ce-certificatePolicies)
                                CertificatePoliciesSyntax: 1 item
                                    PolicyInformation
                                        policyIdentifier: 2.23.140.1.2.1 (joint-iso-itu-t.23.140.1.2.1)
                    algorithmIdentifier (sha256WithRSAEncryption)
                        Algorithm Id: 1.2.840.113549.1.1.11 (sha256WithRSAEncryption)
                    Padding: 0
                    encrypted [truncated]: 3ed4ee54b0068db96de51f326da4d1b006765df5011816dc698809c8695e2a0299c64bd382c3964fc227bb612943645e72c853ec161502d90f6e24763f0915756f98488861f4fbafb0e4f80a898d4c5ae593f1501a263171bee84cedafde7cdd93230d5677a58297a6118acb
                Certificate Length: 1174
                Certificate [truncated]: 308204923082037aa0030201020213067f944a2a27cdf3fac2ae2b01f908eeb9c4c6300d06092a864886f70d01010b0500308198310b30090603550406130255533110300e060355040813074172697a6f6e61311330110603550407130a53636f74747364616c65312530
                    signedCertificate
                        version: v3 (2)
                        serialNumber: 0x067f944a2a27cdf3fac2ae2b01f908eeb9c4c6
                        signature (sha256WithRSAEncryption)
                            Algorithm Id: 1.2.840.113549.1.1.11 (sha256WithRSAEncryption)
                        issuer: rdnSequence (0)
                            rdnSequence: 5 items (id-at-commonName=Starfield Services Root Certificate Authority - G2,id-at-organizationName=Starfield Technologies, Inc.,id-at-localityName=Scottsdale,id-at-stateOrProvinceName=Arizona,id-at-countryName=US)
                                RDNSequence item: 1 item (id-at-countryName=US)
                                    RelativeDistinguishedName item (id-at-countryName=US)
                                        Object Id: 2.5.4.6 (id-at-countryName)
                                        CountryName: US
                                RDNSequence item: 1 item (id-at-stateOrProvinceName=Arizona)
                                    RelativeDistinguishedName item (id-at-stateOrProvinceName=Arizona)
                                        Object Id: 2.5.4.8 (id-at-stateOrProvinceName)
                                        DirectoryString: printableString (1)
                                            printableString: Arizona
                                RDNSequence item: 1 item (id-at-localityName=Scottsdale)
                                    RelativeDistinguishedName item (id-at-localityName=Scottsdale)
                                        Object Id: 2.5.4.7 (id-at-localityName)
                                        DirectoryString: printableString (1)
                                            printableString: Scottsdale
                                RDNSequence item: 1 item (id-at-organizationName=Starfield Technologies, Inc.)
                                    RelativeDistinguishedName item (id-at-organizationName=Starfield Technologies, Inc.)
                                        Object Id: 2.5.4.10 (id-at-organizationName)
                                        DirectoryString: printableString (1)
                                            printableString: Starfield Technologies, Inc.
                                RDNSequence item: 1 item (id-at-commonName=Starfield Services Root Certificate Authority - G2)
                                    RelativeDistinguishedName item (id-at-commonName=Starfield Services Root Certificate Authority - G2)
                                        Object Id: 2.5.4.3 (id-at-commonName)
                                        DirectoryString: printableString (1)
                                            printableString: Starfield Services Root Certificate Authority - G2
                        validity
                            notBefore: utcTime (0)
                                utcTime: 2015-05-25 12:00:00 (UTC)
                            notAfter: utcTime (0)
                                utcTime: 2037-12-31 01:00:00 (UTC)
                        subject: rdnSequence (0)
                            rdnSequence: 3 items (id-at-commonName=Amazon Root CA 1,id-at-organizationName=Amazon,id-at-countryName=US)
                                RDNSequence item: 1 item (id-at-countryName=US)
                                    RelativeDistinguishedName item (id-at-countryName=US)
                                        Object Id: 2.5.4.6 (id-at-countryName)
                                        CountryName: US
                                RDNSequence item: 1 item (id-at-organizationName=Amazon)
                                    RelativeDistinguishedName item (id-at-organizationName=Amazon)
                                        Object Id: 2.5.4.10 (id-at-organizationName)
                                        DirectoryString: printableString (1)
                                            printableString: Amazon
                                RDNSequence item: 1 item (id-at-commonName=Amazon Root CA 1)
                                    RelativeDistinguishedName item (id-at-commonName=Amazon Root CA 1)
                                        Object Id: 2.5.4.3 (id-at-commonName)
                                        DirectoryString: printableString (1)
                                            printableString: Amazon Root CA 1
                        subjectPublicKeyInfo
                            algorithm (rsaEncryption)
                                Algorithm Id: 1.2.840.113549.1.1.1 (rsaEncryption)
                            subjectPublicKey [truncated]: 3082010a0282010100b2788071ca78d5e371af478050747d6ed8d78876f49968f7582160f97484012fac022d86d3a0437a4eb2a4d036ba01be8ddb48c80717364cf4ee8823c73eeb37f5b519f84968b0ded7b976381d619ea4fe8236a5e54a56e445e1f9fdb416fa7
                                modulus: 0x00b2788071ca78d5e371af478050747d6ed8d78876f49968f7582160f97484012fac022d…
                                publicExponent: 65537
                        extensions: 7 items
                            Extension (id-ce-basicConstraints)
                                Extension Id: 2.5.29.19 (id-ce-basicConstraints)
                                critical: True
                                BasicConstraintsSyntax
                                    cA: True
                            Extension (id-ce-keyUsage)
                                Extension Id: 2.5.29.15 (id-ce-keyUsage)
                                critical: True
                                Padding: 1
                                KeyUsage: 86
                                    1... .... = digitalSignature: True
                                    .0.. .... = contentCommitment: False
                                    ..0. .... = keyEncipherment: False
                                    ...0 .... = dataEncipherment: False
                                    .... 0... = keyAgreement: False
                                    .... .1.. = keyCertSign: True
                                    .... ..1. = cRLSign: True
                                    .... ...0 = encipherOnly: False
                                    0... .... = decipherOnly: False
                            Extension (id-ce-subjectKeyIdentifier)
                                Extension Id: 2.5.29.14 (id-ce-subjectKeyIdentifier)
                                SubjectKeyIdentifier: 8418cc8534ecbc0c94942e08599cc7b2104e0a08
                            Extension (id-ce-authorityKeyIdentifier)
                                Extension Id: 2.5.29.35 (id-ce-authorityKeyIdentifier)
                                AuthorityKeyIdentifier
                                    keyIdentifier: 9c5f00dfaa01d7302b3888a2b86d4a9cf2119183
                            Extension (id-pe-authorityInfoAccess)
                                Extension Id: 1.3.6.1.5.5.7.1.1 (id-pe-authorityInfoAccess)
                                AuthorityInfoAccessSyntax: 2 items
                                    AccessDescription
                                        accessMethod: 1.3.6.1.5.5.7.48.1 (id-ad-ocsp)
                                        accessLocation: 6
                                            uniformResourceIdentifier: http://ocsp.rootg2.amazontrust.com
                                    AccessDescription
                                        accessMethod: 1.3.6.1.5.5.7.48.2 (id-ad-caIssuers)
                                        accessLocation: 6
                                            uniformResourceIdentifier: http://crt.rootg2.amazontrust.com/rootg2.cer
                            Extension (id-ce-cRLDistributionPoints)
                                Extension Id: 2.5.29.31 (id-ce-cRLDistributionPoints)
                                CRLDistPointsSyntax: 1 item
                                    DistributionPoint
                                        distributionPoint: fullName (0)
                                            fullName: 1 item
                                                GeneralName: uniformResourceIdentifier (6)
                                                    uniformResourceIdentifier: http://crl.rootg2.amazontrust.com/rootg2.crl
                            Extension (id-ce-certificatePolicies)
                                Extension Id: 2.5.29.32 (id-ce-certificatePolicies)
                                CertificatePoliciesSyntax: 1 item
                                    PolicyInformation
                                        policyIdentifier: 2.5.29.32.0 (anyPolicy)
                    algorithmIdentifier (sha256WithRSAEncryption)
                        Algorithm Id: 1.2.840.113549.1.1.11 (sha256WithRSAEncryption)
                    Padding: 0
                    encrypted [truncated]: 6237425cbc10b53e8b2ce90c9b6c45e207007af9c5580bb9088c3eedb3253cb56f50e4cd356aa79334963221a94844ab9ced3db4aa736de47f1680896ccf280318834779a3107e305bac3bb060e077d408a6e11d7c5ec0bbf99a7b229da700097eac461783dc9c2657993039
    TLSv1.2 Record Layer: Handshake Protocol: Server Key Exchange
        Content Type: Handshake (22)
        Version: TLS 1.2 (0x0303)
        Length: 333
        Handshake Protocol: Server Key Exchange
            Handshake Type: Server Key Exchange (12)
            Length: 329
            EC Diffie-Hellman Server Params
                Curve Type: named_curve (0x03)
                Named Curve: secp256r1 (0x0017)
                Pubkey Length: 65
                Pubkey: 04a72ec4aa36ced4db3aaac1bcdf5de9063044c957658b968ee38f0b83332890f714f532631f43533dd692049d143ceeaf2498317e9ca611aaab1efaff126b7087
                Signature Algorithm: rsa_pkcs1_sha512 (0x0601)
                    Signature Hash Algorithm Hash: SHA512 (6)
                    Signature Hash Algorithm Signature: RSA (1)
                Signature Length: 256
                Signature [truncated]: 1b2c21cd9c83f65927b05d2f85096c6d591f30256909c61091127c8095b0808ff093c3587a4c6a34408297e7d630bb7201169530239869f9a3c5d23b13e982d8cd149fd74391142dc63b655e8899523b0f966091b73321c67cb1e115bfbce860cadfae7aa7cd5907bf065909
    TLSv1.2 Record Layer: Handshake Protocol: Server Hello Done
        Content Type: Handshake (22)
        Version: TLS 1.2 (0x0303)
        Length: 4
        Handshake Protocol: Server Hello Done
            Handshake Type: Server Hello Done (14)
            Length: 0

0000  08 00 00 00 00 00 00 03 00 01 00 06 12 34 56 78   .............4Vx
0010  9a bc 00 00 45 00 10 ba 28 e8 40 00 ec 06 da 3a   ....E...(.@....:
0020  03 00 6c 82 0a 01 01 98 01 bb 8e 12 73 73 8c fe   ..l.........ss..
0030  79 61 72 19 80 18 00 75 8b c7 00 00 01 01 08 0a   yar....u........
0040  f5 09 67 23 86 67 89 9f 16 03 03 00 59 02 00 00   ..g#.g......Y...
0050  55 03 03 2f cb 36 4e ef 8c 9a 3f 54 95 b3 8c 4e   U../.6N...?T...N
0060  d0 a7 fc 6f f5 7f a1 c3 c0 2b 12 84 c9 1d 15 ce   ...o.....+......
0070  30 c9 2a 20 8a ae 9c f2 86 18 8f b1 83 ab 64 6f   0.* ..........do
0080  e9 70 c8 40 99 27 c1 10 27 5a de b0 19 89 c5 14   .p.@.'..'Z......
0090  cf 64 99 18 c0 2f 00 00 0d ff 01 00 01 00 00 0b   .d.../..........
