=== GRAB TRAFFIC REPORT ===
Generated on: Mon Mar 30 11:15:43 UTC 2026
---------------------------
Frame 1: 80 bytes on wire (640 bits), 80 bytes captured (640 bits)
    Encapsulation type: Linux cooked-mode capture v2 (210)
    Arrival Time: Mar 30, 2026 11:15:37.664684000 UTC
    UTC Arrival Time: Mar 30, 2026 11:15:37.664684000 UTC
    Epoch Arrival Time: 1774869337.664684000
    [Time shift for this packet: 0.000000000 seconds]
    [Time delta from previous captured frame: 0.000000000 seconds]
    [Time delta from previous displayed frame: 0.000000000 seconds]
    [Time since reference or first frame: 0.000000000 seconds]
    Frame Number: 1
    Frame Length: 80 bytes (640 bits)
    Capture Length: 80 bytes (640 bits)
    [Frame is marked: False]
    [Frame is ignored: False]
    [Protocols in frame: sll:ethertype:ip:tcp]
Linux cooked capture v2
    Protocol: IPv4 (0x0800)
    Interface index: 2
    Link-layer address type: Ethernet (1)
    Packet type: Sent by us (4)
    Link-layer address length: 6
    Source: Microsoft_18:ac:b7 (00:0d:3a:18:ac:b7)
    Unused: 0000
Internet Protocol Version 4, Src: 10.1.0.31, Dst: 54.179.177.151
    0100 .... = Version: 4
    .... 0101 = Header Length: 20 bytes (5)
    Differentiated Services Field: 0x00 (DSCP: CS0, ECN: Not-ECT)
        0000 00.. = Differentiated Services Codepoint: Default (0)
        .... ..00 = Explicit Congestion Notification: Not ECN-Capable Transport (0)
    Total Length: 60
    Identification: 0x9803 (38915)
    010. .... = Flags: 0x2, Don't fragment
        0... .... = Reserved bit: Not set
        .1.. .... = Don't fragment: Set
        ..0. .... = More fragments: Not set
    ...0 0000 0000 0000 = Fragment Offset: 0
    Time to Live: 64
    Protocol: TCP (6)
    Header Checksum: 0xb04e [validation disabled]
    [Header checksum status: Unverified]
    Source Address: 10.1.0.31
    Destination Address: 54.179.177.151
Transmission Control Protocol, Src Port: 51564, Dst Port: 443, Seq: 0, Len: 0
    Source Port: 51564
    Destination Port: 443
    [Stream index: 0]
    [Conversation completeness: Incomplete (0)]
        ..0. .... = RST: Absent
        ...0 .... = FIN: Absent
        .... 0... = Data: Absent
        .... .0.. = ACK: Absent
        .... ..0. = SYN-ACK: Absent
        .... ...0 = SYN: Absent
        [Completeness Flags: [ Null ]]
    [TCP Segment Len: 0]
    Sequence Number: 0    (relative sequence number)
    Sequence Number (raw): 2292245709
    [Next Sequence Number: 1    (relative sequence number)]
    Acknowledgment Number: 0
    Acknowledgment number (raw): 0
    1010 .... = Header Length: 40 bytes (10)
    Flags: 0x002 (SYN)
        000. .... .... = Reserved: Not set
        ...0 .... .... = Accurate ECN: Not set
        .... 0... .... = Congestion Window Reduced: Not set
        .... .0.. .... = ECN-Echo: Not set
        .... ..0. .... = Urgent: Not set
        .... ...0 .... = Acknowledgment: Not set
        .... .... 0... = Push: Not set
        .... .... .0.. = Reset: Not set
        .... .... ..1. = Syn: Set
            [Expert Info (Chat/Sequence): Connection establish request (SYN): server port 443]
                [Connection establish request (SYN): server port 443]
                [Severity level: Chat]
                [Group: Sequence]
        .... .... ...0 = Fin: Not set
        [TCP Flags: ··········S·]
    Window: 64240
    [Calculated window size: 64240]
    Checksum: 0xf298 [unverified]
    [Checksum Status: Unverified]
    Urgent Pointer: 0
    Options: (20 bytes), Maximum segment size, SACK permitted, Timestamps, No-Operation (NOP), Window scale
        TCP Option - Maximum segment size: 1460 bytes
            Kind: Maximum Segment Size (2)
            Length: 4
            MSS Value: 1460
        TCP Option - SACK permitted
            Kind: SACK Permitted (4)
            Length: 2
        TCP Option - Timestamps
            Kind: Time Stamp Option (8)
            Length: 10
            Timestamp value: 2146600872: TSval 2146600872, TSecr 0
            Timestamp echo reply: 0
        TCP Option - No-Operation (NOP)
            Kind: No-Operation (1)
        TCP Option - Window scale: 10 (multiply by 1024)
            Kind: Window Scale (3)
            Length: 3
            Shift count: 10
            [Multiplier: 1024]
    [Timestamps]
        [Time since first frame in this TCP stream: 0.000000000 seconds]
        [Time since previous frame in this TCP stream: 0.000000000 seconds]

0000  08 00 00 00 00 00 00 02 00 01 04 06 00 0d 3a 18   ..............:.
0010  ac b7 00 00 45 00 00 3c 98 03 40 00 40 06 b0 4e   ....E..<..@.@..N
0020  0a 01 00 1f 36 b3 b1 97 c9 6c 01 bb 88 a0 e4 cd   ....6....l......
0030  00 00 00 00 a0 02 fa f0 f2 98 00 00 02 04 05 b4   ................
0040  04 02 08 0a 7f f2 87 a8 00 00 00 00 01 03 03 0a   ................

Frame 2: 80 bytes on wire (640 bits), 80 bytes captured (640 bits)
    Encapsulation type: Linux cooked-mode capture v2 (210)
    Arrival Time: Mar 30, 2026 11:15:37.664688000 UTC
    UTC Arrival Time: Mar 30, 2026 11:15:37.664688000 UTC
    Epoch Arrival Time: 1774869337.664688000
    [Time shift for this packet: 0.000000000 seconds]
    [Time delta from previous captured frame: 0.000004000 seconds]
    [Time delta from previous displayed frame: 0.000004000 seconds]
    [Time since reference or first frame: 0.000004000 seconds]
    Frame Number: 2
    Frame Length: 80 bytes (640 bits)
    Capture Length: 80 bytes (640 bits)
    [Frame is marked: False]
    [Frame is ignored: False]
    [Protocols in frame: sll:ethertype:ip:tcp]
Linux cooked capture v2
    Protocol: IPv4 (0x0800)
    Interface index: 4
    Link-layer address type: Ethernet (1)
    Packet type: Sent by us (4)
    Link-layer address length: 6
    Source: Microsoft_18:ac:b7 (00:0d:3a:18:ac:b7)
    Unused: 0000
Internet Protocol Version 4, Src: 10.1.0.31, Dst: 54.179.177.151
    0100 .... = Version: 4
    .... 0101 = Header Length: 20 bytes (5)
    Differentiated Services Field: 0x00 (DSCP: CS0, ECN: Not-ECT)
        0000 00.. = Differentiated Services Codepoint: Default (0)
        .... ..00 = Explicit Congestion Notification: Not ECN-Capable Transport (0)
    Total Length: 60
    Identification: 0x9803 (38915)
    010. .... = Flags: 0x2, Don't fragment
        0... .... = Reserved bit: Not set
        .1.. .... = Don't fragment: Set
        ..0. .... = More fragments: Not set
    ...0 0000 0000 0000 = Fragment Offset: 0
    Time to Live: 64
    Protocol: TCP (6)
    Header Checksum: 0xb04e [validation disabled]
    [Header checksum status: Unverified]
    Source Address: 10.1.0.31
    Destination Address: 54.179.177.151
Transmission Control Protocol, Src Port: 51564, Dst Port: 443, Seq: 0, Len: 0
    Source Port: 51564
    Destination Port: 443
    [Stream index: 0]
    [Conversation completeness: Incomplete, SYN_SENT (1)]
        ..0. .... = RST: Absent
        ...0 .... = FIN: Absent
        .... 0... = Data: Absent
        .... .0.. = ACK: Absent
        .... ..0. = SYN-ACK: Absent
        .... ...1 = SYN: Present
        [Completeness Flags: ·····S]
    [TCP Segment Len: 0]
    Sequence Number: 0    (relative sequence number)
    Sequence Number (raw): 2292245709
    [Next Sequence Number: 1    (relative sequence number)]
    Acknowledgment Number: 0
    Acknowledgment number (raw): 0
    1010 .... = Header Length: 40 bytes (10)
    Flags: 0x002 (SYN)
        000. .... .... = Reserved: Not set
        ...0 .... .... = Accurate ECN: Not set
        .... 0... .... = Congestion Window Reduced: Not set
        .... .0.. .... = ECN-Echo: Not set
        .... ..0. .... = Urgent: Not set
        .... ...0 .... = Acknowledgment: Not set
        .... .... 0... = Push: Not set
        .... .... .0.. = Reset: Not set
        .... .... ..1. = Syn: Set
            [Expert Info (Chat/Sequence): Connection establish request (SYN): server port 443]
                [Connection establish request (SYN): server port 443]
                [Severity level: Chat]
                [Group: Sequence]
        .... .... ...0 = Fin: Not set
        [TCP Flags: ··········S·]
    Window: 64240
    [Calculated window size: 64240]
    Checksum: 0xf298 [unverified]
    [Checksum Status: Unverified]
    Urgent Pointer: 0
    Options: (20 bytes), Maximum segment size, SACK permitted, Timestamps, No-Operation (NOP), Window scale
        TCP Option - Maximum segment size: 1460 bytes
            Kind: Maximum Segment Size (2)
            Length: 4
            MSS Value: 1460
        TCP Option - SACK permitted
            Kind: SACK Permitted (4)
            Length: 2
        TCP Option - Timestamps
            Kind: Time Stamp Option (8)
            Length: 10
            Timestamp value: 2146600872: TSval 2146600872, TSecr 0
            Timestamp echo reply: 0
        TCP Option - No-Operation (NOP)
            Kind: No-Operation (1)
        TCP Option - Window scale: 10 (multiply by 1024)
            Kind: Window Scale (3)
            Length: 3
            Shift count: 10
            [Multiplier: 1024]
    [Timestamps]
        [Time since first frame in this TCP stream: 0.000004000 seconds]
        [Time since previous frame in this TCP stream: 0.000004000 seconds]
    [SEQ/ACK analysis]
        [TCP Analysis Flags]
            [Expert Info (Note/Sequence): This frame is a (suspected) retransmission]
                [This frame is a (suspected) retransmission]
                [Severity level: Note]
                [Group: Sequence]
            [The RTO for this segment was: 0.000004000 seconds]
            [RTO based on delta from frame: 1]

0000  08 00 00 00 00 00 00 04 00 01 04 06 00 0d 3a 18   ..............:.
0010  ac b7 00 00 45 00 00 3c 98 03 40 00 40 06 b0 4e   ....E..<..@.@..N
0020  0a 01 00 1f 36 b3 b1 97 c9 6c 01 bb 88 a0 e4 cd   ....6....l......
0030  00 00 00 00 a0 02 fa f0 f2 98 00 00 02 04 05 b4   ................
0040  04 02 08 0a 7f f2 87 a8 00 00 00 00 01 03 03 0a   ................

Frame 3: 80 bytes on wire (640 bits), 80 bytes captured (640 bits)
    Encapsulation type: Linux cooked-mode capture v2 (210)
    Arrival Time: Mar 30, 2026 11:15:37.886516000 UTC
    UTC Arrival Time: Mar 30, 2026 11:15:37.886516000 UTC
    Epoch Arrival Time: 1774869337.886516000
    [Time shift for this packet: 0.000000000 seconds]
    [Time delta from previous captured frame: 0.221828000 seconds]
    [Time delta from previous displayed frame: 0.221828000 seconds]
    [Time since reference or first frame: 0.221832000 seconds]
    Frame Number: 3
    Frame Length: 80 bytes (640 bits)
    Capture Length: 80 bytes (640 bits)
    [Frame is marked: False]
    [Frame is ignored: False]
    [Protocols in frame: sll:ethertype:ip:tcp]
Linux cooked capture v2
    Protocol: IPv4 (0x0800)
    Interface index: 2
    Link-layer address type: Ethernet (1)
    Packet type: Unicast to us (0)
    Link-layer address length: 6
    Source: 12:34:56:78:9a:bc (12:34:56:78:9a:bc)
    Unused: 0000
Internet Protocol Version 4, Src: 54.179.177.151, Dst: 10.1.0.31
    0100 .... = Version: 4
    .... 0101 = Header Length: 20 bytes (5)
    Differentiated Services Field: 0x00 (DSCP: CS0, ECN: Not-ECT)
        0000 00.. = Differentiated Services Codepoint: Default (0)
        .... ..00 = Explicit Congestion Notification: Not ECN-Capable Transport (0)
    Total Length: 60
    Identification: 0x0000 (0)
    010. .... = Flags: 0x2, Don't fragment
        0... .... = Reserved bit: Not set
        .1.. .... = Don't fragment: Set
        ..0. .... = More fragments: Not set
    ...0 0000 0000 0000 = Fragment Offset: 0
    Time to Live: 235
    Protocol: TCP (6)
    Header Checksum: 0x9d51 [validation disabled]
    [Header checksum status: Unverified]
    Source Address: 54.179.177.151
    Destination Address: 10.1.0.31
Transmission Control Protocol, Src Port: 443, Dst Port: 51564, Seq: 0, Ack: 1, Len: 0
    Source Port: 443
    Destination Port: 51564
    [Stream index: 0]
    [Conversation completeness: Incomplete, SYN_SENT (1)]
        ..0. .... = RST: Absent
        ...0 .... = FIN: Absent
        .... 0... = Data: Absent
        .... .0.. = ACK: Absent
        .... ..0. = SYN-ACK: Absent
        .... ...1 = SYN: Present
        [Completeness Flags: ·····S]
    [TCP Segment Len: 0]
    Sequence Number: 0    (relative sequence number)
    Sequence Number (raw): 4133909140
    [Next Sequence Number: 1    (relative sequence number)]
    Acknowledgment Number: 1    (relative ack number)
    Acknowledgment number (raw): 2292245710
    1010 .... = Header Length: 40 bytes (10)
    Flags: 0x012 (SYN, ACK)
        000. .... .... = Reserved: Not set
        ...0 .... .... = Accurate ECN: Not set
        .... 0... .... = Congestion Window Reduced: Not set
        .... .0.. .... = ECN-Echo: Not set
        .... ..0. .... = Urgent: Not set
        .... ...1 .... = Acknowledgment: Set
        .... .... 0... = Push: Not set
        .... .... .0.. = Reset: Not set
        .... .... ..1. = Syn: Set
            [Expert Info (Chat/Sequence): Connection establish acknowledge (SYN+ACK): server port 443]
                [Connection establish acknowledge (SYN+ACK): server port 443]
                [Severity level: Chat]
                [Group: Sequence]
        .... .... ...0 = Fin: Not set
        [TCP Flags: ·······A··S·]
    Window: 26847
    [Calculated window size: 26847]
    Checksum: 0x3284 [unverified]
    [Checksum Status: Unverified]
    Urgent Pointer: 0
    Options: (20 bytes), Maximum segment size, SACK permitted, Timestamps, No-Operation (NOP), Window scale
        TCP Option - Maximum segment size: 1460 bytes
            Kind: Maximum Segment Size (2)
            Length: 4
            MSS Value: 1460
        TCP Option - SACK permitted
            Kind: SACK Permitted (4)
            Length: 2
        TCP Option - Timestamps
            Kind: Time Stamp Option (8)
            Length: 10
            Timestamp value: 1413135545: TSval 1413135545, TSecr 2146600872
            Timestamp echo reply: 2146600872
        TCP Option - No-Operation (NOP)
            Kind: No-Operation (1)
        TCP Option - Window scale: 8 (multiply by 256)
            Kind: Window Scale (3)
            Length: 3
            Shift count: 8
            [Multiplier: 256]
    [Timestamps]
        [Time since first frame in this TCP stream: 0.221832000 seconds]
        [Time since previous frame in this TCP stream: 0.221828000 seconds]
    [SEQ/ACK analysis]
        [This is an ACK to the segment in frame: 1]
        [The RTT to ACK the segment was: 0.221832000 seconds]

0000  08 00 00 00 00 00 00 02 00 01 00 06 12 34 56 78   .............4Vx
0010  9a bc 00 00 45 00 00 3c 00 00 40 00 eb 06 9d 51   ....E..<..@....Q
0020  36 b3 b1 97 0a 01 00 1f 01 bb c9 6c f6 66 72 94   6..........l.fr.
0030  88 a0 e4 ce a0 12 68 df 32 84 00 00 02 04 05 b4   ......h.2.......
0040  04 02 08 0a 54 3a bc b9 7f f2 87 a8 01 03 03 08   ....T:..........

Frame 4: 72 bytes on wire (576 bits), 72 bytes captured (576 bits)
    Encapsulation type: Linux cooked-mode capture v2 (210)
    Arrival Time: Mar 30, 2026 11:15:37.886569000 UTC
    UTC Arrival Time: Mar 30, 2026 11:15:37.886569000 UTC
    Epoch Arrival Time: 1774869337.886569000
    [Time shift for this packet: 0.000000000 seconds]
    [Time delta from previous captured frame: 0.000053000 seconds]
    [Time delta from previous displayed frame: 0.000053000 seconds]
    [Time since reference or first frame: 0.221885000 seconds]
    Frame Number: 4
    Frame Length: 72 bytes (576 bits)
    Capture Length: 72 bytes (576 bits)
    [Frame is marked: False]
    [Frame is ignored: False]
    [Protocols in frame: sll:ethertype:ip:tcp]
Linux cooked capture v2
    Protocol: IPv4 (0x0800)
    Interface index: 2
    Link-layer address type: Ethernet (1)
    Packet type: Sent by us (4)
    Link-layer address length: 6
    Source: Microsoft_18:ac:b7 (00:0d:3a:18:ac:b7)
    Unused: 0000
Internet Protocol Version 4, Src: 10.1.0.31, Dst: 54.179.177.151
    0100 .... = Version: 4
    .... 0101 = Header Length: 20 bytes (5)
    Differentiated Services Field: 0x00 (DSCP: CS0, ECN: Not-ECT)
        0000 00.. = Differentiated Services Codepoint: Default (0)
        .... ..00 = Explicit Congestion Notification: Not ECN-Capable Transport (0)
    Total Length: 52
    Identification: 0x9804 (38916)
    010. .... = Flags: 0x2, Don't fragment
        0... .... = Reserved bit: Not set
        .1.. .... = Don't fragment: Set
        ..0. .... = More fragments: Not set
    ...0 0000 0000 0000 = Fragment Offset: 0
    Time to Live: 64
    Protocol: TCP (6)
    Header Checksum: 0xb055 [validation disabled]
    [Header checksum status: Unverified]
    Source Address: 10.1.0.31
    Destination Address: 54.179.177.151
Transmission Control Protocol, Src Port: 51564, Dst Port: 443, Seq: 1, Ack: 1, Len: 0
    Source Port: 51564
    Destination Port: 443
    [Stream index: 0]
    [Conversation completeness: Incomplete, CLIENT_ESTABLISHED (3)]
        ..0. .... = RST: Absent
        ...0 .... = FIN: Absent
        .... 0... = Data: Absent
        .... .0.. = ACK: Absent
        .... ..1. = SYN-ACK: Present
        .... ...1 = SYN: Present
        [Completeness Flags: ····SS]
    [TCP Segment Len: 0]
    Sequence Number: 1    (relative sequence number)
    Sequence Number (raw): 2292245710
    [Next Sequence Number: 1    (relative sequence number)]
    Acknowledgment Number: 1    (relative ack number)
    Acknowledgment number (raw): 4133909141
    1000 .... = Header Length: 32 bytes (8)
    Flags: 0x010 (ACK)
        000. .... .... = Reserved: Not set
        ...0 .... .... = Accurate ECN: Not set
        .... 0... .... = Congestion Window Reduced: Not set
        .... .0.. .... = ECN-Echo: Not set
        .... ..0. .... = Urgent: Not set
        .... ...1 .... = Acknowledgment: Set
        .... .... 0... = Push: Not set
        .... .... .0.. = Reset: Not set
        .... .... ..0. = Syn: Not set
        .... .... ...0 = Fin: Not set
        [TCP Flags: ·······A····]
    Window: 63
    [Calculated window size: 64512]
    [Window size scaling factor: 1024]
    Checksum: 0xf290 [unverified]
    [Checksum Status: Unverified]
    Urgent Pointer: 0
    Options: (12 bytes), No-Operation (NOP), No-Operation (NOP), Timestamps
        TCP Option - No-Operation (NOP)
            Kind: No-Operation (1)
        TCP Option - No-Operation (NOP)
            Kind: No-Operation (1)
        TCP Option - Timestamps
            Kind: Time Stamp Option (8)
            Length: 10
            Timestamp value: 2146601094: TSval 2146601094, TSecr 1413135545
            Timestamp echo reply: 1413135545
    [Timestamps]
        [Time since first frame in this TCP stream: 0.221885000 seconds]
        [Time since previous frame in this TCP stream: 0.000053000 seconds]
    [SEQ/ACK analysis]
        [This is an ACK to the segment in frame: 3]
        [The RTT to ACK the segment was: 0.000053000 seconds]
        [iRTT: 0.221881000 seconds]

0000  08 00 00 00 00 00 00 02 00 01 04 06 00 0d 3a 18   ..............:.
0010  ac b7 00 00 45 00 00 34 98 04 40 00 40 06 b0 55   ....E..4..@.@..U
0020  0a 01 00 1f 36 b3 b1 97 c9 6c 01 bb 88 a0 e4 ce   ....6....l......
0030  f6 66 72 95 80 10 00 3f f2 90 00 00 01 01 08 0a   .fr....?........
0040  7f f2 88 86 54 3a bc b9                           ....T:..

Frame 5: 72 bytes on wire (576 bits), 72 bytes captured (576 bits)
    Encapsulation type: Linux cooked-mode capture v2 (210)
    Arrival Time: Mar 30, 2026 11:15:37.886572000 UTC
    UTC Arrival Time: Mar 30, 2026 11:15:37.886572000 UTC
    Epoch Arrival Time: 1774869337.886572000
    [Time shift for this packet: 0.000000000 seconds]
    [Time delta from previous captured frame: 0.000003000 seconds]
    [Time delta from previous displayed frame: 0.000003000 seconds]
    [Time since reference or first frame: 0.221888000 seconds]
    Frame Number: 5
    Frame Length: 72 bytes (576 bits)
    Capture Length: 72 bytes (576 bits)
    [Frame is marked: False]
    [Frame is ignored: False]
    [Protocols in frame: sll:ethertype:ip:tcp]
Linux cooked capture v2
    Protocol: IPv4 (0x0800)
    Interface index: 4
    Link-layer address type: Ethernet (1)
    Packet type: Sent by us (4)
    Link-layer address length: 6
    Source: Microsoft_18:ac:b7 (00:0d:3a:18:ac:b7)
    Unused: 0000
Internet Protocol Version 4, Src: 10.1.0.31, Dst: 54.179.177.151
    0100 .... = Version: 4
    .... 0101 = Header Length: 20 bytes (5)
    Differentiated Services Field: 0x00 (DSCP: CS0, ECN: Not-ECT)
        0000 00.. = Differentiated Services Codepoint: Default (0)
        .... ..00 = Explicit Congestion Notification: Not ECN-Capable Transport (0)
    Total Length: 52
    Identification: 0x9804 (38916)
    010. .... = Flags: 0x2, Don't fragment
        0... .... = Reserved bit: Not set
        .1.. .... = Don't fragment: Set
        ..0. .... = More fragments: Not set
    ...0 0000 0000 0000 = Fragment Offset: 0
    Time to Live: 64
    Protocol: TCP (6)
    Header Checksum: 0xb055 [validation disabled]
    [Header checksum status: Unverified]
    Source Address: 10.1.0.31
    Destination Address: 54.179.177.151
Transmission Control Protocol, Src Port: 51564, Dst Port: 443, Seq: 1, Ack: 1, Len: 0
    Source Port: 51564
    Destination Port: 443
    [Stream index: 0]
    [Conversation completeness: Incomplete, ESTABLISHED (7)]
        ..0. .... = RST: Absent
        ...0 .... = FIN: Absent
        .... 0... = Data: Absent
        .... .1.. = ACK: Present
        .... ..1. = SYN-ACK: Present
        .... ...1 = SYN: Present
        [Completeness Flags: ···ASS]
    [TCP Segment Len: 0]
    Sequence Number: 1    (relative sequence number)
    Sequence Number (raw): 2292245710
    [Next Sequence Number: 1    (relative sequence number)]
    Acknowledgment Number: 1    (relative ack number)
    Acknowledgment number (raw): 4133909141
    1000 .... = Header Length: 32 bytes (8)
    Flags: 0x010 (ACK)
        000. .... .... = Reserved: Not set
        ...0 .... .... = Accurate ECN: Not set
        .... 0... .... = Congestion Window Reduced: Not set
        .... .0.. .... = ECN-Echo: Not set
        .... ..0. .... = Urgent: Not set
        .... ...1 .... = Acknowledgment: Set
        .... .... 0... = Push: Not set
        .... .... .0.. = Reset: Not set
        .... .... ..0. = Syn: Not set
        .... .... ...0 = Fin: Not set
        [TCP Flags: ·······A····]
    Window: 63
    [Calculated window size: 64512]
    [Window size scaling factor: 1024]
    Checksum: 0xf290 [unverified]
    [Checksum Status: Unverified]
    Urgent Pointer: 0
    Options: (12 bytes), No-Operation (NOP), No-Operation (NOP), Timestamps
        TCP Option - No-Operation (NOP)
            Kind: No-Operation (1)
        TCP Option - No-Operation (NOP)
            Kind: No-Operation (1)
        TCP Option - Timestamps
            Kind: Time Stamp Option (8)
            Length: 10
            Timestamp value: 2146601094: TSval 2146601094, TSecr 1413135545
            Timestamp echo reply: 1413135545
    [Timestamps]
        [Time since first frame in this TCP stream: 0.221888000 seconds]
        [Time since previous frame in this TCP stream: 0.000003000 seconds]
    [SEQ/ACK analysis]
        [iRTT: 0.221881000 seconds]
        [TCP Analysis Flags]
            [This is a TCP duplicate ack]
        [Duplicate ACK #: 1]
        [Duplicate to the ACK in frame: 4]
            [Expert Info (Note/Sequence): Duplicate ACK (#1)]
                [Duplicate ACK (#1)]
                [Severity level: Note]
                [Group: Sequence]

0000  08 00 00 00 00 00 00 04 00 01 04 06 00 0d 3a 18   ..............:.
0010  ac b7 00 00 45 00 00 34 98 04 40 00 40 06 b0 55   ....E..4..@.@..U
0020  0a 01 00 1f 36 b3 b1 97 c9 6c 01 bb 88 a0 e4 ce   ....6....l......
0030  f6 66 72 95 80 10 00 3f f2 90 00 00 01 01 08 0a   .fr....?........
0040  7f f2 88 86 54 3a bc b9                           ....T:..

Frame 6: 589 bytes on wire (4712 bits), 589 bytes captured (4712 bits)
    Encapsulation type: Linux cooked-mode capture v2 (210)
    Arrival Time: Mar 30, 2026 11:15:37.908466000 UTC
    UTC Arrival Time: Mar 30, 2026 11:15:37.908466000 UTC
    Epoch Arrival Time: 1774869337.908466000
    [Time shift for this packet: 0.000000000 seconds]
    [Time delta from previous captured frame: 0.021894000 seconds]
    [Time delta from previous displayed frame: 0.021894000 seconds]
    [Time since reference or first frame: 0.243782000 seconds]
    Frame Number: 6
    Frame Length: 589 bytes (4712 bits)
    Capture Length: 589 bytes (4712 bits)
    [Frame is marked: False]
    [Frame is ignored: False]
    [Protocols in frame: sll:ethertype:ip:tcp:tls]
Linux cooked capture v2
    Protocol: IPv4 (0x0800)
    Interface index: 2
    Link-layer address type: Ethernet (1)
    Packet type: Sent by us (4)
    Link-layer address length: 6
    Source: Microsoft_18:ac:b7 (00:0d:3a:18:ac:b7)
    Unused: 0000
Internet Protocol Version 4, Src: 10.1.0.31, Dst: 54.179.177.151
    0100 .... = Version: 4
    .... 0101 = Header Length: 20 bytes (5)
    Differentiated Services Field: 0x00 (DSCP: CS0, ECN: Not-ECT)
        0000 00.. = Differentiated Services Codepoint: Default (0)
        .... ..00 = Explicit Congestion Notification: Not ECN-Capable Transport (0)
    Total Length: 569
    Identification: 0x9805 (38917)
    010. .... = Flags: 0x2, Don't fragment
        0... .... = Reserved bit: Not set
        .1.. .... = Don't fragment: Set
        ..0. .... = More fragments: Not set
    ...0 0000 0000 0000 = Fragment Offset: 0
    Time to Live: 64
    Protocol: TCP (6)
    Header Checksum: 0xae4f [validation disabled]
    [Header checksum status: Unverified]
    Source Address: 10.1.0.31
    Destination Address: 54.179.177.151
Transmission Control Protocol, Src Port: 51564, Dst Port: 443, Seq: 1, Ack: 1, Len: 517
    Source Port: 51564
    Destination Port: 443
    [Stream index: 0]
    [Conversation completeness: Incomplete, ESTABLISHED (7)]
        ..0. .... = RST: Absent
        ...0 .... = FIN: Absent
        .... 0... = Data: Absent
        .... .1.. = ACK: Present
        .... ..1. = SYN-ACK: Present
        .... ...1 = SYN: Present
        [Completeness Flags: ···ASS]
    [TCP Segment Len: 517]
    Sequence Number: 1    (relative sequence number)
    Sequence Number (raw): 2292245710
    [Next Sequence Number: 518    (relative sequence number)]
    Acknowledgment Number: 1    (relative ack number)
    Acknowledgment number (raw): 4133909141
    1000 .... = Header Length: 32 bytes (8)
    Flags: 0x018 (PSH, ACK)
        000. .... .... = Reserved: Not set
        ...0 .... .... = Accurate ECN: Not set
        .... 0... .... = Congestion Window Reduced: Not set
        .... .0.. .... = ECN-Echo: Not set
        .... ..0. .... = Urgent: Not set
        .... ...1 .... = Acknowledgment: Set
        .... .... 1... = Push: Set
        .... .... .0.. = Reset: Not set
        .... .... ..0. = Syn: Not set
        .... .... ...0 = Fin: Not set
        [TCP Flags: ·······AP···]
    Window: 63
    [Calculated window size: 64512]
    [Window size scaling factor: 1024]
    Checksum: 0xf495 [unverified]
    [Checksum Status: Unverified]
    Urgent Pointer: 0
    Options: (12 bytes), No-Operation (NOP), No-Operation (NOP), Timestamps
        TCP Option - No-Operation (NOP)
            Kind: No-Operation (1)
        TCP Option - No-Operation (NOP)
            Kind: No-Operation (1)
        TCP Option - Timestamps
            Kind: Time Stamp Option (8)
            Length: 10
            Timestamp value: 2146601116: TSval 2146601116, TSecr 1413135545
            Timestamp echo reply: 1413135545
    [Timestamps]
        [Time since first frame in this TCP stream: 0.243782000 seconds]
        [Time since previous frame in this TCP stream: 0.021894000 seconds]
    [SEQ/ACK analysis]
        [iRTT: 0.221881000 seconds]
        [Bytes in flight: 517]
        [Bytes sent since last PSH flag: 517]
    TCP payload (517 bytes)
Transport Layer Security
    TLSv1 Record Layer: Handshake Protocol: Client Hello
        Content Type: Handshake (22)
        Version: TLS 1.0 (0x0301)
        Length: 512
        Handshake Protocol: Client Hello
            Handshake Type: Client Hello (1)
            Length: 508
            Version: TLS 1.2 (0x0303)
            Random: d85ce94a6afb698efeecff856c8c5adb25ecfbb44ccb337ce5bfa3c85e63b374
                GMT Unix Time: Jan 10, 2085 12:21:30.000000000 UTC
                Random Bytes: 6afb698efeecff856c8c5adb25ecfbb44ccb337ce5bfa3c85e63b374
            Session ID Length: 32
            Session ID: c1ec54dd2807410f86ea2d00b1586bb55c1185b4606361ec55eac235805580b4
            Cipher Suites Length: 36
            Cipher Suites (18 suites)
                Cipher Suite: TLS_AES_256_GCM_SHA384 (0x1302)
                Cipher Suite: TLS_CHACHA20_POLY1305_SHA256 (0x1303)
                Cipher Suite: TLS_AES_128_GCM_SHA256 (0x1301)
                Cipher Suite: TLS_ECDHE_ECDSA_WITH_AES_256_GCM_SHA384 (0xc02c)
                Cipher Suite: TLS_ECDHE_RSA_WITH_AES_256_GCM_SHA384 (0xc030)
                Cipher Suite: TLS_ECDHE_ECDSA_WITH_AES_128_GCM_SHA256 (0xc02b)
                Cipher Suite: TLS_ECDHE_RSA_WITH_AES_128_GCM_SHA256 (0xc02f)
                Cipher Suite: TLS_ECDHE_ECDSA_WITH_CHACHA20_POLY1305_SHA256 (0xcca9)
                Cipher Suite: TLS_ECDHE_RSA_WITH_CHACHA20_POLY1305_SHA256 (0xcca8)
                Cipher Suite: TLS_ECDHE_ECDSA_WITH_AES_256_CBC_SHA384 (0xc024)
                Cipher Suite: TLS_ECDHE_RSA_WITH_AES_256_CBC_SHA384 (0xc028)
                Cipher Suite: TLS_ECDHE_ECDSA_WITH_AES_128_CBC_SHA256 (0xc023)
                Cipher Suite: TLS_ECDHE_RSA_WITH_AES_128_CBC_SHA256 (0xc027)
                Cipher Suite: TLS_DHE_RSA_WITH_AES_256_GCM_SHA384 (0x009f)
                Cipher Suite: TLS_DHE_RSA_WITH_AES_128_GCM_SHA256 (0x009e)
                Cipher Suite: TLS_DHE_RSA_WITH_AES_256_CBC_SHA256 (0x006b)
                Cipher Suite: TLS_DHE_RSA_WITH_AES_128_CBC_SHA256 (0x0067)
                Cipher Suite: TLS_EMPTY_RENEGOTIATION_INFO_SCSV (0x00ff)
            Compression Methods Length: 1
            Compression Methods (1 method)
                Compression Method: null (0)
            Extensions Length: 399
            Extension: server_name (len=29) name=mcd-gateway.grabtaxi.com
                Type: server_name (0)
                Length: 29
                Server Name Indication extension
                    Server Name list length: 27
                    Server Name Type: host_name (0)
                    Server Name length: 24
                    Server Name: mcd-gateway.grabtaxi.com
            Extension: ec_point_formats (len=4)
                Type: ec_point_formats (11)
                Length: 4
                EC point formats Length: 3
                Elliptic curves point formats (3)
                    EC point format: uncompressed (0)
                    EC point format: ansiX962_compressed_prime (1)
                    EC point format: ansiX962_compressed_char2 (2)
            Extension: supported_groups (len=22)
                Type: supported_groups (10)
                Length: 22
                Supported Groups List Length: 20
                Supported Groups (10 groups)
                    Supported Group: x25519 (0x001d)
                    Supported Group: secp256r1 (0x0017)
                    Supported Group: x448 (0x001e)
                    Supported Group: secp521r1 (0x0019)
                    Supported Group: secp384r1 (0x0018)
                    Supported Group: ffdhe2048 (0x0100)
                    Supported Group: ffdhe3072 (0x0101)
                    Supported Group: ffdhe4096 (0x0102)
                    Supported Group: ffdhe6144 (0x0103)
                    Supported Group: ffdhe8192 (0x0104)
            Extension: application_layer_protocol_negotiation (len=11)
                Type: application_layer_protocol_negotiation (16)
                Length: 11
                ALPN Extension Length: 9
                ALPN Protocol
                    ALPN string length: 8
                    ALPN Next Protocol: http/1.1
            Extension: encrypt_then_mac (len=0)
                Type: encrypt_then_mac (22)
                Length: 0
            Extension: extended_master_secret (len=0)
                Type: extended_master_secret (23)
                Length: 0
            Extension: post_handshake_auth (len=0)
                Type: post_handshake_auth (49)
                Length: 0
            Extension: signature_algorithms (len=42)
                Type: signature_algorithms (13)
                Length: 42
                Signature Hash Algorithms Length: 40
                Signature Hash Algorithms (20 algorithms)
                    Signature Algorithm: ecdsa_secp256r1_sha256 (0x0403)
                        Signature Hash Algorithm Hash: SHA256 (4)
                        Signature Hash Algorithm Signature: ECDSA (3)
                    Signature Algorithm: ecdsa_secp384r1_sha384 (0x0503)
                        Signature Hash Algorithm Hash: SHA384 (5)
                        Signature Hash Algorithm Signature: ECDSA (3)
                    Signature Algorithm: ecdsa_secp521r1_sha512 (0x0603)
                        Signature Hash Algorithm Hash: SHA512 (6)
                        Signature Hash Algorithm Signature: ECDSA (3)
                    Signature Algorithm: ed25519 (0x0807)
                        Signature Hash Algorithm Hash: Unknown (8)
                        Signature Hash Algorithm Signature: Unknown (7)
                    Signature Algorithm: ed448 (0x0808)
                        Signature Hash Algorithm Hash: Unknown (8)
                        Signature Hash Algorithm Signature: Unknown (8)
                    Signature Algorithm: rsa_pss_pss_sha256 (0x0809)
                        Signature Hash Algorithm Hash: Unknown (8)
                        Signature Hash Algorithm Signature: Unknown (9)
                    Signature Algorithm: rsa_pss_pss_sha384 (0x080a)
                        Signature Hash Algorithm Hash: Unknown (8)
                        Signature Hash Algorithm Signature: Unknown (10)
                    Signature Algorithm: rsa_pss_pss_sha512 (0x080b)
                        Signature Hash Algorithm Hash: Unknown (8)
                        Signature Hash Algorithm Signature: Unknown (11)
                    Signature Algorithm: rsa_pss_rsae_sha256 (0x0804)
                        Signature Hash Algorithm Hash: Unknown (8)
                        Signature Hash Algorithm Signature: SM2 (4)
                    Signature Algorithm: rsa_pss_rsae_sha384 (0x0805)
                        Signature Hash Algorithm Hash: Unknown (8)
                        Signature Hash Algorithm Signature: Unknown (5)
                    Signature Algorithm: rsa_pss_rsae_sha512 (0x0806)
                        Signature Hash Algorithm Hash: Unknown (8)
                        Signature Hash Algorithm Signature: Unknown (6)
                    Signature Algorithm: rsa_pkcs1_sha256 (0x0401)
                        Signature Hash Algorithm Hash: SHA256 (4)
                        Signature Hash Algorithm Signature: RSA (1)
                    Signature Algorithm: rsa_pkcs1_sha384 (0x0501)
                        Signature Hash Algorithm Hash: SHA384 (5)
                        Signature Hash Algorithm Signature: RSA (1)
                    Signature Algorithm: rsa_pkcs1_sha512 (0x0601)
                        Signature Hash Algorithm Hash: SHA512 (6)
                        Signature Hash Algorithm Signature: RSA (1)
                    Signature Algorithm: SHA224 ECDSA (0x0303)
                        Signature Hash Algorithm Hash: SHA224 (3)
                        Signature Hash Algorithm Signature: ECDSA (3)
                    Signature Algorithm: SHA224 RSA (0x0301)
                        Signature Hash Algorithm Hash: SHA224 (3)
                        Signature Hash Algorithm Signature: RSA (1)
                    Signature Algorithm: SHA224 DSA (0x0302)
                        Signature Hash Algorithm Hash: SHA224 (3)
                        Signature Hash Algorithm Signature: DSA (2)
                    Signature Algorithm: SHA256 DSA (0x0402)
                        Signature Hash Algorithm Hash: SHA256 (4)
                        Signature Hash Algorithm Signature: DSA (2)
                    Signature Algorithm: SHA384 DSA (0x0502)
                        Signature Hash Algorithm Hash: SHA384 (5)
                        Signature Hash Algorithm Signature: DSA (2)
                    Signature Algorithm: SHA512 DSA (0x0602)
                        Signature Hash Algorithm Hash: SHA512 (6)
                        Signature Hash Algorithm Signature: DSA (2)
            Extension: supported_versions (len=5) TLS 1.3, TLS 1.2
                Type: supported_versions (43)
                Length: 5
                Supported Versions length: 4
                Supported Version: TLS 1.3 (0x0304)
                Supported Version: TLS 1.2 (0x0303)
            Extension: psk_key_exchange_modes (len=2)
                Type: psk_key_exchange_modes (45)
                Length: 2
                PSK Key Exchange Modes Length: 1
                PSK Key Exchange Mode: PSK with (EC)DHE key establishment (psk_dhe_ke) (1)
            Extension: key_share (len=38) x25519
                Type: key_share (51)
                Length: 38
                Key Share extension
                    Client Key Share Length: 36
                    Key Share Entry: Group: x25519, Key Exchange length: 32
                        Group: x25519 (29)
                        Key Exchange Length: 32
                        Key Exchange: 663947fc0114457f65278d06745ca5833d58e96e3b343b57eb250d3b5d0b723a
            Extension: padding (len=198)
                Type: padding (21)
                Length: 198
                Padding Data [truncated]: 000000000000000000000000000000000000000000000000000000000000000000000000000000000000000000000000000000000000000000000000000000000000000000000000000000000000000000000000000000000000000000000000000000000000000000000
            [JA4: t13d1812h1_85036bcba153_b26ce05bbdd6]
            [JA4_r [truncated]: t13d1812h1_0067,006b,009e,009f,00ff,1301,1302,1303,c023,c024,c027,c028,c02b,c02c,c02f,c030,cca8,cca9_000a,000b,000d,0015,0016,0017,002b,002d,0031,0033_0403,0503,0603,0807,0808,0809,080a,080b,0804,0805,0806,0401,0501,0601]
            [JA3 Fullstring: 771,4866-4867-4865-49196-49200-49195-49199-52393-52392-49188-49192-49187-49191-159-158-107-103-255,0-11-10-16-22-23-49-13-43-45-51-21,29-23-30-25-24-256-257-258-259-260,0-1-2]
            [JA3: a48c0d5f95b1ef98f560f324fd275da1]

0000  08 00 00 00 00 00 00 02 00 01 04 06 00 0d 3a 18   ..............:.
0010  ac b7 00 00 45 00 02 39 98 05 40 00 40 06 ae 4f   ....E..9..@.@..O
0020  0a 01 00 1f 36 b3 b1 97 c9 6c 01 bb 88 a0 e4 ce   ....6....l......
0030  f6 66 72 95 80 18 00 3f f4 95 00 00 01 01 08 0a   .fr....?........
0040  7f f2 88 9c 54 3a bc b9 16 03 01 02 00 01 00 01   ....T:..........
0050  fc 03 03 d8 5c e9 4a 6a fb 69 8e fe ec ff 85 6c   ....\.Jj.i.....l
0060  8c 5a db 25 ec fb b4 4c cb 33 7c e5 bf a3 c8 5e   .Z.%...L.3|....^
0070  63 b3 74 20 c1 ec 54 dd 28 07 41 0f 86 ea 2d 00   c.t ..T.(.A...-.
0080  b1 58 6b b5 5c 11 85 b4 60 63 61 ec 55 ea c2 35   .Xk.\...`ca.U..5
0090  80 55 80 b4 00 24 13 02 13 03 13 01 c0 2c c0 30   .U...$.......,.0
00a0  c0 2b c0 2f cc a9 cc a8 c0 24 c0 28 c0 23 c0 27   .+./.....$.(.#.'
00b0  00 9f 00 9e 00 6b 00 67 00 ff 01 00 01 8f 00 00   .....k.g........
00c0  00 1d 00 1b 00 00 18 6d 63 64 2d 67 61 74 65 77   .......mcd-gatew
00d0  61 79 2e 67 72 61 62 74 61 78 69 2e 63 6f 6d 00   ay.grabtaxi.com.
00e0  0b 00 04 03 00 01 02 00 0a 00 16 00 14 00 1d 00   ................
00f0  17 00 1e 00 19 00 18 01 00 01 01 01 02 01 03 01   ................
0100  04 00 10 00 0b 00 09 08 68 74 74 70 2f 31 2e 31   ........http/1.1
0110  00 16 00 00 00 17 00 00 00 31 00 00 00 0d 00 2a   .........1.....*
0120  00 28 04 03 05 03 06 03 08 07 08 08 08 09 08 0a   .(..............
0130  08 0b 08 04 08 05 08 06 04 01 05 01 06 01 03 03   ................
0140  03 01 03 02 04 02 05 02 06 02 00 2b 00 05 04 03   ...........+....
0150  04 03 03 00 2d 00 02 01 01 00 33 00 26 00 24 00   ....-.....3.&.$.
0160  1d 00 20 66 39 47 fc 01 14 45 7f 65 27 8d 06 74   .. f9G...E.e'..t
0170  5c a5 83 3d 58 e9 6e 3b 34 3b 57 eb 25 0d 3b 5d   \..=X.n;4;W.%.;]
0180  0b 72 3a 00 15 00 c6 00 00 00 00 00 00 00 00 00   .r:.............
0190  00 00 00 00 00 00 00 00 00 00 00 00 00 00 00 00   ................
01a0  00 00 00 00 00 00 00 00 00 00 00 00 00 00 00 00   ................
01b0  00 00 00 00 00 00 00 00 00 00 00 00 00 00 00 00   ................
01c0  00 00 00 00 00 00 00 00 00 00 00 00 00 00 00 00   ................
01d0  00 00 00 00 00 00 00 00 00 00 00 00 00 00 00 00   ................
01e0  00 00 00 00 00 00 00 00 00 00 00 00 00 00 00 00   ................
01f0  00 00 00 00 00 00 00 00 00 00 00 00 00 00 00 00   ................
0200  00 00 00 00 00 00 00 00 00 00 00 00 00 00 00 00   ................
0210  00 00 00 00 00 00 00 00 00 00 00 00 00 00 00 00   ................
0220  00 00 00 00 00 00 00 00 00 00 00 00 00 00 00 00   ................
0230  00 00 00 00 00 00 00 00 00 00 00 00 00 00 00 00   ................
0240  00 00 00 00 00 00 00 00 00 00 00 00 00            .............

Frame 7: 589 bytes on wire (4712 bits), 589 bytes captured (4712 bits)
    Encapsulation type: Linux cooked-mode capture v2 (210)
    Arrival Time: Mar 30, 2026 11:15:37.908471000 UTC
    UTC Arrival Time: Mar 30, 2026 11:15:37.908471000 UTC
    Epoch Arrival Time: 1774869337.908471000
    [Time shift for this packet: 0.000000000 seconds]
    [Time delta from previous captured frame: 0.000005000 seconds]
    [Time delta from previous displayed frame: 0.000005000 seconds]
    [Time since reference or first frame: 0.243787000 seconds]
    Frame Number: 7
    Frame Length: 589 bytes (4712 bits)
    Capture Length: 589 bytes (4712 bits)
    [Frame is marked: False]
    [Frame is ignored: False]
    [Protocols in frame: sll:ethertype:ip:tcp]
Linux cooked capture v2
    Protocol: IPv4 (0x0800)
    Interface index: 4
    Link-layer address type: Ethernet (1)
    Packet type: Sent by us (4)
    Link-layer address length: 6
    Source: Microsoft_18:ac:b7 (00:0d:3a:18:ac:b7)
    Unused: 0000
Internet Protocol Version 4, Src: 10.1.0.31, Dst: 54.179.177.151
    0100 .... = Version: 4
    .... 0101 = Header Length: 20 bytes (5)
    Differentiated Services Field: 0x00 (DSCP: CS0, ECN: Not-ECT)
        0000 00.. = Differentiated Services Codepoint: Default (0)
        .... ..00 = Explicit Congestion Notification: Not ECN-Capable Transport (0)
    Total Length: 569
    Identification: 0x9805 (38917)
    010. .... = Flags: 0x2, Don't fragment
        0... .... = Reserved bit: Not set
        .1.. .... = Don't fragment: Set
        ..0. .... = More fragments: Not set
    ...0 0000 0000 0000 = Fragment Offset: 0
    Time to Live: 64
    Protocol: TCP (6)
    Header Checksum: 0xae4f [validation disabled]
    [Header checksum status: Unverified]
    Source Address: 10.1.0.31
    Destination Address: 54.179.177.151
Transmission Control Protocol, Src Port: 51564, Dst Port: 443, Seq: 1, Ack: 1, Len: 517
    Source Port: 51564
    Destination Port: 443
    [Stream index: 0]
    [Conversation completeness: Incomplete, DATA (15)]
        ..0. .... = RST: Absent
        ...0 .... = FIN: Absent
        .... 1... = Data: Present
        .... .1.. = ACK: Present
        .... ..1. = SYN-ACK: Present
        .... ...1 = SYN: Present
        [Completeness Flags: ··DASS]
    [TCP Segment Len: 517]
    Sequence Number: 1    (relative sequence number)
    Sequence Number (raw): 2292245710
    [Next Sequence Number: 518    (relative sequence number)]
    Acknowledgment Number: 1    (relative ack number)
    Acknowledgment number (raw): 4133909141
    1000 .... = Header Length: 32 bytes (8)
    Flags: 0x018 (PSH, ACK)
        000. .... .... = Reserved: Not set
        ...0 .... .... = Accurate ECN: Not set
        .... 0... .... = Congestion Window Reduced: Not set
        .... .0.. .... = ECN-Echo: Not set
        .... ..0. .... = Urgent: Not set
        .... ...1 .... = Acknowledgment: Set
        .... .... 1... = Push: Set
        .... .... .0.. = Reset: Not set
        .... .... ..0. = Syn: Not set
        .... .... ...0 = Fin: Not set
        [TCP Flags: ·······AP···]
    Window: 63
    [Calculated window size: 64512]
    [Window size scaling factor: 1024]
    Checksum: 0xf495 [unverified]
    [Checksum Status: Unverified]
    Urgent Pointer: 0
    Options: (12 bytes), No-Operation (NOP), No-Operation (NOP), Timestamps
        TCP Option - No-Operation (NOP)
            Kind: No-Operation (1)
        TCP Option - No-Operation (NOP)
            Kind: No-Operation (1)
        TCP Option - Timestamps
            Kind: Time Stamp Option (8)
            Length: 10
            Timestamp value: 2146601116: TSval 2146601116, TSecr 1413135545
            Timestamp echo reply: 1413135545
    [Timestamps]
        [Time since first frame in this TCP stream: 0.243787000 seconds]
        [Time since previous frame in this TCP stream: 0.000005000 seconds]
    [SEQ/ACK analysis]
        [iRTT: 0.221881000 seconds]
        [Bytes in flight: 517]
        [Bytes sent since last PSH flag: 517]
        [TCP Analysis Flags]
            [Expert Info (Note/Sequence): This frame is a (suspected) retransmission]
                [This frame is a (suspected) retransmission]
                [Severity level: Note]
                [Group: Sequence]
            [The RTO for this segment was: 0.000005000 seconds]
            [RTO based on delta from frame: 6]
    TCP payload (517 bytes)
    Retransmitted TCP segment data (517 bytes)

0000  08 00 00 00 00 00 00 04 00 01 04 06 00 0d 3a 18   ..............:.
0010  ac b7 00 00 45 00 02 39 98 05 40 00 40 06 ae 4f   ....E..9..@.@..O
0020  0a 01 00 1f 36 b3 b1 97 c9 6c 01 bb 88 a0 e4 ce   ....6....l......
0030  f6 66 72 95 80 18 00 3f f4 95 00 00 01 01 08 0a   .fr....?........
0040  7f f2 88 9c 54 3a bc b9 16 03 01 02 00 01 00 01   ....T:..........
0050  fc 03 03 d8 5c e9 4a 6a fb 69 8e fe ec ff 85 6c   ....\.Jj.i.....l
0060  8c 5a db 25 ec fb b4 4c cb 33 7c e5 bf a3 c8 5e   .Z.%...L.3|....^
0070  63 b3 74 20 c1 ec 54 dd 28 07 41 0f 86 ea 2d 00   c.t ..T.(.A...-.
0080  b1 58 6b b5 5c 11 85 b4 60 63 61 ec 55 ea c2 35   .Xk.\...`ca.U..5
0090  80 55 80 b4 00 24 13 02 13 03 13 01 c0 2c c0 30   .U...$.......,.0
00a0  c0 2b c0 2f cc a9 cc a8 c0 24 c0 28 c0 23 c0 27   .+./.....$.(.#.'
00b0  00 9f 00 9e 00 6b 00 67 00 ff 01 00 01 8f 00 00   .....k.g........
00c0  00 1d 00 1b 00 00 18 6d 63 64 2d 67 61 74 65 77   .......mcd-gatew
00d0  61 79 2e 67 72 61 62 74 61 78 69 2e 63 6f 6d 00   ay.grabtaxi.com.
00e0  0b 00 04 03 00 01 02 00 0a 00 16 00 14 00 1d 00   ................
00f0  17 00 1e 00 19 00 18 01 00 01 01 01 02 01 03 01   ................
0100  04 00 10 00 0b 00 09 08 68 74 74 70 2f 31 2e 31   ........http/1.1
0110  00 16 00 00 00 17 00 00 00 31 00 00 00 0d 00 2a   .........1.....*
0120  00 28 04 03 05 03 06 03 08 07 08 08 08 09 08 0a   .(..............
0130  08 0b 08 04 08 05 08 06 04 01 05 01 06 01 03 03   ................
0140  03 01 03 02 04 02 05 02 06 02 00 2b 00 05 04 03   ...........+....
0150  04 03 03 00 2d 00 02 01 01 00 33 00 26 00 24 00   ....-.....3.&.$.
0160  1d 00 20 66 39 47 fc 01 14 45 7f 65 27 8d 06 74   .. f9G...E.e'..t
0170  5c a5 83 3d 58 e9 6e 3b 34 3b 57 eb 25 0d 3b 5d   \..=X.n;4;W.%.;]
0180  0b 72 3a 00 15 00 c6 00 00 00 00 00 00 00 00 00   .r:.............
0190  00 00 00 00 00 00 00 00 00 00 00 00 00 00 00 00   ................
01a0  00 00 00 00 00 00 00 00 00 00 00 00 00 00 00 00   ................
01b0  00 00 00 00 00 00 00 00 00 00 00 00 00 00 00 00   ................
01c0  00 00 00 00 00 00 00 00 00 00 00 00 00 00 00 00   ................
01d0  00 00 00 00 00 00 00 00 00 00 00 00 00 00 00 00   ................
01e0  00 00 00 00 00 00 00 00 00 00 00 00 00 00 00 00   ................
01f0  00 00 00 00 00 00 00 00 00 00 00 00 00 00 00 00   ................
0200  00 00 00 00 00 00 00 00 00 00 00 00 00 00 00 00   ................
0210  00 00 00 00 00 00 00 00 00 00 00 00 00 00 00 00   ................
0220  00 00 00 00 00 00 00 00 00 00 00 00 00 00 00 00   ................
0230  00 00 00 00 00 00 00 00 00 00 00 00 00 00 00 00   ................
0240  00 00 00 00 00 00 00 00 00 00 00 00 00            .............

Frame 8: 72 bytes on wire (576 bits), 72 bytes captured (576 bits)
    Encapsulation type: Linux cooked-mode capture v2 (210)
    Arrival Time: Mar 30, 2026 11:15:38.129999000 UTC
    UTC Arrival Time: Mar 30, 2026 11:15:38.129999000 UTC
    Epoch Arrival Time: 1774869338.129999000
    [Time shift for this packet: 0.000000000 seconds]
    [Time delta from previous captured frame: 0.221528000 seconds]
    [Time delta from previous displayed frame: 0.221528000 seconds]
    [Time since reference or first frame: 0.465315000 seconds]
    Frame Number: 8
    Frame Length: 72 bytes (576 bits)
    Capture Length: 72 bytes (576 bits)
    [Frame is marked: False]
    [Frame is ignored: False]
    [Protocols in frame: sll:ethertype:ip:tcp]
Linux cooked capture v2
    Protocol: IPv4 (0x0800)
    Interface index: 4
    Link-layer address type: Ethernet (1)
    Packet type: Unicast to us (0)
    Link-layer address length: 6
    Source: 12:34:56:78:9a:bc (12:34:56:78:9a:bc)
    Unused: 0000
Internet Protocol Version 4, Src: 54.179.177.151, Dst: 10.1.0.31
    0100 .... = Version: 4
    .... 0101 = Header Length: 20 bytes (5)
    Differentiated Services Field: 0x00 (DSCP: CS0, ECN: Not-ECT)
        0000 00.. = Differentiated Services Codepoint: Default (0)
        .... ..00 = Explicit Congestion Notification: Not ECN-Capable Transport (0)
    Total Length: 52
    Identification: 0xa092 (41106)
    010. .... = Flags: 0x2, Don't fragment
        0... .... = Reserved bit: Not set
        .1.. .... = Don't fragment: Set
        ..0. .... = More fragments: Not set
    ...0 0000 0000 0000 = Fragment Offset: 0
    Time to Live: 235
    Protocol: TCP (6)
    Header Checksum: 0xfcc6 [validation disabled]
    [Header checksum status: Unverified]
    Source Address: 54.179.177.151
    Destination Address: 10.1.0.31
Transmission Control Protocol, Src Port: 443, Dst Port: 51564, Seq: 1, Ack: 518, Len: 0
    Source Port: 443
    Destination Port: 51564
    [Stream index: 0]
    [Conversation completeness: Incomplete, DATA (15)]
        ..0. .... = RST: Absent
        ...0 .... = FIN: Absent
        .... 1... = Data: Present
        .... .1.. = ACK: Present
        .... ..1. = SYN-ACK: Present
        .... ...1 = SYN: Present
        [Completeness Flags: ··DASS]
    [TCP Segment Len: 0]
    Sequence Number: 1    (relative sequence number)
    Sequence Number (raw): 4133909141
    [Next Sequence Number: 1    (relative sequence number)]
    Acknowledgment Number: 518    (relative ack number)
    Acknowledgment number (raw): 2292246227
    1000 .... = Header Length: 32 bytes (8)
    Flags: 0x010 (ACK)
        000. .... .... = Reserved: Not set
        ...0 .... .... = Accurate ECN: Not set
        .... 0... .... = Congestion Window Reduced: Not set
        .... .0.. .... = ECN-Echo: Not set
        .... ..0. .... = Urgent: Not set
        .... ...1 .... = Acknowledgment: Set
        .... .... 0... = Push: Not set
        .... .... .0.. = Reset: Not set
        .... .... ..0. = Syn: Not set
        .... .... ...0 = Fin: Not set
        [TCP Flags: ·······A····]
    Window: 117
    [Calculated window size: 29952]
    [Window size scaling factor: 256]
    Checksum: 0xc5aa [unverified]
    [Checksum Status: Unverified]
    Urgent Pointer: 0
    Options: (12 bytes), No-Operation (NOP), No-Operation (NOP), Timestamps
        TCP Option - No-Operation (NOP)
            Kind: No-Operation (1)
        TCP Option - No-Operation (NOP)
            Kind: No-Operation (1)
        TCP Option - Timestamps
            Kind: Time Stamp Option (8)
            Length: 10
            Timestamp value: 1413135825: TSval 1413135825, TSecr 2146601116
            Timestamp echo reply: 2146601116
    [Timestamps]
        [Time since first frame in this TCP stream: 0.465315000 seconds]
        [Time since previous frame in this TCP stream: 0.221528000 seconds]
    [SEQ/ACK analysis]
        [This is an ACK to the segment in frame: 6]
        [The RTT to ACK the segment was: 0.221533000 seconds]
        [iRTT: 0.221881000 seconds]

0000  08 00 00 00 00 00 00 04 00 01 00 06 12 34 56 78   .............4Vx
0010  9a bc 00 00 45 00 00 34 a0 92 40 00 eb 06 fc c6   ....E..4..@.....
0020  36 b3 b1 97 0a 01 00 1f 01 bb c9 6c f6 66 72 95   6..........l.fr.
0030  88 a0 e6 d3 80 10 00 75 c5 aa 00 00 01 01 08 0a   .......u........
0040  54 3a bd d1 7f f2 88 9c                           T:......

Frame 9: 72 bytes on wire (576 bits), 72 bytes captured (576 bits)
    Encapsulation type: Linux cooked-mode capture v2 (210)
    Arrival Time: Mar 30, 2026 11:15:38.129999000 UTC
    UTC Arrival Time: Mar 30, 2026 11:15:38.129999000 UTC
    Epoch Arrival Time: 1774869338.129999000
    [Time shift for this packet: 0.000000000 seconds]
    [Time delta from previous captured frame: 0.000000000 seconds]
    [Time delta from previous displayed frame: 0.000000000 seconds]
    [Time since reference or first frame: 0.465315000 seconds]
    Frame Number: 9
    Frame Length: 72 bytes (576 bits)
    Capture Length: 72 bytes (576 bits)
    [Frame is marked: False]
    [Frame is ignored: False]
    [Protocols in frame: sll:ethertype:ip:tcp]
Linux cooked capture v2
    Protocol: IPv4 (0x0800)
    Interface index: 2
    Link-layer address type: Ethernet (1)
    Packet type: Unicast to us (0)
    Link-layer address length: 6
    Source: 12:34:56:78:9a:bc (12:34:56:78:9a:bc)
    Unused: 0000
Internet Protocol Version 4, Src: 54.179.177.151, Dst: 10.1.0.31
    0100 .... = Version: 4
    .... 0101 = Header Length: 20 bytes (5)
    Differentiated Services Field: 0x00 (DSCP: CS0, ECN: Not-ECT)
        0000 00.. = Differentiated Services Codepoint: Default (0)
        .... ..00 = Explicit Congestion Notification: Not ECN-Capable Transport (0)
    Total Length: 52
    Identification: 0xa092 (41106)
    010. .... = Flags: 0x2, Don't fragment
        0... .... = Reserved bit: Not set
        .1.. .... = Don't fragment: Set
        ..0. .... = More fragments: Not set
    ...0 0000 0000 0000 = Fragment Offset: 0
    Time to Live: 235
    Protocol: TCP (6)
    Header Checksum: 0xfcc6 [validation disabled]
    [Header checksum status: Unverified]
    Source Address: 54.179.177.151
    Destination Address: 10.1.0.31
Transmission Control Protocol, Src Port: 443, Dst Port: 51564, Seq: 1, Ack: 518, Len: 0
    Source Port: 443
    Destination Port: 51564
    [Stream index: 0]
    [Conversation completeness: Incomplete, DATA (15)]
        ..0. .... = RST: Absent
        ...0 .... = FIN: Absent
        .... 1... = Data: Present
        .... .1.. = ACK: Present
        .... ..1. = SYN-ACK: Present
        .... ...1 = SYN: Present
        [Completeness Flags: ··DASS]
    [TCP Segment Len: 0]
    Sequence Number: 1    (relative sequence number)
    Sequence Number (raw): 4133909141
    [Next Sequence Number: 1    (relative sequence number)]
    Acknowledgment Number: 518    (relative ack number)
    Acknowledgment number (raw): 2292246227
    1000 .... = Header Length: 32 bytes (8)
    Flags: 0x010 (ACK)
        000. .... .... = Reserved: Not set
        ...0 .... .... = Accurate ECN: Not set
        .... 0... .... = Congestion Window Reduced: Not set
        .... .0.. .... = ECN-Echo: Not set
        .... ..0. .... = Urgent: Not set
        .... ...1 .... = Acknowledgment: Set
        .... .... 0... = Push: Not set
        .... .... .0.. = Reset: Not set
        .... .... ..0. = Syn: Not set
        .... .... ...0 = Fin: Not set
        [TCP Flags: ·······A····]
    Window: 117
    [Calculated window size: 29952]
    [Window size scaling factor: 256]
    Checksum: 0xc5aa [unverified]
    [Checksum Status: Unverified]
    Urgent Pointer: 0
    Options: (12 bytes), No-Operation (NOP), No-Operation (NOP), Timestamps
        TCP Option - No-Operation (NOP)
            Kind: No-Operation (1)
        TCP Option - No-Operation (NOP)
            Kind: No-Operation (1)
        TCP Option - Timestamps
            Kind: Time Stamp Option (8)
            Length: 10
            Timestamp value: 1413135825: TSval 1413135825, TSecr 2146601116
            Timestamp echo reply: 2146601116
    [Timestamps]
        [Time since first frame in this TCP stream: 0.465315000 seconds]
        [Time since previous frame in this TCP stream: 0.000000000 seconds]
    [SEQ/ACK analysis]
        [iRTT: 0.221881000 seconds]
        [TCP Analysis Flags]
            [This is a TCP duplicate ack]
        [Duplicate ACK #: 1]
        [Duplicate to the ACK in frame: 8]
            [Expert Info (Note/Sequence): Duplicate ACK (#1)]
                [Duplicate ACK (#1)]
                [Severity level: Note]
                [Group: Sequence]

0000  08 00 00 00 00 00 00 02 00 01 00 06 12 34 56 78   .............4Vx
0010  9a bc 00 00 45 00 00 34 a0 92 40 00 eb 06 fc c6   ....E..4..@.....
0020  36 b3 b1 97 0a 01 00 1f 01 bb c9 6c f6 66 72 95   6..........l.fr.
0030  88 a0 e6 d3 80 10 00 75 c5 aa 00 00 01 01 08 0a   .......u........
0040  54 3a bd d1 7f f2 88 9c                           T:......

Frame 10: 2928 bytes on wire (23424 bits), 2928 bytes captured (23424 bits)
    Encapsulation type: Linux cooked-mode capture v2 (210)
    Arrival Time: Mar 30, 2026 11:15:38.131524000 UTC
    UTC Arrival Time: Mar 30, 2026 11:15:38.131524000 UTC
    Epoch Arrival Time: 1774869338.131524000
    [Time shift for this packet: 0.000000000 seconds]
    [Time delta from previous captured frame: 0.001525000 seconds]
    [Time delta from previous displayed frame: 0.001525000 seconds]
    [Time since reference or first frame: 0.466840000 seconds]
    Frame Number: 10
    Frame Length: 2928 bytes (23424 bits)
    Capture Length: 2928 bytes (23424 bits)
    [Frame is marked: False]
    [Frame is ignored: False]
    [Protocols in frame: sll:ethertype:ip:tcp:tls]
Linux cooked capture v2
    Protocol: IPv4 (0x0800)
    Interface index: 4
    Link-layer address type: Ethernet (1)
    Packet type: Unicast to us (0)
    Link-layer address length: 6
    Source: 12:34:56:78:9a:bc (12:34:56:78:9a:bc)
    Unused: 0000
Internet Protocol Version 4, Src: 54.179.177.151, Dst: 10.1.0.31
    0100 .... = Version: 4
    .... 0101 = Header Length: 20 bytes (5)
    Differentiated Services Field: 0x00 (DSCP: CS0, ECN: Not-ECT)
        0000 00.. = Differentiated Services Codepoint: Default (0)
        .... ..00 = Explicit Congestion Notification: Not ECN-Capable Transport (0)
    Total Length: 2908
    Identification: 0xa093 (41107)
    010. .... = Flags: 0x2, Don't fragment
        0... .... = Reserved bit: Not set
        .1.. .... = Don't fragment: Set
        ..0. .... = More fragments: Not set
    ...0 0000 0000 0000 = Fragment Offset: 0
    Time to Live: 235
    Protocol: TCP (6)
    Header Checksum: 0xf19d [validation disabled]
    [Header checksum status: Unverified]
    Source Address: 54.179.177.151
    Destination Address: 10.1.0.31
Transmission Control Protocol, Src Port: 443, Dst Port: 51564, Seq: 1, Ack: 518, Len: 2856
    Source Port: 443
    Destination Port: 51564
    [Stream index: 0]
    [Conversation completeness: Incomplete, DATA (15)]
        ..0. .... = RST: Absent
        ...0 .... = FIN: Absent
        .... 1... = Data: Present
        .... .1.. = ACK: Present
        .... ..1. = SYN-ACK: Present
        .... ...1 = SYN: Present
        [Completeness Flags: ··DASS]
    [TCP Segment Len: 2856]
    Sequence Number: 1    (relative sequence number)
    Sequence Number (raw): 4133909141
    [Next Sequence Number: 2857    (relative sequence number)]
    Acknowledgment Number: 518    (relative ack number)
    Acknowledgment number (raw): 2292246227
    1000 .... = Header Length: 32 bytes (8)
    Flags: 0x010 (ACK)
        000. .... .... = Reserved: Not set
        ...0 .... .... = Accurate ECN: Not set
        .... 0... .... = Congestion Window Reduced: Not set
        .... .0.. .... = ECN-Echo: Not set
        .... ..0. .... = Urgent: Not set
        .... ...1 .... = Acknowledgment: Set
        .... .... 0... = Push: Not set
        .... .... .0.. = Reset: Not set
        .... .... ..0. = Syn: Not set
        .... .... ...0 = Fin: Not set
        [TCP Flags: ·······A····]
    Window: 117
    [Calculated window size: 29952]
    [Window size scaling factor: 256]
    Checksum: 0xfdb8 [unverified]
    [Checksum Status: Unverified]
    Urgent Pointer: 0
    Options: (12 bytes), No-Operation (NOP), No-Operation (NOP), Timestamps
        TCP Option - No-Operation (NOP)
            Kind: No-Operation (1)
        TCP Option - No-Operation (NOP)
            Kind: No-Operation (1)
        TCP Option - Timestamps
            Kind: Time Stamp Option (8)
            Length: 10
            Timestamp value: 1413135826: TSval 1413135826, TSecr 2146601116
            Timestamp echo reply: 2146601116
    [Timestamps]
        [Time since first frame in this TCP stream: 0.466840000 seconds]
        [Time since previous frame in this TCP stream: 0.001525000 seconds]
    [SEQ/ACK analysis]
        [iRTT: 0.221881000 seconds]
        [Bytes in flight: 2856]
        [Bytes sent since last PSH flag: 2856]
    TCP payload (2856 bytes)
    TCP segment data (2762 bytes)
Transport Layer Security
    TLSv1.2 Record Layer: Handshake Protocol: Server Hello
        Content Type: Handshake (22)
        Version: TLS 1.2 (0x0303)
        Length: 89
        Handshake Protocol: Server Hello
            Handshake Type: Server Hello (2)
            Length: 85
            Version: TLS 1.2 (0x0303)
            Random: cd96f01f689b6ba37f95796ab0f9f91f42cea923ea4e1396573a35b91b0f509f
                GMT Unix Time: Apr 20, 2079 12:59:11.000000000 UTC
                Random Bytes: 689b6ba37f95796ab0f9f91f42cea923ea4e1396573a35b91b0f509f
            Session ID Length: 32
            Session ID: 0b12736efcec278663a17b4afc1683aafcb66e61093f4d3c4be38cb6229d2ef1
            Cipher Suite: TLS_ECDHE_RSA_WITH_AES_128_GCM_SHA256 (0xc02f)
            Compression Method: null (0)
            Extensions Length: 13
            Extension: renegotiation_info (len=1)
                Type: renegotiation_info (65281)
                Length: 1
                Renegotiation Info extension
                    Renegotiation info extension length: 0
            Extension: ec_point_formats (len=4)
                Type: ec_point_formats (11)
                Length: 4
                EC point formats Length: 3
                Elliptic curves point formats (3)
                    EC point format: uncompressed (0)
                    EC point format: ansiX962_compressed_prime (1)
                    EC point format: ansiX962_compressed_char2 (2)
            [JA3S Fullstring: 771,49199,65281-11]
            [JA3S: 303951d4c50efb2e991652225a6f02b1]
    TLS segment data (2762 bytes)

0000  08 00 00 00 00 00 00 04 00 01 00 06 12 34 56 78   .............4Vx
0010  9a bc 00 00 45 00 0b 5c a0 93 40 00 eb 06 f1 9d   ....E..\..@.....
0020  36 b3 b1 97 0a 01 00 1f 01 bb c9 6c f6 66 72 95   6..........l.fr.
0030  88 a0 e6 d3 80 10 00 75 fd b8 00 00 01 01 08 0a   .......u........
0040  54 3a bd d2 7f f2 88 9c 16 03 03 00 59 02 00 00   T:..........Y...
0050  55 03 03 cd 96 f0 1f 68 9b 6b a3 7f 95 79 6a b0   U......h.k...yj.
0060  f9 f9 1f 42 ce a9 23 ea 4e 13 96 57 3a 35 b9 1b   ...B..#.N..W:5..
0070  0f 50 9f 20 0b 12 73 6e fc ec 27 86 63 a1 7b 4a   .P. ..sn..'.c.{J
0080  fc 16 83 aa fc b6 6e 61 09 3f 4d 3c 4b e3 8c b6   ......na.?M<K...
0090  22 9d 2e f1 c0 2f 00 00 0d ff 01 00 01 00 00 0b   "..../..........
00a0  00 04 03 00 01 02 16 03 03 0e c8 0b 00 0e c4 00   ................
00b0  0e c1 00 05 c0 30 82 05 bc 30 82 04 a4 a0 03 02   .....0...0......
00c0  01 02 02 10 0c 00 d2 0d 5f bc 30 f9 50 72 14 4d   ........_.0.Pr.M
00d0  78 62 f9 ac 30 0d 06 09 2a 86 48 86 f7 0d 01 01   xb..0...*.H.....
00e0  0b 05 00 30 3c 31 0b 30 09 06 03 55 04 06 13 02   ...0<1.0...U....
00f0  55 53 31 0f 30 0d 06 03 55 04 0a 13 06 41 6d 61   US1.0...U....Ama
0100  7a 6f 6e 31 1c 30 1a 06 03 55 04 03 13 13 41 6d   zon1.0...U....Am
0110  61 7a 6f 6e 20 52 53 41 20 32 30 34 38 20 4d 30   azon RSA 2048 M0
0120  34 30 1e 17 0d 32 35 30 39 31 30 30 30 30 30 30   40...25091000000
0130  30 5a 17 0d 32 36 31 30 30 39 32 33 35 39 35 39   0Z..261009235959
0140  5a 30 19 31 17 30 15 06 03 55 04 03 0c 0e 2a 2e   Z0.1.0...U....*.
0150  67 72 61 62 74 61 78 69 2e 63 6f 6d 30 82 01 22   grabtaxi.com0.."
0160  30 0d 06 09 2a 86 48 86 f7 0d 01 01 01 05 00 03   0...*.H.........
0170  82 01 0f 00 30 82 01 0a 02 82 01 01 00 af d9 81   ....0...........
0180  a5 a6 ab 71 76 e9 3a 9a b3 03 0d 01 5b aa 88 75   ...qv.:.....[..u
0190  d8 c9 67 5f 82 38 36 a5 cc e8 18 ab be 4b 0a d3   ..g_.86......K..
01a0  b7 83 23 70 3f 46 a5 0c 38 e6 28 50 e0 9b 67 73   ..#p?F..8.(P..gs
01b0  91 1d 44 64 ae a4 47 d6 a2 80 7f 53 9f f3 14 d5   ..Dd..G....S....
01c0  7c 17 a2 94 c2 b3 b7 e0 c3 41 39 24 73 50 10 93   |........A9$sP..
01d0  f3 ba 5a 8a fc 69 56 dc 90 1b 2f 85 f4 7d 0d 51   ..Z..iV.../..}.Q
01e0  c4 9b 10 66 fe 1d d8 fe b8 c5 b0 ca e2 d7 e6 15   ...f............
01f0  5a 9f 55 87 43 00 de 29 97 5b d8 fa d7 bd 99 cc   Z.U.C..).[......
0200  3f 64 fb c8 52 e9 08 62 9a 3b b8 ae a2 2a 8a 95   ?d..R..b.;...*..
0210  b8 35 3e a9 a5 32 6a 5c a2 af 1f 77 8f ef 0c 4d   .5>..2j\...w...M
0220  12 90 3d a6 10 06 1b d6 69 e4 49 95 6a 96 f6 c1   ..=.....i.I.j...
0230  3c 79 c8 ae 23 fa 9a ae 0c 2d d7 c4 a4 2d 2b 19   <y..#....-...-+.
0240  10 19 4a d9 c0 d3 8c f2 0b a1 53 fc 59 85 d3 52   ..J.......S.Y..R
0250  e9 7d 63 cf a4 7e 04 d9 a8 62 41 d3 38 17 0b c9   .}c..~...bA.8...
0260  1c 2f e0 ee 6c 79 ab 91 29 2b af c2 b4 19 a7 ab   ./..ly..)+......
0270  4f b2 ce f6 b4 69 3f f4 39 af c3 b3 6b 02 03 01   O....i?.9...k...
0280  00 01 a3 82 02 db 30 82 02 d7 30 1f 06 03 55 1d   ......0...0...U.
0290  23 04 18 30 16 80 14 1f 52 92 61 56 82 54 7f 81   #..0....R.aV.T..
02a0  66 d8 1d 3d 0a aa 32 5c 87 dd 08 30 1d 06 03 55   f..=..2\...0...U
02b0  1d 0e 04 16 04 14 81 2b a2 f2 c1 b9 54 25 fe ad   .......+....T%..
02c0  7d 3b b4 cc d0 93 9a f9 a0 26 30 19 06 03 55 1d   };.......&0...U.
02d0  11 04 12 30 10 82 0e 2a 2e 67 72 61 62 74 61 78   ...0...*.grabtax
02e0  69 2e 63 6f 6d 30 13 06 03 55 1d 20 04 0c 30 0a   i.com0...U. ..0.
02f0  30 08 06 06 67 81 0c 01 02 01 30 0e 06 03 55 1d   0...g.....0...U.
0300  0f 01 01 ff 04 04 03 02 05 a0 30 13 06 03 55 1d   ..........0...U.
0310  25 04 0c 30 0a 06 08 2b 06 01 05 05 07 03 01 30   %..0...+.......0
0320  3b 06 03 55 1d 1f 04 34 30 32 30 30 a0 2e a0 2c   ;..U...40200...,
0330  86 2a 68 74 74 70 3a 2f 2f 63 72 6c 2e 72 32 6d   .*http://crl.r2m
0340  30 34 2e 61 6d 61 7a 6f 6e 74 72 75 73 74 2e 63   04.amazontrust.c
0350  6f 6d 2f 72 32 6d 30 34 2e 63 72 6c 30 75 06 08   om/r2m04.crl0u..
0360  2b 06 01 05 05 07 01 01 04 69 30 67 30 2d 06 08   +........i0g0-..
0370  2b 06 01 05 05 07 30 01 86 21 68 74 74 70 3a 2f   +.....0..!http:/
0380  2f 6f 63 73 70 2e 72 32 6d 30 34 2e 61 6d 61 7a   /ocsp.r2m04.amaz
0390  6f 6e 74 72 75 73 74 2e 63 6f 6d 30 36 06 08 2b   ontrust.com06..+
03a0  06 01 05 05 07 30 02 86 2a 68 74 74 70 3a 2f 2f   .....0..*http://
03b0  63 72 74 2e 72 32 6d 30 34 2e 61 6d 61 7a 6f 6e   crt.r2m04.amazon
03c0  74 72 75 73 74 2e 63 6f 6d 2f 72 32 6d 30 34 2e   trust.com/r2m04.
03d0  63 65 72 30 0c 06 03 55 1d 13 01 01 ff 04 02 30   cer0...U.......0
03e0  00 30 82 01 7c 06 0a 2b 06 01 04 01 d6 79 02 04   .0..|..+.....y..
03f0  02 04 82 01 6c 04 82 01 68 01 66 00 75 00 d7 6d   ....l...h.f.u..m
0400  7d 10 d1 a7 f5 77 c2 c7 e9 5f d7 00 bf f9 82 c9   }....w..._......
0410  33 5a 65 e1 d0 b3 01 73 17 c0 c8 c5 69 77 00 00   3Ze....s....iw..
0420  01 99 31 01 fd 10 00 00 04 03 00 46 30 44 02 20   ..1........F0D. 
0430  3d 83 f4 5f 17 c6 c6 89 a7 1a 93 84 f0 29 d0 77   =.._.........).w
0440  05 cc f6 fb 7f ec fd ac 83 40 dd 0d 60 37 b7 63   .........@..`7.c
0450  02 20 4d 30 8c 75 92 43 16 47 2e 65 d9 1a df dc   . M0.u.C.G.e....
0460  ac 77 40 c7 f1 e3 0e b6 e9 ab 68 65 c3 4f a6 88   .w@.......he.O..
0470  66 de 00 75 00 c2 31 7e 57 45 19 a3 45 ee 7f 38   f..u..1~WE..E..8
0480  de b2 90 41 eb c7 c2 21 5a 22 bf 7f d5 b5 ad 76   ...A...!Z".....v
0490  9a d9 0e 52 cd 00 00 01 99 31 01 fd 52 00 00 04   ...R.....1..R...
04a0  03 00 46 30 44 02 20 3a 47 25 06 e3 3e 6f 73 9f   ..F0D. :G%..>os.
04b0  86 ea d4 f2 1a 63 17 7e 3c 01 ff 1b 9b fc c8 1a   .....c.~<.......
04c0  16 65 fb 62 85 ca f7 02 20 7f 35 0c 2c b9 d3 c0   .e.b.... .5.,...
04d0  fe 06 69 4e bd 67 b3 98 f5 f0 00 14 2d 2e 5b 54   ..iN.g......-.[T
04e0  06 f2 71 0c df 69 21 34 84 00 76 00 94 4e 43 87   ..q..i!4..v..NC.
04f0  fa ec c1 ef 81 f3 19 24 26 a8 18 65 01 c7 d3 5f   .......$&..e..._
0500  38 02 01 3f 72 67 7d 55 37 2e 19 d8 00 00 01 99   8..?rg}U7.......
0510  31 01 fd 50 00 00 04 03 00 47 30 45 02 21 00 80   1..P.....G0E.!..
0520  98 1e 39 9a dd 4b f7 a4 2f b2 02 13 f1 e9 6b 7b   ..9..K../.....k{
0530  e7 35 5e c1 02 11 75 3f 52 c3 75 c3 01 a8 6e 02   .5^...u?R.u...n.
0540  20 40 b6 ff 58 c2 93 77 4c c0 44 55 56 05 c2 32    @..X..wL.DUV..2
0550  96 49 4a 7d 6e 9a bf e6 c0 6e 66 fb 6d 3f 01 9f   .IJ}n....nf.m?..
0560  45 30 0d 06 09 2a 86 48 86 f7 0d 01 01 0b 05 00   E0...*.H........
0570  03 82 01 01 00 4f 7c c4 8f 9e de f6 ae f9 9d b2   .....O|.........
0580  5d 35 12 3c 9d 2b 4d fa d6 b9 29 37 42 cc 36 62   ]5.<.+M...)7B.6b
0590  de 9e 03 f3 a2 0c 37 cc 9f 14 58 35 12 9d ef 6f   ......7...X5...o
05a0  af 2a d5 73 1d 90 a4 e9 7e 57 0b c7 fc 68 28 25   .*.s....~W...h(%
05b0  bb 11 2f ff ae 39 3f 9e 47 00 e9 00 84 41 52 5f   ../..9?.G....AR_
05c0  19 77 dd ab 7b db 35 53 ee 55 b2 89 99 60 3b ba   .w..{.5S.U...`;.
05d0  ce a7 89 da 48 60 46 51 60 06 07 6f bd 20 38 73   ....H`FQ`..o. 8s
05e0  03 f8 72 f5 6b a2 4b d0 66 a2 0c c3 e5 18 a2 2a   ..r.k.K.f......*
05f0  eb e5 1b 3c d2 50 9f ac f1 f7 a7 cd b8 74 75 9f   ...<.P.......tu.
0600  9f d4 84 0e b6 02 e6 f9 8f 74 78 b1 67 28 98 3b   .........tx.g(.;
0610  16 16 4e 63 d7 46 8a 28 36 43 c0 45 e9 80 9b ff   ..Nc.F.(6C.E....
0620  97 d9 67 a8 09 86 63 80 dc 0c c9 fb 02 4d 1a d8   ..g...c......M..
0630  9e 47 d8 c3 11 06 03 0e 04 b6 49 e1 37 e9 69 40   .G........I.7.i@
0640  03 a3 e5 c3 da ee 60 fc cb cc 73 c4 78 28 92 71   ......`...s.x(.q
0650  15 51 d6 de 9b d1 c6 d1 c0 7d 23 2a b6 74 79 e0   .Q.......}#*.ty.
0660  15 10 97 e8 db 75 0c 58 8b 99 64 cd c8 af e7 9d   .....u.X..d.....
0670  d3 3c 31 91 e4 00 04 62 30 82 04 5e 30 82 03 46   .<1....b0..^0..F
0680  a0 03 02 01 02 02 13 07 73 12 4f 2a 95 2e 3e d1   ........s.O*..>.
0690  8a 58 bd b8 5d 1b c0 ce 5f 27 30 0d 06 09 2a 86   .X..]..._'0...*.
06a0  48 86 f7 0d 01 01 0b 05 00 30 39 31 0b 30 09 06   H........091.0..
06b0  03 55 04 06 13 02 55 53 31 0f 30 0d 06 03 55 04   .U....US1.0...U.
06c0  0a 13 06 41 6d 61 7a 6f 6e 31 19 30 17 06 03 55   ...Amazon1.0...U
06d0  04 03 13 10 41 6d 61 7a 6f 6e 20 52 6f 6f 74 20   ....Amazon Root 
06e0  43 41 20 31 30 1e 17 0d 32 32 30 38 32 33 32 32   CA 10...22082322
06f0  32 36 33 35 5a 17 0d 33 30 30 38 32 33 32 32 32   2635Z..300823222
0700  36 33 35 5a 30 3c 31 0b 30 09 06 03 55 04 06 13   635Z0<1.0...U...
0710  02 55 53 31 0f 30 0d 06 03 55 04 0a 13 06 41 6d   .US1.0...U....Am
0720  61 7a 6f 6e 31 1c 30 1a 06 03 55 04 03 13 13 41   azon1.0...U....A
0730  6d 61 7a 6f 6e 20 52 53 41 20 32 30 34 38 20 4d   mazon RSA 2048 M
0740  30 34 30 82 01 22 30 0d 06 09 2a 86 48 86 f7 0d   040.."0...*.H...
0750  01 01 01 05 00 03 82 01 0f 00 30 82 01 0a 02 82   ..........0.....
0760  01 01 00 cd e9 55 1e 80 95 03 a9 e3 17 bb ef a1   .....U..........
0770  5d 78 f5 f2 7a 38 00 df c9 98 c7 5a 2e f7 f8 eb   ]x..z8.....Z....
0780  a5 5e 92 7e 7f bf a2 a0 4a 83 08 58 e9 e3 ec 40   .^.~....J..X...@
0790  71 d0 6b 25 81 25 d0 67 bf 85 b3 df ad ea 44 8e   q.k%.%.g......D.
07a0  17 52 1f 6c c0 11 49 d7 54 e7 67 72 ea 38 cb c7   .R.l..I.T.gr.8..
07b0  99 6a b6 fa 5a 00 d1 03 ed 39 f5 dd 27 67 c7 04   .j..Z....9..'g..
07c0  ba c1 ae 78 2d 27 f1 81 d2 9e 68 94 05 58 ad 26   ...x-'....h..X.&
07d0  60 bd 01 8f d7 a4 5f f1 d7 6d 37 2c 44 12 16 26   `....._..m7,D..&
07e0  dc 7b a1 98 d8 be bd 27 80 ab 5b 4b 60 93 c0 bd   .{.....'..[K`...
07f0  10 97 a2 74 e9 59 d4 83 c5 8e a1 bd d9 b1 96 a4   ...t.Y..........
0800  d8 8b cd 80 b4 15 d2 7e 91 90 e7 c1 c7 33 48 70   .......~.....3Hp
0810  d0 2e 9a 41 a9 20 86 bc 16 8b 97 c6 b2 52 ce ab   ...A. .......R..
0820  3a 62 98 d3 08 b1 3e dc a9 ad 06 27 1e 89 7c aa   :b....>....'..|.
0830  89 aa 64 10 36 99 4e da 1f 27 f5 9b 05 26 00 68   ..d.6.N..'...&.h
0840  c2 87 f4 d6 9a 5d a0 b0 16 83 a7 1a 30 e3 34 a2   .....]......0.4.
0850  6f d5 20 b2 9a 6b 7d 05 f5 6f eb f1 08 da 87 b9   o. ..k}..o......
0860  6d 19 59 02 03 01 00 01 a3 82 01 5a 30 82 01 56   m.Y........Z0..V
0870  30 12 06 03 55 1d 13 01 01 ff 04 08 30 06 01 01   0...U.......0...
0880  ff 02 01 00 30 0e 06 03 55 1d 0f 01 01 ff 04 04   ....0...U.......
0890  03 02 01 86 30 1d 06 03 55 1d 25 04 16 30 14 06   ....0...U.%..0..
08a0  08 2b 06 01 05 05 07 03 01 06 08 2b 06 01 05 05   .+.........+....
08b0  07 03 02 30 1d 06 03 55 1d 0e 04 16 04 14 1f 52   ...0...U.......R
08c0  92 61 56 82 54 7f 81 66 d8 1d 3d 0a aa 32 5c 87   .aV.T..f..=..2\.
08d0  dd 08 30 1f 06 03 55 1d 23 04 18 30 16 80 14 84   ..0...U.#..0....
08e0  18 cc 85 34 ec bc 0c 94 94 2e 08 59 9c c7 b2 10   ...4.......Y....
08f0  4e 0a 08 30 7b 06 08 2b 06 01 05 05 07 01 01 04   N..0{..+........
0900  6f 30 6d 30 2f 06 08 2b 06 01 05 05 07 30 01 86   o0m0/..+.....0..
0910  23 68 74 74 70 3a 2f 2f 6f 63 73 70 2e 72 6f 6f   #http://ocsp.roo
0920  74 63 61 31 2e 61 6d 61 7a 6f 6e 74 72 75 73 74   tca1.amazontrust
0930  2e 63 6f 6d 30 3a 06 08 2b 06 01 05 05 07 30 02   .com0:..+.....0.
0940  86 2e 68 74 74 70 3a 2f 2f 63 72 74 2e 72 6f 6f   ..http://crt.roo
0950  74 63 61 31 2e 61 6d 61 7a 6f 6e 74 72 75 73 74   tca1.amazontrust
0960  2e 63 6f 6d 2f 72 6f 6f 74 63 61 31 2e 63 65 72   .com/rootca1.cer
0970  30 3f 06 03 55 1d 1f 04 38 30 36 30 34 a0 32 a0   0?..U...80604.2.
0980  30 86 2e 68 74 74 70 3a 2f 2f 63 72 6c 2e 72 6f   0..http://crl.ro
0990  6f 74 63 61 31 2e 61 6d 61 7a 6f 6e 74 72 75 73   otca1.amazontrus
09a0  74 2e 63 6f 6d 2f 72 6f 6f 74 63 61 31 2e 63 72   t.com/rootca1.cr
09b0  6c 30 13 06 03 55 1d 20 04 0c 30 0a 30 08 06 06   l0...U. ..0.0...
09c0  67 81 0c 01 02 01 30 0d 06 09 2a 86 48 86 f7 0d   g.....0...*.H...
09d0  01 01 0b 05 00 03 82 01 01 00 3e d4 ee 54 b0 06   ..........>..T..
09e0  8d b9 6d e5 1f 32 6d a4 d1 b0 06 76 5d f5 01 18   ..m..2m....v]...
09f0  16 dc 69 88 09 c8 69 5e 2a 02 99 c6 4b d3 82 c3   ..i...i^*...K...
0a00  96 4f c2 27 bb 61 29 43 64 5e 72 c8 53 ec 16 15   .O.'.a)Cd^r.S...
0a10  02 d9 0f 6e 24 76 3f 09 15 75 6f 98 48 88 61 f4   ...n$v?..uo.H.a.
0a20  fb af b0 e4 f8 0a 89 8d 4c 5a e5 93 f1 50 1a 26   ........LZ...P.&
0a30  31 71 be e8 4c ed af de 7c dd 93 23 0d 56 77 a5   1q..L...|..#.Vw.
0a40  82 97 a6 11 8a cb a7 8d 03 ab 48 ff ae 9e a0 bc   ..........H.....
0a50  03 9e 34 24 dc 99 d4 93 84 de 35 6a 6a dd ce 64   ..4$......5jj..d
0a60  11 a0 32 f8 a1 76 3d b0 63 6d c4 a7 07 ac ac a8   ..2..v=.cm......
0a70  90 ce 41 f3 9a f4 87 eb b3 d5 5b 8c 9c 6c fc b4   ..A.......[..l..
0a80  f0 75 59 9c 1c 59 e4 da e5 18 6f 5b c1 74 77 7c   .uY..Y....o[.tw|
0a90  d4 da cf e7 3e 12 3e 9c e4 09 f0 23 7a a4 38 58   ....>.>....#z.8X
0aa0  12 92 0d d8 ef 97 1d 17 3e a9 3b fa 25 2b e7 b7   ........>.;.%+..
0ab0  02 ac a0 01 cb f4 5a 3c e6 90 33 ee 06 3b 2c b9   ......Z<..3..;,.
0ac0  98 c2 1c c0 b9 ea 81 f7 18 99 15 db d0 e2 da 3e   ...............>
0ad0  69 ac 72 5b c1 98 c6 d6 29 d4 00 04 96 30 82 04   i.r[....)....0..
0ae0  92 30 82 03 7a a0 03 02 01 02 02 13 06 7f 94 4a   .0..z..........J
0af0  2a 27 cd f3 fa c2 ae 2b 01 f9 08 ee b9 c4 c6 30   *'.....+.......0
0b00  0d 06 09 2a 86 48 86 f7 0d 01 01 0b 05 00 30 81   ...*.H........0.
0b10  98 31 0b 30 09 06 03 55 04 06 13 02 55 53 31 10   .1.0...U....US1.
0b20  30 0e 06 03 55 04 08 13 07 41 72 69 7a 6f 6e 61   0...U....Arizona
0b30  31 13 30 11 06 03 55 04 07 13 0a 53 63 6f 74 74   1.0...U....Scott
0b40  73 64 61 6c 65 31 25 30 23 06 03 55 04 0a 13 1c   sdale1%0#..U....
0b50  53 74 61 72 66 69 65 6c 64 20 54 65 63 68 6e 6f   Starfield Techno
0b60  6c 6f 67 69 65 73 2c 20 49 6e 63 2e 31 3b 30 39   logies, Inc.1;09

Frame 11: 2928 bytes on wire (23424 bits), 2928 bytes captured (23424 bits)
    Encapsulation type: Linux cooked-mode capture v2 (210)
    Arrival Time: Mar 30, 2026 11:15:38.131524000 UTC
    UTC Arrival Time: Mar 30, 2026 11:15:38.131524000 UTC
    Epoch Arrival Time: 1774869338.131524000
    [Time shift for this packet: 0.000000000 seconds]
    [Time delta from previous captured frame: 0.000000000 seconds]
    [Time delta from previous displayed frame: 0.000000000 seconds]
    [Time since reference or first frame: 0.466840000 seconds]
    Frame Number: 11
    Frame Length: 2928 bytes (23424 bits)
    Capture Length: 2928 bytes (23424 bits)
    [Frame is marked: False]
    [Frame is ignored: False]
    [Protocols in frame: sll:ethertype:ip:tcp]
Linux cooked capture v2
    Protocol: IPv4 (0x0800)
    Interface index: 2
    Link-layer address type: Ethernet (1)
    Packet type: Unicast to us (0)
    Link-layer address length: 6
    Source: 12:34:56:78:9a:bc (12:34:56:78:9a:bc)
    Unused: 0000
Internet Protocol Version 4, Src: 54.179.177.151, Dst: 10.1.0.31
    0100 .... = Version: 4
    .... 0101 = Header Length: 20 bytes (5)
    Differentiated Services Field: 0x00 (DSCP: CS0, ECN: Not-ECT)
        0000 00.. = Differentiated Services Codepoint: Default (0)
        .... ..00 = Explicit Congestion Notification: Not ECN-Capable Transport (0)
    Total Length: 2908
    Identification: 0xa093 (41107)
    010. .... = Flags: 0x2, Don't fragment
        0... .... = Reserved bit: Not set
        .1.. .... = Don't fragment: Set
        ..0. .... = More fragments: Not set
    ...0 0000 0000 0000 = Fragment Offset: 0
    Time to Live: 235
    Protocol: TCP (6)
    Header Checksum: 0xf19d [validation disabled]
    [Header checksum status: Unverified]
    Source Address: 54.179.177.151
    Destination Address: 10.1.0.31
Transmission Control Protocol, Src Port: 443, Dst Port: 51564, Seq: 1, Ack: 518, Len: 2856
    Source Port: 443
    Destination Port: 51564
    [Stream index: 0]
    [Conversation completeness: Incomplete, DATA (15)]
        ..0. .... = RST: Absent
        ...0 .... = FIN: Absent
        .... 1... = Data: Present
        .... .1.. = ACK: Present
        .... ..1. = SYN-ACK: Present
        .... ...1 = SYN: Present
        [Completeness Flags: ··DASS]
    [TCP Segment Len: 2856]
    Sequence Number: 1    (relative sequence number)
    Sequence Number (raw): 4133909141
    [Next Sequence Number: 2857    (relative sequence number)]
    Acknowledgment Number: 518    (relative ack number)
    Acknowledgment number (raw): 2292246227
    1000 .... = Header Length: 32 bytes (8)
    Flags: 0x010 (ACK)
        000. .... .... = Reserved: Not set
        ...0 .... .... = Accurate ECN: Not set
        .... 0... .... = Congestion Window Reduced: Not set
        .... .0.. .... = ECN-Echo: Not set
        .... ..0. .... = Urgent: Not set
        .... ...1 .... = Acknowledgment: Set
        .... .... 0... = Push: Not set
        .... .... .0.. = Reset: Not set
        .... .... ..0. = Syn: Not set
        .... .... ...0 = Fin: Not set
        [TCP Flags: ·······A····]
    Window: 117
    [Calculated window size: 29952]
    [Window size scaling factor: 256]
    Checksum: 0xfdb8 [unverified]
    [Checksum Status: Unverified]
    Urgent Pointer: 0
    Options: (12 bytes), No-Operation (NOP), No-Operation (NOP), Timestamps
        TCP Option - No-Operation (NOP)
            Kind: No-Operation (1)
        TCP Option - No-Operation (NOP)
            Kind: No-Operation (1)
        TCP Option - Timestamps
            Kind: Time Stamp Option (8)
            Length: 10
            Timestamp value: 1413135826: TSval 1413135826, TSecr 2146601116
            Timestamp echo reply: 2146601116
    [Timestamps]
        [Time since first frame in this TCP stream: 0.466840000 seconds]
        [Time since previous frame in this TCP stream: 0.000000000 seconds]
    [SEQ/ACK analysis]
        [iRTT: 0.221881000 seconds]
        [Bytes in flight: 2856]
        [Bytes sent since last PSH flag: 5712]
        [TCP Analysis Flags]
            [Expert Info (Note/Sequence): This frame is a (suspected) retransmission]
                [This frame is a (suspected) retransmission]
                [Severity level: Note]
                [Group: Sequence]
    TCP payload (2856 bytes)
    Retransmitted TCP segment data (2856 bytes)

0000  08 00 00 00 00 00 00 02 00 01 00 06 12 34 56 78   .............4Vx
0010  9a bc 00 00 45 00 0b 5c a0 93 40 00 eb 06 f1 9d   ....E..\..@.....
0020  36 b3 b1 97 0a 01 00 1f 01 bb c9 6c f6 66 72 95   6..........l.fr.
0030  88 a0 e6 d3 80 10 00 75 fd b8 00 00 01 01 08 0a   .......u........
0040  54 3a bd d2 7f f2 88 9c 16 03 03 00 59 02 00 00   T:..........Y...
0050  55 03 03 cd 96 f0 1f 68 9b 6b a3 7f 95 79 6a b0   U......h.k...yj.
0060  f9 f9 1f 42 ce a9 23 ea 4e 13 96 57 3a 35 b9 1b   ...B..#.N..W:5..
0070  0f 50 9f 20 0b 12 73 6e fc ec 27 86 63 a1 7b 4a   .P. ..sn..'.c.{J
0080  fc 16 83 aa fc b6 6e 61 09 3f 4d 3c 4b e3 8c b6   ......na.?M<K...
0090  22 9d 2e f1 c0 2f 00 00 0d ff 01 00 01 00 00 0b   "..../..........
00a0  00 04 03 00 01 02 16 03 03 0e c8 0b 00 0e c4 00   ................
00b0  0e c1 00 05 c0 30 82 05 bc 30 82 04 a4 a0 03 02   .....0...0......
00c0  01 02 02 10 0c 00 d2 0d 5f bc 30 f9 50 72 14 4d   ........_.0.Pr.M
00d0  78 62 f9 ac 30 0d 06 09 2a 86 48 86 f7 0d 01 01   xb..0...*.H.....
00e0  0b 05 00 30 3c 31 0b 30 09 06 03 55 04 06 13 02   ...0<1.0...U....
00f0  55 53 31 0f 30 0d 06 03 55 04 0a 13 06 41 6d 61   US1.0...U....Ama
0100  7a 6f 6e 31 1c 30 1a 06 03 55 04 03 13 13 41 6d   zon1.0...U....Am
0110  61 7a 6f 6e 20 52 53 41 20 32 30 34 38 20 4d 30   azon RSA 2048 M0
0120  34 30 1e 17 0d 32 35 30 39 31 30 30 30 30 30 30   40...25091000000
0130  30 5a 17 0d 32 36 31 30 30 39 32 33 35 39 35 39   0Z..261009235959
0140  5a 30 19 31 17 30 15 06 03 55 04 03 0c 0e 2a 2e   Z0.1.0...U....*.
0150  67 72 61 62 74 61 78 69 2e 63 6f 6d 30 82 01 22   grabtaxi.com0.."
0160  30 0d 06 09 2a 86 48 86 f7 0d 01 01 01 05 00 03   0...*.H.........
0170  82 01 0f 00 30 82 01 0a 02 82 01 01 00 af d9 81   ....0...........
0180  a5 a6 ab 71 76 e9 3a 9a b3 03 0d 01 5b aa 88 75   ...qv.:.....[..u
0190  d8 c9 67 5f 82 38 36 a5 cc e8 18 ab be 4b 0a d3   ..g_.86......K..
01a0  b7 83 23 70 3f 46 a5 0c 38 e6 28 50 e0 9b 67 73   ..#p?F..8.(P..gs
01b0  91 1d 44 64 ae a4 47 d6 a2 80 7f 53 9f f3 14 d5   ..Dd..G....S....
01c0  7c 17 a2 94 c2 b3 b7 e0 c3 41 39 24 73 50 10 93   |........A9$sP..
01d0  f3 ba 5a 8a fc 69 56 dc 90 1b 2f 85 f4 7d 0d 51   ..Z..iV.../..}.Q
01e0  c4 9b 10 66 fe 1d d8 fe b8 c5 b0 ca e2 d7 e6 15   ...f............
01f0  5a 9f 55 87 43 00 de 29 97 5b d8 fa d7 bd 99 cc   Z.U.C..).[......
0200  3f 64 fb c8 52 e9 08 62 9a 3b b8 ae a2 2a 8a 95   ?d..R..b.;...*..
0210  b8 35 3e a9 a5 32 6a 5c a2 af 1f 77 8f ef 0c 4d   .5>..2j\...w...M
0220  12 90 3d a6 10 06 1b d6 69 e4 49 95 6a 96 f6 c1   ..=.....i.I.j...
0230  3c 79 c8 ae 23 fa 9a ae 0c 2d d7 c4 a4 2d 2b 19   <y..#....-...-+.
0240  10 19 4a d9 c0 d3 8c f2 0b a1 53 fc 59 85 d3 52   ..J.......S.Y..R
0250  e9 7d 63 cf a4 7e 04 d9 a8 62 41 d3 38 17 0b c9   .}c..~...bA.8...
0260  1c 2f e0 ee 6c 79 ab 91 29 2b af c2 b4 19 a7 ab   ./..ly..)+......
0270  4f b2 ce f6 b4 69 3f f4 39 af c3 b3 6b 02 03 01   O....i?.9...k...
0280  00 01 a3 82 02 db 30 82 02 d7 30 1f 06 03 55 1d   ......0...0...U.
0290  23 04 18 30 16 80 14 1f 52 92 61 56 82 54 7f 81   #..0....R.aV.T..
02a0  66 d8 1d 3d 0a aa 32 5c 87 dd 08 30 1d 06 03 55   f..=..2\...0...U
02b0  1d 0e 04 16 04 14 81 2b a2 f2 c1 b9 54 25 fe ad   .......+....T%..
02c0  7d 3b b4 cc d0 93 9a f9 a0 26 30 19 06 03 55 1d   };.......&0...U.
02d0  11 04 12 30 10 82 0e 2a 2e 67 72 61 62 74 61 78   ...0...*.grabtax
02e0  69 2e 63 6f 6d 30 13 06 03 55 1d 20 04 0c 30 0a   i.com0...U. ..0.
02f0  30 08 06 06 67 81 0c 01 02 01 30 0e 06 03 55 1d   0...g.....0...U.
0300  0f 01 01 ff 04 04 03 02 05 a0 30 13 06 03 55 1d   ..........0...U.
0310  25 04 0c 30 0a 06 08 2b 06 01 05 05 07 03 01 30   %..0...+.......0
0320  3b 06 03 55 1d 1f 04 34 30 32 30 30 a0 2e a0 2c   ;..U...40200...,
0330  86 2a 68 74 74 70 3a 2f 2f 63 72 6c 2e 72 32 6d   .*http://crl.r2m
0340  30 34 2e 61 6d 61 7a 6f 6e 74 72 75 73 74 2e 63   04.amazontrust.c
0350  6f 6d 2f 72 32 6d 30 34 2e 63 72 6c 30 75 06 08   om/r2m04.crl0u..
0360  2b 06 01 05 05 07 01 01 04 69 30 67 30 2d 06 08   +........i0g0-..
0370  2b 06 01 05 05 07 30 01 86 21 68 74 74 70 3a 2f   +.....0..!http:/
0380  2f 6f 63 73 70 2e 72 32 6d 30 34 2e 61 6d 61 7a   /ocsp.r2m04.amaz
0390  6f 6e 74 72 75 73 74 2e 63 6f 6d 30 36 06 08 2b   ontrust.com06..+
03a0  06 01 05 05 07 30 02 86 2a 68 74 74 70 3a 2f 2f   .....0..*http://
03b0  63 72 74 2e 72 32 6d 30 34 2e 61 6d 61 7a 6f 6e   crt.r2m04.amazon
03c0  74 72 75 73 74 2e 63 6f 6d 2f 72 32 6d 30 34 2e   trust.com/r2m04.
03d0  63 65 72 30 0c 06 03 55 1d 13 01 01 ff 04 02 30   cer0...U.......0
03e0  00 30 82 01 7c 06 0a 2b 06 01 04 01 d6 79 02 04   .0..|..+.....y..
03f0  02 04 82 01 6c 04 82 01 68 01 66 00 75 00 d7 6d   ....l...h.f.u..m
0400  7d 10 d1 a7 f5 77 c2 c7 e9 5f d7 00 bf f9 82 c9   }....w..._......
0410  33 5a 65 e1 d0 b3 01 73 17 c0 c8 c5 69 77 00 00   3Ze....s....iw..
0420  01 99 31 01 fd 10 00 00 04 03 00 46 30 44 02 20   ..1........F0D. 
0430  3d 83 f4 5f 17 c6 c6 89 a7 1a 93 84 f0 29 d0 77   =.._.........).w
0440  05 cc f6 fb 7f ec fd ac 83 40 dd 0d 60 37 b7 63   .........@..`7.c
0450  02 20 4d 30 8c 75 92 43 16 47 2e 65 d9 1a df dc   . M0.u.C.G.e....
0460  ac 77 40 c7 f1 e3 0e b6 e9 ab 68 65 c3 4f a6 88   .w@.......he.O..
0470  66 de 00 75 00 c2 31 7e 57 45 19 a3 45 ee 7f 38   f..u..1~WE..E..8
0480  de b2 90 41 eb c7 c2 21 5a 22 bf 7f d5 b5 ad 76   ...A...!Z".....v
0490  9a d9 0e 52 cd 00 00 01 99 31 01 fd 52 00 00 04   ...R.....1..R...
04a0  03 00 46 30 44 02 20 3a 47 25 06 e3 3e 6f 73 9f   ..F0D. :G%..>os.
04b0  86 ea d4 f2 1a 63 17 7e 3c 01 ff 1b 9b fc c8 1a   .....c.~<.......
04c0  16 65 fb 62 85 ca f7 02 20 7f 35 0c 2c b9 d3 c0   .e.b.... .5.,...
04d0  fe 06 69 4e bd 67 b3 98 f5 f0 00 14 2d 2e 5b 54   ..iN.g......-.[T
04e0  06 f2 71 0c df 69 21 34 84 00 76 00 94 4e 43 87   ..q..i!4..v..NC.
04f0  fa ec c1 ef 81 f3 19 24 26 a8 18 65 01 c7 d3 5f   .......$&..e..._
0500  38 02 01 3f 72 67 7d 55 37 2e 19 d8 00 00 01 99   8..?rg}U7.......
0510  31 01 fd 50 00 00 04 03 00 47 30 45 02 21 00 80   1..P.....G0E.!..
0520  98 1e 39 9a dd 4b f7 a4 2f b2 02 13 f1 e9 6b 7b   ..9..K../.....k{
0530  e7 35 5e c1 02 11 75 3f 52 c3 75 c3 01 a8 6e 02   .5^...u?R.u...n.
0540  20 40 b6 ff 58 c2 93 77 4c c0 44 55 56 05 c2 32    @..X..wL.DUV..2
0550  96 49 4a 7d 6e 9a bf e6 c0 6e 66 fb 6d 3f 01 9f   .IJ}n....nf.m?..
0560  45 30 0d 06 09 2a 86 48 86 f7 0d 01 01 0b 05 00   E0...*.H........
0570  03 82 01 01 00 4f 7c c4 8f 9e de f6 ae f9 9d b2   .....O|.........
0580  5d 35 12 3c 9d 2b 4d fa d6 b9 29 37 42 cc 36 62   ]5.<.+M...)7B.6b
0590  de 9e 03 f3 a2 0c 37 cc 9f 14 58 35 12 9d ef 6f   ......7...X5...o
05a0  af 2a d5 73 1d 90 a4 e9 7e 57 0b c7 fc 68 28 25   .*.s....~W...h(%
05b0  bb 11 2f ff ae 39 3f 9e 47 00 e9 00 84 41 52 5f   ../..9?.G....AR_
05c0  19 77 dd ab 7b db 35 53 ee 55 b2 89 99 60 3b ba   .w..{.5S.U...`;.
05d0  ce a7 89 da 48 60 46 51 60 06 07 6f bd 20 38 73   ....H`FQ`..o. 8s
05e0  03 f8 72 f5 6b a2 4b d0 66 a2 0c c3 e5 18 a2 2a   ..r.k.K.f......*
05f0  eb e5 1b 3c d2 50 9f ac f1 f7 a7 cd b8 74 75 9f   ...<.P.......tu.
0600  9f d4 84 0e b6 02 e6 f9 8f 74 78 b1 67 28 98 3b   .........tx.g(.;
0610  16 16 4e 63 d7 46 8a 28 36 43 c0 45 e9 80 9b ff   ..Nc.F.(6C.E....
0620  97 d9 67 a8 09 86 63 80 dc 0c c9 fb 02 4d 1a d8   ..g...c......M..
0630  9e 47 d8 c3 11 06 03 0e 04 b6 49 e1 37 e9 69 40   .G........I.7.i@
0640  03 a3 e5 c3 da ee 60 fc cb cc 73 c4 78 28 92 71   ......`...s.x(.q
0650  15 51 d6 de 9b d1 c6 d1 c0 7d 23 2a b6 74 79 e0   .Q.......}#*.ty.
0660  15 10 97 e8 db 75 0c 58 8b 99 64 cd c8 af e7 9d   .....u.X..d.....
0670  d3 3c 31 91 e4 00 04 62 30 82 04 5e 30 82 03 46   .<1....b0..^0..F
0680  a0 03 02 01 02 02 13 07 73 12 4f 2a 95 2e 3e d1   ........s.O*..>.
0690  8a 58 bd b8 5d 1b c0 ce 5f 27 30 0d 06 09 2a 86   .X..]..._'0...*.
06a0  48 86 f7 0d 01 01 0b 05 00 30 39 31 0b 30 09 06   H........091.0..
06b0  03 55 04 06 13 02 55 53 31 0f 30 0d 06 03 55 04   .U....US1.0...U.
06c0  0a 13 06 41 6d 61 7a 6f 6e 31 19 30 17 06 03 55   ...Amazon1.0...U
06d0  04 03 13 10 41 6d 61 7a 6f 6e 20 52 6f 6f 74 20   ....Amazon Root 
06e0  43 41 20 31 30 1e 17 0d 32 32 30 38 32 33 32 32   CA 10...22082322
06f0  32 36 33 35 5a 17 0d 33 30 30 38 32 33 32 32 32   2635Z..300823222
0700  36 33 35 5a 30 3c 31 0b 30 09 06 03 55 04 06 13   635Z0<1.0...U...
0710  02 55 53 31 0f 30 0d 06 03 55 04 0a 13 06 41 6d   .US1.0...U....Am
0720  61 7a 6f 6e 31 1c 30 1a 06 03 55 04 03 13 13 41   azon1.0...U....A
0730  6d 61 7a 6f 6e 20 52 53 41 20 32 30 34 38 20 4d   mazon RSA 2048 M
0740  30 34 30 82 01 22 30 0d 06 09 2a 86 48 86 f7 0d   040.."0...*.H...
0750  01 01 01 05 00 03 82 01 0f 00 30 82 01 0a 02 82   ..........0.....
0760  01 01 00 cd e9 55 1e 80 95 03 a9 e3 17 bb ef a1   .....U..........
0770  5d 78 f5 f2 7a 38 00 df c9 98 c7 5a 2e f7 f8 eb   ]x..z8.....Z....
0780  a5 5e 92 7e 7f bf a2 a0 4a 83 08 58 e9 e3 ec 40   .^.~....J..X...@
0790  71 d0 6b 25 81 25 d0 67 bf 85 b3 df ad ea 44 8e   q.k%.%.g......D.
07a0  17 52 1f 6c c0 11 49 d7 54 e7 67 72 ea 38 cb c7   .R.l..I.T.gr.8..
07b0  99 6a b6 fa 5a 00 d1 03 ed 39 f5 dd 27 67 c7 04   .j..Z....9..'g..
07c0  ba c1 ae 78 2d 27 f1 81 d2 9e 68 94 05 58 ad 26   ...x-'....h..X.&
07d0  60 bd 01 8f d7 a4 5f f1 d7 6d 37 2c 44 12 16 26   `....._..m7,D..&
07e0  dc 7b a1 98 d8 be bd 27 80 ab 5b 4b 60 93 c0 bd   .{.....'..[K`...
07f0  10 97 a2 74 e9 59 d4 83 c5 8e a1 bd d9 b1 96 a4   ...t.Y..........
0800  d8 8b cd 80 b4 15 d2 7e 91 90 e7 c1 c7 33 48 70   .......~.....3Hp
0810  d0 2e 9a 41 a9 20 86 bc 16 8b 97 c6 b2 52 ce ab   ...A. .......R..
0820  3a 62 98 d3 08 b1 3e dc a9 ad 06 27 1e 89 7c aa   :b....>....'..|.
0830  89 aa 64 10 36 99 4e da 1f 27 f5 9b 05 26 00 68   ..d.6.N..'...&.h
0840  c2 87 f4 d6 9a 5d a0 b0 16 83 a7 1a 30 e3 34 a2   .....]......0.4.
0850  6f d5 20 b2 9a 6b 7d 05 f5 6f eb f1 08 da 87 b9   o. ..k}..o......
0860  6d 19 59 02 03 01 00 01 a3 82 01 5a 30 82 01 56   m.Y........Z0..V
0870  30 12 06 03 55 1d 13 01 01 ff 04 08 30 06 01 01   0...U.......0...
0880  ff 02 01 00 30 0e 06 03 55 1d 0f 01 01 ff 04 04   ....0...U.......
0890  03 02 01 86 30 1d 06 03 55 1d 25 04 16 30 14 06   ....0...U.%..0..
08a0  08 2b 06 01 05 05 07 03 01 06 08 2b 06 01 05 05   .+.........+....
08b0  07 03 02 30 1d 06 03 55 1d 0e 04 16 04 14 1f 52   ...0...U.......R
08c0  92 61 56 82 54 7f 81 66 d8 1d 3d 0a aa 32 5c 87   .aV.T..f..=..2\.
08d0  dd 08 30 1f 06 03 55 1d 23 04 18 30 16 80 14 84   ..0...U.#..0....
08e0  18 cc 85 34 ec bc 0c 94 94 2e 08 59 9c c7 b2 10   ...4.......Y....
08f0  4e 0a 08 30 7b 06 08 2b 06 01 05 05 07 01 01 04   N..0{..+........
0900  6f 30 6d 30 2f 06 08 2b 06 01 05 05 07 30 01 86   o0m0/..+.....0..
0910  23 68 74 74 70 3a 2f 2f 6f 63 73 70 2e 72 6f 6f   #http://ocsp.roo
0920  74 63 61 31 2e 61 6d 61 7a 6f 6e 74 72 75 73 74   tca1.amazontrust
0930  2e 63 6f 6d 30 3a 06 08 2b 06 01 05 05 07 30 02   .com0:..+.....0.
0940  86 2e 68 74 74 70 3a 2f 2f 63 72 74 2e 72 6f 6f   ..http://crt.roo
0950  74 63 61 31 2e 61 6d 61 7a 6f 6e 74 72 75 73 74   tca1.amazontrust
0960  2e 63 6f 6d 2f 72 6f 6f 74 63 61 31 2e 63 65 72   .com/rootca1.cer
0970  30 3f 06 03 55 1d 1f 04 38 30 36 30 34 a0 32 a0   0?..U...80604.2.
0980  30 86 2e 68 74 74 70 3a 2f 2f 63 72 6c 2e 72 6f   0..http://crl.ro
0990  6f 74 63 61 31 2e 61 6d 61 7a 6f 6e 74 72 75 73   otca1.amazontrus
09a0  74 2e 63 6f 6d 2f 72 6f 6f 74 63 61 31 2e 63 72   t.com/rootca1.cr
09b0  6c 30 13 06 03 55 1d 20 04 0c 30 0a 30 08 06 06   l0...U. ..0.0...
09c0  67 81 0c 01 02 01 30 0d 06 09 2a 86 48 86 f7 0d   g.....0...*.H...
09d0  01 01 0b 05 00 03 82 01 01 00 3e d4 ee 54 b0 06   ..........>..T..
09e0  8d b9 6d e5 1f 32 6d a4 d1 b0 06 76 5d f5 01 18   ..m..2m....v]...
09f0  16 dc 69 88 09 c8 69 5e 2a 02 99 c6 4b d3 82 c3   ..i...i^*...K...
0a00  96 4f c2 27 bb 61 29 43 64 5e 72 c8 53 ec 16 15   .O.'.a)Cd^r.S...
0a10  02 d9 0f 6e 24 76 3f 09 15 75 6f 98 48 88 61 f4   ...n$v?..uo.H.a.
0a20  fb af b0 e4 f8 0a 89 8d 4c 5a e5 93 f1 50 1a 26   ........LZ...P.&
0a30  31 71 be e8 4c ed af de 7c dd 93 23 0d 56 77 a5   1q..L...|..#.Vw.
0a40  82 97 a6 11 8a cb a7 8d 03 ab 48 ff ae 9e a0 bc   ..........H.....
0a50  03 9e 34 24 dc 99 d4 93 84 de 35 6a 6a dd ce 64   ..4$......5jj..d
0a60  11 a0 32 f8 a1 76 3d b0 63 6d c4 a7 07 ac ac a8   ..2..v=.cm......
0a70  90 ce 41 f3 9a f4 87 eb b3 d5 5b 8c 9c 6c fc b4   ..A.......[..l..
0a80  f0 75 59 9c 1c 59 e4 da e5 18 6f 5b c1 74 77 7c   .uY..Y....o[.tw|
0a90  d4 da cf e7 3e 12 3e 9c e4 09 f0 23 7a a4 38 58   ....>.>....#z.8X
0aa0  12 92 0d d8 ef 97 1d 17 3e a9 3b fa 25 2b e7 b7   ........>.;.%+..
0ab0  02 ac a0 01 cb f4 5a 3c e6 90 33 ee 06 3b 2c b9   ......Z<..3..;,.
0ac0  98 c2 1c c0 b9 ea 81 f7 18 99 15 db d0 e2 da 3e   ...............>
0ad0  69 ac 72 5b c1 98 c6 d6 29 d4 00 04 96 30 82 04   i.r[....)....0..
0ae0  92 30 82 03 7a a0 03 02 01 02 02 13 06 7f 94 4a   .0..z..........J
0af0  2a 27 cd f3 fa c2 ae 2b 01 f9 08 ee b9 c4 c6 30   *'.....+.......0
0b00  0d 06 09 2a 86 48 86 f7 0d 01 01 0b 05 00 30 81   ...*.H........0.
0b10  98 31 0b 30 09 06 03 55 04 06 13 02 55 53 31 10   .1.0...U....US1.
0b20  30 0e 06 03 55 04 08 13 07 41 72 69 7a 6f 6e 61   0...U....Arizona
0b30  31 13 30 11 06 03 55 04 07 13 0a 53 63 6f 74 74   1.0...U....Scott
0b40  73 64 61 6c 65 31 25 30 23 06 03 55 04 0a 13 1c   sdale1%0#..U....
0b50  53 74 61 72 66 69 65 6c 64 20 54 65 63 68 6e 6f   Starfield Techno
0b60  6c 6f 67 69 65 73 2c 20 49 6e 63 2e 31 3b 30 39   logies, Inc.1;09

Frame 12: 72 bytes on wire (576 bits), 72 bytes captured (576 bits)
    Encapsulation type: Linux cooked-mode capture v2 (210)
    Arrival Time: Mar 30, 2026 11:15:38.131547000 UTC
    UTC Arrival Time: Mar 30, 2026 11:15:38.131547000 UTC
    Epoch Arrival Time: 1774869338.131547000
    [Time shift for this packet: 0.000000000 seconds]
    [Time delta from previous captured frame: 0.000023000 seconds]
    [Time delta from previous displayed frame: 0.000023000 seconds]
    [Time since reference or first frame: 0.466863000 seconds]
    Frame Number: 12
    Frame Length: 72 bytes (576 bits)
    Capture Length: 72 bytes (576 bits)
    [Frame is marked: False]
    [Frame is ignored: False]
    [Protocols in frame: sll:ethertype:ip:tcp]
Linux cooked capture v2
    Protocol: IPv4 (0x0800)
    Interface index: 2
    Link-layer address type: Ethernet (1)
    Packet type: Sent by us (4)
    Link-layer address length: 6
    Source: Microsoft_18:ac:b7 (00:0d:3a:18:ac:b7)
    Unused: 0000
Internet Protocol Version 4, Src: 10.1.0.31, Dst: 54.179.177.151
    0100 .... = Version: 4
    .... 0101 = Header Length: 20 bytes (5)
    Differentiated Services Field: 0x00 (DSCP: CS0, ECN: Not-ECT)
        0000 00.. = Differentiated Services Codepoint: Default (0)
        .... ..00 = Explicit Congestion Notification: Not ECN-Capable Transport (0)
    Total Length: 52
    Identification: 0x9806 (38918)
    010. .... = Flags: 0x2, Don't fragment
        0... .... = Reserved bit: Not set
        .1.. .... = Don't fragment: Set
        ..0. .... = More fragments: Not set
    ...0 0000 0000 0000 = Fragment Offset: 0
    Time to Live: 64
    Protocol: TCP (6)
    Header Checksum: 0xb053 [validation disabled]
    [Header checksum status: Unverified]
    Source Address: 10.1.0.31
    Destination Address: 54.179.177.151
Transmission Control Protocol, Src Port: 51564, Dst Port: 443, Seq: 518, Ack: 2857, Len: 0
    Source Port: 51564
    Destination Port: 443
    [Stream index: 0]
    [Conversation completeness: Incomplete, DATA (15)]
        ..0. .... = RST: Absent
        ...0 .... = FIN: Absent
        .... 1... = Data: Present
        .... .1.. = ACK: Present
        .... ..1. = SYN-ACK: Present
        .... ...1 = SYN: Present
        [Completeness Flags: ··DASS]
    [TCP Segment Len: 0]
    Sequence Number: 518    (relative sequence number)
    Sequence Number (raw): 2292246227
    [Next Sequence Number: 518    (relative sequence number)]
    Acknowledgment Number: 2857    (relative ack number)
    Acknowledgment number (raw): 4133911997
    1000 .... = Header Length: 32 bytes (8)
    Flags: 0x010 (ACK)
        000. .... .... = Reserved: Not set
        ...0 .... .... = Accurate ECN: Not set
        .... 0... .... = Congestion Window Reduced: Not set
        .... .0.. .... = ECN-Echo: Not set
        .... ..0. .... = Urgent: Not set
        .... ...1 .... = Acknowledgment: Set
        .... .... 0... = Push: Not set
        .... .... .0.. = Reset: Not set
        .... .... ..0. = Syn: Not set
        .... .... ...0 = Fin: Not set
        [TCP Flags: ·······A····]
    Window: 69
    [Calculated window size: 70656]
    [Window size scaling factor: 1024]
    Checksum: 0xf290 [unverified]
    [Checksum Status: Unverified]
    Urgent Pointer: 0
    Options: (12 bytes), No-Operation (NOP), No-Operation (NOP), Timestamps
        TCP Option - No-Operation (NOP)
            Kind: No-Operation (1)
        TCP Option - No-Operation (NOP)
            Kind: No-Operation (1)
        TCP Option - Timestamps
            Kind: Time Stamp Option (8)
            Length: 10
            Timestamp value: 2146601339: TSval 2146601339, TSecr 1413135826
            Timestamp echo reply: 1413135826
    [Timestamps]
        [Time since first frame in this TCP stream: 0.466863000 seconds]
        [Time since previous frame in this TCP stream: 0.000023000 seconds]
    [SEQ/ACK analysis]
        [This is an ACK to the segment in frame: 10]
        [The RTT to ACK the segment was: 0.000023000 seconds]
        [iRTT: 0.221881000 seconds]

0000  08 00 00 00 00 00 00 02 00 01 04 06 00 0d 3a 18   ..............:.
0010  ac b7 00 00 45 00 00 34 98 06 40 00 40 06 b0 53   ....E..4..@.@..S
0020  0a 01 00 1f 36 b3 b1 97 c9 6c 01 bb 88 a0 e6 d3   ....6....l......
0030  f6 66 7d bd 80 10 00 45 f2 90 00 00 01 01 08 0a   .f}....E........
0040  7f f2 89 7b 54 3a bd d2                           ...{T:..

Frame 13: 72 bytes on wire (576 bits), 72 bytes captured (576 bits)
    Encapsulation type: Linux cooked-mode capture v2 (210)
    Arrival Time: Mar 30, 2026 11:15:38.131550000 UTC
    UTC Arrival Time: Mar 30, 2026 11:15:38.131550000 UTC
    Epoch Arrival Time: 1774869338.131550000
    [Time shift for this packet: 0.000000000 seconds]
    [Time delta from previous captured frame: 0.000003000 seconds]
    [Time delta from previous displayed frame: 0.000003000 seconds]
    [Time since reference or first frame: 0.466866000 seconds]
    Frame Number: 13
    Frame Length: 72 bytes (576 bits)
    Capture Length: 72 bytes (576 bits)
    [Frame is marked: False]
    [Frame is ignored: False]
    [Protocols in frame: sll:ethertype:ip:tcp]
Linux cooked capture v2
    Protocol: IPv4 (0x0800)
    Interface index: 4
    Link-layer address type: Ethernet (1)
    Packet type: Sent by us (4)
    Link-layer address length: 6
    Source: Microsoft_18:ac:b7 (00:0d:3a:18:ac:b7)
    Unused: 0000
Internet Protocol Version 4, Src: 10.1.0.31, Dst: 54.179.177.151
    0100 .... = Version: 4
    .... 0101 = Header Length: 20 bytes (5)
    Differentiated Services Field: 0x00 (DSCP: CS0, ECN: Not-ECT)
